:10410000009000203D7E0300CD290300CD2903004F
:10411000CD290300CD290300CD290300CD290300BB
:10412000CD290300CD290300CD29030033A20200CD
:10413000CD290300CD290300D12903008D5C0300A4
:10414000CD290300CD290300CD290300CD2903008B
:10415000CD290300CD290300CD290300CD2903007B
:10416000CD290300CD290300CD290300CD2903006B
:10417000CD290300CD290300CD290300CD2903005B
:0C418000CD290300CD290300CD29030048
:10419000F0B5FFB086B00646202126F0ABFE0446FF
:1041A000471C1BA801250570207818901596701ED5
:1041B000F64BD42119915958C0B2A42216925043FB
:1041C0001A90081833F001FFE075607AA17A0902AD
:1041D0000E18EF48185CC00737D030F059FF0028A0
:1041E0001BD0607DC007C00D2FD11F2E28D9E948F4
:1041F0003018112804D829468140E748014224D1CB
:1042000030463138092804D829468140E348014224
:104210001BD11BA80021017036E034F039FB0AD015
:1042200030462138142810D829468140F7480142E9
:104230000BD08D214BE3607DC007C00D05D1EFE7AA
:104240002846B040F9490842D1D030B200281BD4EA
:1042500001235120C000CD4D1490295A002049055A
:1042600000D419E132463C3A91B20B291C4619465A
:1042700000D913E1EE480240EE48D0400123184037
:104280000E24D4401C4009E1EB483018322800D9F4
:104290007DE2800001A108588746C04631490000F0
:1042A000676A0000676A0000676A0000676A0000CA
:1042B000676A0000676A0000676A0000676A0000BA
:1042C000676A0000676A00009549000069430000C2
:1042D00069430000676A0000676A0000676A0000BF
:1042E000676A0000676A0000676A0000676A00008A
:1042F000676A000069430000676A0000676A00009F
:10430000676A0000676A0000676A0000AB49000046
:1043100069430000D948000069430000676A000053
:1043200069430000676A000021480000214800003E
:10433000676A0000676A000069430000676A00005E
:10434000676A0000676A0000694300006943000073
:1043500069430000E34900000B4A00006943000084
:1043600069430000694300008848199940581A9928
:10437000411834F09CF8012901D802F074FBAF4ACF
:10438000B218272A00D935E2920001A39A5897461D
:10439000554A0000554A0000554A0000676A00006F
:1043A000676A0000676A0000676A0000676A0000C9
:1043B000676A0000676A0000676A0000554A0000EB
:1043C000676A0000676A0000676A0000676A0000A9
:1043D000676A0000554A0000554A0000554A00002F
:1043E000554A0000676A0000554A0000676A0000ED
:1043F000676A0000554A0000676A0000676A0000AB
:1044000031440000676A0000676A0000676A0000C4
:104410005756000071560000554A0000554A0000EA
:10442000554A0000554A0000554A0000DF5600007A
:104430002024159D284634F047FD014653A834F04A
:104440002DFE7DA8002606805048199940581A99DB
:10445000401833F0A9FF0A7B18924F7B002F0ED132
:104460000C310079801E8D1CC4B22846214627F0ED
:10447000AFFC8F27002801D102F0C2F8159D3E2124
:1044800034F02EFD044618993E2E01D102F008FCAE
:104490000020A055761CF7E71C461946CA4AAB5CBB
:1044A00002252B405A425A410028084600D11046A6
:1044B000002803D0002C0ED18420FEE1062E01D866
:1044C0007B2000E07220C043062E00D9F5E10122D6
:1044D000544000D0F1E184203246203A272A179137
:1044E00000D98BE0930001A2D2589746A145000065
:1044F000FB4A0000F94A0000BB480000BB4800002E
:10450000BB480000BB480000BB480000BB4800009F
:10451000BB480000BB480000054B0000BB48000042
:10452000BB480000BB480000BB480000BB4800007F
:10453000994B0000F14B00008D4C0000AD4D000088
:10454000BB480000BB480000BB480000BD4E000057
:10455000ED4E0000BB480000BB480000554F000076
:10456000BB480000BB480000BB480000BB4800003F
:10457000BB480000F14F0000715000008351000063
:10458000D351000013520000855200002C2E002051
:10459000FC0800000080FFFF7F0003008303000091
:1045A0008A4D1998285833F056FD102801D201F091
:1045B00014FC8A79CB791B029A188F183C460C346C
:1045C000A17B4A0011461031814201D901F005FC5E
:1045D00026460F36B25C52005118814201D901F0D3
:1045E000FCFBE07A002803D0F12801D201F0D9FFCA
:1045F000822115982DF002FA02F031FA062E00D928
:1046000022E1B00002A108588746C0460304180002
:10461000A3520000475300004146000041460000FD
:10462000DD53000095540000435500007F002BE04F
:10463000FF0F0000F10F0000EB7FFFFFE07FFFFFA7
:10464000624D199C28591A9BC01833F08FFE01D86F
:1046500001F0C3FB33F062FD139031460D312AA8FF
:1046600034F076FD0F362021159C2046169126F059
:1046700041FC0746401C1890199828581A99401870
:104680000079C01EC1B2304627F0A2FB1A90002864
:104690000BD1189934F0D4F853A927F04BFE002819
:1046A00001D101F09DFB159C484D3E78042134F06A
:1046B000BBFD074613983870B9208300E85A2AA931
:1046C0000988884201D000F07AFF00200246787005
:1046D0001899087A497A09020818032801D101F0CB
:1046E000FBFA0228154601D001F002FB129317983D
:1046F000800217900D21159826F0B8FB0546344826
:1047000032490C1802221392284621461994314B43
:104710009847A078A870E81C2F492C4A5118139C80
:1047200022462C4B98472B4B199840796871A81D4D
:104730002A4A264989182246984728460830284997
:10474000224A51182246234B9847224B28460A30CA
:1047500024491E4A5118224698471998007B28730D
:104760001A4A1498105A179908420DD11B4B1E482B
:10477000105C800602D51A981C3005D01298115A88
:10478000D25A159831F044F8184D01F0B1FA184892
:104790003018062801D902F066F9800001A10858F6
:1047A0008746C046C1470000C1470000414A00009B
:1047B000454A0000614A00004148000041480000AD
:1047C00015982EF09DFA41E1140700002C2E0020D0
:1047D000E40700005D710300E7070000EA0700003E
:1047E000EC070000EE070000160500000280000044
:1047F0000080FFFFFC4AB218152A01D902F033F9F4
:10480000012393406F24234200D023E1042AF74D73
:104810001A9B00D132E1152A00D194E002F023F96D
:10482000F24833F09DF90B2901D202F01CF933F064
:1048300067FD927D0B328A4200D8A0E502F013F9A1
:10484000159830F069FA01E1152E36D1E74919982B
:10485000085833F0C1FB46182021159C20461A91B8
:1048600026F048FB054600781990307B18900D36ED
:1048700053AF0222384634F097FDFD48FB49085AF1
:1048800039880140398001D100F008FD042134F05D
:10489000CBFC1899017000214170801C53A934F0A1
:1048A00057FC6878A97809020A181A9819990140E2
:1048B0004B09F048214601F0DBFFB978FA78120283
:1048C0005118ED4A914201D902F0CDF8C1B21598C4
:1048D0002EF07AFA02F0C3F8E44833F041F90529E2
:1048E00001D202F0C0F833F00BFD137C002B00D195
:1048F000B0E00C3200270524002B01D101F06FFB42
:1049000027460C378F4201D902F0ADF81719FF7A0C
:10491000032F05D0012F01D002F0A5F80E3400E0DE
:1049200015348C4201D902F09EF85B1E2F46E3E756
:10493000CE48199940581A99401833F08BFF032834
:1049400001D802F090F834F028FAC84933F0C9F8D9
:10495000042A01D202F087F833F057FC8A78520615
:10496000C24B05D54278807800028018C34A98521D
:104970000878F921C900595C884201D002F073F827
:10498000BF48BA490858002801D102F06CF81599BF
:1049900001F035FFB548199940581A99401833F07D
:1049A00059FF012856D802F05EF8B04819994058CE
:1049B0001A9933F031FC427B842A4BD0002A01D073
:1049C00002F051F833F073FD052901D202F04BF8E3
:1049D0000C30007916224243501D88423AD902F029
:1049E00042F8A248199940581A99401833F032FFFA
:1049F00002282FD0032801D202F035F801D102F0AD
:104A000032F8C00726D102F02EF89848199940587C
:104A10001A99401833F0AAFC1CD0032901D202F0E5
:104A200022F88279C3791B029A1880180C30801CF6
:104A3000891EC9B227F0CCF900280BD002F013F878
:104A4000112100E00221159829F088F8002801D1F1
:104A500002F009F81BA915980FF096FB01F0FFFF73
:104A6000159830F059F9002801D101F0FCFF7F4D75
:104A7000199828581A9BC11833F019FDC01833F043
:104A800068FD8418207C491F0023814201D001F079
:104A9000E8FF0028159E1CD0082801D201F0E1FF94
:104AA0000C34E17A4A0016460836864201D901F0F4
:104AB000D8FF21460C318D5C6F00F6198642159E99
:104AC00001D001F0CEFF20460D302EF02BF82573DB
:104AD000664D892000012A58002A06D069493046CF
:104AE0009047002801D101F05AFD304623F098F894
:104AF0004342434101F0B5FF0021159811F0ACFB92
:104B000001F0ADFF2024159E304634F0DDF9054656
:104B1000C0782979090208185749884201D901F05B
:104B20009BFF28780007800F01D001F095FF68787F
:104B3000A9780902081818904C48199940581A99F0
:104B400033F06AFB027B1A920A79497909028A18C2
:104B50008027022A01D201F080FE0C30411C501E39
:104B6000C2B203202BF0A4FC002801D101F075FE95
:104B700053A92CF08BFB002801D001F06EFE53A846
:104B80000678471C002E01D101F065FE38462DF055
:104B9000EBF9761E0837F5E73448199940581A9909
:104BA000401833F052FE012901D801F016F933F014
:104BB000EFFB20211598189126F09CF901781691A9
:104BC00045788678207B1A9034F03EF8617B199105
:104BD000884201D800F091FD34F036F81999401A56
:104BE000C4B200F08BFDC0460080FFFF2C2E0020D9
:104BF0002024159D284634F067F91C4932F071FFD6
:104C0000012A01D802F05CF8421C33F0E2FD1A4B95
:104C10009A4201D901F0E1F806780C22324001D025
:104C200001F0DBF84278807800028018189033F0A9
:104C30005DFD09180F7B0D3153A834F023FB0521CE
:104C4000159D34F04DF9077084214170074819997A
:104C500040581A99401833F0F8FDC91E33F018FF78
:104C600026407309084801F095FCC0462C2E002010
:104C7000EC07000015800000F7FF0000760200003E
:104C8000C40700000480000032800000ED4819993C
:104C900040581A99441833F07EFD012801D801F0DC
:104CA0009CF8A579E67920211598129126F022F931
:104CB00033F031FCE44A914201D901F08EF80278D8
:104CC0000C21114001D001F088F8119231024919EC
:104CD00061184F7BDD4BDB4AD25CD41B0025BA4206
:104CE00000D22C460E7B032C00D30324401C1090D2
:104CF0001520139060430F90411D34F027FA067081
:104D00002A464570CF49D14BC95C8170C770047188
:104D1000451DE01914901346F8B21499814201D848
:104D200000F06CFD169317921897A721C900C54A89
:104D30005718F968C6008819C4795D20C000111899
:104D4000082234F01FFBB86803216143405C2872DD
:104D5000B868401841788078A8726972F86880193C
:104D60008079E87203280DD00128189F169B18D16E
:104D7000B448B7494058801901794079687329735C
:104D80000E230EE028460C30AE4CB14FE159891984
:104D9000097927F091FAE059801940792875139B19
:104DA000189FED18179AD2187F1CB5E7A54C199FCC
:104DB000E0591A9E80198179C2791202511845185A
:104DC00020211598169126F095F802460078149047
:104DD0001895294615460D3153A8092232F0BEF91F
:104DE000E059801933F036FD0A2801D200F0F5FFB2
:104DF0006F1CB878F978090208189649884201D3DF
:104E000000F0EBFFA87BE97B0902081832F00AFFEB
:104E1000002801D000F0E1FF5D20C000201853A958
:104E200034F03AF90028179905D08B4953A834F08B
:104E300033F9414241411A91A87BE97B09020C18E0
:104E4000687D1990844953A80822164631F002FB68
:104E5000139020462FF018FF044645424541002894
:104E6000189A01D101F02FFC7B4953A834F014F9B2
:104E7000002811D0794953A834F00EF900280BD03E
:104E800053A87DA933F0ECF9002805D17DA800785E
:104E900000212AAA23F01CFD611E204688416142A0
:104EA00061411A9E3140002C01D07B22D443189AD4
:104EB000012901D100F091FF01F00FFC002553956D
:104EC0006048199940581A99401833F0F0F933F0B6
:104ED00064FF1890387B1690787CFE2800D172E32E
:104EE000FF28179E00D072E309226EE30620C44318
:104EF00054481999405833F06FF8451833F04DFF76
:104F000002462B7B687BA61D002802D00B2800D808
:104F100065E31598002801D101F0A1FD501C8178AE
:104F2000C27812025118484A914201D900F055FF47
:104F300001784078000244182A2115981D4625F072
:104F4000D9FF2B4600212A2901D100F098FD33F02A
:104F50007FFDF8E72027159E304633F0FDFF03461E
:104F6000384D1998285833F076F801220228104657
:104F700018931A9201D201F047F9081D33F0ABF8EB
:104F8000374BEA540D310078401EC4B21E20224631
:104F90002BF08EFA002801D100F07DFD41788A1CAB
:104FA0000021A2420B4601D301F01DF982782D4D5C
:104FB00024494A5551000B1D641E0021A3420B4693
:104FC00001D301F010F9169727491E4B5C18C71C36
:104FD0000026D0B2864201D301F0FFF80422204619
:104FE00034F0E0F93F1D761C1648425D241DF0E7C1
:104FF0002021159E34F0C8F933F08DFA124A9142FF
:1050000001D901F029FD0178890601D401F024FDC0
:1050100041788078000244180A48199940581A9932
:1050200040188179C279120251184018057B33F07B
:105030007DFE05708D2141700C4831462246179B3C
:1050400001F016FC2C2E0020F7FF000039050000AF
:1050500044050000F8FF0000B0CA0300A8CA03001E
:1050600004090000090900000C090000428000004A
:105070002021159E3046169125F03CFF04464178CC
:105080008278FB48FB4B1B580127F80218400AD1D5
:10509000631C9E78DB781B029B19F74EB342159E6A
:1050A00001D301F0D9FC120251181891F149199A53
:1050B00089581A9A89188A79CB791B029A188A1802
:1050C000137B002806D1189800287ED1607DC00788
:1050D000C00D7AD0139414930C32541C0879401EDE
:1050E000C6B22AAA2046314630F0D2FFD6211A9005
:1050F0000028129114D12AA81990018839404842F9
:1051000048412BF0FFF9199F3888284040082AF0C1
:10511000A7FD388804210140880829F02DF80021D6
:10512000119153AA2046314630F0C3FF1990002850
:1051300004D1539825F04EFB002012907DAA204602
:10514000314630F069FE0746002801D100F028FD05
:1051500078427841199A514251411A9A002A179B74
:105160001A46139C00D00A46002A194600D101466F
:10517000D6201090012901D100F019FD802600F001
:1051800019FD2024159E304633F09EFE33F0C3F9FE
:10519000B94A914201D301F05FFC41788278120252
:1051A00051181891B34F199979581A9A8A1833F0EF
:1051B000B9F80D7BB14BFB5C1B0701D500F01BFF61
:1051C000189B002B01D100F010FF8D213046FFF716
:1051D0007FFB33F0E2FD33F09EF9A94A914201D9F9
:1051E00001F03DFC00781890A24C199EA0591A9924
:1051F00033F012F80D300979491EC9B200252A464C
:1052000024F06EF8002801D100F048FC802301F062
:105210009BFA2021159C34F0BBF833F07CF9964AB8
:1052200091423BD2411C0A78497809028918914A77
:1052300034D19249515C090703D4407DC007C00DA9
:105240002CD0199810581A994018017942791202F5
:1052500052188024022A11D333F07FFA41180D31FD
:10526000501EC2B204202BF023F9002806D053A907
:105270002CF00CF8002801D101F01CFB15982146F8
:10528000FFF726FB2021159C34F082F841788078C6
:10529000000245187A48854200D87AE1204601F09C
:1052A000DCFB78493EA801807249199808581A9980
:1052B000401833F0CAFA0A2901D800F08EFD32F006
:1052C000AEFE16900D31704C2AAF0A223846A04728
:1052D0007DA808221A923946A0472024159E304600
:1052E00033F0F2FD014653AD284619942246664B31
:1052F0009847287817900C213046149124F0B8FC78
:1053000005465D20C0005B490C46081839461A9ACC
:1053100031F0A0F8002801D100F018FC2AA846A915
:1053200030F094FE002801D000F019FC4698007877
:1053300006210140042901D000F011FC2AA830F018
:10534000DBFC00F006FC4B4D199EA8591A9FC019B2
:1053500033F080FA042801D800F03FFD4B494A4C55
:105360002AA80822A047A859C01932F058FE179061
:105370000D3146AD04222846A0472024159E304614
:1053800033F0A2FD014653AF38461A9422463E4CF4
:10539000A047387819903EAF022238462946A047E8
:1053A0000C21304624F064FC0546B92080003149C8
:1053B000085A3F88B84200D035E246A88678022EC7
:1053C00001D200F0AEFC199F5D20C00029490918E8
:1053D0002AA833F033FE8021159E39E22549199819
:1053E00008581A9940180179427912025118032974
:1053F00001D800F0F2FC32F08AFE0D3053902AAD55
:1054000053A9284632F0F4FB539804782021159FC5
:105410003846199125F06EFD0178179133F094F814
:1054200018900521384624F023FC07460670002614
:105430000671B92080000F49085A2988884200D097
:105440001CE2002C01D100F073FE1148094A105CE7
:10545000412149015118002801D100F057FC04C92D
:1054600013789C4200D03246401E1646F3E7C046F1
:10547000140500002C2E0020F8FF00001505000088
:10548000F7FF0000FFFF00005D710300A8CA0300E2
:1054900034080000FB49199808581A99401832F04E
:1054A00065FF01D800F099FC32F0B9FD18900D317C
:1054B000F54B2AAD022628463246984720241598F7
:1054C00033F002FD014653AF38461A942246FC4C95
:1054D000A047387819907DAF384629463246A04714
:1054E000B9208000F5490E5A38882D88864200D0B0
:1054F000CCE18127AE4200D0C9E1F24DEF4C605DB6
:10550000002801D101F048F8401DC1B233F01EFE61
:105510001899017000274770801C314632F08BFBD0
:10552000615D0170412149016118401C1A9CE34AE8
:10553000525D974200D3B7E104C91278C2557F1C6F
:10554000F5E72021159E30460E9125F0D3FC411C35
:10555000189100780D900020D84B052803D02AA977
:1055600033F032FAF9E71998185832F074FD072829
:1055700001D201F071FA8A79CB791B029A188F183F
:10558000797C831F4A00511C8B4200D2A6E1002186
:10559000A5E1CA48199940581A99401832F0F8FE06
:1055A0000079401E277B0D3433F08AFA00281895C5
:1055B00000D18EE21C3000D189E3282088E38020CE
:1055C0007870002594E30722179E354623E30628CA
:1055D00000D20125062800D21CE306221BE3169206
:1055E00018938200931CB549199C09591A9C0919F2
:1055F0000C79497909020C19A34200D9EDE3294637
:105600000E318F5CFF2F00D1131DFE2F01D103231C
:105610001343A34200D9E0E38A18541CFE2F01D0A3
:1056200000F0CDFF0128189B169A00D071E4257870
:1056300053A833F063FC539E30462BF009FB00283F
:1056400000D1CAE3700100D1C7E33046294625F0F6
:10565000D9FC01F0E2F90622D7431A9A801832F0F9
:1056600078FF8218537B922B00D171E3B81D70E351
:105670002021159E33F088FE0178890604D532F08A
:1056800063FF01D100F0BCFE9120C0008B490818D7
:1056900033F06CFD04468C48844201D101F0DCF902
:1056A000204631F053F9014653AD2C2233F06AFE07
:1056B000288DC00501D401F0CFF953AD284618302C
:1056C0002AA933F0BDFC5D980821C943F83901408F
:1056D00029852846214622F00BFF01F0BDF91A9AD0
:1056E000801832F036FF851800244F941C946A7B92
:1056F000002A00D066E3104665E300243002032C44
:1057000000D303244019149016206043411D33F048
:105710001DFD07461A98387000257D7033F094FA05
:105720002B46B870199AFA703C717E1D1799C807FC
:1057300059D0200657D0E3208500604840590078B2
:105740000021C007F3D0D8B2904249D317938920E3
:1057500080005A490918082233F0FAFB3046083015
:10576000564949598A7953A928F000FF534B539859
:105770003074000A7074B07CFC210140B174595936
:1057800009784907890F8C2202408818B07459594A
:1057900049784907490E0918B17458590278F3201D
:1057A0000840510707D404210843B0745859417B7D
:1057B0000120084007E0B0745959497BC907490FD7
:1057C0000143B1740020F074585900784006000F6E
:1057D00030755859C0787075641E1636199A179B23
:1057E0005B1C0021A3E71A9838701898169901409D
:1057F0004B0936481599149A01F03AF8D0B20F992E
:10580000814207D9401A2D4932F06BF910180871FE
:10581000000A4871109932F0F0FF12981199014076
:105820004B092B486FE27DA9384630F020FC002858
:1058300006D17D98007806210140042900D1BCE5FD
:1058400018980007800F01D001F006F9199F8121F7
:105850001A9C179828706970A81C2AA933F0EEFBCF
:105860000A353EA9022233F08DFD53A84178807895
:105870000002421827407B0916488EE1802078708C
:1058800000F09DFC2C2E00205D71030080271A9CE7
:10589000052133F05BFC189901704770801C294684
:1058A00032F0C9F90021017053A8417880780002D4
:1058B0004218199820404309074824E22C2E002062
:1058C0005D71030034080000FFFF0000318000001C
:1058D00033800000018000000580000001213C466B
:1058E0001234A35C0625ED43AA1A10185A00904200
:1058F000179800D30846012801D101F0ADF80C3704
:1059000038780990791C53ADA81C022633F022FB8D
:10591000F91C281D33F01EFB7F79AF717E00A05D5E
:10592000E8710546189908780890487807908878B3
:105930000B90C8780A90E8194006010E159825F0DA
:10594000D9FA3A46002F1697139004D0214630F02A
:1059500061F8169A0446002D2F46FA4D06D0611CB8
:10596000139880193A4630F055F8169A1897B920CE
:1059700080000590285A53A949880C91884205D087
:10598000F1480C99814201D800F0AFFCEF482C5C43
:1059900053A8808811901398801912900020064611
:1059A00006901A9015980F94A64201D100F0A2FC1F
:1059B000B1006B18412149015D586B78A978090243
:1059C000C918119B994202D0FA498B4254D11096C2
:1059D000A87919900023184619998B4221D2C10742
:1059E0001FD1149359006E1808360024139F944257
:1059F00014D2C10712D1317873781B0259183B8831
:105A0000994208D12A781A98C1B22AA82EF0E6FC49
:105A1000169A1A901798641CBF1CE8E7149B5B1C2D
:105A2000DAE7E9791491002614998E4221D2C10750
:105A30001FD10027129C18998F4218D2C10716D186
:105A400019997118490069180B7A497A0902C9181D
:105A50002388994208D12A781A98C1B22AA82EF030
:105A6000BDFC169A1A9017987F1CA41CE3E7761CBD
:105A7000DAE715980F9C109E761CCD4D94E7711EA9
:105A80008E41F10141700370C484282101224254E7
:105A9000159800F0F6FF00210B46A4E3C6482058F5
:105AA000817A8623022901D900F04EFEC34AA25C06
:105AB000CA40D10701D100F047FEC149BC4A515A42
:105AC0000022490701D500F038FE179D134600F06B
:105AD0003BFE2120214632462AF0EAFC0646002001
:105AE0001790002E00D1F5E3B11C7DAC08252046AF
:105AF00033F05CFA0A3646A8314633F057FA0221F1
:105B0000204628F005FB002801D100F098FC06464D
:105B100005462835687800020024000513D40120CA
:105B2000C00217907DA833F021FB01462820325C8B
:105B30006B781B029A18179B1A433254100A68702C
:105B4000304622F0D5FC159D00F07CFCB920800089
:105B5000205A3EA908809749884200D05FE11898F2
:105B60000007800F01D000F077FF179F812416985F
:105B700028706C70A81C7DA933F060FA0A353EA924
:105B8000022233F0FFFB53A84178807800024218CC
:105B9000199807407B090120C003314600F068FED8
:105BA0007DA800882CF024FB00201090139C33F07B
:105BB00027FB00261A98454245412478022133F0FC
:105BC000C5FA1499017046701998002800D16D1C0F
:105BD000002F159E00D16D1C002D01D100F00BFC93
:105BE000022133F0A5FB0021017069004170012101
:105BF00033F09EFB002800D1FDE305701A980028C1
:105C000000D169E31998002800D1E2E3002F00D009
:105C1000F1E3EBE307226648199940581A994018B6
:105C2000017940790002431800209A42314600D899
:105C300001469A4200D906461A913C460C340D376B
:105C40002E40012E1392129307D1A01D149053A839
:105C5000042233F0A7FB539800E0149718994F1CC7
:105C60000621CD4319902AF0F3FFAD1D002E2AD056
:105C70006279FE2A1799159E00D1014601291998CB
:105C800001D000F0D0FE1F21CC060646A6431AD054
:105C90001897B9218B004649CB18197C59188F7B6E
:105CA000C10E8F4201D000F0C5FDFF2A01D100F0E6
:105CB000ADFDFE2A01D000F0C1FD1499097825F050
:105CC000A1F900F0B6FD1A9A159E00F0ADFE29204C
:105CD000C443159D0026B5E32C4602251598294698
:105CE00025F0C4F8E549611833F060F9E448451C33
:105CF000B81C2AA933F02CFA189932F07EFD1698B8
:105D000006407309A8B2159900F0B2FD002E00D02C
:105D100011E2002C03D0FF2C01D000F0B5FD822051
:105D2000ADE52AA9384626F005FB002800D143E35B
:105D30000020159E082800D182E52AA932F02CFF08
:105D4000F8E7C0462C2E0020F7FF000034080000C2
:105D5000F81C002B72D00025011D00D1FEE20028A6
:105D600000D09EE0002D01D100F085FD28462830AE
:105D70002826A95D407800024018C10501D500F031
:105D800086FD2946183153AC102233F065FAA85D20
:105D90008006400F0022032100AB17C3049220A805
:105DA0001CA9012317F0C0FA159C014D00F0F6FE66
:105DB0002C2E0020FFFF00003C09000034090000E9
:105DC00004050000E0438E1E0E35002A03D1F1B217
:105DD000284625F0FDFF002872D0159800F03DFE02
:105DE00053A833F081F8002801D1FEF75CFC02468D
:105DF00028322823C15C567836027618310501D541
:105E0000FEF751FC0121CC029E499F4D695C26435F
:105E1000C654330A537022F06BFBFEF744FC2AA8E9
:105E2000007A022800D2B1E2189814990840082894
:105E300001D100F011FE179F802498E60C32951CCA
:105E4000881E32F049FE00282BD190498E484458D4
:105E500001201A90294632462AF02AFB054640784E
:105E6000401CC0B228281CD3002D1AD04C34A91CC9
:105E700020A81990082633F06DF80A352022204614
:105E80002946189231F06AF99120C4007E48001921
:105E900017901999324630F0DDFA002801D100F050
:105EA00086FE7A4C784D295900221598E02A02D0B6
:105EB00032F0D6FDFAE72A59FF21517000F0CDFDEE
:105EC000F2B2222029461A922AF0F2FA002884D04F
:105ED0000746811C7DA819900826324618966C4BFF
:105EE000984739460A3146A83246694B98473946A1
:105EF00012314FA804263246654B98473946163171
:105F00001CA83246624EB0471A373EA83946189A46
:105F1000B04702261998314628F0FAF8002800D137
:105F20005BE707462C942B942A942AA8199017967D
:105F300006460836222029461A9A2AF0B9FA1890FD
:105F40007DA908221A92199D2846514B98471CA9F1
:105F50000422169230464E4B98471798287322AE6B
:105F60004FA93046169A4A4B9847083753AD10222E
:105F700028463946464B9847229830F02BF922AEF6
:105F80000096162328461999189A2CF035F83EA940
:105F900030461A9A30F05EFA002800D01DE77DA83E
:105FA00033F0E4F84F993B4A374EB35800011B18C1
:105FB0000D0EDD710D0C9D710D0A5D711971B158D9
:105FC0000818C17A0906344A521C0A43110EC172DC
:105FD000324834543248214633F0DEF9FDE6FA0700
:105FE00001D0FEF7CCF900F03EFD437DDB07DB0D71
:105FF00001D1FFF7EAF80C314F78402F01D900F0BA
:106000002BFD32F059FA921EBA4201D200F024FD63
:106010001A94891C0078199053AC204633F0B0F9DB
:1060200032F084FE0570002646702046002F00D115
:1060300049E1044605782820294631F007F9293836
:1060400009286BD8800001A10858874675600000B8
:10605000A5600000B5600000C56000001D61000083
:106060001D610000D76000001D6100001D6100007F
:10607000EB60000015982FF06BFC4FE0F10700007B
:106080000280FFFFB50400002C2E00203C09000018
:106090005D710300E4040000FFFFFF072A05000014
:1060A000217A03002A2133F0C1F8002836D01721C5
:1060B000490104E02B2133F0B9F88D218900ED4A24
:1060C000511828E02C2133F0B1F823210901E94AC5
:1060D0005118042220E0B9208000E64A115AE6480F
:1060E000125A15982FF094FB18E0E248E349415CFE
:1060F00001200840490700D5801C2AA90880DD49F5
:10610000149A895CC90702D0001D2AA9088032218F
:1061100033F08CF82AA9022231F020F82A2DD54933
:1061200002D1172040010E522046601C7F1E7DE7E1
:10613000D348D0490E18B079F179081840000830DA
:1061400000257D7016973871C1B2159824F08EFE27
:106150000746082233F028F9B079B871F079FC1DB0
:106160001A97F87153A9087037460837B0798542F5
:1061700007D20222204633F015F96D1CBF1CA41C67
:10618000F4E70446169FE1B2C0B2F27910188842D3
:106190000DD9E8B240001A9A101808304900711859
:1061A000083132F0D5FF6D1C641CB079EBE71A9909
:1061B000887940000818C01D53A933F063F8159C76
:1061C000199D189EB81C2AA932F0C2FF17982840C2
:1061D0004309AC48214632464AE338780121014060
:1061E000179B159E169FA848A24A105C4242424146
:1061F00013424DD1002B4BD0002901D0042000E0E8
:1062000001209C4D1A9A189B16979C496C18A272F3
:1062100059789A7812025118E18019788906C90FC5
:106220006172E072002020730627304632F094FE3F
:10623000217B964AAA1831F0B9FD1F22D2060B46DF
:10624000934301700A0C8270090A4170190EC170E3
:10625000E17A41718E482C5C1A9804405F20C0009E
:10626000285C45424541002C00D1179D159E3046C3
:1062700032F072FE002C169F0AD0002D08D0407913
:10628000012805D18348002231462EF0D5FEE6E3F1
:10629000189A5078917809020D18147832F046FD5A
:1062A0007D49744A525C521CD3B2FF2B00D10022AC
:1062B000704B5A540270802141703C40630977480A
:1062C00031462A46D4E21A98199901404B0974487C
:1062D0001599CCE2D624B3E032213046119A2FF042
:1062E000BFFA002800D086E08CE4802006900020D1
:1062F0001A9015981A99002907D10A9909020B9A40
:106300008918684A914200D9A7E307990902089AB7
:106310008D181A99491D23F0ABFC064661480C9A6A
:10632000824205D953480599405A7DA9088001E069
:106330007DA90A80B01C32F00BFF099830701A9AC0
:106340003271701D2AA930F009FF069870700E98FE
:106350000D9901404B0954481599B2E70421159C49
:1063600033F016F8002101805049424B5958897882
:1063700001220A40827003D04D49595C2EF0ACFBDB
:106380004C48A5214A0033F001F868E3179F002428
:10639000012801D0FFF7EBFB012132F0C9FFE32117
:1063A0008900344A5158097807220A40511F4A424D
:1063B0004A410270FFF7DBFB199F012E1A9C00D0A7
:1063C00020E20121159E32F0B3FF00210170FFF79A
:1063D00040FA781E87412C213046129A2FF040FA5D
:1063E0000028179800D13846002804D12B213046C8
:1063F000109A2FF035FA1698044063092E4835E2BA
:106400001C48199940581A99401831F0C1FF0E34B0
:106410000079801EC5B22046294625F0D9FC002807
:1064200000D019E32D20214632F04AFF002800D188
:1064300012E3811C2AA832F003FEFFF725F9862417
:10644000159D179E022132F04BFD07704470200607
:1064500000D09DE017967DA8022631462FF05EFC05
:1064600013900020034B0D2828D02AA932F0ACFA53
:10647000F9E7C0462C2E0020EA070000FC080000C7
:10648000F307000004800000090900000C09000067
:106490000C050000C1FD0200440700003C80000024
:1064A00044800000F7FF0000068000003C09000067
:1064B000FA020000AD520200438000005D20C000DF
:1064C00019181691F94C1F462AAD08221492284635
:1064D000A047F74978580C463B4613990F01C0195D
:1064E000817BC27B1202511812912C912E73491C90
:1064F0008173090AC1731859C1193EAE042213925F
:106500003046EA4CA0471799083153AD102228466F
:10651000A0473E982FF05EFEFB48FA494058C1194B
:10652000C05D31F03DF93E90129822902221159DD8
:1065300028462DF0FFFC04461699149F3A46F04E6B
:10654000B0472046083046A93A46B04720461030AA
:106550003EA9139F3A46B0472046143022A93A4636
:10656000B04718340020082802D032F00DFAFAE7BC
:10657000E54E1998305831F02FFD42180E32009434
:1065800053A82AA916232BF037FDE520C000355467
:10659000DE48002329466AE13546FFF778F90123F2
:1065A0005FE2DB4829462D5C002D00D111E2D9487D
:1065B000085C002800D16BE28521FEF71AF8FF2F56
:1065C00000D112E2052F189B169A01D9FEF7A1FC03
:1065D000012801D0FEF79DFC267853A832F08EFCEE
:1065E00053991798009015983A46334620F084FF47
:1065F000169A189B0646002801D0FEF78AFC2EE268
:106600007DAA284621462FF0EFF81F202946224672
:1066100029F04EFF002801D1FDF730FF4178032912
:1066200001D2FDF72BFF81782AAA1170C178517031
:10663000017991704079D0703821159828F0D4FDF7
:106640001790B148199940581A99401831F0ACFE8A
:1066500046312020224629F02BFF002801D1FDF7EA
:106660000DFF16904078032801D2FDF707FF179819
:10667000801C169DA91C32F06BFD287917990871B2
:10668000687948716978C91E032242439142159D79
:1066900001D0FDF7F4FE16998E1D179D09350027D0
:1066A000092F00D9D7E2C0B2874200D3D3E2E81E57
:1066B000022232F079FEB07828707F1C179840795A
:1066C0006D1DF61CECE790489349405C000700D52F
:1066D00038E100200446179D1A9E0C32002E17D078
:1066E0008E49894D695C890701D4FFF776FB164610
:1066F000002800D05BE153A8007AC00988496A5C91
:10670000FE231340181868548648159929544EE101
:10671000164617957720C1007B4B5A5C7520C00048
:1067200018180023042B00D122E101259D401542B9
:1067300000D11FE15B1C001DF4E7C07AFF28179D04
:10674000134601D18B2300256F4880591A994018B0
:1067500031F012FE077B0221159C20461A911E463D
:1067600023F086FA07702F464670002D0ED06E4833
:1067700065490858867AC77A002120462DF0DAFB51
:10678000067047702F46801C30F0A4F91D2132F0AE
:10679000FFFD054600201D2802D032F011F9FAE76E
:1067A0000020687028701A98E8736048433080268B
:1067B000EE72A872287C042101432974189880067F
:1067C0000DD45B485049095C53A82EF085F9287C0C
:1067D0003043287453986875000AA87508E0524839
:1067E0004949085832F018F8287C012101432974DE
:1067F0001599002F02D04F48434A11544E482AF0B1
:10680000B7FB2CE10021159EFFF723F82AAD28469F
:1068100030F0AAF82A98204080192A901498411C38
:106820007DAE32F055FA781C3288C0B2294625F088
:106830004FFB05461A9A159E189FF5E0052A159EEE
:10684000189F00D9EEE000201399129B994200D9BD
:106850006BE104466AE10027159E2D7832F066FA56
:106860001A990170477025406B0934483146189ACF
:1068700028F076FBF3E02C48234D2858C07AFF28F7
:1068800000D101E1032000E18320FEF7F8FF80063C
:10689000400F25491C4D69588A7A002A00D141E1F0
:1068A000C97AFF2900D16CE103216BE15D7103001E
:1068B000E404000053A80678002E01D1FEF7DEFCA8
:1068C00053A8451C0620C043801D1A903746002F50
:1068D00000D13CE15D20C0000B49081832F01AFAE3
:1068E000002801D1FEF7CAFC0822284614492FF0DF
:1068F000B1FD002801D000201A907F1E0835E6E780
:106900005D710300E40400002C2E0020478000008D
:10691000380800005E080000FC080000D5070000F1
:10692000B9030000250700003C0900000280FFFFBA
:10693000FA02000026070000794F01002B800000BA
:10694000A8CA03001998C007C10D53A8002900D098
:10695000BFE61399002900D1BBE68057002800D577
:10696000B7E601201A99484001D1FEF77DFAB0E65A
:106970008A241CE0179B002B19D02A43F04B5A5451
:106980003178C17039787A78120251180180159ED9
:106990008670092132F0F8FC044653AD082232F02B
:1069A00091FA287AC0092072E648314627E7022189
:1069B000159D32F095FA3178017044703878797805
:1069C00009020A181698149901404B09DE48294615
:1069D0004EE7159C0C54DD48085C42224243DC48DB
:1069E00032F0D4FC32F080FB39E026460C352AA880
:1069F00032F084FA00246878844205D253A82AA988
:106A000032F07CFA641CF6E7711C7DAE32F060F95E
:106A10006878328853A925F05BFA0646189B169AC7
:106A2000FEF777FA00251A9AB878F978090208185B
:106A3000C84988420ED8002A0CD1387879780902E2
:106A40000C182A2132F0A0FC00212A2911D031F0A3
:106A5000FFFFFAE7002E02D0304622F02DFD1BA8E2
:106A60000378002B02D1159822F026FD7FB006B0E6
:106A7000F0BD691E8D41E901417016990170C48411
:106A8000304628F069FCEAE70220159C00217BE0F3
:106A9000AF48FE2100221A921AF06EFD681E199965
:106AA000A74A5158C0B2169A424331F0A7FB287E3C
:106AB000697E09020818217B627B12025118884204
:106AC00004D0A54A904201D0914229D114950C35A9
:106AD0002A460F32A87B4100501816901992A37BCA
:106AE00058001890301817901698401C1690525C59
:106AF000009300201699334624F02AFF1695AA7BAE
:106B00001798431C1898305C00900120199924F0C4
:106B10001FFF92488A4A105C9149515C01435CD145
:106B2000862479E00021159C2EE0012414990B782D
:106B300000903046199920F0DFFC0546002800D06F
:106B40001794002D179A00D06EE72E466CE71A981E
:106B5000002801D0FEF792FB53A8441C814D002E63
:106B600076D00822204629462FF074FC002805D054
:106B700020462DF0F1FD20462BF0F6F9761E083464
:106B8000EDE70221159CF84D0123002200AE07C657
:106B90000392049320A81CA916F0C6FBF4482858B9
:106BA00002214170FE482C54FE48214627E6EE485B
:106BB000EF494658B078C0073DD120A8FF212FF0FB
:106BC000ADF8EA49884201D1FFF76BF92FF0BEFE1C
:106BD0000546E548E64946582EE00D3714990D3133
:106BE000F348E14E3018022532F0E0F91698C07AE9
:106BF000F0497054432040013018394632F0D6F93C
:106C0000ED483018E17A817715998176EB4831F0BB
:106C100001FC002856D08A24159821462AF0EEFE61
:106C2000D14DE14EA85D21462AF0E8FE1A99A955FA
:106C3000DE48295413E700257078012801D0FFF7BA
:106C400030F9CC481899415C002946D1199146E0A9
:106C50000024FEF713FBC44D199EA8591A9FC019B2
:106C600031F0F3FD091B891E31F012FF0621159842
:106C700024F0FCF8A859C0198179C2791202511880
:106C800045182C460C34284644302AA932F036F9EF
:106C90007D98482168544835000A68700027189983
:106CA000677021702024159D284632F00DF953A9F4
:106CB00032F064FB284620F0B3FF002800D1CEE676
:106CC0002846CAE60024159821462AF097FEA648D1
:106CD000B549405C2146FDF78DFCA7481990B81DC9
:106CE000012901D0FFF738F8B17A00270229169759
:106CF00007D0012901D0FFF72FF8102018901A981B
:106D0000169032464C3231468C313EA81A920AF027
:106D100093FC0C3699489A493A46083224D0924A54
:106D2000D3191A5C5B5C7F1E9A42F5D09A421BD243
:106D30005D20C0008C49091814961A9E1CE0C046BC
:106D40002C2E00202D240200348000003508000085
:106D5000F15E0300F7FF0000FFFF00005C08000089
:106D600082080000A8CA03005D20C0007E49081800
:106D7000179009191A981490824B2AAF08243846A4
:106D8000224698473846083020221A9214997D4BA3
:106D9000984738462830179922467A4CA0473846FB
:106DA000303031461A9E3246A047234653AC3EA9A6
:106DB000204632461E46984720462030502239460B
:106DC000B0477034204619991A9AB047169800288F
:106DD0001CD053A8902122AC224625F0F8F84EA8EA
:106DE000012101704FA8102232F07CF800201028F9
:106DF00000D1A3E04FA9095C5C224A407DAB1A5444
:106E000036224A4053A90A54401CF0E753A8902167
:106E100022AA199227F0B4FF4EA81A9001270770F2
:106E20005A497DA8024658C958C20421417000241D
:106E30007E942AF011FB064655481A9932F0A0FAC2
:106E40002EF0D8FF1A96366853AF4021384631F0FD
:106E5000B7FA38461999189A31F0C6FE4A480268BE
:106E600037462037384621469047002856D153AC44
:106E70004849204630F0A1FE1A9800684022214679
:106E80002DF078FA002849D13146283120223046A9
:106E900031F0AAFE53A8404930F08FFE3A4802680C
:106EA000002138469047002838D11A98006853A925
:106EB00040222DF05FFA002830D11A98006834493A
:106EC00001222DF057FA002828D11A98066853A9F4
:106ED00030462CF0F7FA002820D12B4802683046C3
:106EE000203000219047002818D130462830202437
:106EF000314632F0D3F8A5204000B63030621A98FF
:106F0000006853A922462DF035FA002806D11A98B8
:106F100000681D498A682030204990472EF010F9FA
:106F20001E4946AC202232F097F91A9800682FF0DB
:106F300057FC1CA8102231F0D5FF11E053AC2046BD
:106F400010304EA932F09EF97DAE3246103211213A
:106F5000204625F03CF820211CAA304625F037F8C1
:106F60000020FEF7F9FEC0462C2E0020FFFF000097
:106F70003C090000086C002090720020EF02000025
:106F80008F0400005D7103007800000F44CA030005
:106F90006C4B00205C5C5C5C6A6A6A6AEC4B0020AB
:106FA0002707000069FD0200380800005E080000A5
:106FB0003A0800003C0800004408000001EF02000D
:106FC000F0B5FFB0DCB0B4A82A90B4AEB4AB9DAFBE
:106FD000B4AC38A8DB4DDC496A5CDC49695C52071B
:106FE00002D40A0700D5ACE0490701D401F081FDC5
:106FF0002A9915312A913146903122912636194627
:1070000015312891591D27910E33249339464E315D
:107010000E9139464D310D913C3721464E311E912E
:1070200021464D3119913C341A9403213491C90100
:107030004018339000202C2805D0291833229201C3
:1070400031F0BAFCF7E74720C14363202B90800062
:10705000379030914731332080011F90369129506D
:1070600000203799814203D038A931F0ADFCF8E710
:107070000F970496339836990160B5482F180F2062
:107080003590002632963146022E3CD0F4B20025CF
:10709000B4AA0C232046294629F01AFF411C22D00D
:1070A000002823D1B4A99DAA204629F0E9FE014673
:1070B000483101D000280FD19DA800880E2810D893
:1070C000798801220A437A8038803599884215D21E
:1070D00029463296359012E00F20388030982530BE
:1070E00004E00F20388030F0DDFB36987A880546C2
:1070F00001218A437A8020462DF066FD2946761CC0
:107100003F1D904DC0E7359E0F2E38D090482C186B
:107110000025329F022D2ED020880F280ED0AF429E
:107120000CD0B0420AD00F20208060880121884313
:107130006080E8B22DF048FD309947316D1C241D68
:10714000E8E733208001012129500024E0B2012822
:1071500003D81CF079FE641CF8E7F0481821295088
:10716000CD20000100212954774AA85C0621014363
:10717000A95401F0B9FC0E2E00D03099714D269122
:1071800073482E1800273697022F30D030880F28EA
:1071900002D17F1C361DF7E7FCB238A9204614F057
:1071A000B3F9014638310FD0411C13D0002814D157
:1071B000339B03CB2B9A5201AA1810661878CD2363
:1071C0001B01E854D166E4E70120B8403699014339
:1071D0003691DEE730F066FBDBE7708801218843FB
:1071E00070800F20308020462DF0EEFCD1E700208B
:1071F0001024202800D198E00C22424338A9891895
:107200004968C74B194204D038AB9A181289002A32
:1072100002D1401C0C34ECE7461C880F38A93246DA
:10722000BF4F1F2A08D80B593B4202D09B0F9842F0
:1072300004D1521C0C31F4E7014602E002282FD1A0
:107240000221339E369AD4B22246C240D00715D0CE
:10725000C8B2022810D232682B9B5B01EB181A6669
:10726000CD2214012955800018186421405A0E2897
:1072700046D118F093FF45E03698C4B2CD20000106
:107280002A5C012108469043C440E2074DD08200A9
:10729000AA18A44BD45A8C43D4522DF095FC44E048
:1072A00001461F2E1AD838A800599D4A104212D004
:1072B000870FC8B2B8420ED081006918244A8A18D4
:1072C00053880125AB431F4D53800F22204BCA52D8
:1072D0002DF07AFC3946761C0C34E2E73698C4B2BD
:1072E000C8B22246C240D207339EB1D10021379A9C
:1072F0008A4201D101F000FC38AA31F0ADFBF6E77B
:1073000016F0F0FD00203799814203D038A931F002
:107310005BFBF8E7309847303060285D38A914F0FF
:10732000F3F8002801D030F0BDFA0749685C02226A
:1073300025921043685400207B4C08280AD031F075
:1073400023FBFAE72C2E0020D10C0000790400006A
:10735000C40C0000B4A8401C2D90B4A809302190A2
:107360009DA85B300C90B4A80146083117910146E6
:107370000C311691014614311591014624311491B6
:1073800001462C31139101463D3112914F30189036
:107390009DA8014608310A9101460C310991014628
:1073A0001431089101462431079101462C31069190
:1073B00001463D3105914F300B90B4A8801C0390DD
:1073C00000215A4828181D90594828181C905948DF
:1073D00028181B905848281823905848281820909F
:1073E000574828181190574828181090359120298F
:1073F00001D101F053FB0C203691484338A90D18F8
:1074000069680B46464A1340379301D101F070FA80
:1074100038AA121812893392002A01D101F068FAB1
:107420008A0F32929200484B9A18484BD75A0E2F27
:1074300001D901F05DFA01223192BA404F231B02BB
:107440001A4201D101F054FA38AA101840892F903D
:107450003D483F4A815086183398B0807F20359C44
:107460002E9004401C2C00D914E13198A0403949D9
:10747000084200D10EE1344837494158002906D06E
:10748000369880B28847002801D101F031FA601E99
:107490001E2800D99EE1800001A108588746C046F9
:1074A0005D750000A376000081770000D5770000AD
:1074B000D577000005780000C3780000D57700007C
:1074C000DB780000E5780000EB780000017900002F
:1074D000D577000011790000E1790000D577000030
:1074E000D5770000D5770000857A0000D5770000B9
:1074F0009B7A0000D5770000D5770000D577000093
:10750000D5770000D5770000B77A0000BD7A00007B
:10751000D5770000D5770000D77A0000CC0C0000AA
:10752000FFFFFF3FC60C0000345200207C04000027
:107530003702000092040000E40C00002A0C000056
:10754000F40B00000A0C00002C2E0020C40C0000DC
:10755000DC0C000001460018BC0C00002F98042829
:1075600001D100F09AFF0328329D01D100F09BFF6A
:10757000022801D001F0BCF99DAC5C2620463146C2
:1075800030F01EFF284637992246334628F012FF76
:10759000002801D001F0ACF99DA8329000780121BB
:1075A00037910840F74FF84EB95DFE220A40101897
:1075B000B8559BAC042220460A99F44EB0471D985A
:1075C00021462EF00DF80920C00138180825099928
:1075D0002A46B047329C207802210140EA4BF85CF1
:1075E000FD2202405018F85489208000381831904C
:1075F00008992A46B04733469E981026F041B92193
:1076000089007A1833922F917850FF20E0497854FE
:107610006078E04978546088DF4978529120C00052
:10762000381807992A461C4698470F980078DB4976
:1076300078541C9D284606993246A047D748385CA6
:107640002874D748379939541B9805993246A04772
:1076500030F0A3FD0D9800783399C8730E98007828
:1076600088730D462B20000138180C220B99A04777
:107670006D88CC498D4201D101F025F92F98385AF7
:10768000884201D101F01FF9C749785C379A10434D
:1076900001F01DF9BB4AC54BD05CFD210140D1541E
:1076A000E9E6B4AA182331F0E3FA002801D001F08A
:1076B0001FF9052005020121284626F0C1FE0028F9
:1076C0004AD004460126102329463246B84FB8470F
:1076D0002FF03DFEB4A908222F46339525460C46CF
:1076E00037912FF03BFD0023284639463246B04FF4
:1076F000B847617A2C468279C3791B029A18037ABB
:10770000407A0002C0180004801801701123284636
:10771000339F394635463246A54EB047B7992EF0CD
:10772000B1FFA44BB047B6992EF0ACFFA24BB047C7
:10773000379E71892FF06AFC0720430320463946A3
:107740002A469B4DA847F17D2FF048FCF07D00288C
:1077500002D0204622F0B4FB31F022FB002801D1F8
:1077600001F0C6F820210122944B30F0F7FB2FF0F6
:10777000EEFDB4A9CA890280497B817001F0B8F896
:107780000020804D8E4969580A78904200D3B4E1B8
:107790004A788B781B029A18CB78097931F064F813
:1077A00082008A58917ED37E1B025918137F547F22
:1077B0002402E3181B0459180AD0537E309A183259
:1077C0005A43002A04D000230B70491C521CF8E7CE
:1077D000401CD7E7C92000016A490C1800256948F8
:1077E00078494058854201D301F082F821683698E3
:1077F00086B230468847002801D000F029FC6D1C75
:107800001434ECE7B4AA182331F032FA002801D07E
:1078100001F06EF830F0E8FE0023064621462A46C5
:10782000634FB847B4992FF0C1FB31F005F92B46EF
:10783000B847B5992FF0BAFBB598FA21379148436C
:107840002AF042FD02233046339621462A46B847A5
:10785000B6992FF0DBFBB4AF38895B4948435B49ED
:10786000401831F08CFA45214901464A50502DF01C
:1078700093FC032331F0E0F84D4EB04779892FF0A7
:10788000C5FB7889379948432BF080FD0423339E4C
:1078900031F0D2F8464FB847B7992FF087FB052350
:1078A000304621462A46B847B8992FF07FFB062379
:1078B000304621462A46B847B9992FF0A7FB01F078
:1078C00017F828682E900020414C2F9E042800D1E4
:1078D000C8E19DA931F078F8F8E72B9840012949D3
:1078E0000B58EEE027483B49EAE0002332983799ED
:1078F000042B00D139E29DAC0022E2545B1CF7E777
:107900000020042800D152E29DA931F05DF8F8E78B
:107910002F98012800D067E3B4AA082331F0A8F912
:10792000002801D000F0E4FFB4982B4940189B21B7
:107930008900144A50509D208100002050523399F4
:10794000C9080901814201D100F0D2FFB59A224B4A
:10795000D2180C4D214EAB591C181A54130EE3705B
:10796000130CA370120A6270AA59121800235373E1
:107970001373AA591218D37A10241C43D4721030EE
:10798000E0E7C0462C2E0020790400005D71030062
:10799000FA02000036020000760200006B020000CE
:1079A0006A020000FFFF000014070000D10C000075
:1079B0005D7F030001E0000002E00000FEEF000038
:1079C000AC090000B80C000090D00300FF3B0000A1
:1079D00034520020640C0000FF030000E4040000A7
:1079E0000822239831F0E0FC2F9C022CF54D01D1A8
:1079F00000F0D3FD012C01D100F07EFD002C01D060
:107A000000F076FFB4A8982130F0DAFC339898287B
:107A100001D000F06FFDB4AA982331F029F90028B5
:107A200001D000F065FF22980378082B01D900F0FF
:107A30005FFF22984078102801D900F059FFA72154
:107A4000C900F64A53545118487000200121039A86
:107A5000049F984201D300F0B2FF531E1B781524F7
:107A6000A401EE4E35596D186D1E2B7053781578A4
:107A70003459661865547370401C229B1B78C91CCE
:107A8000121DE6E700233298379C042B00D19BE1BE
:107A9000B4A90022CA545B1CF7E7B4AA2423329885
:107AA000379C214629F014FA002800D1DBE225F0AA
:107AB0007EFA00F01DFFD948D94901E0D748D949DD
:107AC0004358002B01D100F013FF32983799339AB5
:107AD000984700F00DFF2F98002801D000F008FF14
:107AE0000023CE4C32983799102B01D100F000FCC6
:107AF000B4AD0022EA545B1CF6E7182133982BF052
:107B0000E5F92F9000212E912F98814201D100F0AC
:107B1000EFFE3191B4AA182331F0AAF8002800D062
:107B20009AE0C14828580178401CB4AA5278339290
:107B300000252A4691421CD0077844782402E41993
:107B40008778C6783602F619360434196759BC7E30
:107B5000FE7E360234193E7F7B7F1B029B191B047D
:107B60001B1903D03B78339CA34204D0521C2D1D1B
:107B7000E0E70B4600E013468A42A84D64D2017844
:107B80004278120251188278C07830F086FE99004F
:107B90004058817EC27E12025118027F437F1B0231
:107BA0009A1812045318417E3020484318180022B6
:107BB000914206D01C7AE40702D0521C3033F7E71A
:107BC00018468A4240D2017A01220A430272B4AABC
:107BD000117801705378437053884380B59B0371CB
:107BE000279E337874782402E318C380B378F4783E
:107BF0002402E318C385537A037252890282002952
:107C00000BD1B7994182249B19785A7812025118E6
:107C10009A78DB7830F033FC4161B4A9498A024696
:107C200028320185B9999170289A30F09CFC8185A1
:107C30001C21242903D0FF224254491CF9E728F0D3
:107C4000DFFC2E98401C2E902E98002802D01FF0AA
:107C50005DF901E000202E90319937981830379067
:107C6000491C51E79DAA042332983799299328F09B
:107C7000A1FB0746002803D19D9868496B4A8854A8
:107C80002BF05AFE65486A4946521C21002E31915C
:107C900000D030213398001F002E01D02C223192C9
:107CA000379A161D2BF012F905462E9860600024B5
:107CB000204629462CF08BFA5E49087033952946F8
:107CC00021F0D6FF224631462E90544C329D3398F7
:107CD000824201D300F001FC002F00D0FDE3379277
:107CE000B4AA28460E461DF077FD0746002837D176
:107CF0002C97B4A82DF0EEFF4F496258299B349978
:107D00000840010151180D7A4F7A3F027D198F7A90
:107D1000CC7A2402E419240467193D46474C2540D7
:107D2000002B04D0002D05D0401C5B1EE7E7002D82
:107D300000D0CEE308313246404B1A401F23DB0609
:107D40001F40BB180A70140C8C70120A4A701A0E6D
:107D5000CA702E990870491C2E91304C329D2C9F70
:107D600031983118379A521CB1E79DAA042328F0A4
:107D700021FB0028294C00D1D8E29120C000241812
:107D8000082220462E492EF065FB002801D100F084
:107D9000AFFD2EF0EFFA002801D000F0A9FD002180
:107DA0000122B4AB204612F0F1F800F0A1FD00234F
:107DB0003298379D082B45D0B4A90022CA545B1CC9
:107DC000F8E7C0462C2E0020B4AA0423214629F04F
:107DD0007FF8002801D000F08BFD241DB4A80178A5
:107DE000192086010D4A91550B20C001151800205D
:107DF0000746C9B28F4201D300F07AFD002801D0B6
:107E000000F076FD0C23329821462A4629F060F8CE
:107E10007F1C0C340149895D0C35EAE72C2E0020CB
:107E2000680C00006C0C0000AC090000B2040000FB
:107E3000B604000034520020E4040000FFFFFF07F6
:107E4000B0CA03009DAA04242946234628F0B2FAAA
:107E5000002801D000F04CFD01279DA840780228A1
:107E6000259800D32046349909022F91390229918F
:107E700044190026334635462C979DA80078854244
:107E800001D300F035FD002B01D000F031FDB4AA84
:107E900008233298214628F08DFA03462D98007861
:107EA0000106490F052900D19AE0012909D12D9930
:107EB0004978090208182F9908402999884200D169
:107EC0008EE0319333963794E3208600FC4A905934
:107ED00011246C43015D39430155B4989159091936
:107EE0008871B4A8007824F0CDFE00280BD0F448A7
:107EF0008059339E80190021379C319B11296FD006
:107F000030F0A6FDFAE72D9F3878ED4989590A5DD2
:107F10000007400E87231340181808553878E849A1
:107F2000895909194A781202C0001F23DB02134045
:107F30001818000A487030F0ABFC01462F9A114027
:107F40002C9A5202914209D1DD49895909194A7B7B
:107F5000C006C00FFE23134018184873D848815933
:107F60000819095D30F070F84A05520F06D1B4992E
:107F7000D44AD34B9954017830F066F82D9A527850
:107F80009207520F06230F469F43BA180B0A4370FD
:107F9000090C81700270B4A8C178C94FBA19BB59D5
:107FA0001B195971B95909192E9B0B715168007829
:107FB0000D54B598B9590A19095D53781B0259181F
:107FC00093781B04C918C006800BBF4B19400818D2
:107FD000010C9170000A50702C9F379C339E319B8E
:107FE00008346D1C113648E72D68B4AA042330F01C
:107FF0003FFE002801D000F07BFCB498B349401844
:108000009B218900AE4A50509D20800000241452CC
:108010003398001F01D100F06BFCAD494968691A23
:10802000AC4A914201D900F063FC80083799091DE0
:10803000C2B232981DF088FAA5480078002801D114
:1080400000F056FC21F038FAA148047000F050FC12
:10805000E46800972F98019030463299379A339B05
:10806000A04700F045FC24343794B498944F9A49C3
:1080700078547A18B4A833904079411E884102920E
:1080800010770C222F92209C204621992FF066F821
:1080900000206070E070E0802990A0808F4D28461D
:1080A000319E314626F0CCF92C90294632468C4B35
:1080B0008C4FB8472A9B19785A781C4612025118DF
:1080C0002EF0A4FF2C9F384629463246259B854D2D
:1080D000A847217B31402EF081FF032338467F499A
:1080E0003246804DA847217B89072EF0C0FD207BBA
:1080F00025990840400826F03FF804233846774980
:108100000C463246A8473399C97D2EF067FF0523F8
:10811000384621463246A847BA992EF05FFF06231B
:10812000384621463246A8472A9C217B4907C90F79
:108130002EF054FF0723384668493246A847217B72
:108140000907C90F2EF04AFF257B67485C4C205C6D
:108150006900102319402E93EF22024088185840DE
:1081600061496054082338465C4932465D4CA0475B
:10817000E906C90F2EF032FF092338465749324627
:10818000A04725462A99097B8906C90F2EF026FFAC
:108190000A2338463C4651493246A847339D697EFA
:1081A0002EF01CFF0B2338464C4932464D4FB84742
:1081B0002A99097B49062EF05AFD20464749324646
:1081C0002F9B484FB847A97E2EF008FFA87E47494D
:1081D0003B4A50500D232746204640493246414CE9
:1081E000A0472A9C217BC9098279C3791B029A186E
:1081F000037A407A0002C018000480180170207BC6
:10820000C00928F07FF90E23384634493246354CF0
:10821000A047E97E2EF0E2FE0F2338462F490D4697
:108220003246A0472A9C617B31402EF0D7FE607B0E
:10823000C007C00F27F014FD3846294632462E9B52
:10824000284DA847617B89072EF011FD1123384680
:1082500022493246234DA847BB992EF0BFFE122378
:1082600038461E4932461F4DA84730F049FA2EF0D5
:10827000CDFE13233846194932461A4DA847A17A34
:10828000E27A120251182EF0C1FE33980079411E95
:10829000092900D919E10A4D43003298379C21463B
:1082A000119A28F015FEB4A909794A00131900287B
:1082B00000D1A9E2309E473600203190AFE2C0469F
:1082C0002C2E0020FA020000FF1FFC00FF0300001C
:1082D00034520020FEFFFF7FEC0B000057FC000033
:1082E000FDFF00005D7F0300FC080000DC080000CB
:1082F000B4AA102328F05EF8002800D0F8E2B49861
:108300002521890160526018B4A94A888281B59AF2
:10831000C281CA880282B69A428249898182B7990B
:1083200001840020014624F095FDE1E200201028A0
:1083300003D0B4A930F048FBF9E7012000023390E4
:108340003798071D002001469DAA1278914200D35C
:1083500013E5002800D010E59DA84078012837914A
:1083600001D0102500E00D25B4AE329839463246D2
:108370002B4628F01FF881218B00E258B17A0B269A
:1083800071435418617AA27A12025118339A114239
:108390007ED12C952E902F970934B4AA1D46D37AFE
:1083A0009B075B0C31969F2636020E409B19319E2F
:1083B0002170190A6170A14F7859917A714341185F
:1083C000887A00024004800F19D0B4A8C07A01282E
:1083D0002BD1062208469A492EF0C0FEB698974F38
:1083E0007959B4AA937A7343C918030ACB71887177
:1083F000B7987959927A72438918087226E0B4AE18
:10840000304627F0CDFAB6987959B27A319B5A4363
:108410008918020ACA718871B7982FF0B0FEB07A35
:108420003189319E1EF04EFF10E0B4AE304627F089
:10843000B7FAB798814F2FF0A2FE7859B17A319EE2
:10844000714340187F4A110AC17182717959B4A8E9
:10845000827A7243891830F0EEF9339B1A434A72DC
:10846000120A8A727959827A7243891800224A72F2
:108470007959807A70430818817A10220A438272EF
:10848000832080003958491C39502F9F2E982C9DED
:108490007F193799491C694C56E7B4AA642330F018
:1084A000E7FB0446F0E09DAA5C232846379927F0B5
:1084B00081FF0446002800D0E6E00020642800D1B7
:1084C000CAE0B4A930F080FAF8E7329C379D299EC3
:1084D000A7E10027594C329D31462F98002806D03D
:1084E000002F04D13398C2B228461DF02DF856480B
:1084F0002554FDE1514D2F9C2DF0ECFE00279D975A
:108500009DAA042632983799334627F053FF002856
:1085100005D0A721C9006F52022C3ED05CE02EF09E
:10852000CDFF1818339B1B1F9BB2834235D1309867
:108530004730102AEDD81029EBD8002A394600D14F
:1085400066E22E9631973798061D002001251146C8
:1085500007468F4200D354E2002800D051E2B4AA6B
:1085600004233298314627F025FF00280FD1B4A903
:108570004A7815239B01314CE4586419641E22701B
:1085800049882E4AD25853195155090A59707F1CEF
:108590009DA90978ED1C361DDBE72DF09BFE00241C
:1085A0009D949DAA0427329837993B4627F002FFF5
:1085B00000280ED131942EF081FF1B183398001F34
:1085C00084B2309847309C4202D1102A00D898E1FA
:1085D000319CA721C9006C52002800D088E10024FA
:1085E000042516491948085C844210D218480858D6
:1085F00041198978032907D1405D24F043FB002805
:1086000002D0E0B22BF07AF9641C0835E9E7114892
:1086100008580021082902D030F01AFAFAE70020A1
:10862000802800D164E10549094A89580A18095C83
:108630002FF0ACF800220A700830F1E72C2E002051
:10864000A8CA0300FFFF0000B404000039050000C1
:10865000440500003C050000B4A89DA95C222EF052
:108660007DFD0C9800781E9B597BF8220A4007215B
:1086700001405018587330984730CB900020C143C8
:108680009974090AD9741875002C00D030E1B4A887
:1086900037900078012132910840F94FF94D795D0A
:1086A000FE220A40101878559DAC042220461799E6
:1086B000F54EB0471D9821462CF092FF0920C001CD
:1086C0003818082416992246B047379800780221B6
:1086D0000140785DFD2202405018785589208000C5
:1086E000381833901599224625463194B0473346C1
:1086F0004320C0003A182E92B5981026F041B921B7
:1087000089007C182F942C917850FF20DF497854F1
:108710003799487890774888DF4978521E9C207DA9
:1087200090759120C000381814992A4698471A98D5
:108730000078D74978541C9D284613993246D24B6D
:108740009847D348385C2874D248329B3B541B98D6
:10875000129932461E46CC4B98472FF01EFD1998B1
:1087600000782F9DE8732078A873379800788009E7
:108770002E990875607B8107C90F6973F64BF9580C
:108780004007C00FC003F20391434018F8502B205C
:10879000000138180C221899EE4B9847607B512144
:1087A000C9007A5AC007000E80239A4310187852E5
:1087B000CB9822F00FF8A07CE17C0902081829F080
:1087C00017FD607B31990840C00827F09BFE6D883B
:1087D000DA498D4207D02C98385A884203D0DF49B5
:1087E000785C304302E0DD49785CB043785408227D
:1087F000339C2046D2492DF02DFE002878D0CF485A
:10880000854275D09BAA6FE00298C1711018C0888C
:108810000026CA4A904202D1481ECA496854329C76
:108820001D46B4A8319900291FD0807900281CD09A
:108830000A281AD8430020462946109A28F048FBF7
:10884000B4A989794A005519002802D0309E4736CC
:108850000BE0029841771018808B0026B74A9042AF
:1088600003D1481EB049B84A8854B4A8002E01D09C
:10887000FFF71DF9C079002801D1FFF718F9042886
:1088800001D9FFF714F961214901A74A52184300A1
:108890002046294628F01CFB002801D0FFF707F9E5
:1088A000B4A8C079A049A94A885489184200895AB5
:1088B000A24A914201D0FFF7FAF8401E9A49A34A12
:1088C0008854FFF7F4F8A549785C379A9043319CB7
:1088D0007854082220469A492DF0BCFD002807D084
:1088E0009648854204D09CAA284621461CF0AAFA44
:1088F0003699491C3598401C35908B4D8D4CFEF7B0
:1089000076FD1029319C00D963E6002A214630D03B
:108910003798041D00200125114606462F978E42E8
:1089200022D2002820D1B4AA04233298214627F06D
:1089300041FD002812D1B4A94A78339215239B0136
:10894000794AD2585219521E339F17702F9F498867
:10895000754AD25853195155090A5970761C9DA968
:108960000978ED1C241DDAE700286F4D319C00D0FA
:108970002FE6B594B49488003799254644189DA8ED
:108980004078854270D2E119B4AA0823329827F0C2
:1089900011FD00286AD1B598634B6D4E9959CA19DB
:1089A000C855000A5070B4A881799A59D2199170AB
:1089B000C0799959C919C8706D1C0837DFE70020C4
:1089C00007213A46229B5B78984200D307E6931F23
:1089D0001C785B78544D5E4EAD596D18ED1E6B7072
:1089E0002C70514D137807241C40AB595B185B1E4B
:1089F0001C701378DB08AC596354401C0831D21D3D
:108A0000E0E70028484D2F9C319F2E9E00D080E546
:108A10003546B597B49788003799401831903E464F
:108A20009DA84078864223D231984119B4AA0823E0
:108A3000329827F0BFFC00281ED1B5983A4B444C21
:108A400019594A194855000A5070B4A8C17907222B
:108A50000A40195949198A70C079C0081959491929
:108A6000C870761C0835DBE70020B5E52E4DAFE574
:108A700000202D4D2F9C4FE52B4D2F9C49E5C046E6
:108A80002C2E0020790400005D710300FA02000022
:108A90006B0200006A0200007602000020780028C5
:108AA00003D020F009FD00202070002422482C5023
:108AB000281884802698483001D115F013FA1C48F4
:108AC0002858002810D120462CF07EF8CD20000137
:108AD0002C542B98400128181821C166006E401CA8
:108AE00002D101201F996850104AA85C042101435B
:108AF000A9547FB05CB0F0BD30994731316038A9DE
:108B000012F002FD002803D02EF0CCFEFEF7B6FBDB
:108B100003CE2B9A5201AA1810663078CD231B0180
:108B2000E854D166FEF7AAFB2C2E0020D10C0000E1
:108B3000CC0C000034520020DC0C0000FFFF0000D1
:108B4000B0CA0300F30B0000090C00001E0C00006B
:108B5000440500005D7103001405000014070000C7
:108B6000F0B5C7B0F04E0025358008200A90B070EF
:108B7000562003211191315498200F9035523046E0
:108B80004730EA49EA4B0E273A4698474620375481
:108B900030465E30E7490D242246E54B98475D207C
:108BA000059034547620FF2114913154E8438421F8
:108BB000705031468431E04A4A608C2170509021D7
:108BC000DE480691705031469031486030469C3006
:108BD000DB49C161DB49C160F01DDB490624224647
:108BE000D34B9847B47130462730D8493A46D04BDA
:108BF0009847262007973754D548D64A854203D050
:108C0000002151556D1CF9E72820D34A3C2803D098
:108C100000211154401CF9E70020D04AD04B1146E6
:108C20006E31814203D000211954401CF7E7CD4832
:108C3000D423C84CE0502046D430CB4E3146583176
:108C4000C160CA490A464C326F20C0000B902250C6
:108C50003031C748215031465C31C6482150314639
:108C600060318F20099000010D902150A721C9008B
:108C70006118C14A2032C14C6D364E608A60CC60AA
:108C8000BF4E314620310022BE4CB248802A0BD064
:108C90000759BD18B9540F0EEF700F0CAF700F0AC3
:108CA0006F700832491CF1E7B749AF22D200A948DA
:108CB00013928150B549B64AC263AB4A643206C0CA
:108CC000B44F39463031B44A08388150B349812213
:108CD00092000C9281503146413141221092D200D3
:108CE0000E928150E32189004218354655353036C1
:108CF00012914650AA4E55609660AA4AAA4942501F
:108D0000AA494750C358AA4E002E04D000221A7018
:108D10005B1C761CF8E7E0218E480891435800263A
:108D2000042E03D000229A55761CF9E789480B9946
:108D300040580023192B03D00022C2545B1CF9E7D2
:108D400084488B49405800231B2B03D00022C25477
:108D50005B1CF9E77F48874940580023042B03D068
:108D60000022C2545B1CF9E77A480D994058002351
:108D7000042B03D00022C2545B1CF9E700200346F9
:108D8000102B23D073490A59DD005619575D7178AD
:108D90000902C919B778F6783602F619360476183A
:108DA000171800220021082A02D0B954521CF9E7F2
:108DB0003170684909594A194E55310ED170310C3C
:108DC0009170310A51705B1C0830D9E779486149CC
:108DD00008580022082A02D02FF0DAFDFAE7152001
:108DE00080015C4908580022302A02D02FF0D0FDC3
:108DF000FAE75848139940580022482A02D02FF029
:108E0000C7FDFAE7534800680022EC2A02D02FF091
:108E1000BFFDFAE7684C4F48C06B2346002B04D0D7
:108E200000210170401C5B1CF8E74A4840680022A2
:108E3000042A02D02FF0ACFDFAE7464856494058C4
:108E40000022402A02D02FF0A3FDFAE741480C99F6
:108E500040580022DC2A02D02FF09AFDFAE73D4864
:108E60000E9940580022142A02D02FF091FDFAE703
:108E700039200001374908580022142A02D02FF067
:108E800087FDFAE73348129940580021112902D092
:108E90002FF0DEFDFAE7E52080002E490858214634
:108EA0002031002902D02FF0C1FCFAE729483F49C0
:108EB00040580021302902D02FF0CAFDFAE725489A
:108EC000394940580021E02902D02FF0C1FDFAE7CE
:108ED00001253A481F4C255439492220095C0029B4
:108EE00000D062E236490D54C86D002800D0FEE77C
:108EF0000B950D4600241894179416943148324966
:108F000016AB224629F0FEFAE865144D16352846C0
:108F10002AF014FF002800D12AE20146A54255D0CC
:108F200000200855641CF9E748410020D8C9030017
:108F30005D71030004CA0300FFFF00000080008091
:108F4000BABA402311001024C7CA0300E7C90300BE
:108F5000240D00002C2E0020786D00204A02000015
:108F6000503B002070520020686E0020A47000204A
:108F7000E8080000EC08000090720020886B0020D8
:108F80003870002044050000E0720020B865002021
:108F900018630020546F0020E40400008467002060
:108FA00078640020A46600203C0900005C060000F4
:108FB00058EFFFFF3C050000A0FEFFFF0C0D000076
:108FC000086C00201051002009FC020085204000A0
:108FD00012900E91FE4C200456D0129827F058FCA7
:108FE0002FF060FC1CF04EFFFA4F3846FA491FF094
:108FF00027FB0120F94E30600024F94D2C60F94820
:1090000068602021F8482FF0DBF90F98A8620E98CD
:10901000E8623846314623F057F80546102803D851
:10902000EE4826F0A5FF05465421F04F785C401E1F
:109030007854E849896DBA6D914201D10021B96532
:10904000000618D1EA482DF0A1FE5526B85D00288B
:1090500006D1E84A2E32E848E84900BF00BFB85DB3
:10906000401EB855000606D1384664302EF0BEFECC
:10907000E3482EF0BBFE129827F0E2FB2FF0C0FD74
:10908000102DA8D0E443A6E7DE484078002800D0A1
:109090006BE1DD480024046501210F912CF070FF85
:1090A000002800D161E115A81499017033A811219D
:1090B00001701D214170E82181707421C1706C2103
:1090C0000171EC214171B02181710799C1717F213A
:1090D0000172B72141726D218172C521C1728E2149
:1090E0000173022242730C218173A221C1732046B5
:1090F0000E9B102C03D0195D0843641CF9E700286F
:1091000000D132E103920024E743149D723537A861
:1091100040212FF055F92146079402973846224600
:109120000E9E982A43D004929200B65870400027B1
:1091300002040D9704D1491C0D91072900D914E1AF
:10914000A349491C884203D2671C072F00D90CE1B0
:10915000B0B237AC21462DF035FB300C21462DF056
:1091600031FB079CA41D1298F530844218D90021C8
:1091700008460C46202813D037AA125A2B465C33D7
:109180009A4200D9F1E037AA125AAA4203D900291B
:109190000F9900D0E9E037AA00231352801CE9E7B9
:1091A0000794049A521C3C460D993046B8E716AC19
:1091B0004C2120462FF004F9299415A82A9026F076
:1091C0000BFA2998014649314922039B8354002513
:1091D000056401274F700421029A25F069F829AC33
:1091E000002800D02C460028039800D0BDE02FAA0C
:1091F000107033A83090102531950E9E2B96129842
:1092000026302D902E9537A82C902BA920460DF0B6
:1092100055FF002807D0132041012FF0CDFE206814
:109220002FF06DFBA1E0132630010E9908182B904A
:1092300037A810302C902BA92FAA20460DF03EFF06
:10924000129071010E982FF0BBF820682FF057FB99
:109250001298002800D088E026F0BEF92120C00036
:109260001499694C2154201821465C311291616592
:109270000F90A0651098860000200D90A0552BF04F
:1092800011F8A15D002902D02CF02EF86DE00796B0
:10929000A7552CF029F8129C264630364C212FF089
:1092A0008BFEE6677C340F986060D52056490F54DA
:1092B00004213046029A24F0FBFF002800D00D9CC8
:1092C0000899514A5450002804D000204E49079A6A
:1092D00088544AE0E4204C4A039911541046E43083
:1092E000129C446085600025D5676562A562E562D1
:1092F000D565156655669566F42020211150FC2031
:1093000002991150149806301754284629462A46C7
:1093100019F036FA002816D008983B4F38580068E4
:109320002EF02FF97C6D26469036757606982158DA
:1093300020462FF045F825626562A562E562F5607A
:1093400007983D5411E037AC002120460A4619F039
:1093500017FA2DF0B5F90546202120462FF02AFFF7
:10936000002D02D10B98274948700E982EF056FD1B
:109370002449887800280B9D03D14878012800D122
:109380008D702AF08FFF19490A7A002A01D0002433
:1093900002E001220A721D4C2BF0A6FF1C48446219
:1093A00035200121164A11541A4C2EF027F91A4A79
:1093B000A05C04210143A1542BF0C2FE0898205860
:1093C0000021099B042929D02FF042FBFAE7C0466F
:1093D000FFFF000020200940B8C903007C2009409D
:1093E000802009406196010088200940006D00201E
:1093F000CE0700004A02000030C803003FC503004A
:10940000786D0020086C0020F84400208CCA03000E
:10941000846C00202C2E0020790400000B951F2066
:109420000F90C406F74FD800F74E04903518281D4A
:109430002DF09AFA686807942040C019686068782F
:1094400002211291084368708B20810011980891C5
:1094500070544020ED49315200200A210246109DEF
:10946000E94F20281FD0FB6B5B185B1E149E1E70FB
:109470007B5DFF2B0DD0FD6B0B267343EB189B7AA6
:109480006B54FB6B109D7D5D75435B19109D0A331A
:1094900001E0FB6B5B1818707855401C531C0B31B6
:1094A00014921A46DDE70020342803D016A92FF0C5
:1094B0008BFAF9E7D6481690D6481890D6481990F6
:1094C000D6481A90D6481B902B200001CE4E31185A
:1094D000325A202303931A430F9B9A433252102788
:1094E0004F8037AD28462DF03FFA3798079908404E
:1094F000C449084337905720C00030180424294637
:109500002FF03CFF3320C74DC74E411C03D2002132
:109510002954401EF9E700203070082804D0311883
:1095200063222FF049FAF8E72CF064FF0699705493
:1095300088268D2E07D000210B982AF048FEBA49C4
:109540008855761CF5E721F07FFB2CF053FC852035
:109550004000F530E8622BF0F3FD9B2080000026F0
:10956000B1490E5426F0D2FE7F2068714320C0001E
:10957000AE49A54D295228181299C170119901714F
:1095800084605121CC00295B0B220A439F21890072
:109590006E52A7496E548666A649A74B6B52BA43D2
:1095A00014942A53A549102E05D0974A92190023E6
:1095B0005354761CF7E7A249A24B0022924DEA547D
:1095C000A14BEA54149FEB5BB924A4008F4E2E5399
:1095D0002C196680FF260D96E6738C4EA6810C9C96
:1095E000A343EB53994B119CEC545523DC000A9B8D
:1095F0000C942B55AB239B00954CEC50954C2B5D5C
:1096000001260E9633432B55934B1C2A05D07E4CD6
:10961000A4180026E654521CF7E7904B00227A4C1F
:10962000E2548F4BE2528F4BE2548F4B202A05D0ED
:10963000754CA4180026E654521CF7E78B4A002408
:10964000714DAC540726F201AB5A091D1940A952BD
:10965000F3218F00E95B80229143E9536B498183B9
:10966000172149016C5282494B226A541199417564
:1096700028F006F92BF0C0FA2946E85B0E9DA843B6
:10968000C8530F467B4821467B4A0DF0A9FBD120E9
:109690000001391814220F92CA603D54774A906A2B
:1096A0002832486055731CF0F5FD04997854099BE5
:1096B000554A139D4F2E11D05059815D1940815547
:1096C00050598019401E0D9901700836F2E74E4836
:1096D0000019CD21C90000224254641C2A2CF6D165
:1096E00000206749332803D0474A2FF059F8F9E79B
:1096F0000524200299214900434D295261481199BE
:10970000295453200001692129505F48295024F031
:10971000CBFC752000010A2129545C4800262E54F8
:109720005B482E545B48295C129A1143295421F05E
:1097300029F92BF0ADFC002804D057480321295407
:10974000564829505648281804741E21C18155498D
:109750006A5CFE2313931A406A548269002A02D07D
:1097600015200021904750483C21274C21544F4858
:1097700027184F480D9921544E482018052109916A
:109780002EF01EFE0920B8750E98C002B8824A4815
:109790002654F0430F38494A4949002809D0131884
:1097A0001B8A194C27187C187B541B0A6370801C79
:1097B000F3E7154840184349434C092E06D08A5D0B
:1097C000002343700270761C801CF6E700203F499E
:1097D000702803D00C4A2EF0E3FFF9E7F0343C4840
:1097E0000D9A002C04D0084909190A54E41DF8E721
:1097F0000548384940580021E0296DD02FF028F95C
:10980000FAE7C04600F8FF072C2E0020FFFF0000FB
:10981000B9EC0100EDB0010089C602008D3E0300E5
:109820001DF10100E06E0020503B0020093D0000CA
:109830007E020000860200000F03000037020000D5
:10984000FBFD0000470200006A020000A6020000C3
:1098500084D00000340900008A020000A702000042
:10986000760200002E020000BD020000DD020000B2
:10987000DE020000FD7003004A020000786D002047
:10988000920600002E050000340500003808000094
:109890005E080000D5070000D8080000DC080000C2
:1098A00078090000A509000035080000E407000061
:1098B00036080000F3070000340800001CC603004F
:1098C0000B08000050CA0300A0FEFFFF5207000073
:1098D000C60700003C090000DA4ADB4810580D9921
:1098E0004170DA48115C129B19431154002028285A
:1098F00006D0D4490918252292012FF05DF8F6E729
:10990000D3490020CF4A5050D24A142804D0CD4920
:1099100009182FF051F8F8E7CF4ECA4DAB5AA818E6
:109920000169CE4C1C40CE4BC360A319AB52CD4A4B
:10993000149EAB5BCC4C1C40AC53CC4BEB5C0E9DF3
:10994000002B00D0099D1140C94ABE4B9A5C032AE6
:1099500000D1AD1C0722BB4BC64C1A55C64A9D54BC
:10996000C64A89180161C6481818C649002902D09C
:109970002EF05CFFFAE72CF03DFDC349B14A50548C
:109980000020C249082803D0AE4A2EF009FFF9E7AB
:109990002CF030FD0028AB4D01D0BD496854BD48C6
:1099A00000240E94139E31462FF0F6FCBA4831463F
:1099B0002FF0F2FC2CF01EFDB849685437ACB849C2
:1099C00020460A9E2FF0C6FA0598C00028182146A6
:1099D0002FF0C0FA1CF044F816AC20462CF0C4FF5F
:1099E000169807990840AF4908431690AE4FE85DB6
:1099F00013990840E855089812992954AB4828183B
:109A000021462BF0EDFD0121A9482954149AA85AAA
:109A1000099149030143A9520C982E54A5480E9967
:109A20000E462954E85DF7210140E955A24828185F
:109A3000109D119A521E07D0011D4068002808464B
:109A4000F8D19E48683008607E489B4940580028FD
:109A500008D19A4968317B4C974FE15198482EF0D4
:109A6000D9FCE05900780C9016A814301490754C6D
:109A70000C98864200D1BDE00E969248205C0428E6
:109A80001BD88D4961584A788B781B029A18CB787D
:109A900009792EF0E9FE0E9A920089584A7D8B7D55
:109AA0001B029A18CB7D097E2EF0DEFE421C854BF0
:109AB000E254800020186A0181507F482058417884
:109AC000827812025118C27800792EF0E6FE0E99C3
:109AD000890046587C482158002901D030788847B1
:109AE000771C002112961197307C81427FD2387CFE
:109AF0000B46797C09020818B97CFA7C2EF0B9FE75
:109B00000F2413935C430119CA7A0B7B1B029A182A
:109B10004B7B897B2EF0A8FE08D08847387C797C67
:109B200009020818B97CFA7C2EF0A3FE00192EF069
:109B30008CFE2EF00EFD1204571852D012990A789E
:109B4000119B19785B781B0259180023302B04D025
:109B500016AC0025E5545B1CF8E716AB00261E701A
:109B60005A70027844782402A2185A80027A1A7134
:109B7000998505211F910F991C2903D016AA5654C7
:109B8000491CF9E7851C002F2BD0F878400722D517
:109B90002EF07EFE16A9C88038797A791202101844
:109BA000C885BC7820462CF049F900280FD0203C0D
:109BB000E0B20D2802D84549085C00E00020149965
:109BC000002804D000220A70401E491CF8E716A89D
:109BD000002118F047FD761C0A372EF054FE86420D
