:1041000000900020917F03008D4603008D46030040
:104110008D4603008D4603008D4603008D46030047
:104120008D4603008D4603008D46030043A3020025
:104130008D4603008D460300E12A0300FD5D030068
:104140008D4603008D4603008D4603008D46030017
:104150008D4603008D4603008D4603008D46030007
:104160008D4603008D4603008D4603008D460300F7
:104170008D4603008D4603008D4603008D460300E7
:0C4180008D4603008D4603008D460300B1
:10419000F0B5FFB086B00646202126F033FF044676
:1041A000471C1BA801250570207818901596701ED5
:1041B000F64BD42119915958C0B2A42216925043FB
:1041C0001A90081833F0ABFFE075607AA17A090203
:1041D0000E18EF48185CC00737D030F0F9FF002800
:1041E0001BD0607DC007C00D2FD11F2E28D9E948F4
:1041F0003018112804D829468140E748014224D1CB
:1042000030463138092804D829468140E348014224
:104210001BD11BA80021017036E034F0F1FB0AD05D
:1042200030462138142810D829468140F7480142E9
:104230000BD08D214BE3607DC007C00D05D1EFE7AA
:104240002846B040F9490842D1D030B200281BD4EA
:1042500001235120C000CD4D1490295A002049055A
:1042600000D419E132463C3A91B20B291C4619465A
:1042700000D913E1EE480240EE48D0400123184037
:104280000E24D4401C4009E1EB483018322800D9F4
:104290007DE2800001A108588746C04631490000F0
:1042A000676A0000676A0000676A0000676A0000CA
:1042B000676A0000676A0000676A0000676A0000BA
:1042C000676A0000676A00009549000069430000C2
:1042D00069430000676A0000676A0000676A0000BF
:1042E000676A0000676A0000676A0000676A00008A
:1042F000676A000069430000676A0000676A00009F
:10430000676A0000676A0000676A0000AB49000046
:1043100069430000D948000069430000676A000053
:1043200069430000676A000021480000214800003E
:10433000676A0000676A000069430000676A00005E
:10434000676A0000676A0000694300006943000073
:1043500069430000E34900000B4A00006943000084
:1043600069430000694300008848199940581A9928
:10437000411834F054F9012901D802F074FBAF4A16
:10438000B218272A00D935E2920001A39A5897461D
:10439000554A0000554A0000554A0000676A00006F
:1043A000676A0000676A0000676A0000676A0000C9
:1043B000676A0000676A0000676A0000554A0000EB
:1043C000676A0000676A0000676A0000676A0000A9
:1043D000676A0000554A0000554A0000554A00002F
:1043E000554A0000676A0000554A0000676A0000ED
:1043F000676A0000554A0000676A0000676A0000AB
:1044000031440000676A0000676A0000676A0000C4
:104410005756000071560000554A0000554A0000EA
:10442000554A0000554A0000554A0000DF5600007A
:104430002024159D284634F001FE014653A834F08F
:10444000E7FE7DA8002606805048199940581A9921
:10445000401834F061F80A7B18924F7B002F0ED180
:104460000C310079801E8D1CC4B22846214627F0ED
:1044700037FD8F27002801D102F0C2F8159D3E219B
:1044800034F0E8FD044618993E2E01D102F008FCF4
:104490000020A055761CF7E71C461946CA4AAB5CBB
:1044A00002252B405A425A410028084600D11046A6
:1044B000002803D0002C0ED18420FEE1062E01D866
:1044C0007B2000E07220C043062E00D9F5E10122D6
:1044D000544000D0F1E184203246203A272A179137
:1044E00000D98BE0930001A2D2589746A145000065
:1044F000FB4A0000F94A0000BB480000BB4800002E
:10450000BB480000BB480000BB480000BB4800009F
:10451000BB480000BB480000054B0000BB48000042
:10452000BB480000BB480000BB480000BB4800007F
:10453000994B0000F14B00008D4C0000AD4D000088
:10454000BB480000BB480000BB480000BD4E000057
:10455000ED4E0000BB480000BB480000554F000076
:10456000BB480000BB480000BB480000BB4800003F
:10457000BB480000F14F0000715000008351000063
:10458000D351000013520000855200002C2E002051
:10459000FC0800000080FFFF7F0003008303000091
:1045A0008A4D1998285833F000FE102801D201F0E6
:1045B00014FC8A79CB791B029A188F183C460C346C
:1045C000A17B4A0011461031814201D901F005FC5E
:1045D00026460F36B25C52005118814201D901F0D3
:1045E000FCFBE07A002803D0F12801D201F0D9FFCA
:1045F000822115982DF088FA02F031FA062E00D9A2
:1046000022E1B00002A108588746C0460304180002
:10461000A3520000475300004146000041460000FD
:10462000DD53000095540000435500007F002BE04F
:10463000FF0F0000F10F0000EB7FFFFFE07FFFFFA7
:10464000624D199C28591A9BC01833F047FF01D8B6
:1046500001F0C3FB33F00CFE139031460D312AA854
:1046600034F030FE0F362021159C2046169126F09E
:10467000C9FC0746401C1890199828581A994018E8
:104680000079C01EC1B2304627F02AFC1A900028DB
:104690000BD1189934F08CF953A927F0D3FE0028D8
:1046A00001D101F09DFB159C484D3E78042134F06A
:1046B00077FE074613983870B9208300E85A2AA974
:1046C0000988884201D000F07AFF00200246787005
:1046D0001899087A497A09020818032801D101F0CB
:1046E000FBFA0228154601D001F002FB129317983D
:1046F000800217900D21159826F040FC054634489D
:1047000032490C1802221392284621461994314B43
:104710009847A078A870E81C2F492C4A5118139C80
:1047200022462C4B98472B4B199840796871A81D4D
:104730002A4A264989182246984728460830284997
:10474000224A51182246234B9847224B28460A30CA
:1047500024491E4A5118224698471998007B28730D
:104760001A4A1498105A179908420DD11B4B1E482B
:10477000105C800602D51A981C3005D01298115A88
:10478000D25A159831F00EF9184D01F0B1FA1848C7
:104790003018062801D902F066F9800001A10858F6
:1047A0008746C046C1470000C1470000414A00009B
:1047B000454A0000614A00004148000041480000AD
:1047C00015982EF025FB41E1140700002C2E002047
:1047D000E4070000CD720300E7070000EA070000CD
:1047E000EC070000EE070000160500000280000044
:1047F0000080FFFFFC4AB218152A01D902F033F9F4
:10480000012393406F24234200D023E1042AF74D73
:104810001A9B00D132E1152A00D194E002F023F96D
:10482000F24833F047FA0B2901D202F01CF933F0B9
:1048300011FE927D0B328A4200D8A0E502F013F9F6
:10484000159830F009FB01E1152E36D1E74919988A
:10485000085833F06BFC46182021159C20461A910D
:1048600026F0D0FB054600781990307B18900D3665
:1048700053AF0222384634F053FEFD48FB49085A34
:1048800039880140398001D100F008FD042134F05D
:1048900087FD1899017000214170801C53A934F0E4
:1048A00011FD6878A97809020A181A981999014027
:1048B0004B09F048214601F0DBFFB978FA78120283
:1048C0005118ED4A914201D902F0CDF8C1B21598C4
:1048D0002EF002FB02F0C3F8E44833F0EBF90529AF
:1048E00001D202F0C0F833F0B5FD137C002B00D1EB
:1048F000B0E00C3200270524002B01D101F06FFB42
:1049000027460C378F4201D902F0ADF81719FF7A0C
:10491000032F05D0012F01D002F0A5F80E3400E0DE
:1049200015348C4201D902F09EF85B1E2F46E3E756
:10493000CE48199940581A99401834F043F8032882
:1049400001D802F090F834F0E4FAC84933F073F972
:10495000042A01D202F087F833F001FD8A7852066A
:10496000C24B05D54278807800028018C34A98521D
:104970000878F921C900595C884201D002F073F827
:10498000BF48BA490858002801D102F06CF81599BF
:1049900001F035FFB548199940581A99401834F07C
:1049A00011F8012856D802F05EF8B048199940581D
:1049B0001A9933F0DBFC427B842A4BD0002A01D0C9
:1049C00002F051F833F02BFE052901D202F04BF82A
:1049D0000C30007916224243501D88423AD902F029
:1049E00042F8A248199940581A99401833F0EAFF42
:1049F00002282FD0032801D202F035F801D102F0AD
:104A000032F8C00726D102F02EF89848199940587C
:104A10001A99401833F062FD1CD0032901D202F02C
:104A200022F88279C3791B029A1880180C30801CF6
:104A3000891EC9B227F054FA00280BD002F013F8EF
:104A4000112100E00221159829F010F9002801D168
:104A500002F009F81BA915980FF000FC01F0FFFF08
:104A6000159830F0F9F9002801D101F0FCFF7F4DD5
:104A7000199828581A9BC11833F0D1FDC01833F08B
:104A800020FE8418207C491F0023814201D001F0C0
:104A9000E8FF0028159E1CD0082801D201F0E1FF94
:104AA0000C34E17A4A0016460836864201D901F0F4
:104AB000D8FF21460C318D5C6F00F6198642159E99
:104AC00001D001F0CEFF20460D302EF0B3F8257353
:104AD000664D892000012A58002A06D069493046CF
:104AE0009047002801D101F05AFD304623F076F9B5
:104AF0004342434101F0B5FF0021159811F016FC27
:104B000001F0ADFF2024159E304634F097FA05469B
:104B1000C0782979090208185749884201D901F05B
:104B20009BFF28780007800F01D001F095FF68787F
:104B3000A9780902081818904C48199940581A99F0
:104B400033F014FC027B1A920A79497909028A1817
:104B50008027022A01D201F080FE0C30411C501E39
:104B6000C2B203202BF02CFD002801D101F075FE0C
:104B700053A92CF0EBFB002801D001F06EFE53A8E6
:104B80000678471C002E01D101F065FE38462DF055
:104B900071FA761E0837F5E73448199940581A9982
:104BA000401833F00AFF012901D801F016F933F05B
:104BB000A7FC20211598189126F024FA0178169167
:104BC00045788678207B1A9034F0FAF8617B199149
:104BD000884201D800F091FD34F0F2F81999401A9A
:104BE000C4B200F08BFDC0460080FFFF2C2E0020D9
:104BF0002024159D284634F021FA1C4933F01BF877
:104C0000012A01D802F05CF8421C33F09AFE1A4BDC
:104C10009A4201D901F0E1F806780C22324001D025
:104C200001F0DBF84278807800028018189033F0A9
:104C300015FE09180F7B0D3153A834F0DFFB052159
:104C4000159D34F007FA07708421417007481999BF
:104C500040581A99401833F0B0FEC91E33F0D0FF07
:104C600026407309084801F095FCC0462C2E002010
:104C7000EC07000015800000F7FF0000760200003E
:104C8000C40700000480000032800000ED4819993C
:104C900040581A99441833F036FE012801D801F023
:104CA0009CF8A579E67920211598129126F0AAF9A9
:104CB00033F0E9FCE44A914201D901F08EF8027820
:104CC0000C21114001D001F088F8119231024919EC
:104CD00061184F7BDD4BDB4AD25CD41B0025BA4206
:104CE00000D22C460E7B032C00D30324401C1090D2
:104CF0001520139060430F90411D34F0E1FA0670C7
:104D00002A464570CF49D14BC95C8170C770047188
:104D1000451DE01914901346F8B21499814201D848
:104D200000F06CFD169317921897A721C900C54A89
:104D30005718F968C6008819C4795D20C000111899
:104D4000082234F0DBFBB86803216143405C287221
:104D5000B868401841788078A8726972F86880193C
:104D60008079E87203280DD00128189F169B18D16E
:104D7000B448B7494058801901794079687329735C
:104D80000E230EE028460C30AE4CB14FE159891984
:104D9000097927F019FBE059801940792875139B90
:104DA000189FED18179AD2187F1CB5E7A54C199FCC
:104DB000E0591A9E80198179C2791202511845185A
:104DC00020211598169126F01DF9024600781490BE
:104DD0001895294615460D3153A8092232F076FA66
:104DE000E059801933F0EEFD0A2801D200F0F5FFFA
:104DF0006F1CB878F978090208189649884201D3DF
:104E000000F0EBFFA87BE97B0902081832F0B4FF41
:104E1000002801D000F0E1FF5D20C000201853A958
:104E200034F0F4F90028179905D08B4953A834F0D1
:104E3000EDF9414241411A91A87BE97B09020C1826
:104E4000687D1990844953A80822164631F0BAFBB0
:104E5000139020462FF0B8FF0446454245410028F4
:104E6000189A01D101F02FFC7B4953A834F0CEF9F8
:104E7000002811D0794953A834F0C8F900280BD084
:104E800053A87DA933F096FA002805D17DA80078B3
:104E900000212AAA23F0A4FD611E20468841614218
:104EA00061411A9E3140002C01D07B22D443189AD4
:104EB000012901D100F091FF01F00FFC002553956D
:104EC0006048199940581A99401833F09AFA34F00A
:104ED00020F81890387B1690787CFE2800D172E379
:104EE000FF28179E00D072E309226EE30620C44318
:104EF00054481999405833F019F9451834F009F815
:104F000002462B7B687BA61D002802D00B2800D808
:104F100065E31598002801D101F0A1FD501C8178AE
:104F2000C27812025118484A914201D900F055FF47
:104F300001784078000244182A2115981D4626F071
:104F400061F82B4600212A2901D100F098FD33F0A9
:104F500037FEF8E72027159E304634F0B7F80346B1
:104F6000384D1998285833F020F9012202281046AC
:104F700018931A9201D201F047F9081D33F055F940
:104F8000374BEA540D310078401EC4B21E20224631
:104F90002BF016FB002801D100F07DFD41788A1C22
:104FA0000021A2420B4601D301F01DF982782D4D5C
:104FB00024494A5551000B1D641E0021A3420B4693
:104FC00001D301F010F9169727491E4B5C18C71C36
:104FD0000026D0B2864201D301F0FFF80422204619
:104FE00034F09CFA3F1D761C1648425D241DF0E704
:104FF0002021159E34F084FA33F045FB124A914289
:1050000001D901F029FD0178890601D401F024FDC0
:1050100041788078000244180A48199940581A9932
:1050200040188179C279120251184018057B33F07B
:1050300039FF05708D2141700C4831462246179B7F
:1050400001F016FC2C2E0020F7FF000039050000AF
:1050500044050000F8FF000030CC030028CC03001A
:1050600004090000090900000C090000428000004A
:105070002021159E3046169125F0C4FF0446417844
:105080008278FB48FB4B1B580127F80218400AD1D5
:10509000631C9E78DB781B029B19F74EB342159E6A
:1050A00001D301F0D9FC120251181891F149199A53
:1050B00089581A9A89188A79CB791B029A188A1802
:1050C000137B002806D1189800287ED1607DC00788
:1050D000C00D7AD0139414930C32541C0879401EDE
:1050E000C6B22AAA2046314631F08AF8D6211A9053
:1050F0000028129114D12AA81990018839404842F9
:1051000048412BF087FA199F3888284040082AF038
:105110002FFE388804210140880829F0B5F80021C5
:10512000119153AA2046314631F07BF8199000289E
:1051300004D1539825F0D6FB002012907DAA20467A
:10514000314630F021FF0746002801D100F028FD4C
:1051500078427841199A514251411A9A002A179B74
:105160001A46139C00D00A46002A194600D101466F
:10517000D6201090012901D100F019FD802600F001
:1051800019FD2024159E304633F058FF33F07BFA8A
:10519000B94A914201D301F05FFC41788278120252
:1051A00051181891B34F199979581A9A8A1833F0EF
:1051B00063F90D7BB14BFB5C1B0701D500F01BFFB6
:1051C000189B002B01D100F010FF8D213046FFF716
:1051D0007FFB33F09EFE33F056FAA94A914201D983
:1051E00001F03DFC00781890A24C199EA0591A9924
:1051F00033F0BCF80D300979491EC9B200252A46A2
:1052000024F0F6F8002801D100F048FC802301F0DA
:105210009BFA2021159C34F077F933F034FA964A42
:1052200091423BD2411C0A78497809028918914A77
:1052300034D19249515C090703D4407DC007C00DA9
:105240002CD0199810581A994018017942791202F5
:1052500052188024022A11D333F037FB41180D3144
:10526000501EC2B204202BF0ABF9002806D053A97F
:105270002CF06CF8002801D101F01CFB1598214698
:10528000FFF726FB2021159C34F03EF94178807809
:10529000000245187A48854200D87AE1204601F09C
:1052A000DCFB78493EA801807249199808581A9980
:1052B000401833F082FB0A2901D800F08EFD32F04D
:1052C00051FF16900D31704C2AAF0A223846A04784
:1052D0007DA808221A923946A0472024159E304600
:1052E00033F0ACFE014653AD284619942246664B76
:1052F0009847287817900C213046149124F040FDEF
:1053000005465D20C0005B490C46081839461A9ACC
:1053100031F058F9002801D100F018FC2AA846A95C
:1053200030F04CFF002801D000F019FC46980078BE
:1053300006210140042901D000F011FC2AA830F018
:1053400093FD00F006FC4B4D199EA8591A9FC019F9
:1053500033F038FB042801D800F03FFD4B494A4C9C
:105360002AA80822A047A859C01932F0FBFE1790BE
:105370000D3146AD04222846A0472024159E304614
:1053800033F05CFE014653AF38461A9422463E4C39
:10539000A047387819903EAF022238462946A047E8
:1053A0000C21304624F0ECFC0546B9208000314940
:1053B000085A3F88B84200D035E246A88678022EC7
:1053C00001D200F0AEFC199F5D20C00029490918E8
:1053D0002AA833F0EDFE8021159E39E2254919985F
:1053E00008581A9940180179427912025118032974
:1053F00001D800F0F2FC32F049FF0D3053902AAD95
:1054000053A9284632F09EFC539804782021159F1A
:105410003846199125F0F6FD0178179133F04CF9D3
:1054200018900521384624F0ABFC0746067000268C
:105430000671B92080000F49085A2988884200D097
:105440001CE2002C01D100F073FE1148094A105CE7
:10545000412149015118002801D100F057FC04C92D
:1054600013789C4200D03246401E1646F3E7C046F1
:10547000140500002C2E0020F8FF00001505000088
:10548000F7FF0000FFFF0000CD72030028CC0300EF
:1054900034080000FB49199808581A99401833F04D
:1054A0001DF801D800F099FC32F05CFE18900D3127
:1054B000F54B2AAD022628463246984720241598F7
:1054C00033F0BCFD014653AF38461A942246FC4CDB
:1054D000A047387819907DAF384629463246A04714
:1054E000B9208000F5490E5A38882D88864200D0B0
:1054F000CCE18127AE4200D0C9E1F24DEF4C605DB6
:10550000002801D101F048F8401DC1B233F0D8FEA7
:105510001899017000274770801C314632F035FC25
:10552000615D0170412149016118401C1A9CE34AE8
:10553000525D974200D3B7E104C91278C2557F1C6F
:10554000F5E72021159E30460E9125F05BFD411CAC
:10555000189100780D900020D84B052803D02AA977
:1055600033F0EEFAF9E71998185832F01EFE0728C2
:1055700001D201F071FA8A79CB791B029A188F183F
:10558000797C831F4A00511C8B4200D2A6E1002186
:10559000A5E1CA48199940581A99401832F0B0FF4D
:1055A0000079401E277B0D3433F046FB0028189508
:1055B00000D18EE21C3000D189E3282088E38020CE
:1055C0007870002594E30722179E354623E30628CA
:1055D00000D20125062800D21CE306221BE3169206
:1055E00018938200931CB549199C09591A9C0919F2
:1055F0000C79497909020C19A34200D9EDE3294637
:105600000E318F5CFF2F00D1131DFE2F01D103231C
:105610001343A34200D9E0E38A18541CFE2F01D0A3
:1056200000F0CDFF0128189B169A00D071E4257870
:1056300053A833F01DFD539E30462BF069FB002824
:1056400000D1CAE3700100D1C7E33046294625F0F6
:1056500061FD01F0E2F90622D7431A9A801833F06F
:1056600030F88218537B922B00D171E3B81D70E3A0
:105670002021159E33F044FF0178890604D533F0CC
:105680001BF801D100F0BCFE9120C0008B49081826
:1056900033F026FE04468C48844201D101F0DCF947
:1056A000204631F00BFA014653AD2C2233F026FF91
:1056B000288DC00501D401F0CFF953AD284618302C
:1056C0002AA933F077FD5D980821C943F8390140D4
:1056D00029852846214622F093FF01F0BDF91A9A48
:1056E000801832F0EEFF851800244F941C946A7BDA
:1056F000002A00D066E3104665E300243002032C44
:1057000000D303244019149016206043411D33F048
:10571000D7FD07461A98387000257D7033F050FB8E
:105720002B46B870199AFA703C717E1D1799C807FC
:1057300059D0200657D0E3208500604840590078B2
:105740000021C007F3D0D8B2904249D317938920E3
:1057500080005A490918082233F0B4FC304608305A
:10576000564949598A7953A928F088FF534B5398D1
:105770003074000A7074B07CFC210140B174595936
:1057800009784907890F8C2202408818B07459594A
:1057900049784907490E0918B17458590278F3201D
:1057A0000840510707D404210843B0745859417B7D
:1057B0000120084007E0B0745959497BC907490FD7
:1057C0000143B1740020F074585900784006000F6E
:1057D00030755859C0787075641E1636199A179B23
:1057E0005B1C0021A3E71A9838701898169901409D
:1057F0004B0936481599149A01F03AF8D0B20F992E
:10580000814207D9401A2D4932F015FA1018087153
:10581000000A4871109933F0A3F8129811990140C9
:105820004B092B486FE27DA9384630F0D8FC0028A0
:1058300006D17D98007806210140042900D1BCE5FD
:1058400018980007800F01D001F006F9199F8121F7
:105850001A9C179828706970A81C2AA933F0A8FC14
:105860000A353EA9022233F049FE53A841788078D8
:105870000002421827407B0916488EE1802078708C
:1058800000F09DFC2C2E0020CD72030080271A9C76
:10589000052133F015FD189901704770801C2946C9
:1058A00032F073FA0021017053A841788078000229
:1058B0004218199820404309074824E22C2E002062
:1058C000CD72030034080000FFFF000031800000AB
:1058D00033800000018000000580000001213C466B
:1058E0001234A35C0625ED43AA1A10185A00904200
:1058F000179800D30846012801D101F0ADF80C3704
:1059000038780990791C53ADA81C022633F0DCFBD3
:10591000F91C281D33F0D8FB7F79AF717E00A05DA4
:10592000E8710546189908780890487807908878B3
:105930000B90C8780A90E8194006010E159825F0DA
:1059400061FB3A46002F1697139004D0214630F0A1
:105950002BF9169A0446002D2F46FA4D06D0611CED
:10596000139880193A4630F01FF9169A1897B92003
:1059700080000590285A53A949880C91884205D087
:10598000F1480C99814201D800F0AFFCEF482C5C43
:1059900053A8808811901398801912900020064611
:1059A00006901A9015980F94A64201D100F0A2FC1F
:1059B000B1006B18412149015D586B78A978090243
:1059C000C918119B994202D0FA498B4254D11096C2
:1059D000A87919900023184619998B4221D2C10742
:1059E0001FD1149359006E1808360024139F944257
:1059F00014D2C10712D1317873781B0259183B8831
:105A0000994208D12A781A98C1B22AA82EF06EFDC0
:105A1000169A1A901798641CBF1CE8E7149B5B1C2D
:105A2000DAE7E9791491002614998E4221D2C10750
:105A30001FD10027129C18998F4218D2C10716D186
:105A400019997118490069180B7A497A0902C9181D
:105A50002388994208D12A781A98C1B22AA82EF030
:105A600045FD169A1A9017987F1CA41CE3E7761C34
:105A7000DAE715980F9C109E761CCD4D94E7711EA9
:105A80008E41F10141700370C484282101224254E7
:105A9000159800F0F6FF00210B46A4E3C6482058F5
:105AA000817A8623022901D900F04EFEC34AA25C06
:105AB000CA40D10701D100F047FEC149BC4A515A42
:105AC0000022490701D500F038FE179D134600F06B
:105AD0003BFE2120214632462AF072FD0646002078
:105AE0001790002E00D1F5E3B11C7DAC08252046AF
:105AF00033F018FB0A3646A8314633F013FB022177
:105B0000204628F08DFB002801D100F098FC0646C5
:105B100005462835687800020024000513D40120CA
:105B2000C00217907DA833F0DBFB01462820325CD1
:105B30006B781B029A18179B1A433254100A68702C
:105B4000304622F05DFD159D00F07CFCB920800000
:105B5000205A3EA908809749884200D05FE11898F2
:105B60000007800F01D000F077FF179F812416985F
:105B700028706C70A81C7DA933F01AFB0A353EA969
:105B8000022233F0BBFC53A841788078000242180F
:105B9000199807407B090120C003314600F068FED8
:105BA0007DA800882CF0AAFB00201090139C33F0F5
:105BB000E1FB00261A98454245412478022133F042
:105BC0007FFB1499017046701998002800D16D1C54
:105BD000002F159E00D16D1C002D01D100F00BFC93
:105BE000022133F06DFC0021017069004170012138
:105BF00033F066FC002800D1FDE305701A980028F8
:105C000000D169E31998002800D1E2E3002F00D009
:105C1000F1E3EBE307226648199940581A994018B6
:105C2000017940790002431800209A42314600D899
:105C300001469A4200D906461A913C460C340D376B
:105C40002E40012E1392129307D1A01D149053A839
:105C5000042233F063FC539800E0149718994F1C0A
:105C60000621CD4319902BF053F8AD1D002E2AD0FC
:105C70006279FE2A1799159E00D1014601291998CB
:105C800001D000F0D0FE1F21CC060646A6431AD054
:105C90001897B9218B004649CB18197C59188F7B6E
:105CA000C10E8F4201D000F0C5FDFF2A01D100F0E6
:105CB000ADFDFE2A01D000F0C1FD1499097825F050
:105CC00029FA00F0B6FD1A9A159E00F0ADFE2920C3
:105CD000C443159D0026B5E32C4602251598294698
:105CE00025F04CF9E549611833F01CFAE448451CED
:105CF000B81C2AA933F0E6FA189932F031FE16984A
:105D000006407309A8B2159900F0B2FD002E00D02C
:105D100011E2002C03D0FF2C01D000F0B5FD822051
:105D2000ADE52AA9384626F08DFB002800D143E3D3
:105D30000020159E082800D182E52AA932F0E4FF50
:105D4000F8E7C0462C2E0020F7FF000034080000C2
:105D5000F81C002B72D00025011D00D1FEE20028A6
:105D600000D09EE0002D01D100F085FD28462830AE
:105D70002826A95D407800024018C10501D500F031
:105D800086FD2946183153AC102233F021FBA85D63
:105D90008006400F0022032100AB17C3049220A805
:105DA0001CA9012317F02AFB159C014D00F0F6FEFB
:105DB0002C2E0020FFFF00003C09000034090000E9
:105DC00004050000E0438E1E0E35002A03D1F1B217
:105DD000284626F085F8002872D0159800F03DFE80
:105DE00053A833F03BF9002801D1FEF75CFC0246D2
:105DF00028322823C15C567836027618310501D541
:105E0000FEF751FC0121CC029E499F4D695C26435F
:105E1000C654330A537022F0F3FBFEF744FC2AA861
:105E2000007A022800D2B1E2189814990840082894
:105E300001D100F011FE179F802498E60C32951CCA
:105E4000881E32F005FF00282BD190498E48445817
:105E500001201A90294632462AF0B2FB05464078C6
:105E6000401CC0B228281CD3002D1AD04C34A91CC9
:105E700020A81990082633F027F90A352022204659
:105E80002946189231F022FA9120C4007E48001968
:105E900017901999324630F095FB002801D100F097
:105EA00086FE7A4C784D295900221598E02A02D0B6
:105EB00032F08EFEFAE72A59FF21517000F0CDFD35
:105EC000F2B2222029461A922AF07AFB002884D0C6
:105ED0000746811C7DA819900826324618966C4BFF
:105EE000984739460A3146A83246694B98473946A1
:105EF00012314FA804263246654B98473946163171
:105F00001CA83246624EB0471A373EA83946189A46
:105F1000B04702261998314628F082F9002800D1AE
:105F20005BE707462C942B942A942AA8199017967D
:105F300006460836222029461A9A2AF041FB189074
:105F40007DA908221A92199D2846514B98471CA9F1
:105F50000422169230464E4B98471798287322AE6B
:105F60004FA93046169A4A4B9847083753AD10222E
:105F700028463946464B9847229830F0E3F922AE3E
:105F80000096162328461999189A2CF0BBF83EA9BA
:105F900030461A9A30F016FB002800D01DE77DA885
:105FA00033F09EF94F993B4A374EB35800011B1806
:105FB0000D0EDD710D0C9D710D0A5D711971B158D9
:105FC0000818C17A0906344A521C0A43110EC172DC
:105FD000324834543248214633F09AFAFDE6FA0743
:105FE00001D0FEF7CCF900F03EFD437DDB07DB0D71
:105FF00001D1FFF7EAF80C314F78402F01D900F0BA
:106000002BFD32F011FB921EBA4201D200F024FDAA
:106010001A94891C0078199053AC204633F06CFA1E
:1060200032F040FF0570002646702046002F00D158
:1060300049E1044605782820294631F0B3F929388A
:1060400009286BD8800001A10858874675600000B8
:10605000A5600000B5600000C56000001D61000083
:106060001D610000D76000001D6100001D6100007F
:10607000EB60000015982FF035FD4FE0F1070000B0
:106080000280FFFFB50400002C2E00203C09000018
:10609000CD720300E4040000FFFFFF072A050000A3
:1060A000757B03002A2133F07DF9002836D01721B3
:1060B000490104E02B2133F075F98D218900ED4A67
:1060C000511828E02C2133F06DF923210901E94A08
:1060D0005118042220E0B9208000E64A115AE6480F
:1060E000125A15982FF05EFC18E0E248E349415C33
:1060F00001200840490700D5801C2AA90880DD49F5
:10610000149A895CC90702D0001D2AA9088032218F
:1061100033F048F92AA9022231F0D8F82A2DD549BE
:1061200002D1172040010E522046601C7F1E7DE7E1
:10613000D348D0490E18B079F179081840000830DA
:1061400000257D7016973871C1B2159824F016FF9E
:106150000746082233F0E4F9B079B871F079FC1DF4
:106160001A97F87153A9087037460837B0798542F5
:1061700007D20222204633F0D1F96D1CBF1CA41CAB
:10618000F4E70446169FE1B2C0B2F27910188842D3
:106190000DD9E8B240001A9A101808304900711859
:1061A000083133F08FF86D1C641CB079EBE71A9955
:1061B000887940000818C01D53A933F01FF9159CB9
:1061C000199D189EB81C2AA933F07CF8179828400E
:1061D0004309AC48214632464AE338780121014060
:1061E000179B159E169FA848A24A105C4242424146
:1061F00013424DD1002B4BD0002901D0042000E0E8
:1062000001209C4D1A9A189B16979C496C18A272F3
:1062100059789A7812025118E18019788906C90FC5
:106220006172E072002020730627304632F04EFF84
:10623000217B964AAA1831F063FE1F22D2060B4634
:10624000934301700A0C8270090A4170190EC170E3
:10625000E17A41718E482C5C1A9804405F20C0009E
:10626000285C45424541002C00D1179D159E3046C3
:1062700032F02CFF002C169F0AD0002D08D0407958
:10628000012805D18348002231462EF075FFE6E350
:10629000189A5078917809020D18147832F002FE9D
:1062A0007D49744A525C521CD3B2FF2B00D10022AC
:1062B000704B5A540270802141703C40630977480A
:1062C00031462A46D4E21A98199901404B0974487C
:1062D0001599CCE2D624B3E032213046119A2FF042
:1062E00089FB002800D086E08CE480200690002006
:1062F0001A9015981A99002907D10A9909020B9A40
:106300008918684A914200D9A7E307990902089AB7
:106310008D181A99491D23F033FD064661480C9AE1
:10632000824205D953480599405A7DA9088001E069
:106330007DA90A80B01C32F0C5FF099830701A9A06
:106340003271701D2AA930F0C1FF069870700E9846
:106350000D9901404B0954481599B2E70421159C49
:1063600033F0D2F8002101805049424B59588978C6
:1063700001220A40827003D04D49595C2EF04CFC3A
:106380004C48A5214A0033F0BDF868E3179F00246C
:10639000012801D0FFF7EBFB012133F091F8E32155
:1063A0008900344A5158097807220A40511F4A424D
:1063B0004A410270FFF7DBFB199F012E1A9C00D0A7
:1063C00020E20121159E33F07BF800210170FFF7D8
:1063D00040FA781E87412C213046129A2FF00AFB92
:1063E0000028179800D13846002804D12B213046C8
:1063F000109A2FF0FFFA1698044063092E4835E2F0
:106400001C48199940581A99401832F079F80E34FE
:106410000079801EC5B22046294625F061FD00287E
:1064200000D019E32D20214633F006F8002800D1D2
:1064300012E3811C2AA832F0BDFEFFF725F986245D
:10644000159D179E022132F005FE0770447020064C
:1064500000D09DE017967DA8022631462FF016FD4C
:1064600013900020034B0D2828D02AA932F068FB96
:10647000F9E7C0462C2E0020EA070000FC080000C7
:10648000F307000004800000090900000C09000067
:106490000C050000D1FE0200440700003C80000013
:1064A00044800000F7FF0000068000003C09000067
:1064B000FA020000B1530200438000005D20C000DA
:1064C00019181691F94C1F462AAD08221492284635
:1064D000A047F74978580C463B4613990F01C0195D
:1064E000817BC27B1202511812912C912E73491C90
:1064F0008173090AC1731859C1193EAE042213925F
:106500003046EA4CA0471799083153AD102228466F
:10651000A0473E982FF016FFFB48FA494058C11992
:10652000C05D31F0DDF93E90129822902221159D38
:1065300028462DF087FD04461699149F3A46F04EE2
:10654000B0472046083046A93A46B04720461030AA
:106550003EA9139F3A46B0472046143022A93A4636
:10656000B04718340020082802D032F0C5FAFAE704
:10657000E54E1998305831F0D9FD42180E3200948A
:1065800053A82AA916232BF0BDFDE520C0003554E1
:10659000DE48002329466AE13546FFF778F90123F2
:1065A0005FE2DB4829462D5C002D00D111E2D9487D
:1065B000085C002800D16BE28521FEF71AF8FF2F56
:1065C00000D112E2052F189B169A01D9FEF7A1FC03
:1065D000012801D0FEF79DFC267853A832F048FD33
:1065E00053991798009015983A46334621F008F8C9
:1065F000169A189B0646002801D0FEF78AFC2EE268
:106600007DAA284621462FF0B9F91F2029462246A7
:1066100029F0D6FF002801D1FDF730FF417803298A
:1066200001D2FDF72BFF81782AAA1170C178517031
:10663000017991704079D0703821159828F05CFE6E
:106640001790B148199940581A99401831F064FFD1
:1066500046312020224629F0B3FF002801D1FDF762
:106660000DFF16904078032801D2FDF707FF179819
:10667000801C169DA91C32F025FE287917990871F7
:10668000687948716978C91E032242439142159D79
:1066900001D0FDF7F4FE16998E1D179D09350027D0
:1066A000092F00D9D7E2C0B2874200D3D3E2E81E57
:1066B000022232F035FFB07828707F1C179840799D
:1066C0006D1DF61CECE790489349405C000700D52F
:1066D00038E100200446179D1A9E0C32002E17D078
:1066E0008E49894D695C890701D4FFF776FB164610
:1066F000002800D05BE153A8007AC00988496A5C91
:10670000FE231340181868548648159929544EE101
:10671000164617957720C1007B4B5A5C7520C00048
:1067200018180023042B00D122E101259D401542B9
:1067300000D11FE15B1C001DF4E7C07AFF28179D04
:10674000134601D18B2300256F4880591A994018B0
:1067500031F0CAFE077B0221159C20461A911E4685
:1067600023F00EFB07702F464670002D0ED06E48AA
:1067700065490858867AC77A002120462DF062FCC8
:10678000067047702F46801C30F05CFA1D2132F0F5
:10679000BBFE054600201D2802D032F0CDF9FAE7F5
:1067A0000020687028701A98E8736048433080268B
:1067B000EE72A872287C042101432974189880067F
:1067C0000DD45B485049095C53A82EF025FA287C6B
:1067D0003043287453986875000AA87508E0524839
:1067E0004949085832F0D0F8287C01210143297426
:1067F0001599002F02D04F48434A11544E482AF0B1
:1068000017FC2CE10021159EFFF723F82AAD28463E
:1068100030F062F92A98204080192A901498411C7F
:106820007DAE32F011FB781C3288C0B2294625F0CB
:10683000D7FB05461A9A159E189FF5E0052A159E66
:10684000189F00D9EEE000201399129B994200D9BD
:106850006BE104466AE10027159E2D7832F022FB99
:106860001A990170477025406B0934483146189ACF
:1068700028F0FEFBF3E02C48234D2858C07AFF286F
:1068800000D101E1032000E18320FEF7F8FF80063C
:10689000400F25491C4D69588A7A002A00D141E1F0
:1068A000C97AFF2900D16CE103216BE1CD720300AD
:1068B000E404000053A80678002E01D1FEF7DEFCA8
:1068C00053A8451C0620C043801D1A903746002F50
:1068D00000D13CE15D20C0000B49081832F0CBFA32
:1068E000002801D1FEF7CAFC0822284614492FF0DF
:1068F00069FE002801D000201A907F1E0835E6E7C7
:10690000CD720300E40400002C2E0020478000001C
:10691000380800005E080000FC080000D5070000F1
:10692000B9030000250700003C0900000280FFFFBA
:10693000FA020000260700004D5001002B800000E5
:1069400028CC03001998C007C10D53A8002900D016
:10695000BFE61399002900D1BBE68057002800D577
:10696000B7E601201A99484001D1FEF77DFAB0E65A
:106970008A241CE0179B002B19D02A43F04B5A5451
:106980003178C17039787A78120251180180159ED9
:106990008670092132F0B4FD044653AD082232F06E
:1069A0004BFB287AC0092072E648314627E70221CE
:1069B000159D32F04FFB317801704470387879784A
:1069C00009020A181698149901404B09DE48294615
:1069D0004EE7159C0C54DD48085C42224243DC48DB
:1069E00032F090FD32F030FC39E026460C352AA812
:1069F00032F03EFB00246878844205D253A82AA9CD
:106A000032F036FB641CF6E7711C7DAE32F01CFAE6
:106A10006878328853A925F0E3FA0646189B169A3F
:106A2000FEF777FA00251A9AB878F978090208185B
:106A3000C84988420ED8002A0CD1387879780902E2
:106A40000C182A2132F05CFD00212A2911D032F0E5
:106A5000B7F8FAE7002E02D0304622F0B5FD1BA8A9
:106A60000378002B02D1159822F0AEFD7FB006B05E
:106A7000F0BD691E8D41E901417016990170C48411
:106A8000304628F0F1FCEAE70220159C00217BE06B
:106A9000AF48FE2100221A921AF0DCFD681E1999F7
:106AA000A74A5158C0B2169A424331F051FC287E91
:106AB000697E09020818217B627B12025118884204
:106AC00004D0A54A904201D0914229D114950C35A9
:106AD0002A460F32A87B4100501816901992A37BCA
:106AE00058001890301817901698401C1690525C59
:106AF000009300201699334624F0B2FF1695AA7B26
:106B00001798431C1898305C00900120199924F0C4
:106B1000A7FF92488A4A105C9149515C01435CD1BD
:106B2000862479E00021159C2EE0012414990B782D
:106B300000903046199920F063FD0546002800D0EA
:106B40001794002D179A00D06EE72E466CE71A981E
:106B5000002801D0FEF792FB53A8441C814D002E63
:106B600076D00822204629462FF02CFD002805D09B
:106B700020462DF091FE20462BF07CFA761E08343C
:106B8000EDE70221159CF84D0123002200AE07C657
:106B90000392049320A81CA916F030FCF44828584E
:106BA00002214170FE482C54FE48214627E6EE485B
:106BB000EF494658B078C0073DD120A8FF212FF0FB
:106BC00065F9EA49884201D1FFF76BF92FF076FFAA
:106BD0000546E548E64946582EE00D3714990D3133
:106BE000F348E14E3018022532F09CFA1698C07A2C
:106BF000F0497054432040013018394632F092FA7F
:106C0000ED483018E17A817715998176EB4831F0BB
:106C1000B9FC002856D08A24159821462AF074FF22
:106C2000D14DE14EA85D21462AF06EFF1A99A95573
:106C3000DE48295413E700257078012801D0FFF7BA
:106C400030F9CC481899415C002946D1199146E0A9
:106C50000024FEF713FBC44D199EA8591A9FC019B2
:106C600031F0ABFE091B891E31F0CAFF06211598D1
:106C700024F084F9A859C0198179C27912025118F7
:106C800045182C460C34284644302AA932F0F0F935
:106C90007D98482168544835000A68700027189983
:106CA000677021702024159D284632F0C7F953A93A
:106CB00032F020FC284621F091F8002800D1CEE6E1
:106CC0002846CAE60024159821462AF01DFFA6484A
:106CD000B549405C2146FDF78DFCA7481990B81DC9
:106CE000012901D0FFF738F8B17A00270229169759
:106CF00007D0012901D0FFF72FF8102018901A981B
:106D0000169032464C3231468C313EA81A920AF027
:106D100041FF0C3699489A493A46083224D0924AA3
:106D2000D3191A5C5B5C7F1E9A42F5D09A421BD243
:106D30005D20C0008C49091814961A9E1CE0C046BC
:106D40002C2E0020092502003480000035080000A8
:106D500061600300F7FF0000FFFF00005C08000017
:106D60008208000028CC03005D20C0007E4908187E
:106D7000179009191A981490824B2AAF08243846A4
:106D8000224698473846083020221A9214997D4BA3
:106D9000984738462830179922467A4CA0473846FB
:106DA000303031461A9E3246A047234653AC3EA9A6
:106DB000204632461E46984720462030502239460B
:106DC000B0477034204619991A9AB047169800288F
:106DD0001CD053A8902122AC224625F080F94EA861
:106DE000012101704FA8102232F036F9002010283E
:106DF00000D1A3E04FA9095C5C224A407DAB1A5444
:106E000036224A4053A90A54401CF0E753A8902167
:106E100022AA199228F03CF84EA81A900127077070
:106E20005A497DA8024658C958C20421417000241D
:106E30007E942AF071FB064655481A9932F05CFBA5
:106E40002FF090F81A96366853AF4021384631F04B
:106E50006FFB38461999189A31F07EFF4A4802684C
:106E600037462037384621469047002856D153AC44
:106E70004849204630F04BFF1A98006840222146CE
:106E80002DF000FB002849D1314628312022304620
:106E900031F062FF53A8404930F039FF3A480268A8
:106EA000002138469047002838D11A98006853A925
:106EB00040222DF0E7FA002830D11A9800683449B2
:106EC00001222DF0DFFA002828D11A98066853A96C
:106ED00030462CF07FFB002820D12B48026830463A
:106EE000203000219047002818D130462830202437
:106EF000314632F08DF9A5204000B63030621A9844
:106F0000006853A922462DF0BDFA002806D11A9830
:106F100000681D498A682030204990472EF0C6F944
:106F20001E4946AC202232F053FA1A9800682FF01E
:106F30000FFD1CA8102232F08FF811E053AC204650
:106F400010304EA932F05AFA7DAE3246103211217D
:106F5000204625F0C4F820211CAA304625F0BFF8B1
:106F60000020FEF7F9FEC0462C2E0020FFFF000097
:106F70003C090000846C002098720020EF020000A1
:106F80008F040000CD7203007800000FC4CB030013
:106F90006C4B00205C5C5C5C6A6A6A6AEC4B0020AB
:106FA0002707000079FE0200380800005E08000094
:106FB0003A0800003C0800004408000011F00200FC
:106FC000F0B5FFB0DCB0B4A82A90B4AEB4AB9DAFBE
:106FD000B4AC38A8DB4DDC496A5CDC49695C52071B
:106FE00002D40A0700D5ACE0490701D401F086FDC0
:106FF0002A9915312A913146903122912636194627
:1070000015312891591D27910E33249339464E315D
:107010000E9139464D310D913C3721464E311E912E
:1070200021464D3119913C341A9403213491C90100
:107030004018339000202C2805D0291833229201C3
:1070400031F072FDF7E74720C14363202B908000A9
:10705000379030914731332080011F90369129506D
:1070600000203799814203D038A931F069FDF8E753
:107070000F970496339836990160B5482F180F2062
:107080003590002632963146022E3CD0F4B20025CF
:10709000B4AA0C232046294629F07AFF411C22D0AD
:1070A000002823D1B4A99DAA204629F049FF014612
:1070B000483101D000280FD19DA800880E2810D893
:1070C000798801220A437A8038803599884215D21E
:1070D00029463296359012E00F20388030982530BE
:1070E00004E00F20388030F087FC36987A88054617
:1070F00001218A437A8020462DF006FE2946761C1F
:107100003F1D904DC0E7359E0F2E38D090482C186B
:107110000025329F022D2ED020880F280ED0AF429E
:107120000CD0B0420AD00F20208060880121884313
:107130006080E8B22DF0E8FD309947316D1C241DC8
:10714000E8E733208001012129500024E0B2012822
:1071500003D81CF06BFF641CF8E7F0481821295095
:10716000CD20000100212954774AA85C0621014363
:10717000A95401F0BEFC0E2E00D03099714D26911D
:1071800073482E1800273697022F30D030880F28EA
:1071900002D17F1C361DF7E7FCB238A9204614F057
:1071A0001DFA014638310FD0411C13D0002814D1EC
:1071B000339B03CB2B9A5201AA1810661878CD2363
:1071C0001B01E854D166E4E70120B8403699014339
:1071D0003691DEE730F010FCDBE770880121884350
:1071E00070800F20308020462DF08EFDD1E70020EA
:1071F0001024202800D198E00C22424338A9891895
:107200004968C74B194204D038AB9A181289002A32
:1072100002D1401C0C34ECE7461C880F38A93246DA
:10722000BF4F1F2A08D80B593B4202D09B0F9842F0
:1072300004D1521C0C31F4E7014602E002282FD1A0
:107240000221339E369AD4B22246C240D00715D0CE
:10725000C8B2022810D232682B9B5B01EB181A6669
:10726000CD2214012955800018186421405A0E2897
:1072700046D118F0FDFF45E03698C4B2CD2000019C
:107280002A5C012108469043C440E2074DD08200A9
:10729000AA18A44BD45A8C43D4522DF035FD44E0A7
:1072A00001461F2E1AD838A800599D4A104212D004
:1072B000870FC8B2B8420ED081006918244A8A18D4
:1072C00053880125AB431F4D53800F22204BCA52D8
:1072D0002DF01AFD3946761C0C34E2E73698C4B21C
:1072E000C8B22246C240D207339EB1D10021379A9C
:1072F0008A4201D101F005FC38AA31F065FCF6E7BD
:1073000016F05AFE00203799814203D038A931F097
:1073100017FCF8E7309847303060285D38A914F042
:107320005DF9002801D030F067FB0749685C022254
:1073300025921043685400207B4C08280AD031F075
:10734000DBFBFAE72C2E0020D10C000079040000B2
:10735000C40C0000B4A8401C2D90B4A809302190A2
:107360009DA85B300C90B4A80146083117910146E6
:107370000C311691014614311591014624311491B6
:1073800001462C31139101463D3112914F30189036
:107390009DA8014608310A9101460C310991014628
:1073A0001431089101462431079101462C31069190
:1073B00001463D3105914F300B90B4A8801C0390DD
:1073C00000215A4828181D90594828181C905948DF
:1073D00028181B905848281823905848281820909F
:1073E000574828181190574828181090359120298F
:1073F00001D101F058FB0C203691484338A90D18F3
:1074000069680B46464A1340379301D101F042FBAD
:1074100038AA121812893392002A01D101F03AFBDE
:107420008A0F32929200484B9A18484BD75A0E2F27
:1074300001D901F02FFB01223192BA404F231B02E8
:107440001A4201D101F026FB38AA101840892F906A
:107450003D483F4A815086183398B0807F20359C44
:107460002E9004401C2C00D914E13198A0403949D9
:10747000084200D10EE1344837494158002906D06E
:10748000369880B28847002801D101F003FB601EC6
:107490001E2800D99FE1800001A108588746C046F8
:1074A0005D750000A376000081770000D7770000AB
:1074B000D777000007780000C5780000D777000074
:1074C000DD780000E7780000ED7800000379000027
:1074D000D777000013790000E1790000D77700002A
:1074E000D7770000D7770000817A0000D7770000B7
:1074F000977A0000D7770000D7770000D777000091
:10750000D7770000D7770000B37A0000B97A00007F
:10751000D7770000D7770000D37A0000CC0C0000AA
:10752000FFFFFF3FC60C0000345200207C04000027
:107530003702000092040000E40C00002A0C000056
:10754000F40B00000A0C00002C2E0020C40C0000DC
:10755000DC0C000001460018BC0C00002F98042829
:1075600001D100F0ACFF0328329D01D100F0ADFF46
:10757000022801D001F08EFA9DAC5C2620463146EF
:1075800030F0D6FF284637992246334628F09AFF36
:10759000002801D001F07EFA9DA8329000780121E8
:1075A00037910840F74FF84EB95DFE220A40101897
:1075B000B8559BAC042220460A99F44EB0471D985A
:1075C00021462EF0D7F80920C0013818082509995E
:1075D0002A46B047329C207802210140EA4BF85CF1
:1075E000FD2202405018F85489208000381831904C
:1075F00008992A46B04733469E981026F041B92193
:1076000089007A1833922F917850FF20E0497854FE
:107610006078E04978546088DF4978529120C00052
:10762000381807992A461C4698470F980078DB4976
:1076300078541C9D284606993246A047D748385CA6
:107640002874D748379939541B9805993246A04772
:1076500030F04DFE0D9800783399C8730E9800787D
:1076600088730D462B20000138180C220B99A04777
:107670006D88CC498D4201D101F0ECF82F98385A31
:10768000884201D101F0E6F8C749785C379A104387
:1076900001F0E4F8BB4AC54BD05CFD210140D15458
:1076A000E9E6B4AA182331F09FFB002801D001F0CD
:1076B000F1F9052005020121284626F049FF00289E
:1076C0004AD004460126102329463246B84FB8470F
:1076D0002FF0E9FEB4A908222F46339525460C4623
:1076E00037912FF0F3FD0023284639463246B04F3C
:1076F000B847617A2C468279C3791B029A18037ABB
:10770000407A0002C0180004801801701123284636
:10771000339F394635463246A54EB047B7992FF0CC
:1077200069F8A44BB047B6992FF064F8A24BB04764
:10773000379E71892FF022FD0720430320463946EA
:107740002A469B4DA847F17D2FF000FDF07D0028D3
:1077500002D0204622F03CFC31F0DEFB002801D1B3
:1077600001F098F920210122944B30F0A1FC2FF078
:107770009AFEB4A9CA890280497B817001F08AF916
:107780000026804D33988E4969580A78964200D376
:10779000B1E14A788B781B029A18CB78097931F0DD
:1077A0001BF9B2008A58917ED37E1B025918137FB1
:1077B000547F2402E3181B0459180AD0537E309AD0
:1077C00018325A43002A04D000230B70491C521C63
:1077D000F8E7761CD7E7C92000016A490C18002594
:1077E000684878494058854201D301F053F921682F
:1077F000369886B230468847002801D000F024FC35
:107800006D1C1434ECE7B4AA182331F0EDFA00280B
:1078100001D001F03FF930F09FFF002306462146DA
:107820002A46634FB847B4992FF078FC31F0BCF981
:107830002B46B847B5992FF071FCB598FA213791CE
:1078400048432AF0C7FD02233046339621462A4694
:10785000B847B6992FF092FCB4AF38895A494843DB
:107860005A49401831F047FB45214901454A5050DB
:107870002DF048FD032331F097F94D4EB04779893B
:107880002FF07CFC7889379948432BF007FE0423BE
:10789000339E31F089F9464FB847B7992FF03EFC37
:1078A0000523304621462A46B847B8992FF036FCC2
:1078B0000623304621462A46B847B9992FF05EFC88
:1078C00001F0E8F828682E900020414C339E0428EF
:1078D00000D1C4E19DA931F033F9F8E72B984001BC
:1078E00028490B58EBE027483A49E7E00023329853
:1078F0003799042B00D136E29DAC0022E2545B1C88
:10790000F7E70020042800D14FE29DA931F018F9D3
:10791000F8E72F98012800D062E3B4AA082331F0D9
:1079200063FA002801D001F0B5F8B4982A4940184C
:107930009B218900134A50509D2081000020505205
:107940003399C9080901814201D101F0A3F8B59A20
:10795000214BD2180B4D214EAB591C181A54130E43
:10796000E370130CA370120A6270AA591218002354
:1079700053731373AA591218D37A10241C43D47268
:107980001030E0E72C2E002079040000CD720300B7
:10799000FA02000036020000760200006B020000CE
:1079A0006A020000FFFF000014070000D10C000075
:1079B000B180030001E0000002E00000FEEF0000E3
:1079C000AC090000B80C000090D00300FF3B0000A1
:1079D00034520020640C0000FF030000E4040000A7
:1079E0000822239831F09CFD2F98022801D100F045
:1079F000A3FF2F98012800D131E3002801D001F026
:107A000049F8B4A8982130F093FD3398982800D015
:107A100025E3B4AA982331F0E7F9002801D001F05A
:107A200039F822980378082B01D901F033F822980D
:107A30004078102801D901F02DF8A721C900F54A96
:107A400053545118487000200121039A049F984212
:107A500001D300F017FF531E1B781524A401ED4E2F
:107A600035596D186D1E2B7053781578345966187A
:107A700065547370401C229B1B78C91C121DE6E7DD
:107A800000233298379C042B00D198E1B4A900223E
:107A9000CA545B1CF7E7B4AA24233298379C2146CA
:107AA00029F076FA002800D1F0E225F008FB00F07A
:107AB000F1FFD848D84901E0D648D8494358002BAF
:107AC00001D100F0E7FF32983799339A984700F0D8
:107AD000E1FF2F98002801D000F0DCFF0023CD4CFF
:107AE00032983799102B01D100F014FCB4AD00226C
:107AF000EA545B1CF6E718212BF070FA2F90002156
:107B00002E912F98814201D100F0C4FF3191B4AA87
:107B1000182331F069F9002800D09AE0C0482858AD
:107B20000178401CB4AA5278339200252A4691422B
:107B30001CD0077844782402E4198778C678360286
:107B4000F619360434196759BC7EFE7E36023419A4
:107B50003E7F7B7F1B029B191B041B1903D03B78C4
:107B6000339CA34204D0521C2D1DE0E70B4600E0DD
:107B700013468A42A74D64D2017842781202511806
:107B80008278C07830F041FF99004058817EC27EF3
:107B900012025118027F437F1B029A1812045318D5
:107BA000417E3020484318180022914206D01C7AAA
:107BB000E40702D0521C3033F7E718468A4240D21D
:107BC000017A01220A430272B4AA11780170537833
:107BD000437053884380B59B0371279E3378747834
:107BE0002402E318C380B378F4782402E318C38531
:107BF000537A03725289028200290BD1B7994182CC
:107C0000249B19785A78120251189A78DB7830F050
:107C1000EEFC4161B4A9498A024628320185B9992E
:107C20009170289A30F057FD81851C21242903D0BA
:107C3000FF224254491CF9E728F06AFD2E98401CA7
:107C40002E902E98002802D01FF042FA01E000206A
:107C50002E903199379818303790491C51E79DAADA
:107C6000042332983799299328F02CFC07460028E2
:107C700003D19D9867496B4A88542BF0E5FE65480F
:107C800069492F9A42521C21002A319100D030219B
:107C9000301F002A01D02C223192379A161D2BF06A
:107CA0009DF905462E9860600024204629462CF058
:107CB00016FB5E4908703395294622F061F822468A
:107CC00031462E90534C329D3398824201D300F0BE
:107CD00014FC002F01D000F010FC3792B4AA284603
:107CE0000E461DF0FBFD0746002837D12C97B4A89F
:107CF0002EF0A8F84E496258299B3499084001019A
:107D000051180D7A4F7A3F027D198F7ACC7A24026E
:107D1000E419240467193D46464C2540002B04D045
:107D2000002D05D0401C5B1EE7E7002D00D0E0E3EE
:107D3000083132463F4B1A401F23DB061F40BB1859
:107D40000A70140C8C70120A4A701A0ECA702E999E
:107D50000870491C2E912F4C329D2C9F3198311860
:107D6000379A521CB0E79DAA042328F0ABFB0028E9
:107D7000284C00D1ECE29120C000241808222046B3
:107D80002D492EF01FFC002801D100F083FE2EF0BB
:107D9000A9FB002801D000F07DFE00210122B4AB38
:107DA000204612F05DF900F075FE00233298379DF1
:107DB000082B43D0B4A90022CA545B1CF8E7B4AA2C
:107DC0000423214629F0E4F8002801D000F062FEE7
:107DD000241DB4A80178192086010E4A91550B2064
:107DE000C001151800200746C9B28F4201D300F028
:107DF00051FE002801D000F04DFE0C2332982146A0
:107E00002A4629F0C5F87F1C0C340249895D0C35DF
:107E1000EAE7C0462C2E0020680C00006C0C000025
:107E2000AC090000B2040000B60400003452002087
:107E3000E4040000FFFFFF0730CC03009DAA0424E8
:107E40002946234628F03EFB002801D000F022FE00
:107E500001279DA840780228259800D32046349910
:107E600009022F91390229914419002633463546DB
:107E70002C979DA80078854201D300F00BFE002BC3
:107E800001D000F007FEB4AA08233298214628F05A
:107E900019FB03462D9800780106490F052900D1EA
:107EA0009AE0012909D12D994978090208182F99DA
:107EB00008402999884200D18EE031933396379457
:107EC000E3208600704A905911246C43015D3943C8
:107ED0000155B498915909198871B4A8007824F013
:107EE00059FF00280BD068488059339E8019002123
:107EF000379C319B11296FD030F062FEFAE72D9F3D
:107F00003878F84989590A5D0007400E87231340E5
:107F1000181808553878F349895909194A7812020E
:107F2000C0001F23DB0213401818000A487030F00D
:107F300067FD01462F9A11402C9A5202914209D1B5
:107F4000E849895909194A7BC006C00FFE2313402E
:107F500018184873E34881590819095D30F01EF973
:107F60004A05520F06D1B499DF4ADE4B9954017885
:107F700030F014F92D9A52789207520F06230F46CB
:107F80009F43BA180B0A4370090C81700270B4A8A1
:107F9000C178D44FBA19BB591B195971B95909196C
:107FA0002E9B0B71516800780D54B598B9590A1978
:107FB000095D53781B02591893781B04C918C00631
:107FC000800BCA4B19400818010C9170000A5070C0
:107FD0002C9F379C339E319B08346D1C113648E72B
:107FE0002D68B4AA042330F0FFFE002801D000F071
:107FF00051FDB498BE4940189B218900B94A5050A0
:108000009D208000002414523398001F01D100F0FD
:1080100041FDB8494968691AB74A914201D900F04F
:1080200039FD80083799091DC2B232981DF00EFB48
:10803000B0480078002801D100F02CFD21F0C4FAEE
:10804000AC48047000F026FDE46800972F9801907A
:1080500030463299379A339BA04700F01BFD2EF033
:10806000F1F900269D969DAA30F018FA00289D4B44
:1080700000D14FE2A721C9005E521C3001D100F0AF
:108080005BFC00F007FDC0462C2E00202434379402
:10809000B498944F994978547A18B4A83390407999
:1080A000411E8841029210770C222F92209C20467C
:1080B00021992FF00BF900206070E070E08029908A
:1080C000A0808F4D2846319E314626F041FA2C90F3
:1080D000294632468B4B8C4FB8472A9B19785A78E1
:1080E0001C46120251182FF049F82C9F3846294699
:1080F0003246259B844DA847217B31402FF026F83E
:10810000032338467E4932467F4DA847217B8907A5
:108110002EF065FE207B25990840400826F0B4F833
:108120000423384676490C463246A8473399C97D20
:108130002FF00CF80523384621463246A847BA9955
:108140002FF004F80623384621463246A8472A9CD9
:10815000217B4907C90F2EF0F9FF072338466849EC
:108160003246A847217B0907C90F2EF0EFFF257B78
:1081700066485C4C205C6900102319402E93EF2266
:1081800002408818584061496054082338465C49C9
:1081900032465D4CA047E906C90F2EF0D7FF0923F0
:1081A000384657493246A04725462A99097B890611
:1081B000C90F2EF0CBFF0A2338463C4650493246C1
:1081C000A847339D697E2EF0C1FF0B2338464C49EA
:1081D00032464D4FB8472A99097B49062EF0FFFDDC
:1081E0002046474932462F9B474FB847A97E2EF07D
:1081F000ADFFA87E46493B4A50500D2327462046F6
:108200003F493246404CA0472A9C217BC9098279CC
:10821000C3791B029A18037A407A0002C01800043E
:1082200080180170207BC00928F0F4F90E2338462D
:1082300033493246344CA047E97E2EF087FF0F23A6
:1082400038462F490D463246A0472A9C617B314073
:108250002EF07CFF607BC007C00F27F089FD3846F9
:10826000294632462E9B284DA847617B89072EF070
:10827000B6FD1123384622493246234DA847BB9903
:108280002EF064FF122338461D4932461E4DA84782
:1082900030F0EEFA2EF072FF1323384618493246BA
:1082A000194DA847A17AE27A120251182EF066FF02
:1082B00033980079411E092900D916E1094D430080
:1082C0003298379C2146119A28F062FEB4A90979A8
:1082D0004A001319002800D142E2309E47360020A0
:1082E000319048E22C2E0020FA020000FF1FFC0013
:1082F000FF03000034520020FEFFFF7FEC0B000064
:1083000057FC0000FDFF0000B1800300FC080000E6
:10831000DC080000B4AA102328F0D4F8002800D00C
:10832000B8E3B4982521890160526018B4A94A883D
:108330008281B59AC281CA880282B69A42824989EC
:108340008182B79901840020014624F00BFEA1E34D
:108350000020102803D0B4A930F0F2FBF9E7012087
:10836000000233903798071D002001469DAA12781D
:10837000914200D3FFE4002800D0FCE49DA840789F
:108380000128379101D0102500E00D25B4AE3298B8
:10839000394632462B4628F095F881218B00E25869
:1083A000B17A0B2671435418617AA27A12025118DD
:1083B000339A11427ED12C952E902F970934B4AA6E
:1083C0001D46D37A9B075B0C31969F2636020E40E2
:1083D0009B19319E2170190A6170F44F7859917A76
:1083E00071434118887A00024004800F19D0B4A864
:1083F000C07A01282BD106220846ED492EF066FFEF
:10840000B698EA4F7959B4AA937A7343C918030A04
:10841000CB718871B7987959927A7243891808722A
:1084200026E0B4AE304627F043FBB6987959B27ACD
:10843000319B5A438918020ACA718871B7982FF084
:1084400048FFB07A3189319E1EF0C0FF10E0B4AE13
:10845000304627F02DFBB798D44F2FF03AFF7859CC
:10846000B17A319E71434018D24A110AC1718271AA
:108470007959B4A8827A7243891830F094FA339B00
:108480001A434A72120A8A727959827A7243891897
:1084900000224A727959807A70430818817A102232
:1084A0000A438272832080003958491C39502F9F1B
:1084B0002E982C9D7F193799491CBC4C56E7B4AABD
:1084C000642330F091FC044688E09DAA5C23284692
:1084D000379927F0F7FF044600287FD10020642851
:1084E00064D0B4A930F02CFBF9E7329C379D299E6B
:1084F00043E10027AD4C329D31462F98002806D02D
:10850000002F04D13398C2B228461DF09FF8AA4824
:108510002554BFE29DA80278A721CC001A551B194B
:10852000417859709000CB001818339B1B1F9BB2E9
:10853000834200D000E29D4B319430984730102A9E
:1085400000D997E5102900D994E5002A3146319CDD
:1085500000D1C6E12C972E962E1D00200125114634
:1085600007468F4200D3AFE1002800D0ACE1B4AAA7
:1085700004233298314627F0A5FF002810D1B4A972
:108580004A7815239B01894CE4586419641E2270B3
:10859000319C4988854AD25853195155090A597056
:1085A0007F1C9DA90978ED1C361DDAE7B4A89DA9AA
:1085B0005C222EF08BFE0C9800781E9B597BF822D3
:1085C0000A40072101405018587330984730CB902B
:1085D0000020C1439974090AD9741875002C00D081
:1085E00058E2B4A8379000780121329108406F4FCB
:1085F000724D795DFE220A40101878559DAC042218
:10860000204617996E4EB0471D9821462DF0B2F8BE
:108610000920C0013818082416992246B047379817
:10862000007802210140785DFD2202405018785503
:1086300089208000381833901599224625463194B8
:10864000B04733464320C0003A182E92B598102602
:10865000F041B92189007C182F942C917850FF208B
:1086600058497854379948789077488856497852CD
:108670001E9C207D90759120C000381814992A46C0
:1086800098471A980078514978541C9D28461399A8
:1086900032464B4B98474D48385C28744C48329BC7
:1086A0003B541B98129932461E46454B98472FF073
:1086B0001EFE199800782F9DE8732078A8733798CC
:1086C000007880092E990875607B8107C90F69734E
:1086D000404BF9584007C00FC003F20391434018C4
:1086E000F8502B20000138180C221899344B984769
:1086F000607B5121C9007A5AC007000E80239A433B
:1087000010187852CB9822F0EDF8A07CE17C090299
:10871000081829F0F3FD607B31990840C00827F064
:1087200079FF6D8823498D4207D02C98385A8842AA
:1087300003D02A49785C304302E0FE49785CB043BC
:1087400078540822339C204623492DF03BFF002813
:1087500000D19FE1FD48854200D19BE19BAA8CE0BE
:108760000298C1711018C0880026F84A904202D1C0
:10877000481EF8496854329C1D46B4A83199002916
:108780003AD08079002837D00A2835D843002046CF
:108790002946109A28F0FCFBB4A989794A0055199A
:1087A00000281DD0309E473626E0C0462C2E0020E3
:1087B00028CC0300FFFF0000B4040000790400008F
:1087C000CD720300FA020000760200006B02000086
:1087D0006A0200001405000030CC030014070000FA
:1087E000029841771018808B0026D84A904203D116
:1087F000481ED149D84A8854B4A8002E01D0FFF7AA
:1088000054F9C079002801D1FFF74FF9042801D9A4
:10881000FFF74BF961214901C74A5218430020462E
:10882000294628F0B5FB002801D0FFF73EF9B4A88F
:10883000C079C149C94A885489184200895AC34A33
:10884000914201D0FFF731F9401EBB49C34A885419
:10885000FFF72BF9C549785C379A9043319C7854DF
:1088600008222046BA492DF0ADFE002800D111E1C2
:10887000B648854200D10DE19CAA284621461CF04D
:10888000D3FB07E1002007213A46229B5B78984200
:1088900000D3CDE0931F1C785B78A74DB04EAD5947
:1088A0006D18ED1E6B702C70A34D137807241C40BF
:1088B000AB595B185B1E1C701378DB08AC59635412
:1088C000401C0831D21DE0E70028379D2E9E2C9FCA
:1088D00007D00021984A11532F9902292CD0FFF775
:1088E000CCFBB596B496880045192F999DA8407881
:1088F00086421FD2E919B4AA0823329827F0E2FD74
:108900000028E6D1B5988C4B954C1959CA19C85511
:10891000000A5070B4A8C17907220A401959C91930
:108920008A70C079C0081959319CC919C870761C61
:108930000837DAE702297BD12DF084FD00269D96C9
:108940009DAA2FF0ABFD00287B4C00D09FE09DA896
:108950000278A721C90062546118407848709100DC
:10896000C3005918339B1B1F9BB28B4200D08EE073
:10897000102A00D98BE0102800D988E0002A31465F
:1089800031962FD02C1D00200125114606462F9729
:108990008E4222D2002820D1B4AA04233298214644
:1089A00027F090FD002812D1B4A94A7833921523FC
:1089B0009B01614AD2585219521E339F17702F9F44
:1089C00049885D4AD25853195155090A5970761C85
:1089D0009DA90978ED1C241DDAE70028564C379D27
:1089E000319E54D1B596B4968800441935469DA859
:1089F000407885421CD2E119B4AA0823329827F0A6
:108A000061FD002842D1B5984B4B554E9959CA1972
:108A1000C855000A5070B4A881799A59D21991703A
:108A2000C0799959319EC919C8706D1C0837DEE7A5
:108A30000024042540494B48085C844210D2484831
:108A4000085841198978032907D1405D24F0A2F91B
:108A5000002802D0E0B22AF0D9FF641C0835E9E70B
:108A6000414808580021082902D030F0A9F8FAE757
:108A7000002080280ED03049394A89580A18095CEC
:108A80002EF024FF00220A700830F2E72A4CA720BB
:108A9000C00026523699491C3598401C3590264D09
:108AA000284CFEF7A4FC2078002803D020F08CFD91
:108AB00000202070002424482C50281884802698F8
:108AC000483001D115F078FA1D482858002810D1F7
:108AD00020462CF019F9CD2000012C542B98400190
:108AE00028181821C166006E401C02D101201F9970
:108AF0006850124AA85C04210143A9547FB05CB0BD
:108B0000F0BD30994731316038A912F067FD002877
:108B100003D02EF071FFFEF7B1FB03CE2B9A52016A
:108B2000AA1810663078CD231B01E854D166FEF7F1
:108B3000A5FBC046140700002C2E0020D10C00001D
:108B4000CC0C000034520020DC0C0000FFFF0000C1
:108B500030CC0300F30B0000090C00001E0C0000D9
:108B600044050000390500003C0500001407000022
:108B7000F0B5C7B0F04E0025358008200A90B070DF
:108B8000562003211191315498200F9035523046D0
:108B90004730EA49EA4B0E273A4698474620375471
:108BA00030465E30E7490D242246E54B98475D206C
:108BB000059034547620FF2114913154E8438421E8
:108BC000705031468431E04A4A608C2170509021C7
:108BD000DE480691705031469031486030469C30F6
:108BE000DB49C161DB49C160F01DDB490624224637
:108BF000D34B9847B47130462730D8493A46D04BCA
:108C00009847262007973754D548D64A854203D03F
:108C1000002151556D1CF9E72820D34A3C2803D088
:108C200000211154401CF9E70020D04AD04B1146D6
:108C30006E31814203D000211954401CF7E7CD4822
:108C4000D423C84CE0502046D430CB4E31465C3162
:108C5000C160CA490A464C326F20C0000B902250B6
:108C60003031C748215031466031C6482150314625
:108C700064318F20099000010D902150A721C90077
:108C80006118C14A2032C14C71364E608A60CC6096
:108C9000BF4E314620310022BE4CB248802A0BD054
:108CA0000759BD18B9540F0EEF700F0CAF700F0AB3
:108CB0006F700832491CF1E7B749AF22D200A948CA
:108CC00013928150B549B64AC263AB4A683206C0B6
:108CD000B44F39463031B44A08388150B349812203
:108CE00092000C9281503146413141221092D200C3
:108CF0000E928150E32189004218354655353036B1
:108D000012914650AA4E55609660AA4AAA4942500E
:108D1000AA494750C358AA4E002E04D000221A7008
:108D20005B1C761CF8E7E0218E480891435800262A
:108D3000042E03D000229A55761CF9E789480B9936
:108D400040580023192B03D00022C2545B1CF9E7C2
:108D500084488B49405800231B2B03D00022C25467
:108D60005B1CF9E77F48874940580023042B03D058
:108D70000022C2545B1CF9E77A480D994058002341
:108D8000042B03D00022C2545B1CF9E700200346E9
:108D9000102B23D073490A59DD005619575D71789D
:108DA0000902C919B778F6783602F619360476182A
:108DB000171800220021082A02D0B954521CF9E7E2
:108DC0003170684909594A194E55310ED170310C2C
:108DD0009170310A51705B1C0830D9E779486149BC
:108DE00008580022082A02D02FF08AFEFAE7152040
:108DF00080015C4908580022302A02D02FF080FE02
:108E0000FAE75848139940580022482A02D02FF018
:108E100077FEFAE7534800680022EC2A02D02FF0D0
:108E20006FFEFAE7684C4F48C06B2346002B04D016
:108E300000210170401C5B1CF8E74A484068002292
:108E4000042A02D02FF05CFEFAE746485649405803
:108E50000022402A02D02FF053FEFAE741480C9935
:108E600040580022DC2A02D02FF04AFEFAE73D48A3
:108E70000E9940580022142A02D02FF041FEFAE742
:108E800039200001374908580022142A02D02FF057
:108E900037FEFAE73348129940580021112902D0D1
:108EA0002FF08EFEFAE7E52080002E490858214673
:108EB0002031002902D02FF071FDFAE729483F49FF
:108EC00040580021302902D02FF07AFEFAE72548D9
:108ED000394940580021E02902D02FF071FEFAE70D
:108EE00001253A481F4C255439492220095C0029A4
:108EF00000D062E236490D54086E002800D0FEE72B
:108F00000B950D4600241894179416943148324955
:108F100016AB224629F07CFB2866144D16352846F0
:108F20002AF094FF002800D12AE20146A54255D03C
:108F300000200855641CF9E74841002058CB030085
:108F4000CD72030084CB0300FFFF0000008000808F
:108F5000BABA40231300102447CC030067CB0300A8
:108F6000240D00002C2E0020F86D00204A02000085
:108F7000503B002070520020006D0020AC7000209B
:108F8000E8080000EC08000098720020886B0020C0
:108F90004070002044050000E8720020B865002001
:108FA000186300205C6F0020E40400008467002048
:108FB00078640020A46600203C0900005C060000E4
:108FC00058EFFFFF3C050000A0FEFFFF0C0D000066
:108FD000846C00201051002019FD02008520400003
:108FE00012900E91FE4C200456D0129827F0D8FC17
:108FF0002FF010FD1CF0C6FFFA4F3846FA491FF05B
:10900000A7FB0120F94E30600024F94D2C60F9488F
:1090100068602021F8482FF08BFA0F98A8620E980C
:10902000E8623846314623F0D7F80546102803D8C1
:10903000EE4827F025F805465421F04F785C401E95
:109040007854E849896DBA6D914201D10021B96522
:10905000000618D1EA482DF051FF5526B85D0028CA
:1090600006D1E84A2E32E848E84900BF00BFB85DA3
:10907000401EB855000606D1384664302EF060FF19
:10908000E3482EF05DFF129827F062FC2FF074FE8B
:10909000102DA8D0E443A6E7DE484078002800D091
:1090A0006BE1DD480024046501210F912DF020F8CB
:1090B000002800D161E115A81499017033A811218D
:1090C00001701D214170E82181707421C1706C21F3
:1090D0000171EC214171B02181710799C1717F212A
:1090E0000172B72141726D218172C521C1728E2139
:1090F0000173022242730C218173A221C1732046A5
:109100000E9B102C03D0195D0843641CF9E700285E
:1091100000D132E103920024E743149D723537A851
:1091200040212FF005FA214607940297384622463F
:109130000E9E982A43D004929200B65870400027A1
:1091400002040D9704D1491C0D91072900D914E19F
:10915000A349491C884203D2671C072F00D90CE1A0
:10916000B0B237AC21462DF0E5FB300C21462DF096
:10917000E1FB079CA41D1298F530844218D9002108
:1091800008460C46202813D037AA125A2B465C33C7
:109190009A4200D9F1E037AA125AAA4203D900290B
:1091A0000F9900D0E9E037AA00231352801CE9E7A9
:1091B0000794049A521C3C460D993046B8E716AC09
:1091C0004C2120462FF0B4F9299415A82A9026F0B6
:1091D0008BFA2998014649314922039B8354002583
:1091E000056401274F700421029A25F0E9F829ACA3
:1091F000002800D02C460028039800D0BDE02FAAFC
:10920000107033A83090102531950E9E2B96129831
:1092100026302D902E9537A82C902BA920460DF0A6
:10922000B7FF002807D0132041012FF07FFF2068EF
:109230002FF01DFCA1E0132630010E9908182B9089
:1092400037A810302C902BA92FAA20460DF0A0FF94
:10925000129071010E982FF06BF920682FF007FC27
:109260001298002800D088E026F03EFA2120C000A5
:109270001499694C2154201821465C311291616582
:109280000F90A0651098860000200D90A0552BF03F
:1092900091F8A15D002902D02CF0DCF86DE0079672
:1092A000A7552CF0D7F8129C264630364C212FF0CB
:1092B0003DFFE6677C340F986060D52056490F5417
:1092C00004213046029A25F07BF8002800D00D9C3E
:1092D0000899514A5450002804D000204E49079A5A
:1092E00088544AE0E4204C4A039911541046E43073
:1092F000129C446085600025D5676562A562E562C1
:10930000D565156655669566F42020211150FC2020
:1093100002991150149806301754284629462A46B7
:1093200019F09CFA002816D008983B4F385800686E
:109330002EF0C8F97C6D2646903675760698215831
:1093400020462FF0F5F825626562A562E562F560BA
:1093500007983D5411E037AC002120460A4619F029
:109360007DFA2DF065FA0546202120462FF0DEFF1C
:10937000002D02D10B98274948700E982EF0F8FD69
:109380002449887800280B9D03D14878012800D112
:109390008D702BF00FF819490A7A002A01D00024A9
:1093A00002E001220A721D4C2CF054F81C48446261
:1093B00035200121164A11541A4C2EF0BFF91A4AD1
:1093C000A05C04210143A1542BF070FF08982058A1
:1093D0000021099B042929D02FF0F2FBFAE7C046AF
:1093E000FFFF00002020094038CB03007C2009400B
:1093F000802009403597010088200940806D0020B9
:10940000CE0700004A020000B0C90300BFC6030037
:10941000F86D0020846C0020F84400200CCC030080
:10942000086C00202C2E0020790400000B951F20D2
:109430000F90C406F74FD800F74E04903518281D3A
:109440002DF04AFB686807942040C019686068786E
:1094500002211291084368708B20810011980891B5
:1094600070544020ED49315200200A210246109DDF
:10947000E94F20281FD0FB6B5B185B1E149E1E70EB
:109480007B5DFF2B0DD0FD6B0B267343EB189B7A96
:109490006B54FB6B109D7D5D75435B19109D0A330A
:1094A00001E0FB6B5B1818707855401C531C0B31A6
:1094B00014921A46DDE70020342803D016A92FF0B5
:1094C0003FFBF9E7D6481690D6481890D648199031
:1094D000D6481A90D6481B902B200001CE4E31184A
:1094E000325A202303931A430F9B9A433252102778
:1094F0004F8037AD28462DF0EFFA3798079908408E
:10950000C449084337905720C00030180424294626
:109510002FF0F0FF3320C74DC74E411C03D200216E
:109520002954401EF9E700203070082804D0311873
:1095300063222FF0F9FAF8E72DF014F80699705429
:1095400088268D2E07D000210B982AF0C8FEBA4934
:109550008855761CF5E721F0FFFB2CF003FD8520F4
:109560004000F530E8622BF0A1FE9B208000002631
:10957000B1490E5426F052FF7F2068714320C0008D
:10958000AE49A54D295228181299C170119901713F
:1095900084605121CC00295B0B220A439F21890062
:1095A0006E52A7496E548666A649A74B6B52BA43C2
:1095B00014942A53A549102E05D0974A92190023D6
:1095C0005354761CF7E7A249A24B0022924DEA546D
:1095D000A14BEA54149FEB5BB924A4008F4E2E5389
:1095E0002C196680FF260D96E6738C4EA6810C9C86
:1095F000A343EB53994B119CEC545523DC000A9B7D
:109600000C942B55AB239B00954CEC50954C2B5D4B
:1096100001260E9633432B55934B1C2A05D07E4CC6
:10962000A4180026E654521CF7E7904B00227A4C0F
:10963000E2548F4BE2528F4BE2548F4B202A05D0DD
:10964000754CA4180026E654521CF7E78B4A0024F8
:10965000714DAC540726F201AB5A091D1940A952AD
:10966000F3218F00E95B80229143E9536B498183A9
:10967000172149016C5282494B226A541199417554
:1096800028F084F92BF058FB2946E85B0E9DA8438F
:10969000C8530F467B4821467B4A0DF00BFCD12076
:1096A0000001391814220F92CA603D54774A906A1B
:1096B0002832486055731CF06DFE04997854099B5C
:1096C000554A139D4F2E11D05059815D1940815537
:1096D00050598019401E0D9901700836F2E74E4826
:1096E0000019CD21C90000224254641C2A2CF6D155
:1096F00000206749332803D0474A2FF009F9F9E7DA
:109700000524200299214900434D295261481199AD
:10971000295453200001692129505F48295024F021
:109720004BFD752000010A2129545C4800262E5467
:109730005B482E545B48295C129A1143295421F04E
:10974000A9F92BF045FD002804D0574803212954DE
:10975000564829505648281804741E21C18155497D
:109760006A5CFE2313931A406A548269002A02D06D
:1097700015200021904750483C21274C21544F4848
:1097800027184F480D9921544E482018052109915A
:109790002EF0CEFE0920B8750E98C002B8824A4855
:1097A0002654F0430F38494A4949002809D0131874
:1097B0001B8A194C27187C187B541B0A6370801C69
:1097C000F3E7154840184349434C092E06D08A5DFB
:1097D000002343700270761C801CF6E700203F498E
:1097E000702803D00C4A2FF093F8F9E7F0343C4886
:1097F0000D9A002C04D0084909190A54E41DF8E711
:109800000548384940580021E0296DD02FF0D8F99B
:10981000FAE7C04600F8FF072C2E0020FFFF0000EB
:109820008DED0100C1B1010099C702009D3F030009
:10983000F1F10100E86E0020503B0020093D0000DE
:109840007E020000860200000F03000037020000C5
:10985000FBFD0000470200006A020000A6020000B3
:1098600084D00000340900008A020000A702000032
:10987000760200002E020000BD020000DD020000A2
:10988000DE0200006D7203004A020000F86D002045
:10989000920600002E050000340500003808000084
:1098A0005E080000D5070000D8080000DC080000B2
:1098B00078090000A509000035080000E407000051
:1098C00036080000F3070000340800009CC70300BE
:1098D0000B080000D0CB0300A0FEFFFF52070000E2
:1098E000C60700003C090000DF4AE04810580D9907
:1098F0004170DF48115C129B194311540020282845
:1099000006D0D9490918252292012FF00DF9F6E762
:10991000D8490020D44A5050D74A142804D0D249FC
:1099200009182FF001F9F8E7D44ECF4DAB5AA8181B
:109930000169D34C1C40D34BC360A319AB52D24A2C
:10994000149EAB5BD14C1C40AC53D14BEB5C0E9DD9
:10995000002B00D0099D1140CE4AC34B9A5C032ACC
:1099600000D1AD1C0722C04BCB4C1A55CB4A9D549D
:10997000CB4A89180161CB481818CB49002902D07D
:109980002FF00CF8FAE72CF0EDFDC849B64A505418
:109990000020C749082803D0B34A2EF0B9FFF9E7E1
:1099A0002CF0E0FD0028B04D01D0C2496854C248F7
:1099B00000240E94139E31462FF0AAFDBF48314675
:1099C0002FF0A6FD2CF0CEFDBD49685437ACBD4943
:1099D00020460A9E2FF078FB0598C00028182146E3
:1099E0002FF072FB1CF052F816AC20462DF074F8E4
:1099F000169807990840B44908431690B34FE85D9C
:109A000013990840E855089812992954B048281825
:109A100021462BF0AFFE0121AE482954149AA85AD2
:109A2000099149030143A9520C982E54AA480E9952
:109A30000E462954E85DF7210140E955A74828184A
:109A4000109D119A521E07D0011D4068002808463B
:109A5000F8D1A3486C3008608348A04940580028DA
:109A600008D19F496C31804C9C4FE1519D482EF0AC
:109A700089FDE05900780C9016A8143014907A4CA7
:109A80000C98864200D1BDE00E969748205C0428D1
:109A90001BD8924961584A788B781B029A18CB7868
:109AA00009792EF099FF0E9A920089584A7D8B7D94
:109AB0001B029A18CB7D097E2EF08EFF421C8A4B2A
:109AC000E254800020186A0181508448205841786F
:109AD000827812025118C27800792EF096FF0E9902
:109AE0008900465881482158002901D0307888479C
:109AF000771C002112961197307C81427FD2387CEE
:109B00000B46797C09020818B97CFA7C2EF069FFB3
:109B10000F2413935C430119CA7A0B7B1B029A181A
:109B20004B7B897B2EF058FF08D08847387C797CA6
:109B300009020818B97CFA7C2EF053FF00192EF0A8
:109B40003CFF2EF0BEFD1204571852D012990A782D
:109B5000119B19785B781B0259180023302B04D015
:109B600016AC0025E5545B1CF8E716AB00261E700A
:109B70005A70027844782402A2185A80027A1A7124
:109B8000998505211F910F991C2903D016AA5654B7
:109B9000491CF9E7851C002F2BD0F878400722D507
:109BA0002EF02EFF16A9C88038797A791202101883
:109BB000C885BC7820462CF0F9F900280FD0203C4D
:109BC000E0B20D2802D84A49085C00E00020149950
:109BD000002804D000220A70401E491CF8E716A88D
