:1041000000900020C57D03000D2A03000D2A030046
:104110000D2A03000D2A03000D2A03000D2A0300B7
:104120000D2A03000D2A03000D2A0300D3A102006B
:104130000D2A03000D2A0300112A0300155C030059
:104140000D2A03000D2A03000D2A03000D2A030087
:104150000D2A03000D2A03000D2A03000D2A030077
:104160000D2A03000D2A03000D2A03000D2A030067
:104170000D2A03000D2A03000D2A03000D2A030057
:0C4180000D2A03000D2A03000D2A030085
:10419000F0B5FFB086B00646202126F07BFE04462F
:1041A000471C1BA801250570207818901596701ED5
:1041B000F64BD42119915958C0B2A42216925043FB
:1041C0001A90081833F0C5FEE075607AA17A0902EA
:1041D0000E18EF48185CC00737D030F007FF0028F2
:1041E0001BD0607DC007C00D2FD11F2E28D9E948F4
:1041F0003018112804D829468140E748014224D1CB
:1042000030463138092804D829468140E348014224
:104210001BD11BA80021017036E034F0F2FA0AD05D
:1042200030462138142810D829468140F7480142E9
:104230000BD08D214BE3607DC007C00D05D1EFE7AA
:104240002846B040F9490842D1D030B200281BD4EA
:1042500001235120C000CD4D1490295A002049055A
:1042600000D419E132463C3A91B20B291C4619465A
:1042700000D913E1EE480240EE48D0400123184037
:104280000E24D4401C4009E1EB483018322800D9F4
:104290007DE2800001A108588746C04631490000F0
:1042A000676A0000676A0000676A0000676A0000CA
:1042B000676A0000676A0000676A0000676A0000BA
:1042C000676A0000676A00009549000069430000C2
:1042D00069430000676A0000676A0000676A0000BF
:1042E000676A0000676A0000676A0000676A00008A
:1042F000676A000069430000676A0000676A00009F
:10430000676A0000676A0000676A0000AB49000046
:1043100069430000D948000069430000676A000053
:1043200069430000676A000021480000214800003E
:10433000676A0000676A000069430000676A00005E
:10434000676A0000676A0000694300006943000073
:1043500069430000E34900000B4A00006943000084
:1043600069430000694300008848199940581A9928
:10437000411834F05FF8012901D802F074FBAF4A0C
:10438000B218272A00D935E2920001A39A5897461D
:10439000554A0000554A0000554A0000676A00006F
:1043A000676A0000676A0000676A0000676A0000C9
:1043B000676A0000676A0000676A0000554A0000EB
:1043C000676A0000676A0000676A0000676A0000A9
:1043D000676A0000554A0000554A0000554A00002F
:1043E000554A0000676A0000554A0000676A0000ED
:1043F000676A0000554A0000676A0000676A0000AB
:1044000031440000676A0000676A0000676A0000C4
:104410005756000071560000554A0000554A0000EA
:10442000554A0000554A0000554A0000DF5600007A
:104430002024159D284634F0F9FC014653A834F099
:10444000D3FD7DA8002606805048199940581A9936
:10445000401833F06DFF0A7B18924F7B002F0ED16E
:104460000C310079801E8D1CC4B22846214627F0ED
:104470007FFC8F27002801D102F0C2F8159D3E2154
:1044800034F0E0FC044618993E2E01D102F008FCFD
:104490000020A055761CF7E71C461946CA4AAB5CBB
:1044A00002252B405A425A410028084600D11046A6
:1044B000002803D0002C0ED18420FEE1062E01D866
:1044C0007B2000E07220C043062E00D9F5E10122D6
:1044D000544000D0F1E184203246203A272A179137
:1044E00000D98BE0930001A2D2589746A145000065
:1044F000FB4A0000F94A0000BB480000BB4800002E
:10450000BB480000BB480000BB480000BB4800009F
:10451000BB480000BB480000054B0000BB48000042
:10452000BB480000BB480000BB480000BB4800007F
:10453000994B0000F14B00008D4C0000AD4D000088
:10454000BB480000BB480000BB480000BD4E000057
:10455000ED4E0000BB480000BB480000554F000076
:10456000BB480000BB480000BB480000BB4800003F
:10457000BB480000F14F0000715000008351000063
:10458000D351000013520000855200002C2E002051
:10459000FC0800000080FFFF7F0003008303000091
:1045A0008A4D1998285833F013FD102801D201F0D4
:1045B00014FC8A79CB791B029A188F183C460C346C
:1045C000A17B4A0011461031814201D901F005FC5E
:1045D00026460F36B25C52005118814201D901F0D3
:1045E000FCFBE07A002803D0F12801D201F0D9FFCA
:1045F000822115982DF026FA02F031FA062E00D904
:1046000022E1B00002A108588746C0460304180002
:10461000A3520000475300004146000041460000FD
:10462000DD53000095540000435500007F002BE04F
:10463000FF0F0000F10F0000EB7FFFFFE07FFFFFA7
:10464000624D199C28591A9BC01833F053FE01D8AB
:1046500001F0C3FB33F02DFD139031460D312AA834
:1046600034F026FD0F362021159C2046169126F0A9
:1046700011FC0746401C1890199828581A994018A0
:104680000079C01EC1B2304627F072FB1A90002894
:104690000BD1189934F083F853A927F01BFE00289A
:1046A00001D101F09DFB159C484D3E78042134F06A
:1046B00061FD074613983870B9208300E85A2AA98B
:1046C0000988884201D000F07AFF00200246787005
:1046D0001899087A497A09020818032801D101F0CB
:1046E000FBFA0228154601D001F002FB129317983D
:1046F000800217900D21159826F088FB0546344856
:1047000032490C1802221392284621461994314B43
:104710009847A078A870E81C2F492C4A5118139C80
:1047200022462C4B98472B4B199840796871A81D4D
:104730002A4A264989182246984728460830284997
:10474000224A51182246234B9847224B28460A30CA
:1047500024491E4A5118224698471998007B28730D
:104760001A4A1498105A179908420DD11B4B1E482B
:10477000105C800602D51A981C3005D01298115A88
:10478000D25A159831F008F8184D01F0B1FA1848CE
:104790003018062801D902F066F9800001A10858F6
:1047A0008746C046C1470000C1470000414A00009B
:1047B000454A0000614A00004148000041480000AD
:1047C00015982EF0BDFA41E1140700002C2E0020B0
:1047D000E4070000C1700300E7070000EA070000DB
:1047E000EC070000EE070000160500000280000044
:1047F0000080FFFFFC4AB218152A01D902F033F9F4
:10480000012393406F24234200D023E1042AF74D73
:104810001A9B00D132E1152A00D194E002F023F96D
:10482000F24833F061F90B2901D202F01CF933F0A0
:104830002BFD927D0B328A4200D8A0E502F013F9DD
:10484000159830F017FA01E1152E36D1E74919987D
:10485000085833F085FB46182021159C20461A91F4
:1048600026F018FB054600781990307B18900D361D
:1048700053AF0222384634F03DFDFD48FB49085A4B
:1048800039880140398001D100F008FD042134F05D
:1048900071FC1899017000214170801C53A934F0FB
:1048A00007FC6878A97809020A181A981999014032
:1048B0004B09F048214601F0DBFFB978FA78120283
:1048C0005118ED4A914201D902F0CDF8C1B21598C4
:1048D0002EF09AFA02F0C3F8E44833F005F90529FE
:1048E00001D202F0C0F833F0CFFC137C002B00D1D2
:1048F000B0E00C3200270524002B01D101F06FFB42
:1049000027460C378F4201D902F0ADF81719FF7A0C
:10491000032F05D0012F01D002F0A5F80E3400E0DE
:1049200015348C4201D902F09EF85B1E2F46E3E756
:10493000CE48199940581A99401833F03FFF032880
:1049400001D802F090F834F0EDF9C84933F08DF851
:10495000042A01D202F087F833F01BFC8A78520651
:10496000C24B05D54278807800028018C34A98521D
:104970000878F921C900595C884201D002F073F827
:10498000BF48BA490858002801D102F06CF81599BF
:1049900001F035FFB548199940581A99401833F07D
:1049A0000DFF012856D802F05EF8B048199940581A
:1049B0001A9933F0F5FB427B842A4BD0002A01D0B0
:1049C00002F051F833F036FD052901D202F04BF820
:1049D0000C30007916224243501D88423AD902F029
:1049E00042F8A248199940581A99401833F0E6FE47
:1049F00002282FD0032801D202F035F801D102F0AD
:104A000032F8C00726D102F02EF89848199940587C
:104A10001A99401833F06EFC1CD0032901D202F021
:104A200022F88279C3791B029A1880180C30801CF6
:104A3000891EC9B227F09CF900280BD002F013F8A8
:104A4000112100E00221159829F058F8002801D121
:104A500002F009F81BA915980FF088FB01F0FFFF81
:104A6000159830F007F9002801D101F0FCFF7F4DC7
:104A7000199828581A9BC11833F0DCFCC01833F081
:104A80002BFD8418207C491F0023814201D001F0B6
:104A9000E8FF0028159E1CD0082801D201F0E1FF94
:104AA0000C34E17A4A0016460836864201D901F0F4
:104AB000D8FF21460C318D5C6F00F6198642159E99
:104AC00001D001F0CEFF20460D302EF04BF82573BB
:104AD000664D892000012A58002A06D069493046CF
:104AE0009047002801D101F05AFD304623F0BCF870
:104AF0004342434101F0B5FF0021159811F09EFBA0
:104B000001F0ADFF2024159E304634F08FF90546A4
:104B1000C0782979090208185749884201D901F05B
:104B20009BFF28780007800F01D001F095FF68787F
:104B3000A9780902081818904C48199940581A99F0
:104B400033F02EFB027B1A920A79497909028A18FE
:104B50008027022A01D201F080FE0C30411C501E39
:104B6000C2B203202BF0A2FC002801D101F075FE97
:104B700053A92CF089FB002801D001F06EFE53A848
:104B80000678471C002E01D101F065FE38462DF055
:104B9000C5F9761E0837F5E73448199940581A992F
:104BA000401833F006FE012901D801F016F933F060
:104BB000B3FB20211598189126F06CF90178169115
:104BC00045788678207B1A9034F002F8617B199141
:104BD000884201D800F091FD33F0FAFF1999401A8C
:104BE000C4B200F08BFDC0460080FFFF2C2E0020D9
:104BF0002024159D284634F019F91C4932F035FF60
:104C0000012A01D802F05CF8421C33F096FD1A4BE1
:104C10009A4201D901F0E1F806780C22324001D025
:104C200001F0DBF84278807800028018189033F0A9
:104C300011FD09180F7B0D3153A834F0CBFA052173
:104C4000159D34F0FFF807708421417007481999C9
:104C500040581A99401833F0ACFDC91E33F0D8FE05
:104C600026407309084801F095FCC0462C2E002010
:104C7000EC07000015800000F7FF0000760200003E
:104C8000C40700000480000032800000ED4819993C
:104C900040581A99441833F032FD012801D801F028
:104CA0009CF8A579E67920211598129126F0F2F862
:104CB00033F0F9FBE44A914201D901F08EF8027811
:104CC0000C21114001D001F088F8119231024919EC
:104CD00061184F7BDD4BDB4AD25CD41B0025BA4206
:104CE00000D22C460E7B032C00D30324401C1090D2
:104CF0001520139060430F90411D34F0CDF90670DC
:104D00002A464570CF49D14BC95C8170C770047188
:104D1000451DE01914901346F8B21499814201D848
:104D200000F06CFD169317921897A721C900C54A89
:104D30005718F968C6008819C4795D20C000111899
:104D4000082234F0C7FAB86803216143405C287236
:104D5000B868401841788078A8726972F86880193C
:104D60008079E87203280DD00128189F169B18D16E
:104D7000B448B7494058801901794079687329735C
:104D80000E230EE028460C30AE4CB14FE159891984
:104D9000097927F061FAE059801940792875139B49
:104DA000189FED18179AD2187F1CB5E7A54C199FCC
:104DB000E0591A9E80198179C2791202511845185A
:104DC00020211598169126F065F802460078149077
:104DD0001895294615460D3153A8092232F070F96D
:104DE000E059801933F0EAFC0A2801D200F0F5FFFF
:104DF0006F1CB878F978090208189649884201D3DF
:104E000000F0EBFFA87BE97B0902081832F0CEFE28
:104E1000002801D000F0E1FF5D20C000201853A958
:104E200034F0E0F80028179905D08B4953A834F0E6
:104E3000D9F8414241411A91A87BE97B09020C183B
:104E4000687D1990844953A80822164631F0B4FAB7
:104E5000139020462FF0C6FE0446454245410028E7
:104E6000189A01D101F02FFC7B4953A834F0BAF80D
:104E7000002811D0794953A834F0B4F800280BD099
:104E800053A87DA933F0B0F9002805D17DA800789A
:104E900000212AAA23F0EAFC611E204688416142D3
:104EA00061411A9E3140002C01D07B22D443189AD4
:104EB000012901D100F091FF01F00FFC002553956D
:104EC0006048199940581A99401833F0B4F933F0F2
:104ED00029FF1890387B1690787CFE2800D172E369
:104EE000FF28179E00D072E309226EE30620C44318
:104EF00054481999405833F033F8451833F012FFED
:104F000002462B7B687BA61D002802D00B2800D808
:104F100065E31598002801D101F0A1FD501C8178AE
:104F2000C27812025118484A914201D900F055FF47
:104F300001784078000244182A2115981D4625F072
:104F4000A9FF2B4600212A2901D100F098FD33F05A
:104F50003FFDF8E72027159E304633F0AFFF0346AC
:104F6000384D1998285833F033F80122022810469A
:104F700018931A9201D201F047F9081D33F076F820
:104F8000374BEA540D310078401EC4B21E20224631
:104F90002BF08CFA002801D100F07DFD41788A1CAD
:104FA0000021A2420B4601D301F01DF982782D4D5C
:104FB00024494A5551000B1D641E0021A3420B4693
:104FC00001D301F010F9169727491E4B5C18C71C36
:104FD0000026D0B2864201D301F0FFF80422204619
:104FE00034F086F93F1D761C1648425D241DF0E71B
:104FF0002021159E34F070F933F055FA124A91428F
:1050000001D901F029FD0178890601D401F024FDC0
:1050100041788078000244180A48199940581A9932
:1050200040188179C279120251184018057B33F07B
:1050300041FE05708D2141700C4831462246179B78
:1050400001F016FC2C2E0020F7FF000039050000AF
:1050500044050000F8FF000010CA030008CA03005E
:1050600004090000090900000C090000428000004A
:105070002021159E3046169125F00CFF04464178FC
:105080008278FB48FB4B1B580127F80218400AD1D5
:10509000631C9E78DB781B029B19F74EB342159E6A
:1050A00001D301F0D9FC120251181891F149199A53
:1050B00089581A9A89188A79CB791B029A188A1802
:1050C000137B002806D1189800287ED1607DC00788
:1050D000C00D7AD0139414930C32541C0879401EDE
:1050E000C6B22AAA2046314630F084FFD6211A9053
:1050F0000028129114D12AA81990018839404842F9
:1051000048412BF0FDF9199F3888284040082AF0C3
:105110007BFD388804210140880828F0FDFF00212C
:10512000119153AA2046314630F075FF199000289E
:1051300004D1539825F01EFB002012907DAA204632
:10514000314630F02DFE0746002801D100F028FD41
:1051500078427841199A514251411A9A002A179B74
:105160001A46139C00D00A46002A194600D101466F
:10517000D6201090012901D100F019FD802600F001
:1051800019FD2024159E304633F050FE33F08BF984
:10519000B94A914201D301F05FFC41788278120252
:1051A00051181891B34F199979581A9A8A1833F0EF
:1051B0007DF80D7BB14BFB5C1B0701D500F01BFF9D
:1051C000189B002B01D100F010FF8D213046FFF716
:1051D0007FFB33F0A7FD33F066F9A94A914201D96C
:1051E00001F03DFC00781890A24C199EA0591A9924
:1051F00032F0D6FF0D300979491EC9B200252A4682
:1052000024F08CF8002801D100F048FC802301F044
:105210009BFA2021159C34F065F833F044F9964A46
:1052200091423BD2411C0A78497809028918914A77
:1052300034D19249515C090703D4407DC007C00DA9
:105240002CD0199810581A994018017942791202F5
:1052500052188024022A11D333F033FA41180D3149
:10526000501EC2B204202BF021F9002806D053A909
:105270002CF00AF8002801D101F01CFB15982146FA
:10528000FFF726FB2021159C34F02CF8417880781C
:10529000000245187A48854200D87AE1204601F09C
:1052A000DCFB78493EA801807249199808581A9980
:1052B000401833F07EFA0A2901D800F08EFD32F052
:1052C00072FE16900D31704C2AAF0A223846A04764
:1052D0007DA808221A923946A0472024159E304600
:1052E00033F0A4FD014653AD284619942246664B7F
:1052F0009847287817900C213046149124F088FCA8
:1053000005465D20C0005B490C46081839461A9ACC
:1053100031F052F8002801D100F018FC2AA846A963
:1053200030F046FE002801D000F019FC46980078C5
:1053300006210140042901D000F011FC2AA830F018
:105340009FFC00F006FC4B4D199EA8591A9FC019EE
:1053500033F034FA042801D800F03FFD4B494A4CA1
:105360002AA80822A047A859C01932F01CFE17909D
:105370000D3146AD04222846A0472024159E304614
:1053800033F054FD014653AF38461A9422463E4C42
:10539000A047387819903EAF022238462946A047E8
:1053A0000C21304624F034FC0546B92080003149F8
:1053B000085A3F88B84200D035E246A88678022EC7
:1053C00001D200F0AEFC199F5D20C00029490918E8
:1053D0002AA833F0D1FD8021159E39E2254919987C
:1053E00008581A9940180179427912025118032974
:1053F00001D800F0F2FC32F055FE0D3053902AAD8A
:1054000053A9284632F0B8FB539804782021159F01
:105410003846199125F03EFD0178179133F057F881
:1054200018900521384624F0F3FB07460670002645
:105430000671B92080000F49085A2988884200D097
:105440001CE2002C01D100F073FE1148094A105CE7
:10545000412149015118002801D100F057FC04C92D
:1054600013789C4200D03246401E1646F3E7C046F1
:10547000140500002C2E0020F8FF00001505000088
:10548000F7FF0000FFFF0000C170030008CA03001F
:1054900034080000FB49199808581A99401832F04E
:1054A00029FF01D800F099FC32F07DFD18900D31F4
:1054B000F54B2AAD022628463246984720241598F7
:1054C00033F0B4FC014653AF38461A942246FC4CE4
:1054D000A047387819907DAF384629463246A04714
:1054E000B9208000F5490E5A38882D88864200D0B0
:1054F000CCE18127AE4200D0C9E1F24DEF4C605DB6
:10550000002801D101F048F8401DC1B233F0C4FDBC
:105510001899017000274770801C314632F04FFB0C
:10552000615D0170412149016118401C1A9CE34AE8
:10553000525D974200D3B7E104C91278C2557F1C6F
:10554000F5E72021159E30460E9125F0A3FC411C65
:10555000189100780D900020D84B052803D02AA977
:1055600033F0FAF9F9E71998185832F031FD0728A5
:1055700001D201F071FA8A79CB791B029A188F183F
:10558000797C831F4A00511C8B4200D2A6E1002186
:10559000A5E1CA48199940581A99401832F0BCFE42
:1055A0000079401E277B0D3433F04AFA0028189505
:1055B00000D18EE21C3000D189E3282088E38020CE
:1055C0007870002594E30722179E354623E30628CA
:1055D00000D20125062800D21CE306221BE3169206
:1055E00018938200931CB549199C09591A9C0919F2
:1055F0000C79497909020C19A34200D9EDE3294637
:105600000E318F5CFF2F00D1131DFE2F01D103231C
:105610001343A34200D9E0E38A18541CFE2F01D0A3
:1056200000F0CDFF0128189B169A00D071E4257870
:1056300053A833F015FC539E30462BF0DFFA0028B8
:1056400000D1CAE3700100D1C7E33046294625F0F6
:10565000A9FC01F0E2F90622D7431A9A801832F029
:105660003BFF8218537B922B00D171E3B81D70E38E
:105670002021159E33F030FE0178890604D532F0E2
:1056800026FF01D100F0BCFE9120C0008B49081814
:1056900033F012FD04468C48844201D101F0DCF95C
:1056A000204631F005F9014653AD2C2233F012FEAD
:1056B000288DC00501D401F0CFF953AD284618302C
:1056C0002AA933F057FC5D980821C943F8390140F5
:1056D00029852846214622F0D9FE01F0BDF91A9A03
:1056E000801832F0F9FE851800244F941C946A7BD0
:1056F000002A00D066E3104665E300243002032C44
:1057000000D303244019149016206043411D33F048
:10571000C3FC07461A98387000257D7033F058FA9C
:105720002B46B870199AFA703C717E1D1799C807FC
:1057300059D0200657D0E3208500604840590078B2
:105740000021C007F3D0D8B2904249D317938920E3
:1057500080005A490918082233F0A2FB304608306D
:10576000564949598A7953A928F004FF534B539855
:105770003074000A7074B07CFC210140B174595936
:1057800009784907890F8C2202408818B07459594A
:1057900049784907490E0918B17458590278F3201D
:1057A0000840510707D404210843B0745859417B7D
:1057B0000120084007E0B0745959497BC907490FD7
:1057C0000143B1740020F074585900784006000F6E
:1057D00030755859C0787075641E1636199A179B23
:1057E0005B1C0021A3E71A9838701898169901409D
:1057F0004B0936481599149A01F03AF8D0B20F992E
:10580000814207D9401A2D4932F02FF9101808713A
:10581000000A4871109932F0A4FF129811990140C2
:105820004B092B486FE27DA9384630F0D2FB0028A7
:1058300006D17D98007806210140042900D1BCE5FD
:1058400018980007800F01D001F006F9199F8121F7
:105850001A9C179828706970A81C2AA933F08CFB31
:105860000A353EA9022233F035FD53A841788078ED
:105870000002421827407B0916488EE1802078708C
:1058800000F09DFC2C2E0020C170030080271A9C84
:10589000052133F001FC189901704770801C2946DE
:1058A00032F08DF90021017053A841788078000210
:1058B0004218199820404309074824E22C2E002062
:1058C000C170030034080000FFFF000031800000B9
:1058D00033800000018000000580000001213C466B
:1058E0001234A35C0625ED43AA1A10185A00904200
:1058F000179800D30846012801D101F0ADF80C3704
:1059000038780990791C53ADA81C022633F0CAFAE6
:10591000F91C281D33F0C6FA7F79AF717E00A05DB7
:10592000E8710546189908780890487807908878B3
:105930000B90C8780A90E8194006010E159825F0DA
:10594000A9FA3A46002F1697139004D0214630F05A
:1059500025F8169A0446002D2F46FA4D06D0611CF4
:10596000139880193A4630F019F8169A1897B9200A
:1059700080000590285A53A949880C91884205D087
:10598000F1480C99814201D800F0AFFCEF482C5C43
:1059900053A8808811901398801912900020064611
:1059A00006901A9015980F94A64201D100F0A2FC1F
:1059B000B1006B18412149015D586B78A978090243
:1059C000C918119B994202D0FA498B4254D11096C2
:1059D000A87919900023184619998B4221D2C10742
:1059E0001FD1149359006E1808360024139F944257
:1059F00014D2C10712D1317873781B0259183B8831
:105A0000994208D12A781A98C1B22AA82EF0CAFC65
:105A1000169A1A901798641CBF1CE8E7149B5B1C2D
:105A2000DAE7E9791491002614998E4221D2C10750
:105A30001FD10027129C18998F4218D2C10716D186
:105A400019997118490069180B7A497A0902C9181D
:105A50002388994208D12A781A98C1B22AA82EF030
:105A6000A1FC169A1A9017987F1CA41CE3E7761CD9
:105A7000DAE715980F9C109E761CCD4D94E7711EA9
:105A80008E41F10141700370C484282101224254E7
:105A9000159800F0F6FF00210B46A4E3C6482058F5
:105AA000817A8623022901D900F04EFEC34AA25C06
:105AB000CA40D10701D100F047FEC149BC4A515A42
:105AC0000022490701D500F038FE179D134600F06B
:105AD0003BFE2120214632462AF0E8FC0646002003
:105AE0001790002E00D1F5E3B11C7DAC08252046AF
:105AF00033F006FA0A3646A8314633F001FA02219D
:105B0000204628F0D5FA002801D100F098FC06467E
:105B100005462835687800020024000513D40120CA
:105B2000C00217907DA833F0C7FA01462820325CE6
:105B30006B781B029A18179B1A433254100A68702C
:105B4000304622F0A3FC159D00F07CFCB9208000BB
:105B5000205A3EA908809749884200D05FE11898F2
:105B60000007800F01D000F077FF179F812416985F
:105B700028706C70A81C7DA933F0FEF90A353EA987
:105B8000022233F0A7FB53A8417880780002421824
:105B9000199807407B090120C003314600F068FED8
:105BA0007DA800882CF0FEFA00201090139C33F0A2
:105BB000D1FA00261A98454245412478022133F053
:105BC0006BFA1499017046701998002800D16D1C69
:105BD000002F159E00D16D1C002D01D100F00BFC93
:105BE000022133F04DFB0021017069004170012159
:105BF00033F046FB002800D1FDE305701A98002819
:105C000000D169E31998002800D1E2E3002F00D009
:105C1000F1E3EBE307226648199940581A994018B6
:105C2000017940790002431800209A42314600D899
:105C300001469A4200D906461A913C460C340D376B
:105C40002E40012E1392129307D1A01D149053A839
:105C5000042233F04DFB539800E0149718994F1C21
:105C60000621CD4319902AF0C9FFAD1D002E2AD080
:105C70006279FE2A1799159E00D1014601291998CB
:105C800001D000F0D0FE1F21CC060646A6431AD054
:105C90001897B9218B004649CB18197C59188F7B6E
:105CA000C10E8F4201D000F0C5FDFF2A01D100F0E6
:105CB000ADFDFE2A01D000F0C1FD1499097825F050
:105CC00071F900F0B6FD1A9A159E00F0ADFE29207C
:105CD000C443159D0026B5E32C4602251598294698
:105CE00025F094F8E549611833F00AF9E448451CB9
:105CF000B81C2AA933F0DCF9189932F032FD169855
:105D000006407309A8B2159900F0B2FD002E00D02C
:105D100011E2002C03D0FF2C01D000F0B5FD822051
:105D2000ADE52AA9384626F0D5FA002800D143E38C
:105D30000020159E082800D182E52AA932F0F0FE45
:105D4000F8E7C0462C2E0020F7FF000034080000C2
:105D5000F81C002B72D00025011D00D1FEE20028A6
:105D600000D09EE0002D01D100F085FD28462830AE
:105D70002826A95D407800024018C10501D500F031
:105D800086FD2946183153AC102233F0F7F9A85D8F
:105D90008006400F0022032100AB17C3049220A805
:105DA0001CA9012317F0CCFB159C014D00F0F6FE59
:105DB0002C2E0020FFFF00003C09000034090000E9
:105DC00004050000E0438E1E0E35002A03D1F1B217
:105DD000284625F0CDFF002872D0159800F03DFE32
:105DE00053A833F033F8002801D1FEF75CFC0246DB
:105DF00028322823C15C567836027618310501D541
:105E0000FEF751FC0121CC029E499F4D695C26435F
:105E1000C654330A537022F039FBFEF744FC2AA81B
:105E2000007A022800D2B1E2189814990840082894
:105E300001D100F011FE179F802498E60C32951CCA
:105E4000881E32F009FE00282BD190498E48445814
:105E500001201A90294632462AF028FB0546407850
:105E6000401CC0B228281CD3002D1AD04C34A91CC9
:105E700020A81990082633F015F80A35202220466C
:105E80002946189231F01CF99120C4007E4800196F
:105E900017901999324630F08FFA002801D100F09E
:105EA00086FE7A4C784D295900221598E02A02D0B6
:105EB00032F096FDFAE72A59FF21517000F0CDFD2E
:105EC000F2B2222029461A922AF0F0FA002884D051
:105ED0000746811C7DA819900826324618966C4BFF
:105EE000984739460A3146A83246694B98473946A1
:105EF00012314FA804263246654B98473946163171
:105F00001CA83246624EB0471A373EA83946189A46
:105F1000B04702261998314628F0CAF8002800D167
:105F20005BE707462C942B942A942AA8199017967D
:105F300006460836222029461A9A2AF0B7FA1890FF
:105F40007DA908221A92199D2846514B98471CA9F1
:105F50000422169230464E4B98471798287322AE6B
:105F60004FA93046169A4A4B9847083753AD10222E
:105F700028463946464B9847229830F0DDF822AE45
:105F80000096162328461999189A2CF00FF83EA966
:105F900030461A9A30F010FA002800D01DE77DA88C
:105FA00033F08AF84F993B4A374EB35800011B181B
:105FB0000D0EDD710D0C9D710D0A5D711971B158D9
:105FC0000818C17A0906344A521C0A43110EC172DC
:105FD000324834543248214633F094F9FDE6FA074A
:105FE00001D0FEF7CCF900F03EFD437DDB07DB0D71
:105FF00001D1FFF7EAF80C314F78402F01D900F0BA
:106000002BFD32F021FA921EBA4201D200F024FD9B
:106010001A94891C0078199053AC204633F052F939
:1060200032F048FE0570002646702046002F00D151
:1060300049E1044605782820294631F0B9F8293885
:1060400009286BD8800001A10858874675600000B8
:10605000A5600000B5600000C56000001D61000083
:106060001D610000D76000001D6100001D6100007F
:10607000EB60000015982FF02FFC4FE0F1070000B7
:106080000280FFFFB50400002C2E00203C09000018
:10609000C1700300E4040000FFFFFF072A050000B1
:1060A000A97903002A2133F073F8002836D017218C
:1060B000490104E02B2133F06BF88D218900ED4A72
:1060C000511828E02C2133F063F823210901E94A13
:1060D0005118042220E0B9208000E64A115AE6480F
:1060E000125A15982FF058FB18E0E248E349415C3A
:1060F00001200840490700D5801C2AA90880DD49F5
:10610000149A895CC90702D0001D2AA9088032218F
:1061100033F03EF82AA9022230F0D2FF2A2DD549C9
:1061200002D1172040010E522046601C7F1E7DE7E1
:10613000D348D0490E18B079F179081840000830DA
:1061400000257D7016973871C1B2159824F05EFE57
:106150000746082233F0CEF8B079B871F079FC1D0B
:106160001A97F87153A9087037460837B0798542F5
:1061700007D20222204633F0BBF86D1CBF1CA41CC2
:10618000F4E70446169FE1B2C0B2F27910188842D3
:106190000DD9E8B240001A9A101808304900711859
:1061A000083132F085FF6D1C641CB079EBE71A9959
:1061B000887940000818C01D53A933F00BF8159CCE
:1061C000199D189EB81C2AA932F072FF1798284012
:1061D0004309AC48214632464AE338780121014060
:1061E000179B159E169FA848A24A105C4242424146
:1061F00013424DD1002B4BD0002901D0042000E0E8
:1062000001209C4D1A9A189B16979C496C18A272F3
:1062100059789A7812025118E18019788906C90FC5
:106220006172E072002020730627304632F046FE8D
:10623000217B964AAA1831F07DFD1F22D2060B461B
:10624000934301700A0C8270090A4170190EC170E3
:10625000E17A41718E482C5C1A9804405F20C0009E
:10626000285C45424541002C00D1179D159E3046C3
:1062700032F024FE002C169F0AD0002D08D0407961
:10628000012805D18348002231462EF083FEE6E343
:10629000189A5078917809020D18147832F00AFD96
:1062A0007D49744A525C521CD3B2FF2B00D10022AC
:1062B000704B5A540270802141703C40630977480A
:1062C00031462A46D4E21A98199901404B0974487C
:1062D0001599CCE2D624B3E032213046119A2FF042
:1062E00083FA002800D086E08CE48020069000200D
:1062F0001A9015981A99002907D10A9909020B9A40
:106300008918684A914200D9A7E307990902089AB7
:106310008D181A99491D23F07BFC064661480C9A9A
:10632000824205D953480599405A7DA9088001E069
:106330007DA90A80B01C32F0BBFE099830701A9A11
:106340003271701D2AA930F0BBFE069870700E984D
:106350000D9901404B0954481599B2E70421159C49
:1063600032F0C0FF002101805049424B59588978D2
:1063700001220A40827003D04D49595C2EF05AFB2D
:106380004C48A5214A0032F0A9FF68E3179F00247A
:10639000012801D0FFF7EBFB012132F071FFE3216F
:1063A0008900344A5158097807220A40511F4A424D
:1063B0004A410270FFF7DBFB199F012E1A9C00D0A7
:1063C00020E20121159E32F05BFF00210170FFF7F2
:1063D00040FA781E87412C213046129A2FF004FA99
:1063E0000028179800D13846002804D12B213046C8
:1063F000109A2FF0F9F91698044063092E4835E2F7
:106400001C48199940581A99401831F085FF0E34EC
:106410000079801EC5B22046294625F0A9FC002837
:1064200000D019E32D20214632F0F2FE002800D1E1
:1064300012E3811C2AA832F09DFDFFF725F986247E
:10644000159D179E022132F0FDFC07704470200656
:1064500000D09DE017967DA8022631462FF022FC41
:1064600013900020034B0D2828D02AA932F074FA8B
:10647000F9E7C0462C2E0020EA070000FC080000C7
:10648000F307000004800000090900000C09000067
:106490000C05000069FD0200440700003C8000007C
:1064A00044800000F7FF0000068000003C09000067
:1064B000FA020000B1530200438000005D20C000DA
:1064C00019181691F94C1F462AAD08221492284635
:1064D000A047F74978580C463B4613990F01C0195D
:1064E000817BC27B1202511812912C912E73491C90
:1064F0008173090AC1731859C1193EAE042213925F
:106500003046EA4CA0471799083153AD102228466F
:10651000A0473E982FF010FEFB48FA494058C11999
:10652000C05D31F0EDF83E90129822902221159D29
:1065300028462DF0FFFC04461699149F3A46F04E6B
:10654000B0472046083046A93A46B04720461030AA
:106550003EA9139F3A46B0472046143022A93A4636
:10656000B04718340020082802D032F0C5F9FAE705
:10657000E54E1998305831F0F3FC42180E32009471
:1065800053A82AA916232BF011FDE520C00035548D
:10659000DE48002329466AE13546FFF778F90123F2
:1065A0005FE2DB4829462D5C002D00D111E2D9487D
:1065B000085C002800D16BE28521FEF71AF8FF2F56
:1065C00000D112E2052F189B169A01D9FEF7A1FC03
:1065D000012801D0FEF79DFC267853A832F040FC3C
:1065E00053991798009015983A46334620F0A8FF23
:1065F000169A189B0646002801D0FEF78AFC2EE268
:106600007DAA284621462FF0B3F81F2029462246AE
:1066100029F04CFF002801D1FDF730FF4178032914
:1066200001D2FDF72BFF81782AAA1170C178517031
:10663000017991704079D0703821159828F004FEC6
:106640001790B148199940581A99401831F070FEC6
:1066500046312020224629F029FF002801D1FDF7EC
:106660000DFF16904078032801D2FDF707FF179819
:10667000801C169DA91C32F01BFD28791799087102
:10668000687948716978C91E032242439142159D79
:1066900001D0FDF7F4FE16998E1D179D09350027D0
:1066A000092F00D9D7E2C0B2874200D3D3E2E81E57
:1066B000022232F01FFEB07828707F1C17984079B4
:1066C0006D1DF61CECE790489349405C000700D52F
:1066D00038E100200446179D1A9E0C32002E17D078
:1066E0008E49894D695C890701D4FFF776FB164610
:1066F000002800D05BE153A8007AC00988496A5C91
:10670000FE231340181868548648159929544EE101
:10671000164617957720C1007B4B5A5C7520C00048
:1067200018180023042B00D122E101259D401542B9
:1067300000D11FE15B1C001DF4E7C07AFF28179D04
:10674000134601D18B2300256F4880591A994018B0
:1067500031F0D6FD077B0221159C20461A911E467A
:1067600023F056FA07702F464670002D0ED06E4863
:1067700065490858867AC77A002120462DF0DAFB51
:10678000067047702F46801C30F056F91D2132F0FC
:10679000A9FD054600201D2802D032F0C9F8FAE70D
:1067A0000020687028701A98E8736048433080268B
:1067B000EE72A872287C042101432974189880067F
:1067C0000DD45B485049095C53A82EF033F9287C5E
:1067D0003043287453986875000AA87508E0524839
:1067E0004949085831F0CCFF287C01210143297424
:1067F0001599002F02D04F48434A11544E482AF0B1
:106800008DFB2CE10021159EFFF723F82AAD2846C9
:1068100030F05CF82A98204080192A901498411C86
:106820007DAE32F019FA781C3288C0B2294625F0C4
:106830001FFB05461A9A159E189FF5E0052A159E1E
:10684000189F00D9EEE000201399129B994200D9BD
:106850006BE104466AE10027159E2D7832F02AFA92
:106860001A990170477025406B0934483146189ACF
:1068700028F078FBF3E02C48234D2858C07AFF28F5
:1068800000D101E1032000E18320FEF7F8FF80063C
:10689000400F25491C4D69588A7A002A00D141E1F0
:1068A000C97AFF2900D16CE103216BE1C1700300BB
:1068B000E404000053A80678002E01D1FEF7DEFCA8
:1068C00053A8451C0620C043801D1A903746002F50
:1068D00000D13CE15D20C0000B49081832F0DEF920
:1068E000002801D1FEF7CAFC0822284614492FF0DF
:1068F00063FD002801D000201A907F1E0835E6E7CE
:10690000C1700300E40400002C2E0020478000002A
:10691000380800005E080000FC080000D5070000F1
:10692000B9030000250700003C0900000280FFFFBA
:10693000FA020000260700005D4F01002B800000D6
:1069400008CA03001998C007C10D53A8002900D038
:10695000BFE61399002900D1BBE68057002800D577
:10696000B7E601201A99484001D1FEF77DFAB0E65A
:106970008A241CE0179B002B19D02A43F04B5A5451
:106980003178C17039787A78120251180180159ED9
:106990008670092132F0A0FC044653AD082232F083
:1069A00043FA287AC0092072E648314627E70221D7
:1069B000159D32F047FA3178017044703878797853
:1069C00009020A181698149901404B09DE48294615
:1069D0004EE7159C0C54DD48085C42224243DC48DB
:1069E00032F07CFC32F026FB39E026460C352AA832
:1069F00032F036FA00246878844205D253A82AA9D6
:106A000032F02EFA641CF6E7711C7DAE32F024F9E8
:106A10006878328853A925F02BFA0646189B169AF7
:106A2000FEF777FA00251A9AB878F978090208185B
:106A3000C84988420ED8002A0CD1387879780902E2
:106A40000C182A2132F048FC00212A2911D031F0FB
:106A5000BFFFFAE7002E02D0304622F04BFD1BA804
:106A60000378002B02D1159822F044FD7FB006B0C8
:106A7000F0BD691E8D41E901417016990170C48411
:106A8000304628F099FCEAE70220159C00217BE0C3
:106A9000AF48FE2100221A921AF076FE681E19995C
:106AA000A74A5158C0B2169A424331F06BFB287E78
:106AB000697E09020818217B627B12025118884204
:106AC00004D0A54A904201D0914229D114950C35A9
:106AD0002A460F32A87B4100501816901992A37BCA
:106AE00058001890301817901698401C1690525C59
:106AF000009300201699334624F0FAFE1695AA7BDF
:106B00001798431C1898305C00900120199924F0C4
:106B1000EFFE92488A4A105C9149515C01435CD176
:106B2000862479E00021159C2EE0012414990B782D
:106B300000903046199920F003FD0546002800D04A
:106B40001794002D179A00D06EE72E466CE71A981E
:106B5000002801D0FEF792FB53A8441C814D002E63
:106B600076D00822204629462FF026FC002805D0A2
:106B700020462DF0B9FD20462BF0D0F9761E0834C2
:106B8000EDE70221159CF74D0123002200AE07C658
:106B90000392049320A81CA916F0D2FCF3482858AD
:106BA00002214170FD482C54FD48214627E6ED485E
:106BB000EE494658B078C0073DD120A8FF212FF0FC
:106BC00071F8E949884201D1FFF76BF92FF070FEA7
:106BD0000546E448E54946582EE00D3714990D3135
:106BE000F248E04E3018022532F08AF91698C07A41
:106BF000EF497054432040013018394632F080F993
:106C0000EC483018E17A817715998176EA4831F0BD
:106C1000C5FB002856D08A24159821462AF012FF79
:106C2000D04DE04EA85D21462AF00CFF1A99A955D7
:106C3000DD48295413E700257078012801D0FFF7BB
:106C400030F9CB481899415C002946D1199146E0AA
:106C50000024FEF713FBC34D199EA8591A9FC019B3
:106C600031F0A7FD091B891E31F0D2FE06211598CF
:106C700024F0CCF8A859C0198179C27912025118B0
:106C800045182C460C34284644302AA932F0E8F83E
:106C90007D98482168544835000A68700027189983
:106CA000677021702024159D284632F0BFF853A943
:106CB00032F00EFB284620F0D7FF002800D1CEE6A8
:106CC0002846CAE60024159821462AF0BBFEA548AE
:106CD000B449405C2146FDF78DFCA6481990B81DCB
:106CE000012901D0FFF738F8B17A00270229169759
:106CF00007D0012901D0FFF72FF8102018901A981B
:106D0000169032464C3231468C313EA81A920AF027
:106D100097FC0C36984899493A46083224D0914A53
:106D2000D3191A5C5B5C7F1E9A42F5D09A421BD243
:106D30005D20C0008B49091814961A9E1CE0C046BD
:106D40002C2E00203D260200348000003508000073
:106D5000555E0300F7FF0000FFFF00005C08000025
:106D60008208000008CA03005D20C0007D490818A1
:106D7000179009191A981490814B2AAF08243846A5
:106D8000224698473846083020221A9214997C4BA4
:106D900098473846283017992246794CA0473846FC
:106DA000303031461A9E3246A047234653AC3EA9A6
:106DB000204632461E46984720462030502239460B
:106DC000B0477034204619991A9AB047169800288F
:106DD0001CD053A8902122AC224625F0C8F84EA81A
:106DE000012101704FA8102232F02EF80020102847
:106DF00000D1A2E04FA9095C5C224A407DAB1A5445
:106E000036224A4053A90A54401CF0E753A8902167
:106E100022AA199227F056FF4EA81A900127077050
:106E200059497DA8024658C958C20421417000241E
:106E30007E942AF00FFB064654481A9932F042FA23
:106E40002EF09CFF1A96366853AF402132F0D2F9EB
:106E500038461999189A31F08BFE4A48026837462D
:106E60002037384621469047002856D153AC484930
:106E7000204630F066FE1A980068402221462DF028
:106E80005DFA002849D1314628312022304631F0C0
:106E90006FFE53A83F4930F054FE3A480268002183
:106EA00038469047002838D11A98006853A94022E4
:106EB0002DF044FA002830D11A9800683349012295
:106EC0002DF03CFA002828D11A98066853A93046BC
:106ED0002CF016FB002820D12A48026830462030CA
:106EE00000219047002818D1304628302024314610
:106EF00032F07AF8A5204000B63030621A98006867
:106F000053A922462DF01AFA002806D11A980068D3
:106F10001C498A682030204990472EF0BFF81E494E
:106F200046AC202232F02AF91A9800682FF00AFCA9
:106F30001CA8102231F088FF11E053AC204610301D
:106F40004EA932F047F97DAE32461032112120466B
:106F500025F00DF820211CAA304625F008F8002065
:106F6000FEF7FAFE2C2E0020FFFF00003C09000077
:106F7000086C002090720020EF0200008F040000D7
:106F8000C17003007800000FA4C903006C4B0020FF
:106F90005C5C5C5C6A6A6A6AEC4B00202707000054
:106FA00011FD0200380800005E0800003A080000E9
:106FB0003C0800004408000045EE0200F0B5FFB0B8
:106FC000DCB0B4A82A90B4AEB4AB9DAFB4AC38A8D2
:106FD000DB4DDC496A5CDC49695C520702D40A0774
:106FE00000D5ACE0490701D401F081FD2A991531A3
:106FF0002A91314690312291263619461531289131
:10700000591D27910E33249339464E310E9139463E
:107010004D310D913C3721464E311E9121464D3167
:1070200019913C341A9403213491C90140183390CA
:1070300000202C2805D029183322920131F074FC4D
:10704000F7E74720C14363202B90800037903091B1
:107050004731332080011F90369129500020379905
:10706000814203D038A931F077FCF8E70F970496F6
:10707000339836990160B5482F180F2035900026B7
:1070800032963146022E3CD0F4B20025B4AA0C232D
:107090002046294629F0F2FE411C22D0002823D1A7
:1070A000B4A99DAA204629F0C1FE0146483101D06D
:1070B00000280FD19DA800880E2810D879880122B9
:1070C0000A437A8038803599884215D2294632960B
:1070D000359012E00F2038803098253004E00F20E2
:1070E000388030F0A3FB36987A88054601218A4320
:1070F0007A8020462DF016FD2946761C3F1D904DC6
:10710000C0E7359E0F2E38D090482C180025329FAE
:10711000022D2ED020880F280ED0AF420CD0B042C6
:107120000AD00F2020806088012188436080E8B267
:107130002DF0F8FC309947316D1C241DE8E7332011
:107140008001012129500024E0B2012803D81CF05D
:10715000FDFE641CF8E7F04818212950CD200001FD
:1071600000212954774AA85C06210143A95401F063
:10717000B9FC0E2E00D03099714D269173482E180F
:1071800000273697022F30D030880F2802D17F1C7D
:10719000361DF7E7FCB238A9204614F0C1FA0146C3
:1071A00038310FD0411C13D0002814D1339B03CBAE
:1071B0002B9A5201AA1810661878CD231B01E854A7
:1071C000D166E4E70120B840369901433691DEE705
:1071D00030F02CFBDBE770880121884370800F20A2
:1071E000308020462DF09EFCD1E70020102420287E
:1071F00000D198E00C22424338A989184968C74B4E
:10720000194204D038AB9A181289002A02D1401CC6
:107210000C34ECE7461C880F38A93246BF4F1F2AB2
:1072200008D80B593B4202D09B0F984204D1521C04
:107230000C31F4E7014602E002282FD10221339EEF
:10724000369AD4B22246C240D00715D0C8B202281E
:1072500010D232682B9B5B01EB181A66CD22140109
:107260002955800018186421405A0E2846D118F07C
:10727000F7FF45E03698C4B2CD2000012A5C012119
:1072800008469043C440E2074DD08200AA18A44BA0
:10729000D45A8C43D4522DF045FC44E001461F2EB5
:1072A0001AD838A800599D4A104212D0870FC8B288
:1072B000B8420ED081006918244A8A1853880125E3
:1072C000AB431F4D53800F22204BCA522DF02AFC96
:1072D0003946761C0C34E2E73698C4B2C8B222466E
:1072E000C240D207339EB1D10021379A8A4201D1E0
:1072F00001F000FC38AA31F06FFBF6E716F0FEFE55
:1073000000203799814203D038A931F025FBF8E7F6
:10731000309847303060285D38A914F001FA002811
:1073200001D030F083FA0749685C022225921043AD
:10733000685400207B4C08280AD031F0DDFAFAE7C7
:107340002C2E0020D10C000079040000C40C000099
:10735000B4A8401C2D90B4A8093021909DA85B30A2
:107360000C90B4A801460831179101460C311691D2
:1073700001461431159101462431149101462C31F6
:10738000139101463D3112914F3018909DA801464E
:1073900008310A9101460C310991014614310891D6
:1073A00001462431079101462C31069101463D31B9
:1073B00005914F300B90B4A8801C039000215A48CF
:1073C00028181D90594828181C90594828181B90B7
:1073D00058482818239058482818209057482818AB
:1073E00011905748281810903591202901D101F0AB
:1073F00053FB0C203691484338A90D1869680B4699
:10740000464A1340379301D101F070FA38AA121896
:1074100012893392002A01D101F068FA8A0F329260
:107420009200484B9A18484BD75A0E2F01D901F0B9
:107430005DFA01223192BA404F231B021A4201D158
:1074400001F054FA38AA101840892F903D483F4A5D
:10745000815086183398B0807F20359C2E90044050
:107460001C2C00D914E13198A0403949084200D1C0
:107470000EE1344837494158002906D0369880B289
:107480008847002801D101F031FA601E1E2800D97A
:107490009EE1800001A108588746C046597500004A
:1074A0009F7600007D770000D1770000D177000043
:1074B00001780000BF780000D1770000D778000085
:1074C000E1780000E7780000FD780000D177000047
:1074D0000D790000DD790000D1770000D177000040
:1074E000D1770000817A0000D1770000977A000000
:1074F000D1770000D1770000D1770000D17700006C
:10750000D1770000B37A0000B97A0000D17700008B
:10751000D1770000D37A0000CC0C0000FFFFFF3FC2
:10752000C60C0000345200207C040000370200002A
:1075300092040000E40C00002A0C0000F40B000090
:107540000A0C00002C2E0020C40C0000DC0C0000F3
:1075500001460018BC0C00002F98042801D100F04F
:107560009AFF0328329D01D100F09BFF022801D031
:1075700001F0BCF99DAC5C262046314630F0E4FEBB
:10758000284637992246334628F012FF002801D0BA
:1075900001F0ACF99DA832900078012137910840A4
:1075A000F74FF84EB95DFE220A401018B8559BAC53
:1075B000042220460A99F44EB0471D9821462DF02A
:1075C000D3FF0920C0013818082509992A46B04779
:1075D000329C207802210140EA4BF85CFD220240F7
:1075E0005018F854892080003818319008992A469C
:1075F000B04733469E981026F041B92189007A1889
:1076000033922F917850FF20E04978546078E04918
:1076100078546088DF4978529120C0003818079963
:107620002A461C4698470F980078DB4978541C9DE1
:10763000284606993246A047D748385C2874D74870
:10764000379939541B9805993246A04730F069FDA7
:107650000D9800783399C8730E98007888730D469A
:107660002B20000138180C220B99A0476D88CC49BB
:107670008D4201D101F025F92F98385A884201D165
:1076800001F01FF9C749785C379A104301F01DF9E2
:10769000BB4AC54BD05CFD210140D154E9E6B4AAF8
:1076A000182331F0A9FA002801D001F01FF90520B4
:1076B00005020121284626F0C7FE00284AD00446CC
:1076C0000126102329463246B84FB8472FF0F1FD66
:1076D000B4A908222F46339525460C4637912FF042
:1076E000EFFC0023284639463246B04FB847617A4E
:1076F0002C468279C3791B029A18037A407A0002D9
:10770000C01800048018017011232846339F3946A1
:1077100035463246A54EB047B7992EF065FFA44BCB
:10772000B047B6992EF060FFA24BB047379E7189E3
:107730002FF01EFC07204303204639462A469B4D66
:10774000A847F17D2FF0FCFBF07D002802D02046F9
:1077500022F086FB31F0E9FA002801D101F0C6F8E9
:1077600020210122944B30F0BDFB2FF0A2FDB4A9E3
:10777000CA890280497B817001F0B8F80020804DF1
:107780008E4969580A78904200D3B4E14A788B78E0
:107790001B029A18CB78097931F01FF882008A58B9
:1077A000917ED37E1B025918137F547F2402E31865
:1077B0001B0459180AD0537E309A18325A43002AB3
:1077C00004D000230B70491C521CF8E7401CD7E77B
:1077D000C92000016A490C180025694878494058B9
:1077E000854201D301F082F82168369886B230468E
:1077F0008847002801D000F029FC6D1C1434ECE708
:10780000B4AA182331F0F8F9002801D001F06EF87D
:1078100030F0ADFE0023064621462A46634FB847A6
:10782000B4992FF075FB31F0C7F82B46B847B599DE
:107830002FF06EFBB598FA21379148432AF042FDAC
:1078400002233046339621462A46B847B6992FF090
:107850008FFBB4AF38895B4948435B49401831F02E
:1078600055FA45214901464A50502DF059FC032351
:1078700031F0A2F84D4EB04779892FF079FB788925
:10788000379948432AF0FAFC0423339E31F094F8E8
:10789000464FB847B7992FF03BFB052330462146AA
:1078A0002A46B847B8992FF033FB062330462146C5
:1078B0002A46B847B9992FF05BFB01F017F8286802
:1078C0002E900020414C2F9E042800D1C8E19DA994
:1078D00031F042F8F8E72B98400129490B58EEE0C7
:1078E00027483B49EAE0002332983799042B00D11E
:1078F00039E29DAC0022E2545B1CF7E7002004282B
:1079000000D152E29DA931F027F8F8E72F9801281D
:1079100000D067E3B4AA082331F06EF9002801D043
:1079200000F0E4FFB4982B4940189B218900144AC9
:1079300050509D208100002050523399C908090100
:10794000814201D100F0D2FFB59A224BD2180C4DE2
:10795000214EAB591C181A54130EE370130CA3706C
:10796000120A6270AA591218002353731373AA598A
:107970001218D37A10241C43D4721030E0E7C046AA
:107980002C2E002079040000C1700300FA020000D0
:1079900036020000760200006B0200006A0200005E
:1079A000FFFF000014070000D10C0000E57E03007B
:1079B00001E0000002E00000FEEF0000AC09000062
:1079C000B80C000090D00300FF3B000034520020B0
:1079D000640C0000FF030000E40400000822239868
:1079E00031F088FC2F9C022CF54D01D100F0D3FD25
:1079F000012C01D100F07EFD002C01D000F076FFBB
:107A0000B4A8982130F0A0FC3398982801D000F059
:107A10006FFDB4AA982331F0EFF8002801D000F0F0
:107A200065FF22980378082B01D900F05FFF2298A8
:107A30004078102801D900F059FFA721C900F64A63
:107A400053545118487000200121039A049F984212
:107A500001D300F0B2FF531E1B781524A401EE4E93
:107A600035596D186D1E2B7053781578345966187A
:107A700065547370401C229B1B78C91C121DE6E7DD
:107A800000233298379C042B00D19BE1B4A900223B
:107A9000CA545B1CF7E7B4AA24233298379C2146CA
:107AA00029F0ECF9002800D1DBE225F050FA00F0D3
:107AB0001DFFD948D94901E0D748D9494358002B7F
:107AC00001D100F013FF32983799339A984700F0AC
:107AD0000DFF2F98002801D000F008FF0023CE4CA6
:107AE00032983799102B01D100F000FCB4AD002280
:107AF000EA545B1CF6E7182133982BF0E7F92F9036
:107B000000212E912F98814201D100F0EFFE31919A
:107B1000B4AA182331F070F8002800D09AE0C148C8
:107B200028580178401CB4AA5278339200252A467E
:107B300091421CD0077844782402E4198778C678EB
:107B40003602F619360434196759BC7EFE7E3602B9
:107B500034193E7F7B7F1B029B191B041B1903D02A
:107B60003B78339CA34204D0521C2D1DE0E70B460A
:107B700000E013468A42A84D64D20178427812028E
:107B800051188278C07830F032FE99004058817EDA
:107B9000C27E12025118027F437F1B029A18120400
:107BA0005318417E3020484318180022914206D0D5
:107BB0001C7AE40702D0521C3033F7E718468A4299
:107BC00040D2017A01220A430272B4AA11780170EC
:107BD0005378437053884380B59B0371279E337855
:107BE00074782402E318C380B378F4782402E3188D
:107BF000C385537A03725289028200290BD1B79947
:107C00004182249B19785A78120251189A78DB78AD
:107C100030F006FC4161B4A9498A02462832018548
:107C2000B9999170289A30F061FC81851C21242932
:107C300003D0FF224254491CF9E728F0DFFC2E98BC
:107C4000401C2E902E98002802D01FF083F901E0EE
:107C500000202E903199379818303790491C51E701
:107C60009DAA042332983799299328F0A1FB07464F
:107C7000002803D19D9868496B4A88542BF05CFE1C
:107C800065486A4946521C21002E319100D03021AE
:107C90003398001F002E01D02C223192379A161DE6
:107CA0002BF014F905462E986060002420462946E2
:107CB0002CF071FA5E4908703395294621F0A8FF2F
:107CC000224631462E90544C329D3398824201D345
:107CD00000F001FC002F00D0FDE33792B4AA284643
:107CE0000E461DF0FBFD0746002837D12C97B4A89F
:107CF0002DF0B4FF4F496258299B34990840010187
:107D000051180D7A4F7A3F027D198F7ACC7A24026E
:107D1000E419240467193D46474C2540002B04D044
:107D2000002D05D0401C5B1EE7E7002D00D0CEE300
:107D300008313246404B1A401F23DB061F40BB1858
:107D40000A70140C8C70120A4A701A0ECA702E999E
:107D50000870491C2E91304C329D2C9F319831185F
:107D6000379A521CB1E79DAA042328F021FB002872
:107D7000294C00D1D8E29120C000241808222046C6
:107D80002E492EF019FB002801D100F0AFFD2EF096
:107D9000A3FA002801D000F0A9FD00210122B4AB14
:107DA000204612F0E3F800F0A1FD00233298379D41
:107DB000082B45D0B4A90022CA545B1CF8E7C04682
:107DC0002C2E0020B4AA0423214629F057F80028BD
:107DD00001D000F08BFD241DB4A801781920860184
:107DE0000D4A91550B20C001151800200746C9B255
:107DF0008F4201D300F07AFD002801D000F076FD1B
:107E00000C23329821462A4629F038F87F1C0C347E
:107E10000149895D0C35EAE72C2E0020680C000032
:107E20006C0C0000AC090000B2040000B6040000B5
:107E300034520020E4040000FFFFFF0710CA0300D3
:107E40009DAA04242946234628F0B2FA002801D02E
:107E500000F04CFD01279DA840780228259800D30A
:107E60002046349909022F9139022991441900269C
:107E7000334635462C979DA80078854201D300F003
:107E800035FD002B01D000F031FDB4AA0823329853
:107E9000214628F08DFA03462D9800780106490FF7
:107EA000052900D19AE0012909D12D9949780902C3
:107EB00008182F9908402999884200D18EE0319303
:107EC00033963794E3208600FC4A905911246C4382
:107ED000015D39430155B498915909198871B4A8C5
:107EE000007824F09FFE00280BD0F4488059339E80
:107EF00080190021379C319B11296FD030F068FD2B
:107F0000FAE72D9F3878ED4989590A5D0007400E40
:107F100087231340181808553878E84989590919F2
:107F20004A781202C0001F23DB0213401818000A0F
:107F3000487030F066FC01462F9A11402C9A52028C
:107F4000914209D1DD49895909194A7BC006C00F00
:107F5000FE23134018184873D84881590819095D41
:107F600030F02FF84A05520F06D1B499D44AD34BBA
:107F70009954017830F025F82D9A52789207520FD3
:107F800006230F469F43BA180B0A4370090C8170F1
:107F90000270B4A8C178C94FBA19BB591B195971DD
:107FA000B95909192E9B0B71516800780D54B59879
:107FB000B9590A19095D53781B02591893781B04A3
:107FC000C918C006800BBF4B19400818010C9170EE
:107FD000000A50702C9F379C339E319B08346D1CD7
:107FE000113648E72D68B4AA042330F005FE0028B6
:107FF00001D000F07BFCB498B34940189B21890064
:10800000AE4A50509D208000002414523398001F27
:1080100001D100F06BFCAD494968691AAC4A914244
:1080200001D900F063FC80083799091DC2B232986B
:108030001DF00CFBA5480078002801D100F056FC8B
:1080400021F058FAA148047000F050FCE468009751
:108050002F98019030463299379A339BA04700F011
:1080600045FC24343794B498944F9A4978547A183C
:10807000B4A833904079411E8841029210770C22B7
:108080002F92209C204621992FF01AF80020607032
:10809000E070E0802990A0808F4D2846319E3146C7
:1080A00026F0D2F92C90294632468C4B8C4FB8479B
:1080B0002A9B19785A781C46120251182EF058FF44
:1080C0002C9F384629463246259B854DA847217B63
:1080D00031402EF035FF032338467F493246804D2C
:1080E000A847217B89072EF074FD207B2599084045
:1080F000400826F011F80423384677490C463246EA
:10810000A8473399C97D2EF01BFF05233846214629
:108110003246A847BA992EF013FF06233846214667
:108120003246A8472A9C217B4907C90F2EF008FF39
:108130000723384668493246A847217B0907C90FFB
:108140002EF0FEFE257B67485C4C205C6900102306
:1081500019402E93EF22024088185840614960541C
:10816000082338465C4932465D4CA047E906C90FF2
:108170002EF0E6FE0923384657493246A0472546E9
:108180002A99097B8906C90F2EF0DAFE0A233846A0
:108190003C4651493246A847339D697E2EF0D0FEB9
:1081A0000B2338464C4932464D4FB8472A99097B34
:1081B00049062EF00EFD2046474932462F9B484F78
:1081C000B847A97E2EF0BCFEA87E47493B4A5050D6
:1081D0000D232746204640493246414CA0472A9C61
:1081E000217BC9098279C3791B029A18037A407AE4
:1081F0000002C018000480180170207BC00928F01C
:108200007FF90E23384634493246354CA047E97E83
:108210002EF096FE0F2338462F490D463246A047D2
:108220002A9C617B31402EF08BFE607BC007C00F23
:1082300027F0EAFC3846294632462E9B284DA847AF
:10824000617B89072EF0C5FC11233846224932464E
:10825000234DA847BB992EF073FE122338461E49C2
:1082600032461F4DA84730F0FFF92EF081FE132350
:108270003846194932461A4DA847A17AE27A1202C5
:1082800051182EF075FE33980079411E092900D946
:1082900019E10A4D43003298379C2146119A28F083
:1082A000EDFDB4A909794A001319002800D1A9E20B
:1082B000309E473600203190AFE2C0462C2E002081
:1082C000FA020000FF1FFC00FF03000034520020F0
:1082D000FEFFFF7FEC0B000057FC0000FDFF0000DD
:1082E000E57E0300FC080000DC080000B4AA1023AF
:1082F00028F05EF8002800D0F8E2B4982521890122
:1083000060526018B4A94A888281B59AC281CA882D
:108310000282B69A428249898182B79901840020FB
:10832000014624F067FDE1E20020102803D0B4A943
:1083300030F012FBF9E70120000233903798071D57
:10834000002001469DAA1278914200D313E500282F
:1083500000D010E59DA840780128379101D0102564
:1083600000E00D25B4AE3298394632462B4628F04F
:108370001FF881218B00E258B17A0B267143541803
:10838000617AA27A12025118339A11427ED12C9549
:108390002E902F970934B4AA1D46D37A9B075B0C05
:1083A00031969F2636020E409B19319E2170190A84
:1083B0006170A14F7859917A71434118887A00020F
:1083C0004004800F19D0B4A8C07A01282BD106220E
:1083D00008469A492EF074FEB698974F7959B4AA78
:1083E000937A7343C918030ACB718871B798795986
:1083F000927A72438918087226E0B4AE304627F0AC
:10840000A3FAB6987959B27A319B5A438918020A6D
:10841000CA718871B7982FF076FEB07A3189319E93
:108420001EF074FF10E0B4AE304627F08DFAB79816
:10843000814F2FF068FE7859B17A319E7143401810
:108440007F4A110AC17182717959B4A8827A724344
:10845000891830F0A9F9339B1A434A72120A8A72BA
:108460007959827A7243891800224A727959807A3E
:1084700070430818817A10220A4382728320800098
:108480003958491C39502F9F2E982C9D7F193799A8
:10849000491C694C56E7B4AA642330F0ADFB04468E
:1084A000F0E09DAA5C232846379927F081FF044617
:1084B000002800D0E6E00020642800D1CAE0B4A97A
:1084C00030F04AFAF8E7329C379D299EA7E1002751
:1084D000594C329D31462F98002806D0002F04D1E8
:1084E0003398C2B228461DF0B1F856482554FDE134
:1084F000514D2F9C2DF0A0FE00279D979DAA04268C
:1085000032983799334627F053FF002805D0A7212A
:10851000C9006F52022C3ED05CE02EF081FF18188B
:10852000339B1B1F9BB2834235D130984730102AB2
:10853000EDD81029EBD8002A394600D166E22E96F4
:1085400031973798061D00200125114607468F42B6
:1085500000D354E2002800D051E2B4AA0423329898
:10856000314627F025FF00280FD1B4A94A781523FA
:108570009B01314CE4586419641E227049882E4ACC
:10858000D25853195155090A59707F1C9DA9097871
:10859000ED1C361DDBE72DF04FFE00249D949DAAB7
:1085A0000427329837993B4627F002FF00280ED166
:1085B00031942EF035FF1B183398001F84B2309889
:1085C00047309C4202D1102A00D898E1319CA72163
:1085D000C9006C52002800D088E100240425164907
:1085E0001948085C844210D2184808584119897803
:1085F000032907D1405D24F015FB002802D0E0B22A
:108600002BF07CF9641C0835E9E711480858002173
:10861000082902D030F0DCF9FAE70020802800D1E8
:1086200064E10549094A89580A18095C2FF05EF887
:1086300000220A700830F1E72C2E002008CA03003F
:10864000FFFF0000B40400003905000044050000ED
:108650003C050000B4A89DA95C222EF031FD0C98C9
:1086600000781E9B597BF8220A40072101405018D0
:10867000587330984730CB900020C1439974090A51
:10868000D9741875002C00D030E1B4A83790007868
:10869000012132910840F94FF94D795DFE220A40DF
:1086A000101878559DAC042220461799F54EB04716
:1086B0001D9821462CF058FF0920C00138180824C5
:1086C00016992246B0473798007802210140785D1C
:1086D000FD220240501878558920800038183390C8
:1086E0001599224625463194B04733464320C000B1
:1086F0003A182E92B5981026F041B92189007C18BD
:108700002F942C917850FF20DF497854379948787E
:1087100090774888DF4978521E9C207D9075912083
:10872000C000381814992A4698471A980078D749F3
:1087300078541C9D284613993246D24B9847D3480B
:10874000385C2874D248329B3B541B9812993246AD
:108750001E46CC4B98472FF0E4FC199800782F9DCB
:10876000E8732078A8733798007880092E990875E7
:10877000607B8107C90F6973F64BF9584007C00F3A
:10878000C003F20391434018F8502B200001381821
:108790000C221899EE4B9847607B5121C9007A5AF8
:1087A000C007000E80239A4310187852CB9821F00E
:1087B000E1FFA07CE17C0902081829F0F3FC607B52
:1087C00031990840C00827F09BFE6D88DA498D4238
:1087D00007D02C98385A884203D0DF49785C304360
:1087E00002E0DD49785CB04378540822339C20468F
:1087F000D2492DF0E1FD002878D0CF48854275D0D0
:108800009BAA6FE00298C1711018C0880026CA4A5E
:10881000904202D1481ECA496854329C1D46B4A8F1
:10882000319900291FD0807900281CD00A281AD835
:10883000430020462946109A28F020FBB4A98979E4
:108840004A005519002802D0309E47360BE00298A6
:1088500041771018808B0026B74A904203D1481EFA
:10886000B049B84A8854B4A8002E01D0FFF71DF9CA
:10887000C079002801D1FFF718F9042801D9FFF7C2
:1088800014F961214901A74A52184300204629469C
:1088900028F0F4FA002801D0FFF707F9B4A8C0794E
:1088A000A049A94A885489184200895AA24A91428B
:1088B00001D0FFF7FAF8401E9A49A34A8854FFF7FF
:1088C000F4F8A549785C379A9043319C7854082293
:1088D00020469A492DF070FD002807D09648854221
:1088E00004D09CAA284621461CF02EFB3699491C30
:1088F0003598401C35908B4D8D4CFEF776FD102938
:10890000319C00D963E6002A214630D03798041DF7
:1089100000200125114606462F978E4222D20028BC
:1089200020D1B4AA04233298214627F041FD002823
:1089300012D1B4A94A78339215239B01794AD258AF
:108940005219521E339F17702F9F4988754AD2586B
:1089500053195155090A5970761C9DA90978ED1CC7
:10896000241DDAE700286F4D319C00D02FE6B59426
:10897000B49488003799254644189DA840788542CC
:1089800070D2E119B4AA0823329827F011FD00280B
:108990006AD1B598634B6D4E9959CA19C855000AEA
:1089A0005070B4A881799A59D2199170C0799959A7
:1089B000C919C8706D1C0837DFE7002007213A4647
:1089C000229B5B78984200D307E6931F1C785B7864
:1089D000544D5E4EAD596D18ED1E6B702C70514D9F
:1089E000137807241C40AB595B185B1E1C7013786E
:1089F000DB08AC596354401C0831D21DE0E7002865
:108A0000484D2F9C319F2E9E00D080E53546B5976E
:108A1000B49788003799401831903E469DA8407819
:108A2000864223D231984119B4AA0823329827F0FC
:108A3000BFFC00281ED1B5983A4B444C19594A192D
:108A40004855000A5070B4A8C17907220A40195944
:108A500049198A70C079C00819594919C870761C1B
:108A60000835DBE70020B5E52E4DAFE500202D4DA4
:108A70002F9C4FE52B4D2F9C49E5C0462C2E002006
:108A800079040000C1700300FA0200006B020000CC
:108A90006A020000760200002078002803D020F04F
:108AA00029FD00202070002422482C5028188480A2
:108AB0002698483001D115F021FB1C482858002881
:108AC00010D120462CF02EF8CD2000012C542B98EC
:108AD000400128181821C166006E401C02D10120F7
:108AE0001F996850104AA85C04210143A9547FB023
:108AF0005CB0F0BD30994731316038A912F010FEFA
:108B0000002803D02EF092FEFEF7B6FB03CE2B9A80
:108B10005201AA1810663078CD231B01E854D166A3
:108B2000FEF7AAFB2C2E0020D10C0000CC0C00007C
:108B300034520020DC0C0000FFFF000010CA0300CC
:108B4000F30B0000090C00001E0C0000440500009F
:108B5000C17003001405000014070000F0B5C9B08F
:108B6000EB4E0025358008200D90B0705620032173
:108B70001491315498201390355230464730E549CE
:108B8000E54F0E242246B847462009943454304617
:108B90005E30E2490D242246B8475D2006903454E9
:108BA000F01DDF4906242246B847B471304627300D
:108BB000DC490F242246B8472620129434547620EC
:108BC000FF2108913154E8438421705031468431AB
:108BD000D54A4A608C2170509021D448079170503A
:108BE0003146903148609C36D148F061D148F06000
:108BF000D148D24A854203D0002151556D1CF9E776
:108C00002820CF4A3C2803D000211154401CF9E70A
:108C10000020CC4ACC4B11466E31814203D000215A
:108C20001954401CF7E7C948D423C44CE0502046EF
:108C3000D430C74E31465831C160C6490A464C321D
:108C40006F20C0000C9022503031C3482150314673
:108C50005C31C2482150314660318F200B900001B9
:108C60000F902150A721C9006118BD4A2032BD4C88
:108C70006D364E608A60CC60BB4E3146203100229A
:108C8000BA4CAE48802A0BD00759BD18B9540F0E04
:108C9000EF700F0CAF700F0A6F700832491CF1E7CC
:108CA000B349AF22D200A54816928150B149B24AC9
:108CB000C263A74A643206C0B04F39463031B04A69
:108CC00008388150AF49812292001092815031467C
:108CD000413141220E92D20011928150E32189004C
:108CE000421835465535303615914650A64E5560DA
:108CF0009660A64AA6494250A6494750C358A64E78
:108D0000002E04D000221A705B1C761CF8E7E021CC
:108D10008A480A9143580026042E03D000229A550F
:108D2000761CF9E785480C9940580023192B03D08D
:108D30000022C2545B1CF9E7804887494058002351
:108D40001B2B03D00022C2545B1CF9E77B488349EC
:108D500040580023042B03D00022C2545B1CF9E7C7
:108D600076480F9940580023042B03D00022C254A8
:108D70005B1CF9E700200346102B23D06F490A59EA
:108D8000DD005619575D71780902C919B778F67870
:108D90003602F61936047618171800220021082A20
:108DA00002D0B954521CF9E73170644909594A1983
:108DB0004E55310ED170310C9170310A51705B1CDF
:108DC0000830D9E775485D4908580022082A02D0C2
:108DD0002FF096FDFAE71520800158490858002227
:108DE000302A02D02FF08CFDFAE7544816994058EB
:108DF0000022482A02D02FF083FDFAE74F4800688E
:108E00000022EC2A02D02FF07BFDFAE7644C4B489D
:108E1000C06B2346002B04D000210170401C5B1C5A
:108E2000F8E7464840680022042A02D02FF068FD87
:108E3000FAE74248524940580022402A02D02FF017
:108E40005FFDFAE73D48109940580022DC2A02D025
:108E50002FF056FDFAE73948119940580022142A9C
:108E600002D02FF04DFDFAE73920000133490858B0
:108E70000022142A02D02FF043FDFAE72F4815995B
:108E800040580021112902D02FF0A2FDFAE7E52079
:108E900080002A49085821462031002902D02FF0AD
:108EA00079FCFAE725483B4940580021302902D097
:108EB0002FF08EFDFAE72148354940580021E0297E
:108EC00002D02FF085FDFAE7012536481B4C2554CA
:108ED000354E2220315C002900D051E23554F06D2E
:108EE000002800D0FEE70C9500251A9519951895D5
:108EF0002E482F4918AB2A4629F002FBF065114E87
:108F0000163630462AF01AFF002856D11BE2C0461A
:108F10004841002048C90300C170030065C903002F
:108F200027CA030038C90300FFFF0000008000804B
:108F3000BEBE402306000024240D00002C2E00207D
:108F4000786D00204A020000503B00207052002043
:108F5000686E0020A4700020E8080000EC08000003
:108F600090720020886B00203870002044050000BB
:108F7000E0720020B865002018630020546F0020C4
:108F8000E40400008467002078640020A4660020C8
:108F90003C0900005C06000058EFFFFF3C050000A4
:108FA000A0FEFFFF0C0D0000086C002010510020F7
:108FB000B1FB0200002141556D1CAE42FAD1119067
:108FC000852040001590F74E300456D0159827F0B4
:108FD0005DFC2FF01BFC1DF041F8F34F3846F349C0
:108FE0001FF0FCFA0120F24C20600026F14D2E60AB
:108FF000F14868602021F1482FF0A6F91398A86283
:109000001198E8623846214623F02EF805461028CC
:1090100003D8E74826F080FF05465421E84F785CE6
:10902000401E7854E049896DBA6D914201D100210A
:10903000B965000618D1E3482DF05AFE5524385D75
:10904000002806D1E04A2E32E048E14900BF00BFC7
:10905000385D401E3855000606D1384664302EF083
:1090600089FEDC482EF086FE159827F0E7FB2FF0EE
:109070008BFD102DA8D0F643A6E7D74840780028EE
:10908000119F00D05CE1D5480024046501211391B3
:109090002CF028FF002800D152E117A80899017090
:1090A00035A8112101701D214170E82181707421C2
:1090B000C1706C210171EC214171B021817109995C
:1090C000C1717F210172B72141726D218172C52169
:1090D000C1728E210173022242730C218173A2217D
:1090E000C1732046102C03D0395D0843641CF9E796
:1090F000002800D124E104920025EE43089C72343C
:1091000039A840212FF020F92946099503963046C9
:109110002A46982A44D005929200BF5878400026EB
:1091200002040F9604D1491C0F91072900D906E1CA
:109130009C49491C884203D26E1C072E00D9FEE0D0
:10914000B8B239AD29462DF0EFFA380C29462DF08A
:10915000EBFA099DAD1D1598F530854218D900210F
:1091600008460D46202813D039AA125A23465C33EC
:109170009A4200D9E3E039AA125AA24203D900293F
:10918000139900D0DBE039AA00231352801CE9E7D1
:109190000995059A521C35460F993846119FB8E734
:1091A00018AD4C2128462FF0CFF82B9517A82C90FE
:1091B00026F0E6F92B98014649314922049B835455
:1091C0000026066401244C700421039A25F074F8EB
:1091D0002BAD002800D035460028049800D0AFE021
:1091E00031AA107035A83290102633962D97159815
:1091F00026302F90309639A82E902DA928460DF0B4
:109200004DFF002807D0132041012FF0F3FF2868FD
:109210002FF02DFB94E013273801119908182D9099
:1092200039A810302E902DA931AA28460DF036FF0E
:1092300015907901119F2FF0DDFF28682FF017FBA3
:1092400015980028654D7BD126F09AF92120C000A1
:109250000899295428182A4629465C3115916965D0
:109260001390A8650E98850000200F9050552AF0A5
:10927000FDFF2A4659490D46895C002902D02BF092
:10928000F7FF5DE00992AC542BF0F2FF159D2F46DD
:1092900030374C212FF0AEFFEF677C3513986860B4
:1092A000D5204E490C5404213846039A25F004F881
:1092B000002800D00F9D0A99484A5550002804D034
:1092C00000204649099A885439E0E420434A049929
:1092D00011541046E430159D456086600026D6671F
:1092E0006E62AE62EE62D665166656669666F420CB
:1092F00020211150FC200399115008980630145475
:1093000030463146324619F05BFC002801D100F0AE
:109310007FFC0A98314F385800682EF0E4F87C6DD5
:10932000254690356E760798215820462FF00CF888
:1093300026626662A662E662EE6009983E54119F5C
:1093400038462EF02FFD2449887800280C9D03D143
:109350004878012800D18D702AF088FF18490A7AD0
:10936000002A01D0002402E001220A721C4C2BF0DA
:109370007FFF1C48446235200121164A11541A4CC3
:109380002EF0EEF8194AA05C04210143A1542BF001
:1093900085FE0A98205800210B9B042928D02FF025
:1093A00017FBFAE7FFFF00002020094018C903005F
:1093B0007C20094080200940419601008820094016
:1093C000006D0020CE0700004A02000090C7030095
:1093D0009FC40300786D0020086C0020F844002032
:1093E000ECC90300846C00202C2E002079040000BE
:1093F0000C951F201390C506F64FD800F64E059029
:109400003418201D2DF062FA606809952840C019B3
:109410006060607802211591084360708B208100A4
:1094200014980A9170544020EC49315200200A21CE
:1094300002460E9C089EE84F20281ED0FB6B5B184E
:109440005B1E1E703B5DFF2B0DD0FC6B0B26734328
:10945000E3189B7A6354FB6B0E9C3C5D74431B19B1
:109460000E9C0A3301E0FB6B5B1818703855401CEA
:10947000531C0B3116461A46DEE70020342803D071
:1094800018A92FF069FAF9E7D5481890D5481A902D
:10949000D5481B90D5481C90D5481D902B20000125
:1094A000CD4C2118225A202304931A43139B9A432C
:1094B000225210274F8039AE2FF0E4FE39980999D7
:1094C0000840C449084339905720C000201804259B
:1094D00031462FF015FD3320C64EC74C411C03D238
:1094E00000213154401EF9E700202070082804D0E4
:1094F000211863222FF018FAF8E72CF02DFF0799B6
:10950000605488248D2C07D000210C982AF043FE4B
:10951000B9490855641CF5E721F066FB2CF02EFCD8
:1095200085204000F530F0622BF0B8FD9B208000D4
:109530000024B1490C5426F0E7FE7F2070714320CF
:10954000C000AE49A44E315230181599C17014991B
:10955000017185605121CD00715B0B220A439F216F
:1095600089007452A64974548466A649A64B735266
:10957000BA4313957253A549102C05D0964A121977
:1095800000235354641CF7E7A149A24B0022924DDB
:10959000EA54A14BEA54139FEB5BB924A4008F4E0D
:1095A0002E532C196680FF260F96E6738B4EA681EC
:1095B000109CA343EB53994B149CEC545523DC00B3
:1095C0000D9B08942B55AB239B00954CEC50954C70
:1095D0002B5D0126109633432B55934B1C2A05D047
:1095E0007D4CA4180025E554521CF7E78F4B002250
:1095F000794CE2548E4BE2528E4BE2548E4B202A31
:1096000005D0754CA4180025E554521CF7E78B4A89
:109610000025714EB5540724E201B35A091D1940C3
:10962000B152F3218F00F15B80229143F1536B49DA
:10963000818317214901755281494B227254149933
:10964000417528F041F92BF085FA3146F05B109E08
:10965000B043C8530F467B4829467B4A0DF0B0FB08
:10966000D1200001391814221192CA603E54774A61
:10967000906A2832486056731CF0F8FE05997854B9
:109680000B9B554A169E4F2C11D09059015D1940E5
:10969000015590590019401E0F9901700834F2E7E6
:1096A0004D484019CD21C900002242546D1C2A2D7D
:1096B000F6D100206649332803D0474A2FF024F81A
:1096C000F9E70525280299214900434E31526148A6
:1096D0001499315453200001692131505E483150B2
:1096E00024F0B2FC752000010A2131545B480024AB
:1096F00034545B4834545B48315C159A11433154FF
:1097000021F010F92BF072FC002804D056480321F8
:109710003154564831505648301805741E21C181C5
:109720005449725CFE2316931A4072548269002ACF
:1097300002D01520002190474F483C21264D295446
:109740004E482F184E480F9929544E482818052185
:109750000B912EF0F9FD0920B8751098C002B8825F
:1097600049482C54E0430F38484A4949002809D059
:1097700013181B8A184D2F187D187B541B0A6B7009
:10978000801CF3E7144840184249092C06D00A5DB2
:10979000002343700270641C801CF6E700203E49E1
:1097A0003E4C702803D00C4A2EF0AEFFF9E7F0349F
:1097B0003B480F9A002C04D0074909190A54E41DAC
:1097C000F8E70548374940580021E0296CD02FF0D0
:1097D000FFF8FAE700F8FF072C2E0020FFFF00003B
:1097E000D1EE010005B3010029C602008D3E030041
:1097F00035F30100E06E0020503B0020093D0000E1
:109800007E020000860200000F0300003702000005
:10981000FBFD0000470200006A020000A6020000F3
:1098200084D00000340900008A020000A702000072
:10983000760200002E020000BD020000DD020000E2
:10984000DE020000617003004A020000786D002013
:10985000920600002E0500003405000038080000C4
:109860005E080000D5070000D8080000DC080000F2
:1098700078090000A509000035080000E407000091
:1098800036080000F3070000340800007CC5030020
:109890000B080000B0C9030052070000A0FEFFFF44
:1098A000C60700003C090000E54AE64810580F9939
:1098B0004170E548115C159B19431154002028287C
:1098C00006D0DF490918252292012FF02DF8F6E77E
:1098D000DE490020DA4A5050DD4A142804D0D84925
:1098E00009182FF021F8F8E7DA4ED54DAB5AA81831
:1098F0000169D94C1C40D94BC360A319AB52D84A5B
:10990000139EAB5BD74C1C40AC53D74BEB5C002B8E
:10991000109D00D00B9D1140D44AC94B9A5C032A7C
:1099200000D1AD1C0722C64BD14C1A55D14A9D54CB
:10993000D14A89180161D1481818D149002902D0AB
:109940002EF028FFFAE72CF007FDCE49BC4A505410
:109950000020CD49082803D0B94A2EF0D5FEF9E7FA
:109960002CF0FAFC0028B64C01D0C8496054C84815
:1099700000251095169E31462FF0B4FBC5483146A0
:109980002FF0B0FB2CF0E8FCC349605439ADC3495B
:1099900028460D9E2FF086FA0698C000201829460A
:1099A0002FF080FA1CF0DEF818AD28462CF08EFF60
:1099B000189809990840BA4908431890B94FE05DD2
:1099C00016990840E0550A9815992154B648201870
:1099D00029462BF0C9FD0121B4482154139AA05AFD
:1099E0000B9149030143A15208982654B04810999D
:1099F0000D462154E05DF7210140E155AD482018A6
:109A0000149A521E07D0011D406800280846F8D15C
:109A1000A948683008608A48A6494058002808D1FB
:109A2000A5496831864CA34EA151A4482EF0B6FC3E
:109A3000A05900780D9018A814301690804C0D98FD
:109A4000854200D1BCE010959D48205C04281CD8BC
:109A5000984961584A788B781B029A18CB78097913
:109A60002EF0BBFE109A920089584A7D8B7D1B0216
:109A70009A18CB7D097E2EF0B0FE421C904BE2542A
:109A8000800020180E9A520181508A48205841784F
:109A9000827812025118C27800792EF0A8FE10992F
:109AA0008900455887482158002901D028788847DF
:109AB0006E1C002314951396287C83427DD2307C43
:109AC000717C09020818B17CF27C2EF08BFE129C8E
:109AD00015935C430119CA7A0B7B1B029A184B7BC6
:109AE000897B2EF07AFE08D08847307C717C090291
:109AF0000818B17CF27C2EF075FE00192EF059FE8C
:109B00002EF0EAFC1204561852D014990A78139BCE
:109B100019785B781B0259180023302B04D018AC3D
:109B20000025E5545B1CF8E718AB00271F705A703E
:109B3000027844782402A2185A80027A1A71998510
:109B40000521219111991C2903D018AA5754491CA9
:109B5000F9E7841C002E2BD0F078400722D52EF098
:109B600032FE18A9C8803079727912021018C8859F
:109B7000B57828462CF026F900280FD0203DE8B211
:109B80000D2802D85049085C00E0002016990028F2
:109B900004D000220A70401E491CF8E718A80021D2
:109BA00018F068FE7F1C0A362EF049FC8742D1D39C
:109BB000159B5B1C149D139E7EE7109D6D1C3DE75D
:109BC0000A25284625F01EF840490A0E82710A0C23
:109BD00042710A0A0271C1703D483E496050FDF76A
