:1041000000900020957F03004D2B03004D2B0300F2
:104110004D2B03004D2B03004D2B03004D2B0300B3
:104120004D2B03004D2B03004D2B030013A3020066
:104130004D2B03004D2B0300512B0300255E030084
:104140004D2B03004D2B03004D2B03004D2B030083
:104150004D2B03004D2B03004D2B03004D2B030073
:104160004D2B03004D2B03004D2B03004D2B030063
:104170004D2B03004D2B03004D2B03004D2B030053
:0C4180004D2B03004D2B03004D2B0300C2
:10419000F0B5FFB086B00646202126F01BFF04468E
:1041A000471C1BA801250570207818901596701ED5
:1041B000F64BD42119915958C0B2A42216925043FB
:1041C0001A90081833F0ADFFE075607AA17A090201
:1041D0000E18EF48185CC00737D030F0F9FF002800
:1041E0001BD0607DC007C00D2FD11F2E28D9E948F4
:1041F0003018112804D829468140E748014224D1CB
:1042000030463138092804D829468140E348014224
:104210001BD11BA80021017036E034F0E8FB0AD066
:1042200030462138142810D829468140F7480142E9
:104230000BD08D214BE3607DC007C00D05D1EFE7AA
:104240002846B040F9490842D1D030B200281BD4EA
:1042500001235120C000CD4D1490295A002049055A
:1042600000D419E132463C3A91B20B291C4619465A
:1042700000D913E1EE480240EE48D0400123184037
:104280000E24D4401C4009E1EB483018322800D9F4
:104290007DE2800001A108588746C04631490000F0
:1042A000676A0000676A0000676A0000676A0000CA
:1042B000676A0000676A0000676A0000676A0000BA
:1042C000676A0000676A00009549000069430000C2
:1042D00069430000676A0000676A0000676A0000BF
:1042E000676A0000676A0000676A0000676A00008A
:1042F000676A000069430000676A0000676A00009F
:10430000676A0000676A0000676A0000AB49000046
:1043100069430000D948000069430000676A000053
:1043200069430000676A000021480000214800003E
:10433000676A0000676A000069430000676A00005E
:10434000676A0000676A0000694300006943000073
:1043500069430000E34900000B4A00006943000084
:1043600069430000694300008848199940581A9928
:10437000411834F055F9012901D802F074FBAF4A15
:10438000B218272A00D935E2920001A39A5897461D
:10439000554A0000554A0000554A0000676A00006F
:1043A000676A0000676A0000676A0000676A0000C9
:1043B000676A0000676A0000676A0000554A0000EB
:1043C000676A0000676A0000676A0000676A0000A9
:1043D000676A0000554A0000554A0000554A00002F
:1043E000554A0000676A0000554A0000676A0000ED
:1043F000676A0000554A0000676A0000676A0000AB
:1044000031440000676A0000676A0000676A0000C4
:104410005756000071560000554A0000554A0000EA
:10442000554A0000554A0000554A0000DF5600007A
:104430002024159D284634F0FFFD014653A834F092
:10444000DBFE7DA8002606805048199940581A992D
:10445000401834F063F80A7B18924F7B002F0ED17E
:104460000C310079801E8D1CC4B22846214627F0ED
:104470001FFD8F27002801D102F0C2F8159D3E21B3
:1044800034F0E6FD044618993E2E01D102F008FCF6
:104490000020A055761CF7E71C461946CA4AAB5CBB
:1044A00002252B405A425A410028084600D11046A6
:1044B000002803D0002C0ED18420FEE1062E01D866
:1044C0007B2000E07220C043062E00D9F5E10122D6
:1044D000544000D0F1E184203246203A272A179137
:1044E00000D98BE0930001A2D2589746A145000065
:1044F000FB4A0000F94A0000BB480000BB4800002E
:10450000BB480000BB480000BB480000BB4800009F
:10451000BB480000BB480000054B0000BB48000042
:10452000BB480000BB480000BB480000BB4800007F
:10453000994B0000F14B00008D4C0000AD4D000088
:10454000BB480000BB480000BB480000BD4E000057
:10455000ED4E0000BB480000BB480000554F000076
:10456000BB480000BB480000BB480000BB4800003F
:10457000BB480000F14F0000715000008351000063
:10458000D351000013520000855200002C2E002051
:10459000FC0800000080FFFF7F0003008303000091
:1045A0008A4D1998285833F0FBFD102801D201F0EC
:1045B00014FC8A79CB791B029A188F183C460C346C
:1045C000A17B4A0011461031814201D901F005FC5E
:1045D00026460F36B25C52005118814201D901F0D3
:1045E000FCFBE07A002803D0F12801D201F0D9FFCA
:1045F000822115982DF0C6FA02F031FA062E00D964
:1046000022E1B00002A108588746C0460304180002
:10461000A3520000475300004146000041460000FD
:10462000DD53000095540000435500007F002BE04F
:10463000FF0F0000F10F0000EB7FFFFFE07FFFFFA7
:10464000624D199C28591A9BC01833F049FF01D8B4
:1046500001F0C3FB33F015FE139031460D312AA84B
:1046600034F02EFE0F362021159C2046169126F0A0
:10467000B1FC0746401C1890199828581A99401800
:104680000079C01EC1B2304627F012FC1A900028F3
:104690000BD1189934F079F953A927F0BBFE002803
:1046A00001D101F09DFB159C484D3E78042134F06A
:1046B0006BFE074613983870B9208300E85A2AA980
:1046C0000988884201D000F07AFF00200246787005
:1046D0001899087A497A09020818032801D101F0CB
:1046E000FBFA0228154601D001F002FB129317983D
:1046F000800217900D21159826F028FC05463448B5
:1047000032490C1802221392284621461994314B43
:104710009847A078A870E81C2F492C4A5118139C80
:1047200022462C4B98472B4B199840796871A81D4D
:104730002A4A264989182246984728460830284997
:10474000224A51182246234B9847224B28460A30CA
:1047500024491E4A5118224698471998007B28730D
:104760001A4A1498105A179908420DD11B4B1E482B
:10477000105C800602D51A981C3005D01298115A88
:10478000D25A159831F010F9184D01F0B1FA1848C5
:104790003018062801D902F066F9800001A10858F6
:1047A0008746C046C1470000C1470000414A00009B
:1047B000454A0000614A00004148000041480000AD
:1047C00015982EF05DFB41E1140700002C2E00200F
:1047D000E4070000D1720300E7070000EA070000C9
:1047E000EC070000EE070000160500000280000044
:1047F0000080FFFFFC4AB218152A01D902F033F9F4
:10480000012393406F24234200D023E1042AF74D73
:104810001A9B00D132E1152A00D194E002F023F96D
:10482000F24833F049FA0B2901D202F01CF933F0B7
:1048300013FE927D0B328A4200D8A0E502F013F9F4
:10484000159830F009FB01E1152E36D1E74919988A
:10485000085833F06DFC46182021159C20461A910B
:1048600026F0B8FB054600781990307B18900D367D
:1048700053AF0222384634F04FFEFD48FB49085A38
:1048800039880140398001D100F008FD042134F05D
:104890007BFD1899017000214170801C53A934F0F0
:1048A0000FFD6878A97809020A181A981999014029
:1048B0004B09F048214601F0DBFFB978FA78120283
:1048C0005118ED4A914201D902F0CDF8C1B21598C4
:1048D0002EF03AFB02F0C3F8E44833F0EDF9052975
:1048E00001D202F0C0F833F0B7FD137C002B00D1E9
:1048F000B0E00C3200270524002B01D101F06FFB42
:1049000027460C378F4201D902F0ADF81719FF7A0C
:10491000032F05D0012F01D002F0A5F80E3400E0DE
:1049200015348C4201D902F09EF85B1E2F46E3E756
:10493000CE48199940581A99401834F035F8032890
:1049400001D802F090F834F0E3FAC84933F075F971
:10495000042A01D202F087F833F003FD8A78520668
:10496000C24B05D54278807800028018C34A98521D
:104970000878F921C900595C884201D002F073F827
:10498000BF48BA490858002801D102F06CF81599BF
:1049900001F035FFB548199940581A99401834F07C
:1049A00003F8012856D802F05EF8B048199940582B
:1049B0001A9933F0DDFC427B842A4BD0002A01D0C7
:1049C00002F051F833F02CFE052901D202F04BF829
:1049D0000C30007916224243501D88423AD902F029
:1049E00042F8A248199940581A99401833F0DCFF50
:1049F00002282FD0032801D202F035F801D102F0AD
:104A000032F8C00726D102F02EF89848199940587C
:104A10001A99401833F064FD1CD0032901D202F02A
:104A200022F88279C3791B029A1880180C30801CF6
:104A3000891EC9B227F03CFA00280BD002F013F807
:104A4000112100E00221159829F0F8F8002801D181
:104A500002F009F81BA915980FF0F8FB01F0FFFF11
:104A6000159830F0F9F9002801D101F0FCFF7F4DD5
:104A7000199828581A9BC11833F0D2FDC01833F08A
:104A800021FE8418207C491F0023814201D001F0BF
:104A9000E8FF0028159E1CD0082801D201F0E1FF94
:104AA0000C34E17A4A0016460836864201D901F0F4
:104AB000D8FF21460C318D5C6F00F6198642159E99
:104AC00001D001F0CEFF20460D302EF0EBF825731B
:104AD000664D892000012A58002A06D069493046CF
:104AE0009047002801D101F05AFD304623F006F925
:104AF0004342434101F0B5FF0021159811F00EFC2F
:104B000001F0ADFF2024159E304634F095FA05469D
:104B1000C0782979090208185749884201D901F05B
:104B20009BFF28780007800F01D001F095FF68787F
:104B3000A9780902081818904C48199940581A99F0
:104B400033F016FC027B1A920A79497909028A1815
:104B50008027022A01D201F080FE0C30411C501E39
:104B6000C2B203202BF01AFD002801D101F075FE1E
:104B700053A92CF029FC002801D001F06EFE53A8A7
:104B80000678471C002E01D101F065FE38462DF055
:104B900065FA761E0837F5E73448199940581A998E
:104BA000401833F0FCFE012901D801F016F933F06A
:104BB000A9FC20211598189126F00CFA017816917D
:104BC00045788678207B1A9034F0F8F8617B19914B
:104BD000884201D800F091FD34F0F0F81999401A9C
:104BE000C4B200F08BFDC0460080FFFF2C2E0020D9
:104BF0002024159D284634F01FFA1C4933F01DF877
:104C0000012A01D802F05CF8421C33F08CFE1A4BEA
:104C10009A4201D901F0E1F806780C22324001D025
:104C200001F0DBF84278807800028018189033F0A9
:104C300007FE09180F7B0D3153A834F0D5FB052171
:104C4000159D34F005FA07708421417007481999C1
:104C500040581A99401833F0A2FEC91E33F0CAFF1B
:104C600026407309084801F095FCC0462C2E002010
:104C7000EC07000015800000F7FF0000760200003E
:104C8000C40700000480000032800000ED4819993C
:104C900040581A99441833F028FE012801D801F031
:104CA0009CF8A579E67920211598129126F092F9C1
:104CB00033F0EFFCE44A914201D901F08EF802781A
:104CC0000C21114001D001F088F8119231024919EC
:104CD00061184F7BDD4BDB4AD25CD41B0025BA4206
:104CE00000D22C460E7B032C00D30324401C1090D2
:104CF0001520139060430F90411D34F0D5FA0670D3
:104D00002A464570CF49D14BC95C8170C770047188
:104D1000451DE01914901346F8B21499814201D848
:104D200000F06CFD169317921897A721C900C54A89
:104D30005718F968C6008819C4795D20C000111899
:104D4000082234F0D9FBB86803216143405C287223
:104D5000B868401841788078A8726972F86880193C
:104D60008079E87203280DD00128189F169B18D16E
:104D7000B448B7494058801901794079687329735C
:104D80000E230EE028460C30AE4CB14FE159891984
:104D9000097927F001FBE059801940792875139BA8
:104DA000189FED18179AD2187F1CB5E7A54C199FCC
:104DB000E0591A9E80198179C2791202511845185A
:104DC00020211598169126F005F9024600781490D6
:104DD0001895294615460D3153A8092232F078FA64
:104DE000E059801933F0E0FD0A2801D200F0F5FF08
:104DF0006F1CB878F978090208189649884201D3DF
:104E000000F0EBFFA87BE97B0902081832F0B6FF3F
:104E1000002801D000F0E1FF5D20C000201853A958
:104E200034F0E8F90028179905D08B4953A834F0DD
:104E3000E1F9414241411A91A87BE97B09020C1832
:104E4000687D1990844953A80822164631F0BCFBAE
:104E5000139020462FF0B8FF0446454245410028F4
:104E6000189A01D101F02FFC7B4953A834F0C2F904
:104E7000002811D0794953A834F0BCF900280BD090
:104E800053A87DA933F098FA002805D17DA80078B1
:104E900000212AAA23F08AFD611E20468841614232
:104EA00061411A9E3140002C01D07B22D443189AD4
:104EB000012901D100F091FF01F00FFC002553956D
:104EC0006048199940581A99401833F09CFA34F008
:104ED0001FF81890387B1690787CFE2800D172E37A
:104EE000FF28179E00D072E309226EE30620C44318
:104EF00054481999405833F01BF9451834F008F814
:104F000002462B7B687BA61D002802D00B2800D808
:104F100065E31598002801D101F0A1FD501C8178AE
:104F2000C27812025118484A914201D900F055FF47
:104F300001784078000244182A2115981D4626F071
:104F400049F82B4600212A2901D100F098FD33F0C1
:104F500031FEF8E72027159E304634F0B5F80346B9
:104F6000384D1998285833F01BF9012202281046B1
:104F700018931A9201D201F047F9081D33F05EF937
:104F8000374BEA540D310078401EC4B21E20224631
:104F90002BF004FB002801D100F07DFD41788A1C34
:104FA0000021A2420B4601D301F01DF982782D4D5C
:104FB00024494A5551000B1D641E0021A3420B4693
:104FC00001D301F010F9169727491E4B5C18C71C36
:104FD0000026D0B2864201D301F0FFF80422204619
:104FE00034F098FA3F1D761C1648425D241DF0E708
:104FF0002021159E34F082FA33F04BFB124A914285
:1050000001D901F029FD0178890601D401F024FDC0
:1050100041788078000244180A48199940581A9932
:1050200040188179C279120251184018057B33F07B
:1050300037FF05708D2141700C4831462246179B81
:1050400001F016FC2C2E0020F7FF000039050000AF
:1050500044050000F8FF000038CC030030CC03000A
:1050600004090000090900000C090000428000004A
:105070002021159E3046169125F0ACFF044641785C
:105080008278FB48FB4B1B580127F80218400AD1D5
:10509000631C9E78DB781B029B19F74EB342159E6A
:1050A00001D301F0D9FC120251181891F149199A53
:1050B00089581A9A89188A79CB791B029A188A1802
:1050C000137B002806D1189800287ED1607DC00788
:1050D000C00D7AD0139414930C32541C0879401EDE
:1050E000C6B22AAA2046314631F08CF8D6211A9051
:1050F0000028129114D12AA81990018839404842F9
:1051000048412BF075FA199F3888284040082AF04A
:105110001DFE388804210140880829F09DF80021EF
:10512000119153AA2046314631F07DF8199000289C
:1051300004D1539825F0BEFB002012907DAA204692
:10514000314630F035FF0746002801D100F028FD38
:1051500078427841199A514251411A9A002A179B74
:105160001A46139C00D00A46002A194600D101466F
:10517000D6201090012901D100F019FD802600F001
:1051800019FD2024159E304633F056FF33F081FA86
:10519000B94A914201D301F05FFC41788278120252
:1051A00051181891B34F199979581A9A8A1833F0EF
:1051B00065F90D7BB14BFB5C1B0701D500F01BFFB4
:1051C000189B002B01D100F010FF8D213046FFF716
:1051D0007FFB33F09DFE33F05CFAA94A914201D97E
:1051E00001F03DFC00781890A24C199EA0591A9924
:1051F00033F0BEF80D300979491EC9B200252A46A0
:1052000024F02CF9002801D100F048FC802301F0A3
:105210009BFA2021159C34F077F933F03AFA964A3C
:1052200091423BD2411C0A78497809028918914A77
:1052300034D19249515C090703D4407DC007C00DA9
:105240002CD0199810581A994018017942791202F5
:1052500052188024022A11D333F029FB41180D3152
:10526000501EC2B204202BF099F9002806D053A991
:105270002CF0AAF8002801D101F01CFB159821465A
:10528000FFF726FB2021159C34F03EF94178807809
:10529000000245187A48854200D87AE1204601F09C
:1052A000DCFB78493EA801807249199808581A9980
:1052B000401833F074FB0A2901D800F08EFD32F05B
:1052C00053FF16900D31704C2AAF0A223846A04782
:1052D0007DA808221A923946A0472024159E304600
:1052E00033F0AAFE014653AD284619942246664B78
:1052F0009847287817900C213046149124F028FD07
:1053000005465D20C0005B490C46081839461A9ACC
:1053100031F05AF9002801D100F018FC2AA846A95A
:1053200030F04EFF002801D000F019FC46980078BC
:1053300006210140042901D000F011FC2AA830F018
:10534000A7FD00F006FC4B4D199EA8591A9FC019E5
:1053500033F02AFB042801D800F03FFD4B494A4CAA
:105360002AA80822A047A859C01932F0FDFE1790BC
:105370000D3146AD04222846A0472024159E304614
:1053800033F05AFE014653AF38461A9422463E4C3B
:10539000A047387819903EAF022238462946A047E8
:1053A0000C21304624F0D4FC0546B9208000314958
:1053B000085A3F88B84200D035E246A88678022EC7
:1053C00001D200F0AEFC199F5D20C00029490918E8
:1053D0002AA833F0EDFE8021159E39E2254919985F
:1053E00008581A9940180179427912025118032974
:1053F00001D800F0F2FC32F03DFF0D3053902AADA1
:1054000053A9284632F0A0FC539804782021159F18
:105410003846199125F0DEFD0178179133F04DF9EA
:1054200018900521384624F093FC074606700026A4
:105430000671B92080000F49085A2988884200D097
:105440001CE2002C01D100F073FE1148094A105CE7
:10545000412149015118002801D100F057FC04C92D
:1054600013789C4200D03246401E1646F3E7C046F1
:10547000140500002C2E0020F8FF00001505000088
:10548000F7FF0000FFFF0000D172030030CC0300E3
:1054900034080000FB49199808581A99401833F04D
:1054A0001FF801D800F099FC32F05EFE18900D3123
:1054B000F54B2AAD022628463246984720241598F7
:1054C00033F0BAFD014653AF38461A942246FC4CDD
:1054D000A047387819907DAF384629463246A04714
:1054E000B9208000F5490E5A38882D88864200D0B0
:1054F000CCE18127AE4200D0C9E1F24DEF4C605DB6
:10550000002801D101F048F8401DC1B233F0CCFEB3
:105510001899017000274770801C314632F037FC23
:10552000615D0170412149016118401C1A9CE34AE8
:10553000525D974200D3B7E104C91278C2557F1C6F
:10554000F5E72021159E30460E9125F043FD411CC4
:10555000189100780D900020D84B052803D02AA977
:1055600033F0F0FAF9E71998185832F019FE0728C5
:1055700001D201F071FA8A79CB791B029A188F183F
:10558000797C831F4A00511C8B4200D2A6E1002186
:10559000A5E1CA48199940581A99401832F0B2FF4B
:1055A0000079401E277B0D3433F03CFB0028189512
:1055B00000D18EE21C3000D189E3282088E38020CE
:1055C0007870002594E30722179E354623E30628CA
:1055D00000D20125062800D21CE306221BE3169206
:1055E00018938200931CB549199C09591A9C0919F2
:1055F0000C79497909020C19A34200D9EDE3294637
:105600000E318F5CFF2F00D1131DFE2F01D103231C
:105610001343A34200D9E0E38A18541CFE2F01D0A3
:1056200000F0CDFF0128189B169A00D071E4257870
:1056300053A833F01BFD539E30462BF07FFB002810
:1056400000D1CAE3700100D1C7E33046294625F0F6
:1056500049FD01F0E2F90622D7431A9A801833F087
:1056600031F88218537B922B00D171E3B81D70E39F
:105670002021159E33F042FF0178890604D533F0CE
:105680001CF801D100F0BCFE9120C0008B49081825
:1056900033F01AFE04468C48844201D101F0DCF953
:1056A000204631F00DFA014653AD2C2233F024FF91
:1056B000288DC00501D401F0CFF953AD284618302C
:1056C0002AA933F05FFD5D980821C943F8390140EC
:1056D00029852846214622F079FF01F0BDF91A9A62
:1056E000801832F0EFFF851800244F941C946A7BD9
:1056F000002A00D066E3104665E300243002032C44
:1057000000D303244019149016206043411D33F048
:10571000CBFD07461A98387000257D7033F04EFB9C
:105720002B46B870199AFA703C717E1D1799C807FC
:1057300059D0200657D0E3208500604840590078B2
:105740000021C007F3D0D8B2904249D317938920E3
:1057500080005A490918082233F0B2FC304608305C
:10576000564949598A7953A928F0A4FF534B5398B5
:105770003074000A7074B07CFC210140B174595936
:1057800009784907890F8C2202408818B07459594A
:1057900049784907490E0918B17458590278F3201D
:1057A0000840510707D404210843B0745859417B7D
:1057B0000120084007E0B0745959497BC907490FD7
:1057C0000143B1740020F074585900784006000F6E
:1057D00030755859C0787075641E1636199A179B23
:1057E0005B1C0021A3E71A9838701898169901409D
:1057F0004B0936481599149A01F03AF8D0B20F992E
:10580000814207D9401A2D4932F017FA1018087151
:10581000000A4871109933F09AF8129811990140D2
:105820004B092B486FE27DA9384630F0DAFC00289E
:1058300006D17D98007806210140042900D1BCE5FD
:1058400018980007800F01D001F006F9199F8121F7
:105850001A9C179828706970A81C2AA933F0A8FC14
:105860000A353EA9022233F047FE53A841788078DA
:105870000002421827407B0916488EE1802078708C
:1058800000F09DFC2C2E0020D172030080271A9C72
:10589000052133F009FD189901704770801C2946D5
:1058A00032F075FA0021017053A841788078000227
:1058B0004218199820404309074824E22C2E002062
:1058C000D172030034080000FFFF000031800000A7
:1058D00033800000018000000580000001213C466B
:1058E0001234A35C0625ED43AA1A10185A00904200
:1058F000179800D30846012801D101F0ADF80C3704
:1059000038780990791C53ADA81C022633F0DAFBD5
:10591000F91C281D33F0D6FB7F79AF717E00A05DA6
:10592000E8710546189908780890487807908878B3
:105930000B90C8780A90E8194006010E159825F0DA
:1059400049FB3A46002F1697139004D0214630F0B9
:105950002DF9169A0446002D2F46FA4D06D0611CEB
:10596000139880193A4630F021F9169A1897B92001
:1059700080000590285A53A949880C91884205D087
:10598000F1480C99814201D800F0AFFCEF482C5C43
:1059900053A8808811901398801912900020064611
:1059A00006901A9015980F94A64201D100F0A2FC1F
:1059B000B1006B18412149015D586B78A978090243
:1059C000C918119B994202D0FA498B4254D11096C2
:1059D000A87919900023184619998B4221D2C10742
:1059E0001FD1149359006E1808360024139F944257
:1059F00014D2C10712D1317873781B0259183B8831
:105A0000994208D12A781A98C1B22AA82EF06CFDC2
:105A1000169A1A901798641CBF1CE8E7149B5B1C2D
:105A2000DAE7E9791491002614998E4221D2C10750
:105A30001FD10027129C18998F4218D2C10716D186
:105A400019997118490069180B7A497A0902C9181D
:105A50002388994208D12A781A98C1B22AA82EF030
:105A600043FD169A1A9017987F1CA41CE3E7761C36
:105A7000DAE715980F9C109E761CCD4D94E7711EA9
:105A80008E41F10141700370C484282101224254E7
:105A9000159800F0F6FF00210B46A4E3C6482058F5
:105AA000817A8623022901D900F04EFEC34AA25C06
:105AB000CA40D10701D100F047FEC149BC4A515A42
:105AC0000022490701D500F038FE179D134600F06B
:105AD0003BFE2120214632462AF060FD064600208A
:105AE0001790002E00D1F5E3B11C7DAC08252046AF
:105AF00033F00CFB0A3646A8314633F007FB02218F
:105B0000204628F075FB002801D100F098FC0646DD
:105B100005462835687800020024000513D40120CA
:105B2000C00217907DA833F0CFFB01462820325CDD
:105B30006B781B029A18179B1A433254100A68702C
:105B4000304622F043FD159D00F07CFCB92080001A
:105B5000205A3EA908809749884200D05FE11898F2
:105B60000007800F01D000F077FF179F812416985F
:105B700028706C70A81C7DA933F01AFB0A353EA969
:105B8000022233F0B9FC53A8417880780002421811
:105B9000199807407B090120C003314600F068FED8
:105BA0007DA800882CF09EFB00201090139C33F001
:105BB000D9FB00261A98454245412478022133F04A
:105BC00073FB1499017046701998002800D16D1C60
:105BD000002F159E00D16D1C002D01D100F00BFC93
:105BE000022133F057FC002101706900417001214E
:105BF00033F050FC002800D1FDE305701A9800280E
:105C000000D169E31998002800D1E2E3002F00D009
:105C1000F1E3EBE307226648199940581A994018B6
:105C2000017940790002431800209A42314600D899
:105C300001469A4200D906461A913C460C340D376B
:105C40002E40012E1392129307D1A01D149053A839
:105C5000042233F05FFC539800E0149718994F1C0E
:105C60000621CD4319902BF069F8AD1D002E2AD0E6
:105C70006279FE2A1799159E00D1014601291998CB
:105C800001D000F0D0FE1F21CC060646A6431AD054
:105C90001897B9218B004649CB18197C59188F7B6E
:105CA000C10E8F4201D000F0C5FDFF2A01D100F0E6
:105CB000ADFDFE2A01D000F0C1FD1499097825F050
:105CC00011FA00F0B6FD1A9A159E00F0ADFE2920DB
:105CD000C443159D0026B5E32C4602251598294698
:105CE00025F034F9E549611833F010FAE448451C11
:105CF000B81C2AA933F0E4FA189932F028FE169855
:105D000006407309A8B2159900F0B2FD002E00D02C
:105D100011E2002C03D0FF2C01D000F0B5FD822051
:105D2000ADE52AA9384626F075FB002800D143E3EB
:105D30000020159E082800D182E52AA932F0E2FF52
:105D4000F8E7C0462C2E0020F7FF000034080000C2
:105D5000F81C002B72D00025011D00D1FEE20028A6
:105D600000D09EE0002D01D100F085FD28462830AE
:105D70002826A95D407800024018C10501D500F031
:105D800086FD2946183153AC102233F001FBA85D83
:105D90008006400F0022032100AB17C3049220A805
:105DA0001CA9012317F020FB159C014D00F0F6FE05
:105DB0002C2E0020FFFF00003C09000034090000E9
:105DC00004050000E0438E1E0E35002A03D1F1B217
:105DD000284626F06DF8002872D0159800F03DFE98
:105DE00053A833F039F9002801D1FEF75CFC0246D4
:105DF00028322823C15C567836027618310501D541
:105E0000FEF751FC0121CC029E499F4D695C26435F
:105E1000C654330A537022F0D9FBFEF744FC2AA87B
:105E2000007A022800D2B1E2189814990840082894
:105E300001D100F011FE179F802498E60C32951CCA
:105E4000881E32F0FBFE00282BD190498E48445822
:105E500001201A90294632462AF0A0FB05464078D8
:105E6000401CC0B228281CD3002D1AD04C34A91CC9
:105E700020A81990082633F025F90A35202220465B
:105E80002946189231F024FA9120C4007E48001966
:105E900017901999324630F097FB002801D100F095
:105EA00086FE7A4C784D295900221598E02A02D0B6
:105EB00032F088FEFAE72A59FF21517000F0CDFD3B
:105EC000F2B2222029461A922AF068FB002884D0D8
:105ED0000746811C7DA819900826324618966C4BFF
:105EE000984739460A3146A83246694B98473946A1
:105EF00012314FA804263246654B98473946163171
:105F00001CA83246624EB0471A373EA83946189A46
:105F1000B04702261998314628F06AF9002800D1C6
:105F20005BE707462C942B942A942AA8199017967D
:105F300006460836222029461A9A2AF02FFB189086
:105F40007DA908221A92199D2846514B98471CA9F1
:105F50000422169230464E4B98471798287322AE6B
:105F60004FA93046169A4A4B9847083753AD10222E
:105F700028463946464B9847229830F0E5F922AE3C
:105F80000096162328461999189A2CF0AFF83EA9C6
:105F900030461A9A30F018FB002800D01DE77DA883
:105FA00033F092F94F993B4A374EB35800011B1812
:105FB0000D0EDD710D0C9D710D0A5D711971B158D9
:105FC0000818C17A0906344A521C0A43110EC172DC
:105FD000324834543248214633F0A6FAFDE6FA0737
:105FE00001D0FEF7CCF900F03EFD437DDB07DB0D71
:105FF00001D1FFF7EAF80C314F78402F01D900F0BA
:106000002BFD32F017FB921EBA4201D200F024FDA4
:106010001A94891C0078199053AC204633F058FA32
:1060200032F03EFF0570002646702046002F00D15A
:1060300049E1044605782820294631F0B5F9293888
:1060400009286BD8800001A10858874675600000B8
:10605000A5600000B5600000C56000001D61000083
:106060001D610000D76000001D6100001D6100007F
:10607000EB60000015982FF037FD4FE0F1070000AE
:106080000280FFFFB50400002C2E00203C09000018
:10609000D1720300E4040000FFFFFF072A0500009F
:1060A000797B03002A2133F07DF9002836D01721AF
:1060B000490104E02B2133F075F98D218900ED4A67
:1060C000511828E02C2133F06DF923210901E94A08
:1060D0005118042220E0B9208000E64A115AE6480F
:1060E000125A15982FF060FC18E0E248E349415C31
:1060F00001200840490700D5801C2AA90880DD49F5
:10610000149A895CC90702D0001D2AA9088032218F
:1061100033F048F92AA9022231F0DAF82A2DD549BC
:1061200002D1172040010E522046601C7F1E7DE7E1
:10613000D348D0490E18B079F179081840000830DA
:1061400000257D7016973871C1B2159824F0FEFEB7
:106150000746082233F0E0F9B079B871F079FC1DF8
:106160001A97F87153A9087037460837B0798542F5
:1061700007D20222204633F0CDF96D1CBF1CA41CAF
:10618000F4E70446169FE1B2C0B2F27910188842D3
:106190000DD9E8B240001A9A101808304900711859
:1061A000083133F08DF86D1C641CB079EBE71A9957
:1061B000887940000818C01D53A933F015F9159CC3
:1061C000199D189EB81C2AA933F07AF81798284010
:1061D0004309AC48214632464AE338780121014060
:1061E000179B159E169FA848A24A105C4242424146
:1061F00013424DD1002B4BD0002901D0042000E0E8
:1062000001209C4D1A9A189B16979C496C18A272F3
:1062100059789A7812025118E18019788906C90FC5
:106220006172E072002020730627304632F04CFF86
:10623000217B964AAA1831F065FE1F22D2060B4632
:10624000934301700A0C8270090A4170190EC170E3
:10625000E17A41718E482C5C1A9804405F20C0009E
:10626000285C45424541002C00D1179D159E3046C3
:1062700032F02AFF002C169F0AD0002D08D040795A
:10628000012805D18348002231462EF075FFE6E350
:10629000189A5078917809020D18147832F000FE9F
:1062A0007D49744A525C521CD3B2FF2B00D10022AC
:1062B000704B5A540270802141703C40630977480A
:1062C00031462A46D4E21A98199901404B0974487C
:1062D0001599CCE2D624B3E032213046119A2FF042
:1062E0008BFB002800D086E08CE480200690002004
:1062F0001A9015981A99002907D10A9909020B9A40
:106300008918684A914200D9A7E307990902089AB7
:106310008D181A99491D23F01BFD064661480C9AF9
:10632000824205D953480599405A7DA9088001E069
:106330007DA90A80B01C32F0C3FF099830701A9A08
:106340003271701D2AA930F0C3FF069870700E9844
:106350000D9901404B0954481599B2E70421159C49
:1063600033F0D2F8002101805049424B59588978C6
:1063700001220A40827003D04D49595C2EF04CFC3A
:106380004C48A5214A0033F0BBF868E3179F00246E
:10639000012801D0FFF7EBFB012133F07BF8E3216B
:1063A0008900344A5158097807220A40511F4A424D
:1063B0004A410270FFF7DBFB199F012E1A9C00D0A7
:1063C00020E20121159E33F065F800210170FFF7EE
:1063D00040FA781E87412C213046129A2FF00CFB90
:1063E0000028179800D13846002804D12B213046C8
:1063F000109A2FF001FB1698044063092E4835E2ED
:106400001C48199940581A99401832F07BF80E34FC
:106410000079801EC5B22046294625F049FD002896
:1064200000D019E32D20214632F0FCFF002800D1D6
:1064300012E3811C2AA832F0A5FEFFF725F9862475
:10644000159D179E022132F003FE0770447020064E
:1064500000D09DE017967DA8022631462FF02AFD38
:1064600013900020034B0D2828D02AA932F06AFB94
:10647000F9E7C0462C2E0020EA070000FC080000C7
:10648000F307000004800000090900000C09000067
:106490000C050000ADFE0200440700003C80000037
:1064A00044800000F7FF0000068000003C09000067
:1064B000FA02000081530200438000005D20C0000A
:1064C00019181691F94C1F462AAD08221492284635
:1064D000A047F74978580C463B4613990F01C0195D
:1064E000817BC27B1202511812912C912E73491C90
:1064F0008173090AC1731859C1193EAE042213925F
:106500003046EA4CA0471799083153AD102228466F
:10651000A0473E982FF018FFFB48FA494058C11990
:10652000C05D31F0CBF93E90129822902221159D4A
:1065300028462DF0A1FD04461699149F3A46F04EC8
:10654000B0472046083046A93A46B04720461030AA
:106550003EA9139F3A46B0472046143022A93A4636
:10656000B04718340020082802D032F0B7FAFAE712
:10657000E54E1998305831F0DBFD42180E32009488
:1065800053A82AA916232BF0B1FDE520C0003554ED
:10659000DE48002329466AE13546FFF778F90123F2
:1065A0005FE2DB4829462D5C002D00D111E2D9487D
:1065B000085C002800D16BE28521FEF71AF8FF2F56
:1065C00000D112E2052F189B169A01D9FEF7A1FC03
:1065D000012801D0FEF79DFC267853A832F046FD35
:1065E00053991798009015983A46334620F0F2FFD9
:1065F000169A189B0646002801D0FEF78AFC2EE268
:106600007DAA284621462FF0BBF91F2029462246A5
:1066100029F0C4FF002801D1FDF730FF417803299C
:1066200001D2FDF72BFF81782AAA1170C178517031
:10663000017991704079D0703821159828F0A6FE24
:106640001790B148199940581A99401831F066FFCF
:1066500046312020224629F0A1FF002801D1FDF774
:106660000DFF16904078032801D2FDF707FF179819
:10667000801C169DA91C32F023FE287917990871F9
:10668000687948716978C91E032242439142159D79
:1066900001D0FDF7F4FE16998E1D179D09350027D0
:1066A000092F00D9D7E2C0B2874200D3D3E2E81E57
:1066B000022232F031FFB07828707F1C17984079A1
:1066C0006D1DF61CECE790489349405C000700D52F
:1066D00038E100200446179D1A9E0C32002E17D078
:1066E0008E49894D695C890701D4FFF776FB164610
:1066F000002800D05BE153A8007AC00988496A5C91
:10670000FE231340181868548648159929544EE101
:10671000164617957720C1007B4B5A5C7520C00048
:1067200018180023042B00D122E101259D401542B9
:1067300000D11FE15B1C001DF4E7C07AFF28179D04
:10674000134601D18B2300256F4880591A994018B0
:1067500031F0CCFE077B0221159C20461A911E4683
:1067600023F0F6FA07702F464670002D0ED06E48C3
:1067700065490858867AC77A002120462DF07CFCAE
:10678000067047702F46801C30F05EFA1D2132F0F3
:10679000BBFE054600201D2802D032F0BBF9FAE707
:1067A0000020687028701A98E8736048433080268B
:1067B000EE72A872287C042101432974189880067F
:1067C0000DD45B485049095C53A82EF025FA287C6B
:1067D0003043287453986875000AA87508E0524839
:1067E0004949085832F0C2F8287C01210143297434
:1067F0001599002F02D04F48434A11544E482AF0B1
:106800002DFC2CE10021159EFFF723F82AAD284628
:1068100030F064F92A98204080192A901498411C7D
:106820007DAE32F00FFB781C3288C0B2294625F0CD
:10683000BFFB05461A9A159E189FF5E0052A159E7E
:10684000189F00D9EEE000201399129B994200D9BD
:106850006BE104466AE10027159E2D7832F020FB9B
:106860001A990170477025406B0934483146189ACF
:1068700028F048FCF3E02C48234D2858C07AFF2824
:1068800000D101E1032000E18320FEF7F8FF80063C
:10689000400F25491C4D69588A7A002A00D141E1F0
:1068A000C97AFF2900D16CE103216BE1D1720300A9
:1068B000E404000053A80678002E01D1FEF7DEFCA8
:1068C00053A8451C0620C043801D1A903746002F50
:1068D00000D13CE15D20C0000B49081832F0D4FA29
:1068E000002801D1FEF7CAFC0822284614492FF0DF
:1068F0006BFE002801D000201A907F1E0835E6E7C5
:10690000D1720300E40400002C2E00204780000018
:10691000380800005E080000FC080000D5070000F1
:10692000B9030000250700003C0900000280FFFFBA
:10693000FA020000260700003D5001002B800000F5
:1069400030CC03001998C007C10D53A8002900D00E
:10695000BFE61399002900D1BBE68057002800D577
:10696000B7E601201A99484001D1FEF77DFAB0E65A
:106970008A241CE0179B002B19D02A43F04B5A5451
:106980003178C17039787A78120251180180159ED9
:106990008670092132F0B2FD044653AD082232F070
:1069A00049FB287AC0092072E648314627E70221D0
:1069B000159D32F04DFB317801704470387879784C
:1069C00009020A181698149901404B09DE48294615
:1069D0004EE7159C0C54DD48085C42224243DC48DB
:1069E00032F08EFD32F02EFC39E026460C352AA816
:1069F00032F03CFB00246878844205D253A82AA9CF
:106A000032F034FB641CF6E7711C7DAE32F01AFAEA
:106A10006878328853A925F0CBFA0646189B169A57
:106A2000FEF777FA00251A9AB878F978090208185B
:106A3000C84988420ED8002A0CD1387879780902E2
:106A40000C182A2132F05AFD00212A2911D032F0E7
:106A5000B1F8FAE7002E02D0304622F0EBFD1BA879
:106A60000378002B02D1159822F0E4FD7FB006B028
:106A7000F0BD691E8D41E901417016990170C48411
:106A8000304628F03BFDEAE70220159C00217BE020
:106A9000AF48FE2100221A921AF0CCFD681E199907
:106AA000A74A5158C0B2169A424331F053FC287E8F
:106AB000697E09020818217B627B12025118884204
:106AC00004D0A54A904201D0914229D114950C35A9
:106AD0002A460F32A87B4100501816901992A37BCA
:106AE00058001890301817901698401C1690525C59
:106AF000009300201699334624F09AFF1695AA7B3E
:106B00001798431C1898305C00900120199924F0C4
:106B10008FFF92488A4A105C9149515C01435CD1D5
:106B2000862479E00021159C2EE0012414990B782D
:106B300000903046199920F04DFD0546002800D000
:106B40001794002D179A00D06EE72E466CE71A981E
:106B5000002801D0FEF792FB53A8441C814D002E63
:106B600076D00822204629462FF02EFD002805D099
:106B700020462DF091FE20462BF070FA761E083448
:106B8000EDE70221159CF74D0123002200AE07C658
:106B90000392049320A81CA916F026FCF348285859
:106BA00002214170FD482C54FD48214627E6ED485E
:106BB000EE494658B078C0073DD120A8FF212FF0FC
:106BC00079F9E949884201D1FFF76BF92FF078FF95
:106BD0000546E448E54946582EE00D3714990D3135
:106BE000F248E04E3018022532F090FA1698C07A3A
:106BF000EF497054432040013018394632F086FA8C
:106C0000EC483018E17A817715998176EA4831F0BD
:106C1000BBFC002856D08A24159821462AF0B2FFE2
:106C2000D04DE04EA85D21462AF0ACFF1A99A95537
:106C3000DD48295413E700257078012801D0FFF7BB
:106C400030F9CB481899415C002946D1199146E0AA
:106C50000024FEF713FBC34D199EA8591A9FC019B3
:106C600031F09DFE091B891E31F0C4FF06211598E5
:106C700024F06CF9A859C0198179C279120251180F
:106C800045182C460C34284644302AA932F0EEF937
:106C90007D98482168544835000A68700027189983
:106CA000677021702024159D284632F0C5F953A93C
:106CB00032F020FC284621F021F8002800D1CEE651
:106CC0002846CAE60024159821462AF05BFFA5480D
:106CD000B449405C2146FDF78DFCA6481990B81DCB
:106CE000012901D0FFF738F8B17A00270229169759
:106CF00007D0012901D0FFF72FF8102018901A981B
:106D0000169032464C3231468C313EA81A920AF027
:106D1000ADFC0C36984899493A46083224D0914A3D
:106D2000D3191A5C5B5C7F1E9A42F5D09A421BD243
:106D30005D20C0008B49091814961A9E1CE0C046BD
:106D40002C2E0020E92402003480000035080000C9
:106D500065600300F7FF0000FFFF00005C08000013
:106D60008208000030CC03005D20C0007D49081877
:106D7000179009191A981490814B2AAF08243846A5
:106D8000224698473846083020221A9214997C4BA4
:106D900098473846283017992246794CA0473846FC
:106DA000303031461A9E3246A047234653AC3EA9A6
:106DB000204632461E46984720462030502239460B
:106DC000B0477034204619991A9AB047169800288F
:106DD0001CD053A8902122AC224625F068F94EA879
:106DE000012101704FA8102232F034F90020102840
:106DF00000D1A2E04FA9095C5C224A407DAB1A5445
:106E000036224A4053A90A54401CF0E753A8902167
:106E100022AA199228F026F84EA81A900127077086
:106E200059497DA8024658C958C20421417000241E
:106E30007E942AF0AFFB064654481A9932F048FB7C
:106E40002FF0A4F81A96366853AF402132F0DCFADE
:106E500038461999189A31F07DFF4A48026837463A
:106E60002037384621469047002856D153AC484930
:106E7000204630F04EFF1A980068402221462DF03F
:106E8000FFFA002849D1314628312022304631F01E
:106E900061FF53A83F4930F03CFF3A4802680021A7
:106EA00038469047002838D11A98006853A94022E4
:106EB0002DF0E6FA002830D11A98006833490122F3
:106EC0002DF0DEFA002828D11A98066853A930461A
:106ED0002CF0B8FB002820D12A4802683046203028
:106EE00000219047002818D1304628302024314610
:106EF00032F082F9A5204000B63030621A9800685E
:106F000053A922462DF0BCFA002806D11A98006831
:106F10001C498A682030204990472EF0C7F91E4945
:106F200046AC202232F034FA1A9800682FF012FD95
:106F30001CA8102232F08EF811E053AC204610301D
:106F40004EA932F051FA7DAE324610321121204660
:106F500025F0ADF820211CAA304625F0A8F8002025
:106F6000FEF7FAFE2C2E0020FFFF00003C09000077
:106F7000846C002090720020EF0200008F0400005B
:106F8000D17203007800000FCCCB03006C4B0020C3
:106F90005C5C5C5C6A6A6A6AEC4B00202707000054
:106FA00055FE0200380800005E0800003A080000A4
:106FB0003C08000044080000E5EF0200F0B5FFB017
:106FC000DCB0B4A82A90B4AEB4AB9DAFB4AC38A8D2
:106FD000DB4DDC496A5CDC49695C520702D40A0774
:106FE00000D5ACE0490701D401F086FD2A9915319E
:106FF0002A91314690312291263619461531289131
:10700000591D27910E33249339464E310E9139463E
:107010004D310D913C3721464E311E9121464D3167
:1070200019913C341A9403213491C90140183390CA
:1070300000202C2805D029183322920131F066FD5A
:10704000F7E74720C14363202B90800037903091B1
:107050004731332080011F90369129500020379905
:10706000814203D038A931F06DFDF8E70F970496FF
:10707000339836990160B5482F180F2035900026B7
:1070800032963146022E3CD0F4B20025B4AA0C232D
:107090002046294629F092FF411C22D0002823D106
:1070A000B4A99DAA204629F061FF0146483101D0CC
:1070B00000280FD19DA800880E2810D879880122B9
:1070C0000A437A8038803599884215D2294632960B
:1070D000359012E00F2038803098253004E00F20E2
:1070E000388030F08BFC36987A88054601218A4337
:1070F0007A8020462DF008FE2946761C3F1D904DD3
:10710000C0E7359E0F2E38D090482C180025329FAE
:10711000022D2ED020880F280ED0AF420CD0B042C6
:107120000AD00F2020806088012188436080E8B267
:107130002DF0EAFD309947316D1C241DE8E733201E
:107140008001012129500024E0B2012803D81CF05D
:10715000D9FE641CF8E7F04818212950CD20000121
:1071600000212954774AA85C06210143A95401F063
:10717000BEFC0E2E00D03099714D269173482E180A
:1071800000273697022F30D030880F2802D17F1C7D
:10719000361DF7E7FCB238A9204614F015FA01466F
:1071A00038310FD0411C13D0002814D1339B03CBAE
:1071B0002B9A5201AA1810661878CD231B01E854A7
:1071C000D166E4E70120B840369901433691DEE705
:1071D00030F014FCDBE770880121884370800F20B9
:1071E000308020462DF090FDD1E70020102420288B
:1071F00000D198E00C22424338A989184968C74B4E
:10720000194204D038AB9A181289002A02D1401CC6
:107210000C34ECE7461C880F38A93246BF4F1F2AB2
:1072200008D80B593B4202D09B0F984204D1521C04
:107230000C31F4E7014602E002282FD10221339EEF
:10724000369AD4B22246C240D00715D0C8B202281E
:1072500010D232682B9B5B01EB181A66CD22140109
:107260002955800018186421405A0E2846D118F07C
:107270004DFF45E03698C4B2CD2000012A5C0121C3
:1072800008469043C440E2074DD08200AA18A44BA0
:10729000D45A8C43D4522DF037FD44E001461F2EC2
:1072A0001AD838A800599D4A104212D0870FC8B288
:1072B000B8420ED081006918244A8A1853880125E3
:1072C000AB431F4D53800F22204BCA522DF01CFDA3
:1072D0003946761C0C34E2E73698C4B2C8B222466E
:1072E000C240D207339EB1D10021379A8A4201D1E0
:1072F00001F005FC38AA31F061FCF6E716F052FE09
:1073000000203799814203D038A931F01BFCF8E7FF
:10731000309847303060285D38A914F055F90028BE
:1073200001D030F06BFB0749685C022225921043C4
:10733000685400207B4C08280AD031F0CFFBFAE7D4
:107340002C2E0020D10C000079040000C40C000099
:10735000B4A8401C2D90B4A8093021909DA85B30A2
:107360000C90B4A801460831179101460C311691D2
:1073700001461431159101462431149101462C31F6
:10738000139101463D3112914F3018909DA801464E
:1073900008310A9101460C310991014614310891D6
:1073A00001462431079101462C31069101463D31B9
:1073B00005914F300B90B4A8801C039000215A48CF
:1073C00028181D90594828181C90594828181B90B7
:1073D00058482818239058482818209057482818AB
:1073E00011905748281810903591202901D101F0AB
:1073F00058FB0C203691484338A90D1869680B4694
:10740000464A1340379301D101F042FB38AA1218C3
:1074100012893392002A01D101F03AFB8A0F32928D
:107420009200484B9A18484BD75A0E2F01D901F0B9
:107430002FFB01223192BA404F231B021A4201D185
:1074400001F026FB38AA101840892F903D483F4A8A
:10745000815086183398B0807F20359C2E90044050
:107460001C2C00D914E13198A0403949084200D1C0
:107470000EE1344837494158002906D0369880B289
:107480008847002801D101F003FB601E1E2800D9A7
:107490009FE1800001A108588746C0465975000049
:1074A0009F7600007D770000D3770000D37700003F
:1074B00003780000C1780000D3770000D97800007D
:1074C000E3780000E9780000FF780000D37700003F
:1074D0000F790000DD790000D3770000D37700003A
:1074E000D37700007D7A0000D3770000937A000004
:1074F000D3770000D3770000D3770000D377000064
:10750000D3770000AF7A0000B57A0000D37700008F
:10751000D3770000CF7A0000CC0C0000FFFFFF3FC4
:10752000C60C0000345200207C040000370200002A
:1075300092040000E40C00002A0C0000F40B000090
:107540000A0C00002C2E0020C40C0000DC0C0000F3
:1075500001460018BC0C00002F98042801D100F04F
:10756000ACFF0328329D01D100F0ADFF022801D00D
:1075700001F08EFA9DAC5C262046314630F0DAFFF1
:10758000284637992246334628F08AFF002801D042
:1075900001F07EFA9DA832900078012137910840D1
:1075A000F74FF84EB95DFE220A401018B8559BAC53
:1075B000042220460A99F44EB0471D9821462EF029
:1075C000DBF80920C0013818082509992A46B04778
:1075D000329C207802210140EA4BF85CFD220240F7
:1075E0005018F854892080003818319008992A469C
:1075F000B04733469E981026F041B92189007A1889
:1076000033922F917850FF20E04978546078E04918
:1076100078546088DF4978529120C0003818079963
:107620002A461C4698470F980078DB4978541C9DE1
:10763000284606993246A047D748385C2874D74870
:10764000379939541B9805993246A04730F051FEBE
:107650000D9800783399C8730E98007888730D469A
:107660002B20000138180C220B99A0476D88CC49BB
:107670008D4201D101F0ECF82F98385A884201D19F
:1076800001F0E6F8C749785C379A104301F0E4F856
:10769000BB4AC54BD05CFD210140D154E9E6B4AAF8
:1076A000182331F09FFB002801D001F0F1F90520EB
:1076B00005020121284626F067FF00284AD004462B
:1076C0000126102329463246B84FB8472FF0EDFE69
:1076D000B4A908222F46339525460C4637912FF042
:1076E000F7FD0023284639463246B04FB847617A45
:1076F0002C468279C3791B029A18037A407A0002D9
:10770000C01800048018017011232846339F3946A1
:1077100035463246A54EB047B7992FF06DF8A44BC9
:10772000B047B6992FF068F8A24BB047379E7189E1
:107730002FF026FD07204303204639462A469B4D5D
:10774000A847F17D2FF004FDF07D002802D02046EF
:1077500022F026FC31F0DFFB002801D101F098F97E
:1077600020210122944B30F0A5FC2FF09EFEB4A9FD
:10777000CA890280497B817001F08AF90026804D18
:1077800033988E4969580A78964200D3B1E14A7815
:107790008B781B029A18CB78097931F014F9B20072
:1077A0008A58917ED37E1B025918137F547F24027E
:1077B000E3181B0459180AD0537E309A18325A43E2
:1077C000002A04D000230B70491C521CF8E7761CD9
:1077D000D7E7C92000016A490C1800256848784994
:1077E0004058854201D301F053F92168369886B29A
:1077F00030468847002801D000F024FC6D1C14346A
:10780000ECE7B4AA182331F0EDFA002801D001F01A
:107810003FF930F0A2FF0023064621462A46634F77
:10782000B847B4992FF07CFC31F0B8F92B46B84733
:10783000B5992FF075FCB598FA21379148432AF095
:10784000E1FD02233046339621462A46B847B699D1
:107850002FF096FCB4AF38895A4948435A4940182A
:1078600031F04AFB45214901454A50502DF060FD59
:10787000032331F093F94D4EB04779892FF080FC06
:107880007889379948432AF099FD0423339E31F0D3
:1078900085F9464FB847B7992FF042FC052330468B
:1078A00021462A46B847B8992FF03AFC06233046BD
:1078B00021462A46B847B9992FF062FC01F0E8F852
:1078C00028682E900020414C339E042800D1C4E14A
:1078D0009DA931F037F9F8E72B98400128490B585A
:1078E000EBE027483A49E7E0002332983799042B28
:1078F00000D136E29DAC0022E2545B1CF7E7002089
:10790000042800D14FE29DA931F01CF9F8E72F9827
:10791000012800D062E3B4AA082331F063FA0028FA
:1079200001D001F0B5F8B4982A4940189B2189008C
:10793000134A50509D208100002050523399C908AD
:107940000901814201D101F0A3F8B59A214BD21867
:107950000B4D214EAB591C181A54130EE370130C27
:10796000A370120A6270AA5912180023537313737A
:10797000AA591218D37A10241C43D4721030E0E7AD
:107980002C2E002079040000D1720300FA020000BE
:1079900036020000760200006B0200006A0200005E
:1079A000FFFF000014070000D10C0000B5800300A9
:1079B00001E0000002E00000FEEF0000AC09000062
:1079C000B80C000090D00300FF3B000034520020B0
:1079D000640C0000FF030000E40400000822239868
:1079E00031F09AFD2F98022801D100F0A3FF2F98C3
:1079F000012800D131E3002801D001F049F8B4A8F2
:107A0000982130F097FD3398982800D025E3B4AA48
:107A1000982331F0E7F9002801D001F039F82298D5
:107A20000378082B01D901F033F822984078102808
:107A300001D901F02DF8A721C900F54A5354511876
:107A4000487000200121039A049F984201D300F05E
:107A500017FF531E1B781524A401ED4E35596D18E0
:107A60006D1E2B70537815783459661865547370F1
:107A7000401C229B1B78C91C121DE6E7002332988C
:107A8000379C042B00D198E1B4A90022CA545B1C96
:107A9000F7E7B4AA24233298379C214629F08EFABE
:107AA000002800D1F0E225F0F2FA00F0F1FFD8480A
:107AB000D84901E0D648D8494358002B01D100F0FD
:107AC000E7FF32983799339A984700F0E1FF2F98F3
:107AD000002801D000F0DCFF0023CD4C329837990C
:107AE000102B01D100F014FCB4AD0022EA545B1C51
:107AF000F6E718212BF0AAFA2F9000212E912F984B
:107B0000814201D100F0C4FF3191B4AA182331F0B1
:107B100069F9002800D09AE0C04828580178401C34
:107B2000B4AA5278339200252A4691421CD0077895
:107B300044782402E4198778C6783602F6193604A8
:107B400034196759BC7EFE7E360234193E7F7B7F36
:107B50001B029B191B041B1903D03B78339CA342C7
:107B600004D0521C2D1DE0E70B4600E013468A426C
:107B7000A74D64D201784278120251188278C078F9
:107B800030F02BFF99004058817EC27E12025118BE
:107B9000027F437F1B029A1812045318417E302043
:107BA000484318180022914206D01C7AE40702D0FC
:107BB000521C3033F7E718468A4240D2017A01223C
:107BC0000A430272B4AA1178017053784370538843
:107BD0004380B59B0371279E337874782402E318A1
:107BE000C380B378F4782402E318C385537A037210
:107BF0005289028200290BD1B7994182249B1978BE
:107C00005A78120251189A78DB7830F0FFFC416103
:107C1000B4A9498A024628320185B9999170289AF7
:107C200030F05AFD81851C21242903D0FF224254C3
:107C3000491CF9E728F05AFD2E98401C2E902E98EA
:107C4000002802D01FF0D0F901E000202E903199D9
:107C5000379818303790491C51E79DAA0423329871
:107C60003799299328F01CFC0746002803D19D98DA
:107C700067496B4A88542BF001FF654869492F9A80
:107C800042521C21002A319100D03021301F002A9D
:107C900001D02C223192379A161D2BF0D7F90546C8
:107CA0002E9860600024204629462CF016FB5E4981
:107CB00008703395294622F04BF8224631462E9023
:107CC000534C329D3398824201D300F014FC002FB4
:107CD00001D000F010FC3792B4AA28460E461DF0E1
:107CE000E5FD0746002837D12C97B4A82EF0BEF842
:107CF0004E496258299B34990840010151180D7A68
:107D00004F7A3F027D198F7ACC7A2402E419240439
:107D100067193D46464C2540002B04D0002D05D068
:107D2000401C5B1EE7E7002D00D0E0E3083132463F
:107D30003F4B1A401F23DB061F40BB180A70140C70
:107D40008C70120A4A701A0ECA702E990870491C5B
:107D50002E912F4C329D2C9F31983118379A521CFE
:107D6000B0E79DAA042328F09BFB0028284C00D1F3
:107D7000ECE29120C0002418082220462D492EF064
:107D800023FC002801D100F083FE2EF0ADFB00287B
:107D900001D000F07DFE00210122B4AB204612F09C
:107DA00055F900F075FE00233298379D082B43D01B
:107DB000B4A90022CA545B1CF8E7B4AA04232146E4
:107DC00029F0FCF8002801D000F062FE241DB4A8C0
:107DD0000178192086010E4A91550B20C001151813
:107DE00000200746C9B28F4201D300F051FE00289F
:107DF00001D000F04DFE0C23329821462A4629F08E
:107E0000DDF87F1C0C340249895D0C35EAE7C04679
:107E10002C2E0020680C00006C0C0000AC09000047
:107E2000B2040000B604000034520020E404000054
:107E3000FFFFFF0738CC03009DAA042429462346F0
:107E400028F02EFB002801D000F022FE01279DA87B
:107E500040780228259800D32046349909022F91B2
:107E60003902299144190026334635462C979DA89E
:107E70000078854201D300F00BFE002B01D000F00A
:107E800007FEB4AA08233298214628F009FB0346CE
:107E90002D9800780106490F052900D19AE00129A3
:107EA00009D12D994978090208182F990840299974
:107EB000884200D18EE0319333963794E3208600D8
:107EC000704A905911246C43015D39430155B498AF
:107ED000915909198871B4A8007824F043FF00284B
:107EE0000BD068488059339E80190021379C319B04
:107EF00011296FD030F05EFEFAE72D9F3878F849EF
:107F000089590A5D0007400E872313401818085549
:107F10003878F349895909194A781202C0001F2399
:107F2000DB0213401818000A487030F060FD01466B
:107F30002F9A11402C9A5202914209D1E84989594D
:107F400009194A7BC006C00FFE2313401818487356
:107F5000E34881590819095D30F01BF94A05520FB1
:107F600006D1B499DF4ADE4B9954017830F011F90B
:107F70002D9A52789207520F06230F469F43BA1844
:107F80000B0A4370090C81700270B4A8C178D44FF9
:107F9000BA19BB591B195971B95909192E9B0B7183
:107FA000516800780D54B598B9590A19095D53788C
:107FB0001B02591893781B04C918C006800BCA4BC2
:107FC00019400818010C9170000A50702C9F379CC2
:107FD000339E319B08346D1C113648E72D68B4AAD6
:107FE000042330F0FFFE002801D000F051FDB498CA
:107FF000BE4940189B218900B94A50509D208000FD
:10800000002414523398001F01D100F041FDB849FB
:108010004968691AB74A914201D900F039FD8008D0
:108020003799091DC2B232981DF0F8FAB0480078AD
:10803000002801D100F02CFD21F0FCFAAC480470BE
:1080400000F026FDE46800972F98019030463299A1
:10805000379A339BA04700F01BFD2EF0F5F9002660
:108060009D969DAA30F01CFA00289D4B00D14FE24E
:10807000A721C9005E521C3001D100F05BFC00F06A
:1080800007FDC0462C2E002024343794B498944F1A
:10809000994978547A18B4A833904079411E8841A0
:1080A000029210770C222F92209C204621992FF0CB
:1080B0000FF900206070E070E0802990A0808F4D63
:1080C0002846319E314626F05FFA2C9029463246EA
:1080D0008B4B8C4FB8472A9B19785A781C46120252
:1080E00051182FF04DF82C9F384629463246259BD3
:1080F000844DA847217B31402FF02AF803233846CE
:108100007E4932467F4DA847217B89072EF069FEC4
:10811000207B25990840400826F09EF80423384625
:1081200076490C463246A8473399C97D2FF010F89E
:108130000523384621463246A847BA992FF008F859
:108140000623384621463246A8472A9C217B490708
:10815000C90F2EF0FDFF0723384668493246A8476D
:10816000217B0907C90F2EF0F3FF257B66485C4C85
:10817000205C6900102319402E93EF2202408818DA
:10818000584061496054082338465C4932465D4C8A
:10819000A047E906C90F2EF0DBFF092338465749EF
:1081A0003246A04725462A99097B8906C90F2EF039
:1081B000CFFF0A2338463C4650493246A847339DF4
:1081C000697E2EF0C5FF0B2338464C4932464D4F91
:1081D000B8472A99097B49062EF003FE20464749F5
:1081E00032462F9B474FB847A97E2EF0B1FFA87E9D
:1081F00046493B4A50500D23274620463F493246C8
:10820000404CA0472A9C217BC9098279C3791B0273
:108210009A18037A407A0002C0180004801801708E
:10822000207BC00928F0E4F90E2338463349324652
:10823000344CA047E97E2EF08BFF0F2338462F49A0
:108240000D463246A0472A9C617B31402EF080FFCC
:10825000607BC007C00F27F079FD384629463246BB
:108260002E9B284DA847617B89072EF0BAFD11236C
:10827000384622493246234DA847BB992EF068FF65
:10828000122338461D4932461E4DA84730F0E2FA07
:108290002EF076FF1323384618493246194DA84769
:1082A000A17AE27A120251182EF06AFF339800790F
:1082B000411E092900D916E1094D43003298379C27
:1082C0002146119A28F07AFEB4A909794A001319B7
:1082D000002800D142E2309E47360020319048E22B
:1082E0002C2E0020FA020000FF1FFC00FF030000FC
:1082F00034520020FEFFFF7FEC0B000057FC000013
:10830000FDFF0000B5800300FC080000DC08000051
:10831000B4AA102328F0C4F8002800D0B8E3B49819
:108320002521890160526018B4A94A888281B59AD2
:10833000C281CA880282B69A428249898182B799EB
:1083400001840020014624F0F5FDA1E3002010285F
:1083500003D0B4A930F0F6FBF9E701200002339016
:108360003798071D002001469DAA1278914200D33C
:10837000FFE4002800D0FCE49DA840780128379154
:1083800001D0102500E00D25B4AE329839463246B2
:108390002B4628F085F881218B00E258B17A0B2614
:1083A00071435418617AA27A12025118339A114219
:1083B0007ED12C952E902F970934B4AA1D46D37ADE
:1083C0009B075B0C31969F2636020E409B19319E0F
:1083D0002170190A6170F44F7859917A71434118EC
:1083E000887A00024004800F19D0B4A8C07A01280E
:1083F0002BD106220846ED492EF06AFFB698EA4FC7
:108400007959B4AA937A7343C918030ACB71887156
:10841000B7987959927A72438918087226E0B4AEF7
:10842000304627F033FBB6987959B27A319B5A43DC
:108430008918020ACA718871B7982FF04CFFB07A78
:108440003189319E1EF0ACFF10E0B4AE304627F00B
:108450001DFBB798D44F2FF03EFF7859B17A319E6B
:1084600071434018D24A110AC17182717959B4A876
:10847000827A7243891830F08DFA339B1A434A721C
:10848000120A8A727959827A7243891800224A72D2
:108490007959807A70430818817A10220A438272CF
:1084A000832080003958491C39502F9F2E982C9DCD
:1084B0007F193799491CBC4C56E7B4AA642330F0A5
:1084C00091FC044688E09DAA5C232846379927F052
:1084D000E7FF044600287FD10020642864D0B4A9B7
:1084E00030F030FBF9E7329C379D299E43E10027AD
:1084F000AD4C329D31462F98002806D0002F04D174
:108500003398C2B228461DF089F8AA482554BFE224
:108510009DA80278A721CC001A551B1941785970E3
:108520009000CB001818339B1B1F9BB2834200D0D6
:1085300000E29D4B319430984730102A00D997E5DE
:10854000102900D994E5002A3146319C00D1C6E1BA
:108550002C972E962E1D00200125114607468F428E
:1085600000D3AFE1002800D0ACE1B4AA04233298D4
:10857000314627F095FF002810D1B4A94A78152379
:108580009B01894CE4586419641E2270319C49880F
:10859000854AD25853195155090A59707F1C9DA913
:1085A0000978ED1C361DDAE7B4A89DA95C222EF0EF
:1085B0008FFE0C9800781E9B597BF8220A400721F9
:1085C00001405018587330984730CB900020C14379
:1085D0009974090AD9741875002C00D058E2B4A80F
:1085E000379000780121329108406F4F724D795DCC
:1085F000FE220A40101878559DAC04222046179997
:108600006E4EB0471D9821462DF0B6F80920C001E6
:108610003818082416992246B04737980078022166
:108620000140785DFD220240501878558920800075
:10863000381833901599224625463194B047334671
:108640004320C0003A182E92B5981026F041B92167
:1086500089007C182F942C917850FF205849785429
:108660003799487890774888564978521E9C207DE3
:1086700090759120C000381814992A4698471A9886
:108680000078514978541C9D2846139932464B4B2B
:1086900098474D48385C28744C48329B3B541B9893
:1086A000129932461E46454B98472FF022FE1998E4
:1086B00000782F9DE8732078A87337980078800998
:1086C0002E990875607B8107C90F6973404BF95873
:1086D0004007C00FC003F20391434018F8502B200D
:1086E000000138180C221899344B9847607B5121AF
:1086F000C9007A5AC007000E80239A431018785296
:10870000CB9822F0D7F8A07CE17C0902081829F068
:10871000E9FD607B31990840C00827F069FF6D884A
:1087200023498D4207D02C98385A884203D02A49D1
:10873000785C304302E0FE49785CB043785408220C
:10874000339C204623492DF03FFF002800D19FE1B4
:10875000FD48854200D19BE19BAA8CE00298C17143
:108760001018C0880026F84A904202D1481EF849E5
:108770006854329C1D46B4A8319900293AD08079BA
:10878000002837D00A2835D8430020462946109AB9
:1087900028F014FCB4A989794A00551900281DD085
:1087A000309E473626E0C0462C2E002030CC0300F9
:1087B000FFFF0000B404000079040000D172030040
:1087C000FA020000760200006B0200006A0200005C
:1087D0001405000038CC030014070000029841770C
:1087E0001018808B0026D84A904203D1481ED149E8
:1087F000D84A8854B4A8002E01D0FFF754F9C079A4
:10880000002801D1FFF74FF9042801D9FFF74BF9F0
:1088100061214901C74A521843002046294628F0E1
:10882000CDFB002801D0FFF73EF9B4A8C079C149BB
:10883000C94A885489184200895AC34A914201D0D2
:10884000FFF731F9401EBB49C34A8854FFF72BF9A3
:10885000C549785C379A9043319C78540822204669
:10886000BA492DF0B1FE002800D111E1B648854289
:1088700000D10DE19CAA284621461CF0BDFB07E172
:10888000002007213A46229B5B78984200D3CDE036
:10889000931F1C785B78A74DB04EAD596D18ED1E37
:1088A0006B702C70A34D137807241C40AB595B18D8
:1088B0005B1E1C701378DB08AC596354401C0831F4
:1088C000D21DE0E70028379D2E9E2C9F07D0002167
:1088D000984A11532F9902292CD0FFF7CCFBB5965B
:1088E000B496880045192F999DA8407886421FD2DA
:1088F000E919B4AA0823329827F0D2FD0028E6D15E
:10890000B5988C4B954C1959CA19C855000A507026
:10891000B4A8C17907220A401959C9198A70C079C7
:10892000C0081959319CC919C870761C0837DAE794
:1089300002297BD12DF088FD00269D969DAA2FF05F
:10894000AFFD00287B4C00D09FE09DA80278A721B6
:10895000C90062546118407848709100C3005918EA
:10896000339B1B1F9BB28B4200D08EE0102A00D994
:108970008BE0102800D988E0002A314631962FD0AC
:108980002C1D00200125114606462F978E4222D22B
:10899000002820D1B4AA04233298214627F080FD74
:1089A000002812D1B4A94A78339215239B01614A59
:1089B000D2585219521E339F17702F9F49885D4A13
:1089C000D25853195155090A5970761C9DA9097836
:1089D000ED1C241DDAE70028564C379D319E54D1FA
:1089E000B596B4968800441935469DA840788542CE
:1089F0001CD2E119B4AA0823329827F051FD0028AF
:108A000042D1B5984B4B554E9959CA19C855000AD1
:108A10005070B4A881799A59D2199170C079995936
:108A2000319EC919C8706D1C0837DEE70024042583
:108A300040494B48085C844210D2484808584119C4
:108A40008978032907D1405D24F08CF9002802D0F1
:108A5000E0B22AF0F5FF641C0835E9E74148085800
:108A60000021082902D030F0A5F8FAE7002080287C
:108A70000ED03049394A89580A18095C2EF014FF83
:108A800000220A700830F2E72A4CA720C0002652C4
:108A90003699491C3598401C3590264D284CFEF7D8
:108AA000A4FC2078002803D020F0C4FD0020207012
:108AB000002424482C50281884802698483001D15E
:108AC00015F070FA1D482858002810D120462CF0C7
:108AD0001BF9CD2000012C542B9840012818182197
:108AE000C166006E401C02D101201F996850124AD5
:108AF000A85C04210143A9547FB05CB0F0BD30995B
:108B00004731316038A912F05FFD002803D02EF004
:108B100075FFFEF7B1FB03CE2B9A5201AA1810661F
:108B20003078CD231B01E854D166FEF7A5FBC04683
:108B3000140700002C2E0020D10C0000CC0C0000EB
:108B400034520020DC0C0000FFFF000038CC030092
:108B5000F30B0000090C00001E0C0000440500008F
:108B6000390500003C05000014070000F0B5C9B04D
:108B7000EB4E0025358008200D90B0705620032163
:108B80001491315498201390355230464730E549BE
:108B9000E54F0E242246B847462009943454304607
:108BA0005E30E2490D242246B8475D2006903454D9
:108BB0007620FF2108913154E843842170503146DA
:108BC0008431DB4A4A608C2170509021D94807914A
:108BD000705031469031486030469C30D649C16172
:108BE000D649C160F01DD64906242246B847B47163
:108BF00030462730D3490F242246B8472620129406
:108C00003454D148D14A854203D0002151556D1CBE
:108C1000F9E72820CE4A3C2803D000211154401CFB
:108C2000F9E70020CB4ACC4B11466E31814203D08C
:108C300000211954401CF7E7C848D423C34CE05026
:108C40002046D430C64E31465831C160C5490A4627
:108C50004C326F20C0000C9022503031C24821505D
:108C600031465C31C1482150314660318F200B9034
:108C700000010F902150A721C9006118BC4A203281
:108C8000BC4C6D364E608A60CC60BB4E31462031A4
:108C90000022BA4CAD48802A0BD00759BD18B954F0
:108CA0000F0EEF700F0CAF700F0A6F700832491C77
:108CB000F1E7B349AF22D200A44816928150B149DE
:108CC000B14AC263A64A643206C0B04F3946303159
:108CD000AF4A08388150AF498122920010928150EA
:108CE0003146413141220E92D20011928150E3214E
:108CF0008900421835465535303615914650A64EF6
:108D000055609660A54AA6494250A6494750C358A7
:108D1000A54E002E04D000221A705B1C761CF8E7CA
:108D2000E0218A480A9143580026042E03D00022ED
:108D30009A55761CF9E785480C9940580023192B61
:108D400003D00022C2545B1CF9E780488649405892
:108D500000231B2B03D00022C2545B1CF9E77B4885
:108D6000824940580023042B03D00022C2545B1CCC
:108D7000F9E776480F9940580023042B03D00022CE
:108D8000C2545B1CF9E700200346102B23D06F4927
:108D90000A59DD005619575D71780902C919B7786B
:108DA000F6783602F61936047618171800220021D4
:108DB000082A02D0B954521CF9E7317063490959A5
:108DC0004A194E55310ED170310C9170310A5170E3
:108DD0005B1C0830D9E775485C4908580022082A0E
:108DE00002D02FF07FFEFAE715208001574908587E
:108DF0000022302A02D02FF075FEFAE75348169968
:108E000040580022482A02D02FF06CFEFAE74F4863
:108E100000680022EC2A02D02FF064FEFAE7644CCE
:108E20004A48C06B2346002B04D000210170401C2F
:108E30005B1CF8E7454840680022042A02D02FF066
:108E400051FEFAE74148524940580022402A02D0D8
:108E50002FF048FEFAE73D48109940580022DC2ADE
:108E600002D02FF03FFEFAE738481199405800220F
:108E7000142A02D02FF036FEFAE7392000013349D8
:108E800008580022142A02D02FF02CFEFAE72F48AF
:108E9000159940580021112902D02FF08BFEFAE7D6
:108EA000E52080002949085821462031002902D0B8
:108EB0002FF066FDFAE725483A494058002130294D
:108EC00002D02FF077FEFAE72048354940580021BC
:108ED000E02902D02FF06EFEFAE7012535481B4C41
:108EE0002554354E2220315C002900D050E2355403
:108EF000F06D002800D0FEE70C9500251A95199515
:108F000018952E482E4918AB2A4629F099FBF06592
:108F1000104E163630462AF0B3FF002855D11AE21B
:108F20004841002070CB0300D17203008DCB0300B9
:108F3000FFFF000000800080BEBE4023120000241E
:108F40004FCC030060CB0300240D00002C2E00202A
:108F5000786D00204A020000503B00207052002033
:108F6000686E0020A4700020E8080000EC080000F3
:108F700090720020886B00203870002044050000AB
:108F8000E0720020B865002018630020546F0020B4
:108F9000E40400008467002078640020A4660020B8
:108FA0003C0900005C06000058EFFFFF3C05000094
:108FB000A0FEFFFF0C0D0000846C0020105100206B
:108FC000F5FC0200002141556D1CAE42FAD1119012
:108FD000852040001590F74E300456D0159827F0A4
:108FE000CDFC2FF009FD1DF021F8F34F3846F34971
:108FF0001FF094FB0120F24C20600026F14D2E6002
:10900000F14868602021F1482FF094FA1398A86283
:109010001198E8623846214623F0C6F80546102824
:1090200003D8E74827F01AF805465421E84F785C42
:10903000401E7854E049896DBA6D914201D10021FA
:10904000B965000618D1E3482DF05AFF5524385D64
:10905000002806D1E04A2E32E048E14900BF00BFB7
:10906000385D401E3855000606D1384664302EF073
:1090700069FFDC482EF066FF159827F057FC2FF0AB
:1090800079FE102DA8D0F643A6E7D74840780028EF
:10909000119F00D05CE1D5480024046501211391A3
:1090A0002DF028F8002800D152E117A80899017086
:1090B00035A8112101701D214170E82181707421B2
:1090C000C1706C210171EC214171B021817109994C
:1090D000C1717F210172B72141726D218172C52159
:1090E000C1728E210173022242730C218173A2216D
:1090F000C1732046102C03D0395D0843641CF9E786
:10910000002800D124E104920025EE43089C72342B
:1091100039A840212FF00EFA2946099503963046CA
:109120002A46982A44D005929200BF5878400026DB
:1091300002040F9604D1491C0F91072900D906E1BA
:109140009C49491C884203D26E1C072E00D9FEE0C0
:10915000B8B239AD29462DF0EFFB380C29462DF079
:10916000EBFB099DAD1D1598F530854218D90021FE
:1091700008460D46202813D039AA125A23465C33DC
:109180009A4200D9E3E039AA125AA24203D900292F
:10919000139900D0DBE039AA00231352801CE9E7C1
:1091A0000995059A521C35460F993846119FB8E724
:1091B00018AD4C2128462FF0BDF92B9517A82C90FF
:1091C00026F080FA2B98014649314922049B8354AA
:1091D0000026066401244C700421039A25F00CF942
:1091E0002BAD002800D035460028049800D0AFE011
:1091F00031AA107035A83290102633962D97159805
:1092000026302F90309639A82E902DA928460DF0A3
:10921000B5FF002807D01320410130F0F5F8286889
:109220002FF017FC94E013273801119908182D909E
:1092300039A810302E902DA931AA28460DF09EFF96
:1092400015907901119F30F0DFF828682FF001FCAC
:1092500015980028654D7BD126F034FA2120C000F6
:109260000899295428182A4629465C3115916965C0
:109270001390A8650E98850000200F9050552BF094
:1092800097F82A4659490D46895C002902D02CF0EE
:10929000F7F85DE00992AC542CF0F2F8159D2F46DA
:1092A00030374C2130F0B0F8EF677C3513986860A8
:1092B000D5204E490C5404213846039A25F09CF8D9
:1092C000002800D00F9D0A99484A5550002804D024
:1092D00000204649099A885439E0E420434A049919
:1092E00011541046E430159D456086600026D6670F
:1092F0006E62AE62EE62D665166656669666F420BB
:1093000020211150FC200399115008980630145464
:1093100030463146324619F0A9FB002801D100F051
:1093200088FC0A98314F385800682EF0CDF97C6DD2
:10933000254690356E760798215820462FF0FAF88A
:1093400026626662A662E662EE6009983E54119F4C
:1093500038462EF00FFE2449887800280C9D03D152
:109360004878012800D18D702BF022F818490A7A2C
:10937000002A01D0002402E001220A721C4C2CF0C9
:109380007FF81C48446235200121164A11541A4CBA
:109390002EF0D6F9194AA05C04210143A1542BF008
:1093A00085FF0A98205800210B9B042928D02FF014
:1093B00001FCFAE7FFFF00002020094040CB03003A
:1093C0007C20094080200940219701008820094025
:1093D000006D0020CE0700004A020000B8C903005B
:1093E000C7C60300786D0020846C0020F84400207C
:1093F00014CC0300086C00202C2E002079040000FF
:109400000C951F201390C506F64FD800F64E059018
:109410003418201D2DF062FB606809952840C019A2
:109420006060607802211591084360708B20810094
:1094300014980A9170544020EC49315200200A21BE
:1094400002460E9C089EE84F20281ED0FB6B5B183E
:109450005B1E1E703B5DFF2B0DD0FC6B0B26734318
:10946000E3189B7A6354FB6B0E9C3C5D74431B19A1
:109470000E9C0A3301E0FB6B5B1818703855401CDA
:10948000531C0B3116461A46DEE70020342803D061
:1094900018A92FF057FBF9E7D5481890D5481A902E
:1094A000D5481B90D5481C90D5481D902B20000115
:1094B000CD4C2118225A202304931A43139B9A431C
:1094C000225210274F8039AE2FF0E6FF39980999C4
:1094D0000840C449084339905720C000201804258B
:1094E00031462FF013FE3320C64EC74C411C03D229
:1094F00000213154401EF9E700202070082804D0D4
:10950000211863222FF002FBF8E72DF02DF80799C0
:10951000605488248D2C07D000210C982AF0DDFEA1
:10952000B9490855641CF5E721F0FEFB2CF02EFD2F
:1095300085204000F530F0622BF0B8FE9B208000C3
:109540000024B1490C5426F057FF7F20707143204E
:10955000C000AE49A44E315230181599C17014990B
:10956000017185605121CD00715B0B220A439F215F
:1095700089007452A64974548466A649A64B735256
:10958000BA4313957253A549102C05D0964A121967
:1095900000235354641CF7E7A149A24B0022924DCB
:1095A000EA54A14BEA54139FEB5BB924A4008F4EFD
:1095B0002E532C196680FF260F96E6738B4EA681DC
:1095C000109CA343EB53994B149CEC545523DC00A3
:1095D0000D9B08942B55AB239B00954CEC50954C60
:1095E0002B5D0126109633432B55934B1C2A05D037
:1095F0007D4CA4180025E554521CF7E78F4B002240
:10960000794CE2548E4BE2528E4BE2548E4B202A20
:1096100005D0754CA4180025E554521CF7E78B4A79
:109620000025714EB5540724E201B35A091D1940B3
:10963000B152F3218F00F15B80229143F1536B49CA
:10964000818317214901755281494B227254149923
:10965000417528F0D9F92BF06FFB3146F05B109E75
:10966000B043C8530F467B4829467B4A0DF018FC8F
:10967000D1200001391814221192CA603E54774A51
:10968000906A2832486056731CF0D8FE05997854C9
:109690000B9B554A169E4F2C11D09059015D1940D5
:1096A000015590590019401E0F9901700834F2E7D6
:1096B0004D484019CD21C900002242546D1C2A2D6D
:1096C000F6D100206649332803D0474A2FF012F91B
:1096D000F9E70525280299214900434E3152614896
:1096E0001499315453200001692131505E483150A2
:1096F00024F04AFD752000010A2131545B48002402
:1097000034545B4834545B48315C159A11433154EE
:1097100021F0A8F92BF05CFD002804D05648032165
:109720003154564831505648301805741E21C181B5
:109730005449725CFE2316931A4072548269002ABF
:1097400002D01520002190474F483C21264D295436
:109750004E482F184E480F9929544E482818052175
:109760000B912EF0E7FE0920B8751098C002B88260
:1097700049482C54E0430F38484A4949002809D049
:1097800013181B8A184D2F187D187B541B0A6B70F9
:10979000801CF3E7144840184249092C06D00A5DA2
:1097A000002343700270641C801CF6E700203E49D1
:1097B0003E4C702803D00C4A2FF09CF8F9E7F034A7
:1097C0003B480F9A002C04D0074909190A54E41D9C
:1097D000F8E70548374940580021E0296CD02FF0C0
:1097E000E9F9FAE700F8FF072C2E0020FFFF000040
:1097F00079ED0100ADB1010069C70200D13F03005E
:10980000DDF10100E06E0020503B0020093D00002A
:109810007E020000860200000F03000037020000F5
:10982000FBFD0000470200006A020000A6020000E3
:1098300084D00000340900008A020000A702000062
:10984000760200002E020000BD020000DD020000D2
:10985000DE020000717203004A020000786D0020F1
:10986000920600002E0500003405000038080000B4
:109870005E080000D5070000D8080000DC080000E2
:1098800078090000A509000035080000E407000081
:1098900036080000F307000034080000A4C70300E6
:1098A0000B080000D8CB030052070000A0FEFFFF0A
:1098B000C60700003C090000E94AEA4810580F9921
:1098C0004170E948115C159B194311540020282868
:1098D00006D0E3490918252292012FF017F9F6E77F
:1098E000E2490020DE4A5050E14A142804D0DC4905
:1098F00009182FF00BF9F8E7DE4ED94DAB5AA8182E
:109900000169DD4C1C40DD4BC360A319AB52DC4A3E
:10991000139EAB5BDB4C1C40AC53DB4BEB5C002B76
:10992000109D00D00B9D1140D84ACD4B9A5C032A64
:1099300000D1AD1C0722CA4BD54C1A55D54A9D54AF
:10994000D54A89180161D5481818D549002902D08F
:109950002FF016F8FAE72CF007FED249C04A50540F
:109960000020D149082803D0BD4A2EF0C3FFF9E7F3
:109970002CF0FAFD0028BA4C01D0CC496054CC48F8
:1099800000251095169E31462FF0B4FCC94831468B
:109990002FF0B0FC2CF0E8FDC749605439ADC74941
:1099A00028460D9E2FF08EFB0698C00020182946F1
:1099B0002FF088FB1CF0BEF818AD28462DF08EF86D
:1099C000189809990840BE4908431890BD4FE05DBA
:1099D00016990840E0550A9815992154BA4820185C
:1099E00029462BF0C9FE0121B8482154139AA05AE8
:1099F0000B9149030143A15208982654B448109989
:109A00000D462154E05DF7210140E155B148201891
:109A1000149A521E07D0011D406800280846F8D14C
:109A2000AD48683008608E48AA494058002808D1DF
:109A3000A94968318A4CA74EA151A8482EF0A4FD2F
:109A4000A05900780D9018A814301690844C0D98E9
:109A5000854200D1BCE01095A148205C04281CD8A8
:109A60009C4961584A788B781B029A18CB780979FF
:109A70002EF0A9FF109A920089584A7D8B7D1B0217
:109A80009A18CB7D097E2EF09EFF421C944BE25427
:109A9000800020180E9A520181508E48205841783B
:109AA000827812025118C27800792EF096FF109930
:109AB000890045588B482158002901D028788847CB
:109AC0006E1C002314951396287C83427DD2307C33
:109AD000717C09020818B17CF27C2EF079FF129C8F
:109AE00015935C430119CA7A0B7B1B029A184B7BB6
:109AF000897B2EF068FF08D08847307C717C090292
:109B00000818B17CF27C2EF063FF00192EF047FF9D
:109B10002EF0D8FD1204561852D014990A78139BCF
:109B200019785B781B0259180023302B04D018AC2D
:109B30000025E5545B1CF8E718AB00271F705A702E
:109B4000027844782402A2185A80027A1A71998500
:109B50000521219111991C2903D018AA5754491C99
:109B6000F9E7841C002E2BD0F078400722D52EF088
:109B700020FF18A9C8803079727912021018C885A0
:109B8000B57828462CF026FA00280FD0203DE8B200
:109B90000D2802D85449085C00E0002016990028DE
:109BA00004D000220A70401E491CF8E718A80021C2
:109BB00018F0B6FD7F1C0A362EF037FD8742D1D350
:109BC000159B5B1C149D139E7EE7109D6D1C3DE74D
:109BD0000A25284625F0E6F844490A0E82710A0C47
