:1041000000900020F16503007D7503007D750300BC
:104110007D7503007D7503007D7503007D750300CB
:104120007D7503007D7503007D750300ABEA020019
:104130007D7503007D750300411403001D450300D8
:104140007D7503007D7503007D7503007D7503009B
:104150007D7503007D7503007D7503007D7503008B
:104160007D7503007D7503007D7503007D7503007B
:104170007D7503007D7503007D7503007D7503006B
:0C4180007D7503007D7503007D75030054
:10419000F0B5FFB086B00646202125F0D1FD0446DB
:1041A000471C1BA801250570207818901596701ED5
:1041B000F64BD42119915958C0B2A42216925043FB
:1041C0001A90081832F0D3FAE075607AA17A0902E1
:1041D0000E18EF48185CC00737D02FF0C3FB00283B
:1041E0001BD0607DC007C00D2FD11F2E28D9E948F4
:1041F0003018112804D829468140E748014224D1CB
:1042000030463138092804D829468140E348014224
:104210001BD11BA80021017036E032F0BBFE0AD092
:1042200030462138142810D829468140F7480142E9
:104230000BD08D214BE3607DC007C00D05D1EFE7AA
:104240002846B040F9490842D1D030B200281BD4EA
:1042500001235120C000CD4D1490295A002049055A
:1042600000D419E132463C3A91B20B291C4619465A
:1042700000D913E1EE480240EE48D0400123184037
:104280000E24D4401C4009E1EB483018322800D9F4
:104290007DE2800001A108588746C04631490000F0
:1042A000676A0000676A0000676A0000676A0000CA
:1042B000676A0000676A0000676A0000676A0000BA
:1042C000676A0000676A00009549000069430000C2
:1042D00069430000676A0000676A0000676A0000BF
:1042E000676A0000676A0000676A0000676A00008A
:1042F000676A000069430000676A0000676A00009F
:10430000676A0000676A0000676A0000AB49000046
:1043100069430000D948000069430000676A000053
:1043200069430000676A000021480000214800003E
:10433000676A0000676A000069430000676A00005E
:10434000676A0000676A0000694300006943000073
:1043500069430000E34900000B4A00006943000084
:1043600069430000694300008848199940581A9928
:10437000411832F027FC012901D802F074FBAF4A42
:10438000B218272A00D935E2920001A39A5897461D
:10439000554A0000554A0000554A0000676A00006F
:1043A000676A0000676A0000676A0000676A0000C9
:1043B000676A0000676A0000676A0000554A0000EB
:1043C000676A0000676A0000676A0000676A0000A9
:1043D000676A0000554A0000554A0000554A00002F
:1043E000554A0000676A0000554A0000676A0000ED
:1043F000676A0000554A0000676A0000676A0000AB
:1044000031440000676A0000676A0000676A0000C4
:104410005756000071560000554A0000554A0000EA
:10442000554A0000554A0000554A0000DF5600007A
:104430002024159D284633F0A3F8014653A833F0F5
:104440005DF97DA8002606805048199940581A99B0
:10445000401832F04DFB0A7B18924F7B002F0ED193
:104460000C310079801E8D1CC4B22846214626F0EE
:10447000CDFA8F27002801D102F0C2F8159D3E2108
:1044800033F080F8044618993E2E01D102F007FC63
:104490000020A055761CF7E71C461946CA4AAB5CBB
:1044A00002252B405A425A410028084600D11046A6
:1044B000002803D0002C0ED18420FEE1062E01D866
:1044C0007B2000E07220C043062E00D9F5E10122D6
:1044D000544000D0F1E184203246203A272A179137
:1044E00000D98BE0930001A2D2589746A145000065
:1044F000FB4A0000F94A0000BB480000BB4800002E
:10450000BB480000BB480000BB480000BB4800009F
:10451000BB480000BB480000054B0000BB48000042
:10452000BB480000BB480000BB480000BB4800007F
:10453000994B0000F14B00008D4C0000AD4D000088
:10454000BB480000BB480000BB480000BD4E000057
:10455000ED4E0000BB480000BB480000554F000076
:10456000BB480000BB480000BB480000BB4800003F
:10457000BB480000F14F0000715000008351000063
:10458000D351000013520000855200002C2E002051
:10459000FC0800000080FFFF7F0003008303000091
:1045A0008A4D1998285832F021F9102801D201F0CB
:1045B00014FC8A79CB791B029A188F183C460C346C
:1045C000A17B4A0011461031814201D901F005FC5E
:1045D00026460F36B25C52005118814201D901F0D3
:1045E000FCFBE07A002803D0F12801D201F0D9FFCA
:1045F000822115982BF078FF02F031FA062E00D9AF
:1046000022E1B00002A108588746C0460304180002
:10461000A3520000475300004146000041460000FD
:10462000DD53000095540000435500007F002BE04F
:10463000FF0F0000F10F0000EB7FFFFFE07FFFFFA7
:10464000624D199C28591A9BC01832F039FA01D8CA
:1046500001F0C3FB32F042F9139031460D312AA824
:1046600033F0F0F80F362021159C2046169125F0E6
:1046700067FB0746401C1890199828581A9940184B
:104680000079C01EC1B2304626F0C0F91A90002849
:104690000BD1189932F051FC53A926F069FC00287F
:1046A00001D101F09DFB159C484D3E78042133F06B
:1046B00001F9074613983870B9208300E85A2AA9EF
:1046C0000988884201D000F07AFF00200246787005
:1046D0001899087A497A09020818032801D101F0CB
:1046E000FBFA0228154601D001F002FB129317983D
:1046F000800217900D21159825F0DEFA0546344802
:1047000032490C1802221392284621461994314B43
:104710009847A078A870E81C2F492C4A5118139C80
:1047200022462C4B98472B4B199840796871A81D4D
:104730002A4A264989182246984728460830284997
:10474000224A51182246234B9847224B28460A30CA
:1047500024491E4A5118224698471998007B28730D
:104760001A4A1498105A179908420DD11B4B1E482B
:10477000105C800602D51A981C3005D01298115A88
:10478000D25A15982FF0B0FC184D01F0B1FA184824
:104790003018062801D902F066F9800001A10858F6
:1047A0008746C046C1470000C1470000414A00009B
:1047B000454A0000614A00004148000041480000AD
:1047C00015982CF0D5FF41E1140700002C2E002095
:1047D000E407000045590300E7070000EA0700006E
:1047E000EC070000EE070000160500000280000044
:1047F0000080FFFFFC4AB218152A01D902F033F9F4
:10480000012393406F24234200D023E1042AF74D73
:104810001A9B00D132E1152A00D194E002F023F96D
:10482000F24831F08EFD0B2901D202F01CF932F072
:1048300017F9927D0B328A4200D8A0E502F013F9F5
:1048400015982EF0E9FE01E1152E36D1E7491998A9
:10485000085831F093FF46182021159C20461A91E4
:1048600025F06EFA054600781990307B18900D36C9
:1048700053AF0222384633F0CBF8FD48FB49085AC3
:1048800039880140398001D100F008FD042133F05E
:1048900011F81899017000214170801C53A932F061
:1048A000D1FF6878A97809020A181A981999014065
:1048B0004B09F048214601F0DBFFB978FA78120283
:1048C0005118ED4A914201D902F0CDF8C1B21598C4
:1048D0002CF091FF02F0C3F8E44831F032FD0529D5
:1048E00001D202F0C0F832F0BBF8137C002B00D1EB
:1048F000B0E00C3200270524002B01D101F06FFB42
:1049000027460C378F4201D902F0ADF81719FF7A0C
:10491000032F05D0012F01D002F0A5F80E3400E0DE
:1049200015348C4201D902F09EF85B1E2F46E3E756
:10493000CE48199940581A99401832F008FB0328BC
:1049400001D802F090F832F095FDC84931F0BAFC78
:10495000042A01D202F087F832F022F88A7852064F
:10496000C24B05D54278807800028018C34A98521D
:104970000878F921C900595C884201D002F073F827
:10498000BF48BA490858002801D102F06CF81599BF
:1049900001F035FFB548199940581A99401832F07E
:1049A000D6FA012856D802F05EF8B0481999405856
:1049B0001A9931F0FCFF427B842A4BD0002A01D0A7
:1049C00002F051F832F0FEF8052901D202F04BF85E
:1049D0000C30007916224243501D88423AD902F029
:1049E00042F8A248199940581A99401832F0AFFA83
:1049F00002282FD0032801D202F035F801D102F0AD
:104A000032F8C00726D102F02EF89848199940587C
:104A10001A99401832F054F81CD0032901D202F040
:104A200022F88279C3791B029A1880180C30801CF6
:104A3000891EC9B225F0EAFF00280BD002F013F856
:104A4000112100E00221159827F09EFE002801D1D7
:104A500002F009F81BA915980FF0BEF901F0FFFF4D
:104A600015982EF0D9FD002801D101F0FCFF7F4DF3
:104A7000199828581A9BC11832F0A4F8C01832F0BF
:104A8000F3F88418207C491F0023814201D001F0F3
:104A9000E8FF0028159E1CD0082801D201F0E1FF94
:104AA0000C34E17A4A0016460836864201D901F0F4
:104AB000D8FF21460C318D5C6F00F6198642159E99
:104AC00001D001F0CEFF20460D302CF063FD2573A0
:104AD000664D892000012A58002A06D069493046CF
:104AE0009047002801D101F05AFD304622F014F819
:104AF0004342434101F0B5FF0021159811F0D2F96E
:104B000001F0ADFF2024159E304632F039FD0546F8
:104B1000C0782979090208185749884201D901F05B
:104B20009BFF28780007800F01D001F095FF68787F
:104B3000A9780902081818904C48199940581A99F0
:104B400031F035FF027B1A920A79497909028A18F5
:104B50008027022A01D201F080FE0C30411C501E39
:104B6000C2B203202AF06CFA002801D101F075FED0
:104B700053A92BF0DBF8002801D001F06EFE53A8FA
:104B80000678471C002E01D101F065FE38462BF057
:104B90001DFF761E0837F5E73448199940581A99D1
:104BA000401832F0CFF9012901D801F016F931F09F
:104BB00093FF20211598189125F0C2F801781691DD
:104BC00045788678207B1A9032F0B4FB617B19918E
:104BD000884201D800F091FD32F0ACFB1999401ADF
:104BE000C4B200F08BFDC0460080FFFF2C2E0020D9
:104BF0002024159D284632F0C3FC1C4931F062FB8D
:104C0000012A01D802F05BF8421C32F064F91A4B19
:104C10009A4201D901F0E1F806780C22324001D025
:104C200001F0DBF84278807800028018189032F0AA
:104C3000DFF809180F7B0D3153A832F093FE0521E0
:104C4000159D32F09FFC0770842141700748199927
:104C500040581A99401832F075F9C91E32F06AFAB4
:104C600026407309084801F095FCC0462C2E002010
:104C7000EC07000015800000F7FF0000760200003E
:104C8000C40700000480000032800000ED4819993C
:104C900040581A99441832F000F9012801D801F05F
:104CA0009CF8A579E67920211598129125F048F80D
:104CB00031F0C1FFE44A914201D901F08EF8027847
:104CC0000C21114001D001F088F8119231024919EC
:104CD00061184F7BDD4BDB4AD25CD41B0025BA4206
:104CE00000D22C460E7B032C00D30324401C1090D2
:104CF0001520139060430F90411D32F06BFD06703C
:104D00002A464570CF49D14BC95C8170C770047188
:104D1000451DE01914901346F8B21499814201D848
:104D200000F06CFD169317921897A721C900C54A89
:104D30005718F968C6008819C4795D20C000111899
:104D4000082232F057FEB86803216143405C2872A4
:104D5000B868401841788078A8726972F86880193C
:104D60008079E87203280DD00128189F169B18D16E
:104D7000B448B7494058801901794079687329735C
:104D80000E230EE028460C30AE4CB14FE159891984
:104D9000097926F0AFF8E059801940792875139BFE
:104DA000189FED18179AD2187F1CB5E7A54C199FCC
:104DB000E0591A9E80198179C2791202511845185A
:104DC00020211598169124F0BBFF0246007814901C
:104DD0001895294615460D3153A8092230F0B2FD29
:104DE000E059801932F0B3F80A2801D200F0F5FF3B
:104DF0006F1CB878F978090208189649884201D3DF
:104E000000F0EBFFA87BE97B0902081831F004FBF6
:104E1000002801D000F0E1FF5D20C000201853A958
:104E200032F08EFC0028179905D08B4953A832F038
:104E300087FC414241411A91A87BE97B09020C1889
:104E4000687D1990844953A8082216462FF028FF40
:104E5000139020462EF0B0FB044645424541002801
:104E6000189A01D101F02FFC7B4953A832F068FC5D
:104E7000002811D0794953A832F062FC00280BD0E9
:104E800053A87DA931F0A8FD002805D17DA80078A0
:104E900000212AAA22F04AFC611E20468841614274
:104EA00061411A9E3140002C01D07B22D443189AD4
:104EB000012901D100F091FF01F00FFC002553956D
:104EC0006048199940581A99401831F0A0FD32F005
:104ED000D1FA1890387B1690787CFE2800D172E3C6
:104EE000FF28179E00D072E309226EE30620C44318
:104EF00054481999405831F041FC451832F0BAFA3B
:104F000002462B7B687BA61D002802D00B2800D808
:104F100065E31598002801D101F0A1FD501C8178AE
:104F2000C27812025118484A914201D900F055FF47
:104F300001784078000244182A2115981D4624F073
:104F4000FFFE2B4600212A2901D100F098FD32F006
:104F500009F9F8E72027159E304632F043FB034657
:104F6000384D1998285831F041FC0122022810468A
:104F700018931A9201D201F047F9081D31F08BFC09
:104F8000374BEA540D310078401EC4B21E20224631
:104F90002AF056F8002801D100F07DFD41788A1CE6
:104FA0000021A2420B4601D301F01DF982782D4D5C
:104FB00024494A5551000B1D641E0021A3420B4693
:104FC00001D301F010F9169727491E4B5C18C71C36
:104FD0000026D0B2864201D301F0FFF80422204619
:104FE00032F014FD3F1D761C1648425D241DF0E78B
:104FF0002021159E32F000FD31F01DFE124A914233
:1050000001D901F029FD0178890601D401F024FDC0
:1050100041788078000244180A48199940581A9932
:1050200040188179C279120251184018057B32F07C
:10503000F3F905708D2141700C4831462246179BCB
:1050400001F016FC2C2E0020F7FF000039050000AF
:1050500044050000F8FF000048B1030040B1030020
:1050600004090000090900000C090000428000004A
:105070002021159E3046169124F062FE04464178A8
:105080008278FB48FB4B1B580127F80218400AD1D5
:10509000631C9E78DB781B029B19F74EB342159E6A
:1050A00001D301F0D9FC120251181891F149199A53
:1050B00089581A9A89188A79CB791B029A188A1802
:1050C000137B002806D1189800287ED1607DC00788
:1050D000C00D7AD0139414930C32541C0879401EDE
:1050E000C6B22AAA204631462FF008FCD6211A90D3
:1050F0000028129114D12AA81990018839404842F9
:10510000484129F0C7FF199F38882840400829F0F6
:105110006FFB388804210140880827F043FE0021F6
:10512000119153AA204631462FF0F9FB199000281F
:1051300004D1539824F0EEF9002012907DAA204665
:1051400031462FF0B1FA0746002801D100F028FDC2
:1051500078427841199A514251411A9A002A179B74
:105160001A46139C00D00A46002A194600D101466F
:10517000D6201090012901D100F019FD802600F001
:1051800019FD2024159E304632F0FAF931F053FD16
:10519000B94A914201D301F05FFC41788278120252
:1051A00051181891B34F199979581A9A8A1831F0F1
:1051B00063FC0D7BB14BFB5C1B0701D500F01BFFB3
:1051C000189B002B01D100F010FF8D213046FFF716
:1051D0007FFB32F04FF931F02EFDA94A914201D9FF
:1051E00001F03DFC00781890A24C199EA0591A9924
:1051F00031F0DDFB0D300979491EC9B200252A4680
:1052000022F0ECFF002801D100F048FC802301F0DF
:105210009BFA2021159C32F0F5FB31F00CFD964AEB
:1052200091423BD2411C0A78497809028918914A77
:1052300034D19249515C090703D4407DC007C00DA9
:105240002CD0199810581A994018017942791202F5
:1052500052188024022A11D331F001FE41180D3179
:10526000501EC2B2042029F0EBFE002806D053A93C
:105270002AF05CFD002801D101F01CFB15982146A5
:10528000FFF726FB2021159C32F0BCFB417880788B
:10529000000245187A48854200D87AE1204601F09C
:1052A000DCFB78493EA801807249199808581A9980
:1052B000401831F047FE0A2901D800F08EFD31F088
:1052C00080FA16900D31704C2AAF0A223846A0475A
:1052D0007DA808221A923946A0472024159E304600
:1052E00032F04EF9014653AD284619942246664BDA
:1052F0009847287817900C213046149123F050FBE2
:1053000005465D20C0005B490C46081839461A9ACC
:105310002FF0C6FC002801D100F018FC2AA846A9ED
:105320002FF0CAFA002801D000F019FC4698007846
:1053300006210140042901D000F011FC2AA82FF019
:1053400023F900F006FC4B4D199EA8591A9FC0196D
:1053500031F0FDFD042801D800F03FFD4B494A4CD7
:105360002AA80822A047A859C01931F02AFA179094
:105370000D3146AD04222846A0472024159E304614
:1053800032F0FEF8014653AF38461A9422463E4C9E
:10539000A047387819903EAF022238462946A047E8
:1053A0000C21304623F0FCFA0546B9208000314933
:1053B000085A3F88B84200D035E246A88678022EC7
:1053C00001D200F0AEFC199F5D20C00029490918E8
:1053D0002AA832F08FF98021159E39E225491998C3
:1053E00008581A9940180179427912025118032974
:1053F00001D800F0F2FC31F078FA0D3053902AAD6C
:1054000053A9284630F0EEFF539804782021159FC9
:105410003846199124F094FC0178179131F01FFC63
:1054200018900521384623F0BBFA0746067000267F
:105430000671B92080000F49085A2988884200D097
:105440001CE2002C01D100F073FE1148094A105CE7
:10545000412149015118002801D100F057FC04C92D
:1054600013789C4200D03246401E1646F3E7C046F1
:10547000140500002C2E0020F8FF00001505000088
:10548000F7FF0000FFFF00004559030040B1030093
:1054900034080000FB49199808581A99401831F04F
:1054A0000FFB01D800F099FC31F08BF918900D3109
:1054B000F54B2AAD022628463246984720241598F7
:1054C00032F05EF8014653AF38461A942246FC4C3F
:1054D000A047387819907DAF384629463246A04714
:1054E000B9208000F5490E5A38882D88864200D0B0
:1054F000CCE18127AE4200D0C9E1F24DEF4C605DB6
:10550000002801D101F048F8401DC1B232F062F923
:105510001899017000274770801C314630F034FE26
:10552000615D0170412149016118401C1A9CE34AE8
:10553000525D974200D3B7E104C91278C2557F1C6F
:10554000F5E72021159E30460E9124F0F9FB411C11
:10555000189100780D900020D84B052803D02AA977
:1055600031F0B8FDF9E71998185831F03FF90728DC
:1055700001D201F071FA8A79CB791B029A188F183F
:10558000797C831F4A00511C8B4200D2A6E1002186
:10559000A5E1CA48199940581A99401831F09CFA67
:1055A0000079401E277B0D3431F00CFE0028189541
:1055B00000D18EE21C3000D189E3282088E38020CE
:1055C0007870002594E30722179E354623E30628CA
:1055D00000D20125062800D21CE306221BE3169206
:1055E00018938200931CB549199C09591A9C0919F2
:1055F0000C79497909020C19A34200D9EDE3294637
:105600000E318F5CFF2F00D1131DFE2F01D103231C
:105610001343A34200D9E0E38A18541CFE2F01D0A3
:1056200000F0CDFF0128189B169A00D071E4257870
:1056300053A831F0B5FF539E30462AF031F80028C8
:1056400000D1CAE3700100D1C7E33046294624F0F7
:10565000FFFB01F0E2F90622D7431A9A801831F0D5
:1056600003FB8218537B922B00D171E3B81D70E3CA
:105670002021159E32F0C0F90178890604D531F059
:10568000EEFA01D100F0BCFE9120C0008B49081851
:1056900032F0CEF804468C48844201D101F0DCF9A6
:1056A00020462FF077FD014653AD2C2232F0A2F9AF
:1056B000288DC00501D401F0CFF953AD284618302C
:1056C0002AA931F0EDFF5D980821C943F83901405E
:1056D00029852846214621F08BFE01F0BDF91A9A52
:1056E000801831F0C1FA851800244F941C946A7B0D
:1056F000002A00D066E3104665E300243002032C44
:1057000000D303244019149016206043411D32F049
:1057100061F807461A98387000257D7031F00AFE4E
:105720002B46B870199AFA703C717E1D1799C807FC
:1057300059D0200657D0E3208500604840590078B2
:105740000021C007F3D0D8B2904249D317938920E3
:1057500080005A490918082231F042FF30460830CB
:10576000564949598A7953A927F04AFD534B539812
:105770003074000A7074B07CFC210140B174595936
:1057800009784907890F8C2202408818B07459594A
:1057900049784907490E0918B17458590278F3201D
:1057A0000840510707D404210843B0745859417B7D
:1057B0000120084007E0B0745959497BC907490FD7
:1057C0000143B1740020F074585900784006000F6E
:1057D00030755859C0787075641E1636199A179B23
:1057E0005B1C0021A3E71A9838701898169901409D
:1057F0004B0936481599149A01F03AF8D0B20F992E
:10580000814207D9401A2D4930F05CFD101808710B
:10581000000A4871109931F077FB129811990140F4
:105820004B092B486FE27DA938462FF056F8002827
:1058300006D17D98007806210140042900D1BCE5FD
:1058400018980007800F01D001F006F9199F8121F7
:105850001A9C179828706970A81C2AA931F04AFF71
:105860000A353EA9022232F0C5F853A84178807863
:105870000002421827407B0916488EE1802078708C
:1058800000F09DFC2C2E00204559030080271A9C17
:10589000052131F09FFF189901704770801C29463F
:1058A00030F072FC0021017053A84178807800022A
:1058B0004218199820404309074824E22C2E002062
:1058C0004559030034080000FFFF0000318000004C
:1058D00033800000018000000580000001213C466B
:1058E0001234A35C0625ED43AA1A10185A00904200
:1058F000179800D30846012801D101F0ADF80C3704
:1059000038780990791C53ADA81C022631F06EFE40
:10591000F91C281D31F06AFE7F79AF717E00A05D11
:10592000E8710546189908780890487807908878B3
:105930000B90C8780A90E8194006010E159824F0DB
:10594000FFF93A46002F1697139004D021462EF007
:10595000CDFC169A0446002D2F46FA4D06D0611C48
:10596000139880193A462EF0C1FC169A1897B92060
:1059700080000590285A53A949880C91884205D087
:10598000F1480C99814201D800F0AFFCEF482C5C43
:1059900053A8808811901398801912900020064611
:1059A00006901A9015980F94A64201D100F0A2FC1F
:1059B000B1006B18412149015D586B78A978090243
:1059C000C918119B994202D0FA498B4254D11096C2
:1059D000A87919900023184619998B4221D2C10742
:1059E0001FD1149359006E1808360024139F944257
:1059F00014D2C10712D1317873781B0259183B8831
:105A0000994208D12A781A98C1B22AA82DF0CAF969
:105A1000169A1A901798641CBF1CE8E7149B5B1C2D
:105A2000DAE7E9791491002614998E4221D2C10750
:105A30001FD10027129C18998F4218D2C10716D186
:105A400019997118490069180B7A497A0902C9181D
:105A50002388994208D12A781A98C1B22AA82DF031
:105A6000A1F9169A1A9017987F1CA41CE3E7761CDC
:105A7000DAE715980F9C109E761CCD4D94E7711EA9
:105A80008E41F10141700370C484282101224254E7
:105A9000159800F0F6FF00210B46A4E3C6482058F5
:105AA000817A8623022901D900F04EFEC34AA25C06
:105AB000CA40D10701D100F047FEC149BC4A515A42
:105AC0000022490701D500F038FE179D134600F06B
:105AD0003BFE21202146324629F0B2FA064600203C
:105AE0001790002E00D1F5E3B11C7DAC08252046AF
:105AF00031F09CFD0A3646A8314631F097FD02216F
:105B0000204627F01BF9002801D100F098FC06463A
:105B100005462835687800020024000513D40120CA
:105B2000C00217907DA831F083FE01462820325C28
:105B30006B781B029A18179B1A433254100A68702C
:105B4000304621F055FC159D00F07CFCB92080000A
:105B5000205A3EA908809749884200D05FE11898F2
:105B60000007800F01D000F077FF179F812416985F
:105B700028706C70A81C7DA931F0BCFD0A353EA9C7
:105B8000022231F037FF53A8417880780002421892
:105B9000199807407B090120C003314600F068FED8
:105BA0007DA800882BF056F800201090139C31F04F
:105BB00079FE00261A98454245412478022131F0A9
:105BC00009FE1499017046701998002800D16D1CC7
:105BD000002F159E00D16D1C002D01D100F00BFC93
:105BE000022131F0EBFE00210170690041700121BA
:105BF00031F0E4FE002800D1FDE305701A9800287A
:105C000000D169E31998002800D1E2E3002F00D009
:105C1000F1E3EBE307226648199940581A994018B6
:105C2000017940790002431800209A42314600D899
:105C300001469A4200D906461A913C460C340D376B
:105C40002E40012E1392129307D1A01D149053A839
:105C5000042231F0DBFE539800E0149718994F1C92
:105C60000621CD43199029F01BFDAD1D002E2AD031
:105C70006279FE2A1799159E00D1014601291998CB
:105C800001D000F0D0FE1F21CC060646A6431AD054
:105C90001897B9218B004649CB18197C59188F7B6E
:105CA000C10E8F4201D000F0C5FDFF2A01D100F0E6
:105CB000ADFDFE2A01D000F0C1FD1499097824F051
:105CC000C7F800F0B6FD1A9A159E00F0ADFE292027
:105CD000C443159D0026B5E32C4602251598294698
:105CE00023F0EAFFE549611831F0A0FCE448451CC7
:105CF000B81C2AA931F0A6FD189931F005F91698BB
:105D000006407309A8B2159900F0B2FD002E00D02C
:105D100011E2002C03D0FF2C01D000F0B5FD822051
:105D2000ADE52AA9384625F023F9002800D143E340
:105D30000020159E082800D182E52AA931F0A6FA94
:105D4000F8E7C0462C2E0020F7FF000034080000C2
:105D5000F81C002B72D00025011D00D1FEE20028A6
:105D600000D09EE0002D01D100F085FD28462830AE
:105D70002826A95D407800024018C10501D500F031
:105D800086FD2946183153AC102231F0AFFDA85DD5
:105D90008006400F0022032100AB17C3049220A805
:105DA0001CA9012317F086F8159C014D00F0F6FEA2
:105DB0002C2E0020FFFF00003C09000034090000E9
:105DC00004050000E0438E1E0E35002A03D1F1B217
:105DD000284624F01BFE002872D0159800F03DFEE6
:105DE00053A831F0D3FB002801D1FEF75CFC02463A
:105DF00028322823C15C567836027618310501D541
:105E0000FEF751FC0121CC029E499F4D695C26435F
:105E1000C654330A537021F0EBFAFEF744FC2AA86B
:105E2000007A022800D2B1E2189814990840082894
:105E300001D100F011FE179F802498E60C32951CCA
:105E4000881E31F0CBF900282BD190498E48445858
:105E500001201A902946324629F0F2F8054640788A
:105E6000401CC0B228281CD3002D1AD04C34A91CC9
:105E700020A81990082631F0B9FB0A3520222046C7
:105E8000294617922FF05EFD9120C4007E4800192C
:105E90001890199932462EF003FF002801D100F026
:105EA00086FE7A4C784D295900221598E02A02D0B6
:105EB00031F04CF9FAE72A59FF21517000F0CDFD7D
:105EC000F2B2222029461A9229F0BAF8002884D08A
:105ED0000746811C7DA819900826324618966C4BFF
:105EE000984739460A3146A83246694B98473946A1
:105EF00012314FA804263246654B98473946163171
:105F00001CA83246624EB0471A373EA83946189A46
:105F1000B04702261998314626F010FF002800D11C
:105F20005BE707462C942B942A942AA8199017967D
:105F300006460836222029461A9A29F081F8189038
:105F40007DA908221A92199D2846514B98471CA9F1
:105F50000422169230464E4B98471798287322AE6B
:105F60004FA93046169A4A4B9847083753AD10222E
:105F700028463946464B984722982EF051FD22AECE
:105F80000096162328461999189A2AF067FD3EA90B
:105F900030461A9A2EF084FE002800D01DE77DA816
:105FA00031F046FC4F993B4A374EB35800011B185D
:105FB0000D0EDD710D0C9D710D0A5D711971B158D9
:105FC0000818C17A0906344A521C0A43110EC172DC
:105FD000324834543248214631F01EFDFDE6FA07BE
:105FE00001D0FEF7CCF900F03EFD437DDB07DB0D71
:105FF00001D1FFF7EAF80C314F78402F01D900F0BA
:106000002BFD30F0E9FD921EBA4201D200F024FDD2
:106010001A94891C0078199053AC204631F0E6FCA4
:1060200031F0FAF90570002646702046002F00D1A5
:1060300049E104460578282029462FF0FBFC293841
:1060400009286BD8800001A10858874675600000B8
:10605000A5600000B5600000C56000001D61000083
:106060001D610000D76000001D6100001D6100007F
:10607000EB60000015982EF0D7F84FE0F107000014
:106080000280FFFFB50400002C2E00203C09000018
:1060900045590300E4040000FFFFFF072A05000044
:1060A000156203002A2131F037FC002836D0172171
:1060B000490104E02B2131F02FFC8D218900ED4AAC
:1060C000511828E02C2131F027FC23210901E94A4D
:1060D0005118042220E0B9208000E64A115AE6480F
:1060E000125A15982EF000F818E0E248E349415C96
:1060F00001200840490700D5801C2AA90880DD49F5
:10610000149A895CC90702D0001D2AA9088032218F
:1061100031F002FC2AA902222FF014FC2A2DD549C5
:1061200002D1172040010E522046601C7F1E7DE7E1
:10613000D348D0490E18B079F179081840000830DA
:1061400000257D7016973871C1B2159823F0B4FD03
:106150000746082231F05CFCB079B871F079FC1D7B
:106160001A97F87153A9087037460837B0798542F5
:1061700007D20222204631F049FC6D1CBF1CA41C32
:10618000F4E70446169FE1B2C0B2F27910188842D3
:106190000DD9E8B240001A9A101808304900711859
:1061A000083131F04FFB6D1C641CB079EBE71A9994
:1061B000887940000818C01D53A931F0D3FB159C05
:1061C000199D189EB81C2AA931F03CFB179828404D
:1061D0004309AC48214632464AE338780121014060
:1061E000179B159E169FA848A24A105C4242424146
:1061F00013424DD1002B4BD0002901D0042000E0E8
:1062000001209C4D1A9A189B16979C496C18A272F3
:1062100059789A7812025118E18019788906C90FC5
:106220006172E072002020730627304631F0DAF9FF
:10623000217B964AAA1830F093F91F22D2060B460A
:10624000934301700A0C8270090A4170190EC170E3
:10625000E17A41718E482C5C1A9804405F20C0009E
:10626000285C45424541002C00D1179D159E3046C3
:1062700031F0B8F9002C169F0AD0002D08D04079D3
:10628000012805D18348002231462DF03FFBE6E38B
:10629000189A5078917809020D18147831F0BCF8EA
:1062A0007D49744A525C521CD3B2FF2B00D10022AC
:1062B000704B5A540270802141703C40630977480A
:1062C00031462A46D4E21A98199901404B0974487C
:1062D0001599CCE2D624B3E032213046119A2DF044
:1062E0002BFF002800D086E08CE480200690002060
:1062F0001A9015981A99002907D10A9909020B9A40
:106300008918684A914200D9A7E307990902089AB7
:106310008D181A99491D22F043FB064661480C9AD4
:10632000824205D953480599405A7DA9088001E069
:106330007DA90A80B01C31F085FA099830701A9A4C
:106340003271701D2AA92FF0FDFA069870700E9810
:106350000D9901404B0954481599B2E70421159C49
:1063600031F050FB002101805049424B5958897847
:1063700001220A40827003D04D49595C2DF044F847
:106380004C48A5214A0031F039FB68E3179F0024EF
:10639000012801D0FFF7EBFB012131F00FFBE321D6
:1063A0008900344A5158097807220A40511F4A424D
:1063B0004A410270FFF7DBFB199F012E1A9C00D0A7
:1063C00020E20121159E31F0F9FA00210170FFF75A
:1063D00040FA781E87412C213046129A2DF0ACFEEF
:1063E0000028179800D13846002804D12B213046C8
:1063F000109A2DF0A1FE1698044063092E4835E24C
:106400001C48199940581A99401830F065FB0E3411
:106410000079801EC5B22046294624F0F7FA0028EC
:1064200000D019E32D20214631F054FA002800D184
:1064300012E3811C2AA831F033F9FFF725F98624ED
:10644000159D179E022131F09DF8077044702006BB
:1064500000D09DE017967DA8022631462EF0A6F8C2
:1064600013900020034B0D2828D02AA930F032FECB
:10647000F9E7C0462C2E0020EA070000FC080000C7
:10648000F307000004800000090900000C09000067
:106490000C05000051E90200440700003C800000A8
:1064A00044800000F7FF0000068000003C09000067
:1064B000FA02000009430200438000005D20C00092
:1064C00019181691F94C1F462AAD08221492284635
:1064D000A047F74978580C463B4613990F01C0195D
:1064E000817BC27B1202511812912C912E73491C90
:1064F0008173090AC1731859C1193EAE042213925F
:106500003046EA4CA0471799083153AD102228466F
:10651000A0473E982EF084FAFB48FA494058C1192A
:10652000C05D2FF019FD3E90129822902221159DFA
:1065300028462CF019FA04461699149F3A46F04E54
:10654000B0472046083046A93A46B04720461030AA
:106550003EA9139F3A46B0472046143022A93A4636
:10656000B04718340020082802D030F08FFDFAE739
:10657000E54E1998305830F001F942180E32009467
:1065800053A82AA916232AF069FAE520C000355439
:10659000DE48002329466AE13546FFF778F90123F2
:1065A0005FE2DB4829462D5C002D00D111E2D9487D
:1065B000085C002800D16BE28521FEF71AF8FF2F56
:1065C00000D112E2052F189B169A01D9FEF7A1FC03
:1065D000012801D0FEF79DFC267853A830F0E0FF9B
:1065E00053991798009015983A4633461FF000FFCC
:1065F000169A189B0646002801D0FEF78AFC2EE268
:106600007DAA284621462DF05BFD1F202946224603
:1066100028F016FD002801D1FDF730FF417803294D
:1066200001D2FDF72BFF81782AAA1170C178517031
:10663000017991704079D0703821159827F0AAFC23
:106640001790B148199940581A99401830F050FAEB
:1066500046312020224628F0F3FC002801D1FDF726
:106660000DFF16904078032801D2FDF707FF179819
:10667000801C169DA91C31F0E5F82879179908713E
:10668000687948716978C91E032242439142159D79
:1066900001D0FDF7F4FE16998E1D179D09350027D0
:1066A000092F00D9D6E2C0B2874200D3D2E2E81E59
:1066B000022231F0ADF9B07828707F1C179840792C
:1066C0006D1DF61CECE790489349405C000700D52F
:1066D00038E100200446179D1A9E0C32002E17D078
:1066E0008E49894D695C890701D4FFF776FB164610
:1066F000002800D05BE153A8007AC00988496A5C91
:10670000FE231340181868548648159929544EE101
:10671000164617957720C1007B4B5A5C7520C00048
:1067200018180023042B00D122E101259D401542B9
:1067300000D11FE15B1C001DF4E7C07AFF28179D04
:10674000134601D18B2300256F4880591A994018B0
:1067500030F0BCF9077B0221159C20461A911E4699
:1067600022F01EF907702F464670002D0ED06E489D
:1067700065490858867AC77A002120462CF0F4F83B
:10678000067047702F46801C2EF0C8FD1D2131F089
:1067900039F9054600201D2802D030F0ABFCFAE79D
:1067A0000020687028701A98E8736048433080268B
:1067B000EE72A872287C042101432974189880067F
:1067C0000DD45B485049095C53A82CF01DFE287C71
:1067D0003043287453986875000AA87508E0524839
:1067E0004949085830F0A4FB287C01210143297451
:1067F0001599002F02D04F48434A11544E4829F0B2
:10680000DFF82CE10021159EFFF723F82AAD28467A
:106810002EF0CEFC2A98204080192A901498411C12
:106820007DAE30F0CBFD781C3288C0B2294624F012
:106830006DF905461A9A159E189FF5E0052A159ED2
:10684000189F00D9EEE000201399129B994200D9BD
:106850006BE104466AE10027159E2D7830F0DCFDDF
:106860001A990170477025406B0934483146189ACF
:1068700027F01EFAF3E02C48234D2858C07AFF2851
:1068800000D101E1032000E18320FEF7F8FF80063C
:10689000400F25491C4D69588A7A002A00D141E1F0
:1068A000C97AFF2900D16CE103216BE1455903004E
:1068B000E404000053A80678002E01D1FEF7DEFCA8
:1068C00053A8451C0620C043801D1A903746002F50
:1068D00000D13CE15D20C0000B49081830F085FD77
:1068E000002801D1FEF7CAFC0822284614492EF0E0
:1068F000D7F9002801D000201A907F1E0835E6E75E
:1069000045590300E40400002C2E002047800000BD
:10691000380800005E080000FC080000D5070000F1
:10692000B9030000250700003C0900000280FFFFBA
:10693000FA02000026070000C94B01002B8000006E
:1069400040B103001998C007C10D53A8002900D019
:10695000BFE61399002900D1BBE68057002800D577
:10696000B7E601201A99484001D1FEF77DFAB0E65A
:106970008A241CE0179B002B19D02A43EF4B5A5452
:106980003178C17039787A78120251180180159ED9
:106990008670092131F030F8044653AD082231F0F9
:1069A0004DF8287AC0092072E548314627E70221D0
:1069B000159D30F0E7FD31780170447038787978B2
:1069C00009020A181698149901404B09DD48294616
:1069D0004EE7159C0C54DC48085C42224243DB48DD
:1069E00031F00CF830F0B8FE39E026460C352AA814
:1069F00030F0D6FD00246878844205D253A82AA935
:106A000030F0CEFD641CF6E7711C7DAE30F0D6FC94
:106A10006878328853A924F079F80646189B169AAC
:106A2000FEF777FA00251A9AB878F978090208185B
:106A3000C74988420ED8002A0CD1387879780902E3
:106A40000C182A2130F0D8FF00212A2911D030F06B
:106A500089FBFAE7002E02D0304621F0ABFC1BA8E0
:106A60000378002B02D1159821F0A4FC7FB006B06A
:106A7000F0BD691E8D41E901417016990170C48411
:106A8000304627F03FFBEAE70220159C00217BE01F
:106A9000AE48FE2100221A921AF004F9681E1999D4
:106AA000A64A5158C0B2169A42432FF072FF287E70
:106AB000697E09020818217B627B12025118884204
:106AC00004D0A44A904201D0914229D114950C35AA
:106AD0002A460F32A87B4100501816901992A37BCA
:106AE00058001890301817901698401C1690525C59
:106AF000009300201699334623F088FD1695AA7B53
:106B00001798431C1898305C00900120199923F0C5
:106B10007DFD9148894A105C9049515C01435CD1EC
:106B2000862479E00021159C2EE0012414990B782D
:106B30000090304619991FF05BFC0546002800D0F4
:106B40001794002D179A00D06EE72E466CE71A981E
:106B5000002801D0FEF792FB53A8441C804D002E64
:106B600075D00822204629462EF09AF8002805D034
:106B700020462CF0A1FA204629F028FF761E083482
:106B8000EDE70221159CF74D0123002200AE07C658
:106B90000392049320A81CA916F08CF9F3482858F6
:106BA00002214170FD482C54FD48214627E6ED485E
:106BB000EE494658B078C0073DD120A8FF212DF0FE
:106BC000F5FCE949884201D1FFF76BF92EF0E2FAB2
:106BD0000546E448E54946582EE00D3714990D3135
:106BE000F248E04E3018022530F020FD1698C07AA9
:106BF000EF497054432040013018394630F016FDFB
:106C0000EC483018E17A817715998176EA482FF0BF
:106C10009FFF002855D08A241598214629F064FC4E
:106C2000D04DE04EA85D214629F05EFC1A99A95589
:106C3000DD48295413E700257078012801D0FFF7BB
:106C400030F9CB48C17E002946D1199146E0002495
:106C5000FEF714FBC34D199EA8591A9FC01930F0B6
:106C600071F9091B891E30F065FA0621159823F089
:106C700023F8A859C0198179C27912025118451810
:106C80002C460C34284644302AA930F089FC7D98E3
:106C9000482168544835000A6870002718996770C1
:106CA00021702024159D284630F06AFC53A930F04D
:106CB0009FFE28461FF030FF002800D1CFE628466F
:106CC000CBE600241598214629F00EFCA548B549CD
:106CD000405C2146FDF78EFCA6481990B81D01299D
:106CE00001D0FFF739F8B17A00270229169707D0AB
:106CF000012901D0FFF730F8102017901A9816904C
:106D000032464C3231468C313EA81A920AF004FBCE
:106D10000C36994899493A46083223D0914AD319FA
:106D20001A5C5B5C7F1E9A42F5D09A421AD25D20B3
:106D3000C0008C49091814961A9E1BE02C2E0020C6
:106D4000591B020034800000350800005D47030035
:106D5000F7FF0000FFFF00005C0800008208000051
:106D600040B103005D20C0007E4908181890091941
:106D70001A981490824B2AAF082438462246984726
:106D80003846083020221A9214997D4B984738468D
:106D90002830189922467A4CA04738463030314680
:106DA0001A9E3246A047234653AC3EA9204632469F
:106DB0001E4698472046203050223946B04770344E
:106DC000204619991A9AB047169800281CD053A843
:106DD000902122AC224623F018FF4EA80121017019
:106DE0004FA8102230F0D0FB0020102800D1A3E0E3
:106DF0004FA9095C5C224A407DAB1A5436224A40B6
:106E000053A90A54401CF0E753A8902122AA1992D2
:106E100026F0FEFD4EA81A90012707705A497DA85A
:106E2000024658C958C20421417000247E9429F0BA
:106E30003DF8064655481A9930F0D8FD2DF022FC51
:106E40001A96366853AF402138462FF05DFE38461B
:106E50001999179A30F042FA4A48026837462037A3
:106E6000384621469047002856D153AC4849204621
:106E70002FF09DFA1A980068402221462BF078FFE7
:106E8000002849D1314628312022304630F026FAF8
:106E900053A840492FF08BFA3A480268002138463F
:106EA0009047002838D11A98006853A940222BF047
:106EB0005FFF002830D11A980068344901222BF076
:106EC00057FF002828D11A98066853A930462BF09E
:106ED00015F8002820D12B480268304620300021C8
:106EE0009047002818D1304628302024314630F011
:106EF00005FCA5204000B63030621A98006853A9FE
:106F000022462BF035FF002806D11A9800681D494B
:106F10008A682030204990472CF07CFD1E4946AC01
:106F2000202230F0E3FC1A9800682EF06FF81CA8BD
:106F3000102230F029FB11E053AC204610304EA94E
:106F400030F010FD7DAE324610321121204623F084
:106F50005CFE20211CAA304623F057FE0020FEF7DD
:106F6000FBFEC0462C2E0020FFFF00003C09000065
:106F70002C6B0020A4700020EF0200008F040000A2
:106F8000455903007800000FE4B00300B849002021
:106F90005C5C5C5C6A6A6A6A384A00202707000009
:106FA000F9E80200380800005E0800003A08000016
:106FB0003C0800004408000091DB0200F0B5FFB07F
:106FC000DCB0B4A82A90B4AEB4AB9DAFB4AC38A8D2
:106FD000DB4DDC496A5CDC49695C520702D40A0774
:106FE00000D5ACE0490701D401F081FD2A991531A3
:106FF0002A91314690312291263619461531289131
:10700000591D27910E33249339464E310E9139463E
:107010004D310D913C3721464E311E9121464D3167
:1070200019913C341A9403213491C90140183390CA
:1070300000202C2805D029183322920130F04EF878
:10704000F7E74720C14363202B90800037903091B1
:107050004731332080011F90369129500020379905
:10706000814203D038A930F035F8F8E70F9704963D
:10707000339836990160B5482F180F2035900026B7
:1070800032963146022E3CD0F4B20025B4AA0C232D
:107090002046294628F044FC411C22D0002823D158
:1070A000B4A99DAA204628F013FC0146483101D01E
:1070B00000280FD19DA800880E2810D879880122B9
:1070C0000A437A8038803599884215D2294632960B
:1070D000359012E00F2038803098253004E00F20E2
:1070E00038802EF0CFFF36987A88054601218A43F2
:1070F0007A8020462CF000FA2946761C3F1D904DE0
:10710000C0E7359E0F2E38D090482C180025329FAE
:10711000022D2ED020880F280ED0AF420CD0B042C6
:107120000AD00F2020806088012188436080E8B267
:107130002CF0E2F9309947316D1C241DE8E733202B
:107140008001012129500024E0B2012803D81BF05E
:10715000FFFF641CF8E7F04818212950CD200001FA
:1071600000212954774AA85C06210143A95401F063
:10717000B9FC0E2E00D03099714D269173482E180F
:1071800000273697022F30D030880F2802D17F1C7D
:10719000361DF7E7FCB238A9204613F075FF01460B
:1071A00038310FD0411C13D0002814D1339B03CBAE
:1071B0002B9A5201AA1810661878CD231B01E854A7
:1071C000D166E4E70120B840369901433691DEE705
:1071D0002EF058FFDBE770880121884370800F2074
:1071E000308020462CF088F9D1E700201024202898
:1071F00000D198E00C22424338A989184968C74B4E
:10720000194204D038AB9A181289002A02D1401CC6
:107210000C34ECE7461C880F38A93246BF4F1F2AB2
:1072200008D80B593B4202D09B0F984204D1521C04
:107230000C31F4E7014602E002282FD10221339EEF
:10724000369AD4B22246C240D00715D0C8B202281E
:1072500010D232682B9B5B01EB181A66CD22140109
:107260002955800018186421405A0E2846D118F07C
:107270002DFB45E03698C4B2CD2000012A5C0121E7
:1072800008469043C440E2074DD08200AA18A44BA0
:10729000D45A8C43D4522CF02FF944E001461F2ECF
:1072A0001AD838A800599D4A104212D0870FC8B288
:1072B000B8420ED081006918244A8A1853880125E3
:1072C000AB431F4D53800F22204BCA522CF014F9B0
:1072D0003946761C0C34E2E73698C4B2C8B222466E
:1072E000C240D207339EB1D10021379A8A4201D1E0
:1072F00001F000FC38AA2FF025FFF6E716F0B8FBE6
:1073000000203799814203D038A92FF0E3FEF8E737
:10731000309847303060285D38A913F0B5FE00285A
:1073200001D02EF0AFFE0749685C0222259210437F
:10733000685400207B4C08280AD02FF0A7FEFAE7FB
:107340002C2E0020D10C000079040000C40C000099
:10735000B4A8401C2D90B4A8093021909DA85B30A2
:107360000C90B4A801460831179101460C311691D2
:1073700001461431159101462431149101462C31F6
:10738000139101463D3112914F3018909DA801464E
:1073900008310A9101460C310991014614310891D6
:1073A00001462431079101462C31069101463D31B9
:1073B00005914F300B90B4A8801C039000215A48CF
:1073C00028181D90594828181C90594828181B90B7
:1073D00058482818239058482818209057482818AB
:1073E00011905748281810903591202901D101F0AB
:1073F00053FB0C203691484338A90D1869680B4699
:10740000464A1340379301D101F070FA38AA121896
:1074100012893392002A01D101F068FA8A0F329260
:107420009200484B9A18484BD75A0E2F01D901F0B9
:107430005DFA01223192BA404F231B021A4201D158
:1074400001F054FA38AA101840892F903D483F4A5D
:10745000815086183398B0807F20359C2E90044050
:107460001C2C00D914E13198A0403949084200D1C0
:107470000EE1344837494158002906D0369880B289
:107480008847002801D101F031FA601E1E2800D97A
:107490009EE1800001A108588746C046597500004A
:1074A0009F7600007D770000D1770000D177000043
:1074B00001780000BF780000D1770000D778000085
:1074C000E1780000E7780000FD780000D177000047
:1074D0000D790000DD790000D1770000D177000040
:1074E000D1770000817A0000D1770000977A000000
:1074F000D1770000D1770000D1770000D17700006C
:10750000D1770000B37A0000B97A0000D17700008B
:10751000D1770000D37A0000CC0C0000FFFFFF3FC2
:10752000C60C0000805000207C04000037020000E0
:1075300092040000E40C00002A0C0000F40B000090
:107540000A0C00002C2E0020C40C0000DC0C0000F3
:1075500001460018BC0C00002F98042801D100F04F
:107560009AFF0328329D01D100F09BFF022801D031
:1075700001F0BCF99DAC5C26204631462FF0C4FAE0
:10758000284637992246334627F0DCFC002801D0F4
:1075900001F0ACF99DA832900078012137910840A4
:1075A000F74FF84EB95DFE220A401018B8559BAC53
:1075B000042220460A99F44EB0471D9821462CF02B
:1075C0007BFC0920C0013818082509992A46B047D4
:1075D000329C207802210140EA4BF85CFD220240F7
:1075E0005018F854892080003818319008992A469C
:1075F000B04733469E981026F041B92189007A1889
:1076000033922F917850FF20E04978546078E04918
:1076100078546088DF4978529120C0003818079963
:107620002A461C4698470F980078DB4978541C9DE1
:10763000284606993246A047D748385C2874D74870
:10764000379939541B9805993246A0472FF085F990
:107650000D9800783399C8730E98007888730D469A
:107660002B20000138180C220B99A0476D88CC49BB
:107670008D4201D101F025F92F98385A884201D165
:1076800001F01FF9C749785C379A104301F01DF9E2
:10769000BB4AC54BD05CFD210140D154E9E6B4AAF8
:1076A00018232FF067FE002801D001F01FF90520F4
:1076B00005020121284625F00DFD00284AD0044688
:1076C0000126102329463246B84FB8472EF01BFA40
:1076D000B4A908222F46339525460C4637912EF043
:1076E00031F90023284639463246B04FB847617A0F
:1076F0002C468279C3791B029A18037A407A0002D9
:10770000C01800048018017011232846339F3946A1
:1077100035463246A54EB047B7992DF0C9FBA44B6C
:10772000B047B6992DF0C4FBA24BB047379E718984
:107730002EF084F807204303204639462A469B4D05
:10774000A847F17D2EF062F8F07D002802D0204697
:1077500021F098FA2FF09FFE002801D101F0C6F821
:1077600020210122944B2EF0CBFF2EF0CCF9B4A9AE
:10777000CA890280497B817001F0B8F80020804DF1
:107780008E4969580A78904200D3B4E14A788B78E0
:107790001B029A18CB7809792FF0E3FB82008A58F4
:1077A000917ED37E1B025918137F547F2402E31865
:1077B0001B0459180AD0537E309A18325A43002AB3
:1077C00004D000230B70491C521CF8E7401CD7E77B
:1077D000C92000016A490C180025694878494058B9
:1077E000854201D301F082F82168369886B230468E
:1077F0008847002801D000F029FC6D1C1434ECE708
:10780000B4AA18232FF0B6FD002801D001F06EF8BD
:107810002FF082FA0023064621462A46634FB847D6
:10782000B4992DF0DBFF2FF0B1FC2B46B847B5998A
:107830002DF0D4FFB598FA213791484329F09AFAF0
:1078400002233046339621462A46B847B6992DF092
:10785000F5FFB4AF38895B4948435B4940182FF0C6
:107860000CFE45214901464A50502CF015F90323DE
:107870002FF08CFC4D4EB04779892DF0DFFF7889D1
:107880003799484329F052FA0423339E2FF07EFCA7
:10789000464FB847B7992DF0A1FF05233046214642
:1078A0002A46B847B8992DF099FF0623304621465D
:1078B0002A46B847B9992DF0C1FF01F017F828689A
:1078C0002E900020414C2F9E042800D1C8E19DA994
:1078D0002FF000FCF8E72B98400129490B58EEE007
:1078E00027483B49EAE0002332983799042B00D11E
:1078F00039E29DAC0022E2545B1CF7E7002004282B
:1079000000D152E29DA92FF0E5FBF8E72F9801285E
:1079100000D067E3B4AA08232FF02CFD002801D083
:1079200000F0E4FFB4982B4940189B218900144AC9
:1079300050509D208100002050523399C908090100
:10794000814201D100F0D2FFB59A224BD2180C4DE2
:10795000214EAB591C181A54130EE370130CA3706C
:10796000120A6270AA591218002353731373AA598A
:107970001218D37A10241C43D4721030E0E7C046AA
:107980002C2E00207904000045590300FA02000063
:1079900036020000760200006B0200006A0200005E
:1079A000FFFF000014070000D10C00000167030076
:1079B00001E0000002E00000FEEF0000AC09000062
:1079C000B80C000090D00300FF3B00008050002066
:1079D000640C0000FF030000E40400000822239868
:1079E00030F016F82F9C022CF54D01D100F0D3FD9C
:1079F000012C01D100F07EFD002C01D000F076FFBB
:107A0000B4A898212FF080F83398982801D000F07E
:107A10006FFDB4AA98232FF0ADFC002801D000F030
:107A200065FF22980378082B01D900F05FFF2298A8
:107A30004078102801D900F059FFA721C900F64A63
:107A400053545118487000200121039A049F984212
:107A500001D300F0B2FF531E1B781524A401EE4E93
:107A600035596D186D1E2B7053781578345966187A
:107A700065547370401C229B1B78C91C121DE6E7DD
:107A800000233298379C042B00D19BE1B4A900223B
:107A9000CA545B1CF7E7B4AA24233298379C2146CA
:107AA00027F03EFF002800D1DBE228F066F900F065
:107AB0001DFFD948D94901E0D748D9494358002B7F
:107AC00001D100F013FF32983799339A984700F0AC
:107AD0000DFF2F98002801D000F008FF0023CE4CA6
:107AE00032983799102B01D100F000FCB4AD002280
:107AF000EA545B1CF6E71821339829F0FDFE2F901D
:107B000000212E912F98814201D100F0EFFE31919A
:107B1000B4AA18232FF02EFC002800D09AE0C14808
:107B200028580178401CB4AA5278339200252A467E
:107B300091421CD0077844782402E4198778C678EB
:107B40003602F619360434196759BC7EFE7E3602B9
:107B500034193E7F7B7F1B029B191B041B1903D02A
:107B60003B78339CA34204D0521C2D1DE0E70B460A
:107B700000E013468A42A84D64D20178427812028E
:107B800051188278C0782FF000FA99004058817E11
:107B9000C27E12025118027F437F1B029A18120400
:107BA0005318417E3020484318180022914206D0D5
:107BB0001C7AE40702D0521C3033F7E718468A4299
:107BC00040D2017A01220A430272B4AA11780170EC
:107BD0005378437053884380B59B0371279E337855
:107BE00074782402E318C380B378F4782402E3188D
:107BF000C385537A03725289028200290BD1B79947
:107C00004182249B19785A78120251189A78DB78AD
:107C10002EF0CEFF4161B4A9498A0246283201857F
:107C2000B9999170289A2FF024F881851C21242974
:107C300003D0FF224254491CF9E727F0A9FA2E98F5
:107C4000401C2E902E98002802D01EF0DBF801E098
:107C500000202E903199379818303790491C51E701
:107C60009DAA042332983799299327F06BF9074688
:107C7000002803D19D9868496B4A88542AF05AFB22
:107C800065486A4946521C21002E319100D03021AE
:107C90003398001F002E01D02C223192379A161DE6
:107CA00029F02AFE05462E986060002420462946C9
:107CB0002AF08BFF5E4908703395294620F070FE4C
:107CC000224631462E90544C329D3398824201D345
:107CD00000F001FC002F00D0FDE33792B4AA284643
:107CE0000E461CF015FE0746002837D12C97B4A885
:107CF0002CF038FC4F496258299B34990840010107
:107D000051180D7A4F7A3F027D198F7ACC7A24026E
:107D1000E419240467193D46474C2540002B04D044
:107D2000002D05D0401C5B1EE7E7002D00D0CEE300
:107D300008313246404B1A401F23DB061F40BB1858
:107D40000A70140C8C70120A4A701A0ECA702E999E
:107D50000870491C2E91304C329D2C9F319831185F
:107D6000379A521CB1E79DAA042327F0EBF80028AC
:107D7000294C00D1D8E29120C000241808222046C6
:107D80002E492CF08DFF002801D100F0AFFD2CF022
:107D900017FF002801D000F0A9FD00210122B4AB9B
:107DA000204611F09BFD00F0A1FD00233298379D85
:107DB000082B45D0B4A90022CA545B1CF8E7C04682
:107DC0002C2E0020B4AA0423214627F0A9FD002868
:107DD00001D000F08BFD241DB4A801781920860184
:107DE0000D4A91550B20C001151800200746C9B255
:107DF0008F4201D300F07AFD002801D000F076FD1B
:107E00000C23329821462A4627F08AFD7F1C0C3429
:107E10000149895D0C35EAE72C2E0020680C000032
:107E20006C0C0000AC090000B2040000B6040000B5
:107E300080500020E4040000FFFFFF0748B103006A
:107E40009DAA04242946234627F07CF8002801D067
:107E500000F04CFD01279DA840780228259800D30A
:107E60002046349909022F9139022991441900269C
:107E7000334635462C979DA80078854201D300F003
:107E800035FD002B01D000F031FDB4AA0823329853
:107E9000214627F057F803462D9800780106490F30
:107EA000052900D19AE0012909D12D9949780902C3
:107EB00008182F9908402999884200D18EE0319303
:107EC00033963794E3208600FC4A905911246C4382
:107ED000015D39430155B498915909198871B4A8C5
:107EE000007823F075FC00280BD0F4488059339EAD
:107EF00080190021379C319B11296FD02FF032F966
:107F0000FAE72D9F3878ED4989590A5D0007400E40
:107F100087231340181808553878E84989590919F2
:107F20004A781202C0001F23DB0213401818000A0F
:107F300048702FF02FF801462F9A11402C9A5202C8
:107F4000914209D1DD49895909194A7BC006C00F00
:107F5000FE23134018184873D84881590819095D41
:107F60002EF03DFC4A05520F06D1B499D44AD34BAA
:107F7000995401782EF033FC2D9A52789207520FC3
:107F800006230F469F43BA180B0A4370090C8170F1
:107F90000270B4A8C178C94FBA19BB591B195971DD
:107FA000B95909192E9B0B71516800780D54B59879
:107FB000B9590A19095D53781B02591893781B04A3
:107FC000C918C006800BBF4B19400818010C9170EE
:107FD000000A50702C9F379C339E319B08346D1CD7
:107FE000113648E72D68B4AA04232FF0C3F90028FE
:107FF00001D000F07BFCB498B34940189B21890064
:10800000AE4A50509D208000002414523398001F27
:1080100001D100F06BFCAD494968691AAC4A914244
:1080200001D900F063FC80083799091DC2B232986B
:108030001CF026FBA5480078002801D100F056FC72
:1080400020F0B8F9A148047000F050FCE4680097F3
:108050002F98019030463299379A339BA04700F011
:1080600045FC24343794B498944F9A4978547A183C
:10807000B4A833904079411E8841029210770C22B7
:108080002F92209C204621992DF05CFC00206070EE
:10809000E070E0802990A0808F4D2846319E3146C7
:1080A00025F018F82C90294632468C4B8C4FB84757
:1080B0002A9B19785A781C46120251182DF0BEFBE3
:1080C0002C9F384629463246259B854DA847217B63
:1080D00031402DF09BFB032338467F493246804DCB
:1080E000A847217B89072DF0F4F9207B25990840CA
:1080F000400824F057FE0423384677490C463246A0
:10810000A8473399C97D2DF081FB052338462146C8
:108110003246A847BA992DF079FB06233846214606
:108120003246A8472A9C217B4907C90F2DF06EFBD8
:108130000723384668493246A847217B0907C90FFB
:108140002DF064FB257B67485C4C205C69001023A4
:1081500019402E93EF22024088185840614960541C
:10816000082338465C4932465D4CA047E906C90FF2
:108170002DF04CFB0923384657493246A047254687
:108180002A99097B8906C90F2DF040FB0A2338463E
:108190003C4651493246A847339D697E2DF036FB57
:1081A0000B2338464C4932464D4FB8472A99097B34
:1081B00049062DF08EF92046474932462F9B484FFD
:1081C000B847A97E2DF022FBA87E47493B4A505074
:1081D0000D232746204640493246414CA0472A9C61
:1081E000217BC9098279C3791B029A18037A407AE4
:1081F0000002C018000480180170207BC00926F01E
:1082000049FF0E23384634493246354CA047E97EB3
:108210002DF0FCFA0F2338462F490D463246A04771
:108220002A9C617B31402DF0F1FA607BC007C00FC2
:1082300026F0DEFA3846294632462E9B284DA847BE
:10824000617B89072DF045F91123384622493246D2
:10825000234DA847BB992DF0D9FA122338461E4961
:1082600032461F4DA8472EF0D2FD2DF0E7FA13231A
:108270003846194932461A4DA847A17AE27A1202C5
:1082800051182DF0DBFA33980079411E092900D9E5
:1082900019E10A4D43003298379C2146119A27F084
:1082A0003FFBB4A909794A001319002800D1A9E2BB
:1082B000309E473600203190AFE2C0462C2E002081
:1082C000FA020000FF1FFC00FF03000080500020A6
:1082D000FEFFFF7FEC0B000057FC0000FDFF0000DD
:1082E00001670300FC080000DC080000B4AA1023AA
:1082F00026F028FE002800D0F8E2B4982521890154
:1083000060526018B4A94A888281B59AC281CA882D
:108310000282B69A428249898182B79901840020FB
:10832000014623F03DFBE1E20020102803D0B4A970
:108330002EF0D0FEF9E70120000233903798071D98
:10834000002001469DAA1278914200D313E500282F
:1083500000D010E59DA840780128379101D0102564
:1083600000E00D25B4AE3298394632462B4626F051
:10837000E9FD81218B00E258B17A0B267143541834
:10838000617AA27A12025118339A11427ED12C9549
:108390002E902F970934B4AA1D46D37A9B075B0C05
:1083A00031969F2636020E409B19319E2170190A84
:1083B0006170A14F7859917A71434118887A00020F
:1083C0004004800F19D0B4A8C07A01282BD106220E
:1083D00008469A492DF0B6FAB698974F7959B4AA3B
:1083E000937A7343C918030ACB718871B798795986
:1083F000927A72438918087226E0B4AE304626F0AD
:1084000097F8B6987959B27A319B5A438918020A7B
:10841000CA718871B7982EF092FAB07A3189319E7C
:108420001DF0CCFE10E0B4AE304626F081F8B798CF
:10843000814F2EF084FA7859B17A319E71434018F9
:108440007F4A110AC17182717959B4A8827A724344
:1084500089182EF0C8FC339B1A434A72120A8A729A
:108460007959827A7243891800224A727959807A3E
:1084700070430818817A10220A4382728320800098
:108480003958491C39502F9F2E982C9D7F193799A8
:10849000491C694C56E7B4AA64232EF06BFF0446CE
:1084A000F0E09DAA5C232846379926F04BFD044650
:1084B000002800D0E6E00020642800D1CAE0B4A97A
:1084C0002EF008FEF8E7329C379D299EA7E1002791
:1084D000594C329D31462F98002806D0002F04D1E8
:1084E0003398C2B228461CF0CBF856482554FDE11B
:1084F000514D2F9C2CF014FB00279D979DAA04261C
:1085000032983799334626F01DFD002805D0A72163
:10851000C9006F52022C3ED05CE02DF0ABFB181866
:10852000339B1B1F9BB2834235D130984730102AB2
:10853000EDD81029EBD8002A394600D166E22E96F4
:1085400031973798061D00200125114607468F42B6
:1085500000D354E2002800D051E2B4AA0423329898
:10856000314626F0EFFC00280FD1B4A94A78152334
:108570009B01314CE4586419641E227049882E4ACC
:10858000D25853195155090A59707F1C9DA9097871
:10859000ED1C361DDBE72CF0C3FA00249D949DAA48
:1085A0000427329837993B4626F0CCFC00280ED1A0
:1085B00031942DF05FFB1B183398001F84B2309864
:1085C00047309C4202D1102A00D898E1319CA72163
:1085D000C9006C52002800D088E100240425164907
:1085E0001948085C844210D2184808584119897803
:1085F000032907D1405D23F0EBF8002802D0E0B258
:1086000029F07AFE641C0835E9E711480858002172
:10861000082902D02EF0A6FDFAE70020802800D11C
:1086200064E10549094A89580A18095C2DF08AFC59
:1086300000220A700830F1E72C2E002040B1030020
:10864000FFFF0000B40400003905000044050000ED
:108650003C050000B4A89DA95C222DF073F90C988C
:1086600000781E9B597BF8220A40072101405018D0
:10867000587330984730CB900020C1439974090A51
:10868000D9741875002C00D030E1B4A83790007868
:10869000012132910840F94FF94D795DFE220A40DF
:1086A000101878559DAC042220461799F54EB04716
:1086B0001D9821462BF000FC0920C0013818082421
:1086C00016992246B0473798007802210140785D1C
:1086D000FD220240501878558920800038183390C8
:1086E0001599224625463194B04733464320C000B1
:1086F0003A182E92B5981026F041B92189007C18BD
:108700002F942C917850FF20DF497854379948787E
:1087100090774888DF4978521E9C207D9075912083
:10872000C000381814992A4698471A980078D749F3
:1087300078541C9D284613993246D24B9847D3480B
:10874000385C2874D248329B3B541B9812993246AD
:108750001E46CC4B98472EF000F9199800782F9DB3
:10876000E8732078A8733798007880092E990875E7
:10877000607B8107C90F6973F64BF9584007C00F3A
:10878000C003F20391434018F8502B200001381821
:108790000C221899EE4B9847607B5121C9007A5AF8
:1087A000C007000E80239A4310187852CB9820F00F
:1087B000B1FEA07CE17C0902081828F04BFA607B2E
:1087C00031990840C00826F065FC6D88DA498D4271
:1087D00007D02C98385A884203D0DF49785C304360
:1087E00002E0DD49785CB04378540822339C20468F
:1087F000D2492CF055FA002878D0CF48854275D060
:108800009BAA6FE00298C1711018C0880026CA4A5E
:10881000904202D1481ECA496854329C1D46B4A8F1
:10882000319900291FD0807900281CD00A281AD835
:10883000430020462946109A27F072F8B4A9897996
:108840004A005519002802D0309E47360BE00298A6
:1088500041771018808B0026B74A904203D1481EFA
:10886000B049B84A8854B4A8002E01D0FFF71DF9CA
:10887000C079002801D1FFF718F9042801D9FFF7C2
:1088800014F961214901A74A52184300204629469C
:1088900027F046F8002801D0FFF707F9B4A8C079FF
:1088A000A049A94A885489184200895AA24A91428B
:1088B00001D0FFF7FAF8401E9A49A34A8854FFF7FF
:1088C000F4F8A549785C379A9043319C7854082293
:1088D00020469A492CF0E4F9002807D096488542B2
:1088E00004D09CAA284621461BF04AFB3699491C15
:1088F0003598401C35908B4D8D4CFEF776FD102938
:10890000319C00D963E6002A214630D03798041DF7
:1089100000200125114606462F978E4222D20028BC
:1089200020D1B4AA04233298214626F00BFB00285C
:1089300012D1B4A94A78339215239B01794AD258AF
:108940005219521E339F17702F9F4988754AD2586B
:1089500053195155090A5970761C9DA90978ED1CC7
:10896000241DDAE700286F4D319C00D02FE6B59426
:10897000B49488003799254644189DA840788542CC
:1089800070D2E119B4AA0823329826F0DBFA002845
:108990006AD1B598634B6D4E9959CA19C855000AEA
:1089A0005070B4A881799A59D2199170C0799959A7
:1089B000C919C8706D1C0837DFE7002007213A4647
:1089C000229B5B78984200D307E6931F1C785B7864
:1089D000544D5E4EAD596D18ED1E6B702C70514D9F
:1089E000137807241C40AB595B185B1E1C7013786E
:1089F000DB08AC596354401C0831D21DE0E7002865
:108A0000484D2F9C319F2E9E00D080E53546B5976E
:108A1000B49788003799401831903E469DA8407819
:108A2000864223D231984119B4AA0823329826F0FD
:108A300089FA00281ED1B5983A4B444C19594A1965
:108A40004855000A5070B4A8C17907220A40195944
:108A500049198A70C079C00819594919C870761C1B
:108A60000835DBE70020B5E52E4DAFE500202D4DA4
:108A70002F9C4FE52B4D2F9C49E5C0462C2E002006
:108A80007904000045590300FA0200006B0200005F
:108A90006A020000760200002078002803D01FF050
:108AA00089FC00202070002422482C502818848043
:108AB0002698483001D114F0DBFF1C4828580028C4
:108AC00010D120462AF018FDCD2000012C542B98FF
:108AD000400128181821C166006E401C02D10120F7
:108AE0001F996850104AA85C04210143A9547FB023
:108AF0005CB0F0BD30994731316038A912F0C4FA4A
:108B0000002803D02DF0BEFAFEF7B6FB03CE2B9A59
:108B10005201AA1810663078CD231B01E854D166A3
:108B2000FEF7AAFB2C2E0020D10C0000CC0C00007C
:108B300080500020DC0C0000FFFF000048B1030063
:108B4000F30B0000090C00001E0C0000440500009F
:108B5000455903001405000014070000F0B59DB04E
:108B600014460A460746001D0125A903214000239B
:108B70000B9100291093179315970F90119200D124
:108B8000F5E206950E94DB490C462C3438460F4628
:108B9000403700267E767E74FE762674A6718E643B
:108BA000FE74426B856B002D0DD06888C1064E0F98
:108BB000002A0AD1002E14D103218902084010D1C5
:108BC0000121002612E0002A0BD0107A022808D2D8
:108BD000002100280AD1002D08D068880005800FE8
:108BE00004D02DF09EFE022501F004F917910A929F
:108BF0002BF036F818902EF0DCF90021002D07D06C
:108C000016910F980178012905D11598C16904E0E2
:108C1000069801902BE0B84909686A88D3070B468B
:108C200000D06B68900702D4C81A400F16D0002EEF
:108C300002D00222114613E028891B18AD480364B4
:108C4000AE48F3300240501E8241BA7300200190BA
:108C50001798002800D1C2E0069908E00C2186226E
:108C60002A70069D4920A34A115416990195159D15
:108C7000E86A10910EF03AF82C200F99085C7F28D2
:108C80003DD07E280AD19E48017D7E2921D1417D9B
:108C9000C08A0004090209187E311BE099498969DC
:108CA00000291DD00A68002A1AD00306964DAB424F
:108CB00016DC7D252D06AB4201D100F07FFE01259B
:108CC000ED07AB4201D000F095FE08794A79C988DA
:108CD00003E08E49C8B20A0A090C8D4B994206D1AD
:108CE0002DF01FFE104602211791159F3DE2120242
:108CF0001018834A1082518227F08CF8159D854EFA
:108D00002AF0DAFAE86B00281CD08349834A526BB8
:108D1000834EF260002242707F2383700578ED0756
:108D20001CD180254D607B49CA868A87CA870A87FD
:108D3000328072804A87C3708260C2600261828220
:108D40006C4D21E07448802141600020F086B0879E
:108D5000F087308772490880664D19E0C2787F2A13
:108D600000D18022634D4A6001896A4AD1864189D7
:108D700091878189D187C1891187818A684B198040
:108D8000018A5980418A51870078022101404808B0
:108D90003121009168540198002805D0159F38466C
:108DA000189925F0D7FE32E015981C3019A96CC827
:108DB0006CC1504D296C1991B87B189E721A530FD3
:108DC00004D1002802D18620159F1DE0554B9A4200
:108DD00000D831460028159F12D1032211E0CA1A8B
:108DE000591A514B9942069D00D31946500F00D194
:108DF0005142480A0328294600D238E7042131E7C6
:108E0000022219A815F0F2FF492106226A540A9B92
:108E1000102808D30F9A1178000208181080104605
:108E200002211791A1E1002B00D111E1FF200002E6
:108E30001390002017903749C884187A0590488607
:108E4000987A002811D039480168426853230125D7
:108E5000284EF554139D2185628529407F231943AF
:108E60002A401A430A9B01604260012002900002DE
:108E700003902B4C25464035204648300D902C4819
:108E80000C9017980146129008900598814209911C
:108E900000D1D3E00795182048431D18288B12995C
:108EA00066183084688B7084286969697062B16261
:108EB0002F7F7B06980F0002F90080220A4080185D
:108EC000B90020220A40811807242740781E032871
:108ED00037D8800001A210588746C046ED8E0000AA
:108EE000F18E0000358F00003B8F0000042022E04F
:108EF000142020E0946F0020002102400F0F00009A
:108F00002C6F0020B06A0020FFFFFF7D7F00FFFF75
:108F1000FFFF0000002009401C3208405070002074
:108F200040200940FFFFFF1FFFFFFF7F1C2108407B
:108F3000042209405420014303E006200143029823
:108F40000890002B089800D50298002F0A9B00D0AB
:108F50000890B185686A0028159F0F985FD12A6A2A
:108F6000002A44D01668402E59D804920C321020A2
:108F7000801B1490FB4F4837002430460D9D23463C
:108F800016969E421CD91646083E1890102801D30A
:108F9000F54904E01498C0181399FF31C140368890
:108FA0000E40284608380680108808402880641C37
:108FB0001033921CAD1C18981038BF1C169EE0E7A9
:108FC0000A9B079D049A042C07D2384608380021D2
:108FD00001803980641CBF1CF5E714320C98159F82
:108FE000E04C002E0DD002CA02C0761EF9E7E04325
:108FF000DC4C079D002804D0291800220A81801C1F
:10900000F8E71298103012900999491C0D98103009
:109010000D9003980C9A12180C92103535E7024601
:109020000088917809044018D0490840412149023C
:1090300001431180000C907002201790D87A4F21C4
:10904000CB4D68540028119A0E9C05D0C94806E003
:109050000020179008900CE003208002F538C649E4
:10906000888605980999814239D1012008990140E3
:109070000891C248C249072202600A6820231343AC
:10908000102293430B60026BAA850A9E002E5CD0CF
:10909000BC4CBD4A643A152313602246383A069CFC
:1090A000A3021360B94AD369092618963343D361E2
:1090B00004600A6803239A430A60816A00264661B5
:1090C000B3480474E9856E630A981FF01FFCAA4830
:1090D000408C0099695C002903D0AE4807E00F98E6
:1090E00045E0C008C043AC490143AC48084008997A
:1090F0000029A44C01D1014604E018994902084313
:109100001821014320680843206025F0B1F8019838
:109110000028974D0A9818D0407A002801D0A0481E
:1091200000E0A04894498885CE84FE4806802DF052
:10913000BFF9022000BF00BFFB481D2101630120D1
:10914000010521614A218A4D68540F9B188899783E
:10915000090440188549084003210A0202431A8085
:10916000000C9870302029541846119A0E9C032642
:109170003102407800021391884229D17C493C2574
:10918000E0020CD5485D002809D0801E42424241D1
:1091900000204855886B13991EF060FC119A01203D
:1091A0001290600300D49CE016950E94BC6B482589
:1091B0006F48405D00280ED0002C0CD02178022989
:1091C0002CD83120207049200C21694B195483E0A0
:1091D000179D00F0C4FD49206549095C01297ED135
:1091E000002C169D26D0694909686288D3070B4672
:1091F00000D0636815463540012D02D1CD1A6D0FA0
:1092000032D07D6B2D7A002D29D002252570D7060E
:109210007F0F33D056490D54159F2AE049275449F2
:10922000C95D062908D802284AD00328504B53D1DB
:10923000392046E00E9C54E0CA1F022A1BD8494A36
:10924000128A520700D596E30929119A14D10328EE
:1092500012D1392020700C20454BD8553CE0150523
:10926000AD0FD2D0822100E0862121700C21404A2E
:109270001154119A33E0119A3D4B2DE024891B19AA
:109280003B4C236440343B4DF3352A40551EAA41E4
:10929000A273CA1A591AAD4B994200D31946530FFB
:1092A000159F169D00D15142139A91420E9C00D3F6
:1092B0006AE305212E4A11549B481299016366E323
:1092C0003520189025F058F8189820700C20284B5D
:1092D000D85500201090119A00205855159F0E9CCB
:1092E000169D60060AD517981299084317904A20D0
:1092F0001F4B195C012901D102211954E00305D546
:10930000786B002802D01FF001FB119A4A211848FF
:109310000991405C610210D500280ED05121012234
:10932000134B5A54119A4921595C002906D1022045
:109330007D4908630998185C00E00D4B492118919C
:10934000595C042930D102282ED10948006C80498B
:1093500040181399129A1EF081FB002844D10B2665
:1093600043E0C04640200940FFFF0000FF00FF002F
:10937000946F00200F0F000000200940A01108404A
:10938000B4100840440008401C210840002102405D
:109390002C6B0020B19100000181000031810000A0
:1093A00002280000020800000027022922D102281A
:1093B00020D1169525461598806B416814914188F7
:1093C000644A1368644C4034002767738A05920F1F
:1093D00000D101222273CC0764D12C46169D5E4831
:1093E0000364129F119A02E00526119A00275A4839
:1093F0001899465412980105A005574E089102D5B8
:10940000705D012806D00A420BD054480068C0B2F3
:109410007F2806D01898305C032802D124F0ACFFD6
:1094200002E0002F00D1B7E01598856B6988032012
:1094300028704B48008A002812D04D20315C00294A
:1094400007D0484B19680122120591431960002189
:109450003154122028700C2018997054119A9BE0F6
:10946000C806400F042801D1002790E00E943B4A23
:109470001468E3B24D227F2B2DD1374EB65C002EFF
:10948000354E28D13046403001224273306C0522DF
:1094900012028018890573D4324B1968089A114357
:1094A00019606EE0139C1B19149C1B1B5B0F2C4650
:1094B0005CD00520000250432B4941180027149D21
:1094C00028463A461EF0CAFA23490D640028119A2C
:1094D000169D8CD18EE761B216917F3B5C425C4158
:1094E00020490B68012731463E05B3431D4E3360CA
:1094F00000268E541699EB578B4200DD3746094AF9
:10950000D2886E883606760FB242129A00D822466A
:10951000401E06280E9C104E9BD8800003A42058A5
:109520000E9C8746A4200940001008408F9500003B
:1095300049950000219A00005394000053940000C4
:10954000539400002B9A0000174620E0FFFFFF7F96
:1095500000FDFFFF00210240946F00201C320840F4
:10956000402009404400084000FEFFFF314001292F
:10957000169D149B00D032E7862101700C2631E73E
:1095800030640E9C002713993A461EF067FA4D206E
:10959000305C0028119A25D0100707D54B200121F7
:1095A00031543046403000210176C1765006159F77
:1095B00046D5F84B18684021884318601898305CED
:1095C00009283DD1F4488088C10707D1C10621D4BC
:1095D000B96B0007400F2CD015202DE0B86B14217B
:1095E00001702AE0002F00D033E7316C3046403064
:1095F000027B521E0273120600D1A3E10520000275
:109600000E180022304613991EF028FAF14806641D
:10961000F04E23E74F21715C002905D05021715C89
:10962000002901D00A2009E0B96B800603D5432048
:1096300002E0802000E0102008700C20189970547F
:1096400090040CD5E14B1868012149038843186048
:109650001898305CC01F012801D82DF04DF9DE4864
:1096600001210C91CD03691C14910A421DD0C088C0
:1096700031462C3100220A928A774A7F072A18D075
:10968000052A26D1306C31464031897B2CF0EEF82A
:1096900003284FD129F010FE06201899705400209D
:1096A0000A900C901298109060E000200A900C90A4
:1096B0005DE011990C9A0A4050D13021715C032968
:1096C00002D123F033F901460F9A107809024018AD
:1096D0003EE0083A022A0DD8FC280BD13222B25CB7
:1096E000002A07D0B86B392202700C20487700207E
:1096F000887139E05121715C002909D0072807D110
:10970000B6494422895C490702D412980A902DE098
:109710000E943021715C022403290A9E00D03EE1A0
:10972000119929405DD1072800D037E1022020F0AF
:109730002DFF58E0B96B08700C21189AB1540146FE
:1097400031390022092949D80F9A117800020818E6
:109750001080022017990143179104E02DF0CCF8F6
:10976000032000BF00BF00200A900C90119A9C4873
:10977000001D044257D059249648065D002E52D051
:10978000FF2E0ED14B20934B195C491E01291CD88A
:109790001E21944A11635A2103225A541A54119AD1
:1097A0003FE016954B258B4B585D012811D1582071
:1097B0000E901F5C586C002F18D1002816D001881D
:1097C000822912D8491D8F0810E05A20022119540D
:1097D00027E05A2002211954169D22E00A920C9289
:1097E000C4E723F0A3F80146D9E00027B74210D31D
:1097F00000280ED07C49096B89088E4200D8AFE062
:109800001E20784908635A200321724B1954595578
:1098100003E05A2004216F4B1954169D0E981F54D3
:10982000159F00201855109800286A4E00D121E19C
:1098300016956E4BBC6B38460327277007256A497F
:109840000D60406B002811D061880A05920F119AB3
:109850000AD0407A0028184600D065485E498885BD
:1098600001200999705404E08904F2D5981C5A49E2
:109870008885E668002E09D03088401D81085A4846
:10988000006B8008814209D9842000E08320207089
:109890000C20504E18997054159FEBE0304626F07E
:1098A000DFFA608841050FD45049891E08422DD047
:1098B00060894949C8844F204649085C0028159FA3
:1098C0000B9E33D0012032E0B0783188021D8A42ED
:1098D00001D9002101E0801981790B9E60893E4AFF
:1098E000D0843C4A4032D37B0120002B01D00302BC
:1098F00000E03B02159F5B18354C23800923354C53
:10990000189D63559174169D413599E000203249A8
:10991000C8842F490880159F796B00290B9E03D0BE
:109920006188890400D485E0149A85E0052000024E
:10993000169D274908800920264C18996054413506
:1099400000207DE00522189BF2542A898918316491
:109950006988C904C90F81730120224908637DE524
:10996000314626F07DFA5A20BF1B00D14DE201217D
:10997000184B19544EE20328119A00D07CE4194880
:1099800012990163322020E40421124A1154119AE1
:10999000A7E4C04644000840A420094010211798BD
:1099A000204317900F9A1078090240181080032066
:1099B00000BF00BF0C96119A0E9CD8E69000431889
:1099C000405C5A785988FFF788F9C046440008403F
:1099D000A4200940946F002000200940507000200E
:1099E000FCFF010000100840A01108400208000020
:1099F000022800000423CD5643B2AB4201DAFFF740
:109A00006FF90D4608351792561E002E00D107E259
:109A10000022AA56934200DA12E22D1D761EF4E7C8
:109A20008B4200DCE9E10027E8E18B4200DCE8E161
:109A30000027E7E1F84A0825F84C189965541546BF
:109A400050216054002E264606D1F86A129929F05A
:109A500055FE512000213154F7490D610868284313
:109A600008602CF025FD022000BF00BF1C20F34938
:109A70000863119A01200B90000210400D9003D151
:109A80009006800F00D1CFE0786B002800D1CBE0AA
:109A90001046F449CA6A1021079108400E90042A22
:109AA00000D2B8E0EF48C468EF4908698000139B12
:109AB000FC3316931840CB689B00E7496518EB18F8
:109AC000844200DB1B1A186883B2581D0746ED4913
:109AD0000F40974200D997E01093726B0025002A3F
:109AE0001CD0137A012B01D1D38903E00123137217
:109AF0000023D360FC185689B44219D9002BD44EE8
:109B00000CD0022313721368002B07D05C89A74284
:109B100004D801241C720024DC601D46954204D048
:109B200008221799114317917563002D02D16BE03C
:109B30001546C74E4B211491725C002A07D0032AA8
:109B400005D05B22B754C749CA685C23F25280082B
:109B5000EA89AC181034C449CA68D205530DC1490A
:109B6000CA680326B243D318C7495B1826460028A3
:109B700003D002CB02C6401EF9E7D019BA490969E1
:109B80008900169A1140411A00DB0846B5490C318C
:109B90002AF016FF1298B6490874E889C019E881BE
:109BA0000425159F786B1EF0B1FEA94E1898305C05
:109BB0000A2817D115200D9900290ED010990329D4
:109BC0000BD3A17809198A795223F35C9A4204D104
:109BD0000879C006079800D54320B96B08700C209F
