:2000000000900020DB2D0000232C00007F2400005B2B00005B2B00005B2B00005B2B00001E
:200020005B2B00005B2B00005B2B00005B2B00005B2B00005B2B00005B2B00005B2B000090
:200040005B2B00005B2B00005B2B00005B2B00005B2B00005B2B00005B2B00005B2B000070
:200060005B2B00005B2B00005B2B00005B2B00005B2B00005B2B00005B2B00005B2B000050
:0C0080005B2B00005B2B00005B2B0000E2
:20008C00F0B589B00446016CC26A02F0FCFBE16F4A1C904201D935269BE1002813D0206CDA
:2000AC008A0087180837891C384602F0B5FEA168384602F025FE002807D0E56F691C8842C6
:2000CC0005D9C62685E1532683E16C2681E123786626022B00D27CE1052B00D979E1216CA0
:2000EC000A6801263240032B334600D300235A4080230893E2500790E06720463A460B462D
:20010C0002F0BEF820784000001F3146814008982150216C20460A4602F0EDFBE567E16C35
:20012C002046324602F0F7FD626EA06EE16CA36FE56F0095A84DA847A26EE06E02F0ADFEEA
:20014C00A06EE26E02F0A9FE216F226B204602F09AFBE56FA84201D93C263AE100280ED0F7
:20016C00606CE26E216F02F0FBFE216F626B204602F089FBE56FA84203D9652629E1C3260B
:20018C0027E1064600280ED0A06C216FA26E02F0E7FEE16EE268204602F075FBE56FAE42D1
:2001AC0003D95C2615E1562613E126468036A26EE16E206F02F0D4FEE26C206D216FA36F1E
:2001CC00E56F009500F0B4FAE06F421C06963260666D00252778B81E0123194681408D4231
:2001EC0009DA616C304602F002FE06980268900036186D1CEEE70893A06D0025069EBB1E4D
:20020C00089999408D4206DAA16C074602F0EFFD02F0FBFDF3E7E06D0025BB1E08999940E8
:20022C008D4206DAE16C074602F0E1FD02F0EDFDF3E7216C08788007C30F07984001401C41
:20024C000026049607960396089A019090426BD90593801AB842069B00D338461860204657
:20026C00089202F0B6FA07994118C8B27A1E01252B4693409842029500DA00252A46BA40E7
:20028C00984200DB4842059B0799C9B207911018DBB205935349C95C049AD7B29E00524A51
:2002AC0092197B00D218525D920051180006800D001F04229043081806990860204600F050
:2002CC009FF86800494989190918079A895C0791474989190818C05D04902778B91E45489A
:2002EC008019405C089A12181420059B5843424B1B18052041435918039E8E5D216C530933
:20030C009B00CD581F231340DD40029B1D40079B5D4045430A20059B5843384B181840192D
:20032C000396835D019891E70798C0B2012811D10498C0B28000C01C069E3060274D204693
:20034C00A847012030602046A847022030602046A84727789926032F3BD30020C04307903D
:20036C00B91E012008908840FE30069DC7B208982860002F11D07A1C2046394600F0C6FF67
:20038C00089828602078801E07998140C94320463A4600F0BBFF781EE8E72078801E079FB5
:2003AC0039468140CA430021059120460C4B9847089828602078801E8740FA432046059F25
:2003CC003946074B9847089A2A6020463946044B9847304609B0F0BD3D0700000D040000F1
:2003EC0019130000BC32000018320000E83100003032000000320000942F00006730000086
:20040C00F0B589B0044680202158C8080D460391E26F511C4143E06DC9B28F00C019616F96
:20042C00636C06AE0BC6A807060F05A88159206EA36F0092BB4D0A46A847606E02F041FD9A
:20044C0005A88059A16CA36FE26F0092B64D0A46A847E06E216FA26C636E0692079108933E
:20046C0005A98959E26DD2190497236EE56C06920793089505AA02F033FDAA4DA847606ED5
:20048C00E16EE26C06AB07C305A88059E26F521C02F0ADFCE06E216F06900791089005A807
:2004AC008059216E02F0FEFC9F4DA847206FA16E06900790089105A88059A16DC919226E97
:2004CC00636E06AD0EC505A98959A26CE36C656F06930795089205AA02F002FD914DA847BC
:2004EC00606F216E06900791089005A88059A16E02F0D8FC8C4DA847234660330ECB06933B
:20050C000791089205A88759E56C606F06910795089005A9895906920790089305A8825943
:20052C00A36FE06F009038467E4DA847226E606E616F06AB07C305A88559E16EA36FE06FA2
:20054C0000902846784FB847216E226DA36FE06F00902846B847E06C616E226E06AB07C329
:20056C0005A88159E06E626FA36E06AD0DC505A8805902F097FC6B4DA847616EA06D049F02
:20058C00C219E56E06A826C005A988590290216F226E636F06910792089305A98959E26DD0
:2005AC00D219636C06950792089305AA02F098FC5C4DA847606EE16DC919E26E06AB07C310
:2005CC0005A88059E16F4A1C029902F010FC206D02F077FC05A88159206F226E0690079273
:2005EC00089005A8805902F05DFC4F4DA847606E616FA26E06AB07C305A88059216EE36E6C
:20060C0006920791089305A98A59A36FE16F0091464D0146A847226F216E206D06920791D9
:20062C00089005A88059636E06AD0EC505A98959636CA76E06930797089205AA02F037FC20
:20064C00384DA847616F606D049D4019626C06910790089205A88059A26E0692079108928D
:20066C0005A98959E26E236F06920793089205AA02F01DFC2D4FB847606F02F022FC05A86F
:20068C008059626C636D5B1906920793089205AA02F00DFC254FB847616FA06EE26E0691B5
:2006AC000790089205A88059636D5B1906930792089105A98959636E276E069207930897A1
:2006CC0005AA02F0F4FB174FB847616FA06D4019A26C06910790089205A880590490A26EE3
:2006EC00042303980340E76E606E069707901B1D05ADED5806910792089505A98959226F75
:20070C00256E0690079705A8C05806920795089005A88259A36FE06F00900498034CA0472A
:20072C0009B0F0BD3D070000E108000069090000F8B444464D4656465F46F0B400B501B490
:20074C000B9B5B005B1C6C469B00E31A9D4610B46C46241D00266D46009CE36A2D1D9B008A
:20076C00EE505B00EE50E36A013B9B0098465B009946002300240025002702E03700404628
:20078C003F1A9A46A346AC46B646F01B1458C859030C80B2250CA4B21E006E4363434543E0
:2007AC0060431C041B0C00195E412C042D0C00196E4153465C4665461B18744100204541E6
:2007CC0076460437474501DCB742DADD6846001D835123462C46002504364645CCDD4E455D
:2007EC00CCDD8351009B9969083102464E4604361068009B9C6924684443A1460027002328
:20080C00002400259A46A346AC46B6464C46C859030C80B2250CA4B21E006E436343454354
:20082C0060431C041B0C00195E412C042D0C00196E4153465C4665461B1874410020454165
:20084C00D0591B18002044414541002F02D0043FD35104370437764623462C4600254745DF
:20086C00D0DD301D8742EBDD043FD351043E464500DDBDE710BC2068E36A9B46024691468B
:20088C006846012720C840C97F08B5417F4120C2013BF7D105682F430126F741FF17FE43CD
:2008AC0068463840494631400843494639406D46354029435B4604C904C0013BFBD1A546FA
:2008CC0003BC8E46F0BCA046A946B246BB46F8BC7047C046F0B444464D46564670B4814646
:2008EC00079CA246002720C940CA7F0875417F4120C0013CF7D1B8464846083354466A4654
:20090C00A400141BA54604B46A46121D5446012720C840CB7F08B5417F4120C2013CF7D19D
:20092C00424617430126F741FF17FE4348466946091D0D46384031400843494631403D40AC
:20094C002943544604C904C0013CFBD101BC854670BCA046A946B246F0BC7047F0B44446D9
:20096C004D46564670B48146079CA246012720C940CA7F08B5417F4120C0013CF7D1B8468B
:20098C004846083354466A46A400141BA54604B46A46121D5446002720C840CB7F087541F2
:2009AC007F4120C2013CF7D147460126F741FF17FE4348466946091D0D4630403940084357
:2009CC004946394035402943544604C904C0013CFBD101BC854670BCA046A946B246F0BCC1
:2009EC007047C046F0B444464D4630B4884699466C469B00E31A9D4610B46C46241D4B4667
:200A0C000832012720C940CA7F08B5417F4120C4013BF7D16A46121D0125EF41FF17FD43C5
:200A2C00414629403A4011434B4610C910C0013BFBD101BC854630BCA046A946F0BC7047FE
:200A4C00F0B591B01D46174610910446866A8168304602F0A1F8E067002804D00246FF286D
:200A6C0003D928202BE16C2029E1307AC00701D1822024E1501C8300F058002839D00B97B0
:200A8C0017980E90D0000A9087190837F8183146061D0C93F018001D0F902046099101F0B6
:200AAC0027F82046394601F08DF8A36FE06F0090304639463A46FFF70DFFE06F4001802117
:200ACC00605020460F990D9632460E463B4601F044FB0146E06F421C384602F088F92046E1
:200AEC0031460E9A01F0CFFEE16F884203D92220E5E02320E3E0002830D00C9830180E9058
:200B0C0026468036A36F00910D980F993A46FFF70FFE2078801E0321089181400C310696A7
:200B2C00316020460D9E314600F004FB0146E06F421C304602F05BF9A36FE06F00900F9859
:200B4C0031463A46FFF7F4FD20460E992A4601F09AFEE16F884203D92720B0E02120AEE009
:200B6C00002829D0169805900E9D0C9828180790A36F0091384629460F9AFFF7D9FD02F0E8
:200B8C00C2F9A36FE06F0090079839462A46FFF7CFFDE06F3E4601C6A26FE36F304607993A
:200BAC00FFF720FF20462946059A01F06CFEE16F884203D9112082E0722080E000287DD055
:200BCC000396079E0C9AB018801880180490A36F00910C970D9F38460E9D29460F9AFFF770
:200BEC00A7FD02F090F9A36FE06F0090304639462A46FFF79DFDE16F38460C9F02C0A26F98
:200C0C00E36F02903146FFF7EDFE6069A169049AA262E76220636163204600F0FFFD992874
:200C2C004DD102F097F841180C310F9802F0DFF801F0E2FF41180C31284602F0D8F8204605
:200C4C00FFF71EFA99283AD12046079901F08AFE0D98E062109820630B98606302F07AF853
:200C6C0040180C300F9902F0C2F801F0C5FF40180C30294602F0BBF82046FFF701FA99280B
:200C8C001DD1022006990860002520462946079A00F03CFBA7630D98E063204600F0B0FE79
:200CAC00A06BE16F02F042F800280BD0E06BE16F02F03CF8002805D0E32000E01220C0B259
:200CCC0011B0F0BD099EA662E76FA168304601F063FF0246E0672046314600F009FF781CCB
:200CEC00B9000A9A51188E190C360399E26F531C984202D220C6401CF8E70D9D2A60A26FC9
:200D0C00E36F0298FFF76EFEE06F421C2846059901F0A0FF01465A200029D0D0C043CEE7EE
:200D2C00F0B58DB0069104467B4806687B4860627B482065274620370025022D0CD00020D2
:200D4C00294602F077F8C0B2394601F0D9FE6D1C2C370028F1D0FEE7204601F093FE002834
:200D6C0007D10025204629462A4601F013FD002838D058200121215407A8C17100200C9048
:200D8C000021204600F0BEFC66490968624A166888420ED1B04201D106460AE0624909680D
:200DAC00884206D00C99491C0C910C990129064614D100200A90099008900790206A41781B
:200DCC00069A11714068906014604C2528460C3005D0605901F01BFD2C3DF7E7FEE7304685
:200DEC000DB0F0BD204601F00FF80028C1D007A8857109950A9501210791FF2105910231E1
:200E0C0081800495284601F003F90746801E02280ED801252046294600F074FC4149096880
:200E2C00884205D040490968884200D005252F46F8B2224658325821675407A9CF71811E75
:200E4C00032907D2029201200CA901F059FE002810D0FEE70128049901D0052811D10C919F
:200E6C0001288DD0002107AA204601F093FC00289FD185E702200BA901F042FE002803D022
:200E8C00FEE705981070FEE7A06A0421049F0396002812D00590606A45580C980E46394677
:200EAC002A4601F019FB002806D1EF1908360598401E3146039EEBE7FEE70B990C9A002335
:200ECC000093019701F0D6FA002800D0FEE70B98216D4A68002101F0FFFA002800D0FEE772
:200EEC00216D606DC2000B985218083A136852680968591A01F0F0FA002800D0FEE70C9805
:200F0C0001F085FC0B9801F082FC02980078FF280499B8D0A3E7C046CC4500200000002002
:200F2C0000100020D4450020D0450020F0B5BFB004931646469C7A480068019001F0B0FEC4
:200F4C00002C05D04799012902DB204601F0B4FE4898029045980590449D307A717A09022F
:200F6C000818317B727B12025118B27BF37B1B029A18120451180818B17A0396F27A1202E2
:200F8C00511846180027BE4212D9F41B0598844200D3059C049839462A46234601F087FD1D
:200FAC00002808D12846214601F086FEE719EAE706A801F069FE01F01AF9BE4216D8029877
:200FCC00002803D006A9202201F0BEFF002700972EA8544B0399049A00F058FE002805D1BA
:200FEC00339C049801F0B8FF844203D94C4800683FB0F0BDFD434C48006805902C462646E9
:20100C002EA836A935AA34AB00F056FF0028EDD400D07BE034A80088222807D1002E2C46D2
:20102C00EDD4059886422C46E9DA57E001281AD010283446E3D135A800882028D6D1369976
:20104C000EAA2023049801F032FD0028CED106A80EA9202201F07CFF354909680127884212
:20106C003446CCD057E035A80388202BBED836990EAA049801F01BFD0028B7D135A801789C
:20108C0020292C46BBD800240291059884421FDAE60026488019039001F002FE234880592E
:2010AC0003994968096801F007FE37A801F0ECFD029A002A0ED00EA837A90B780678B34287
:2010CC0004D1401C491C521EF7D104E0641CDCE72C4600E0002401F08AF890E735A8038847
:2010EC00802B00D982E736990EAA049801F0DFFC002800D07AE735A80388F0B2009006A867
:20110C0020210EAA00F06EFA019077E7002F00D16CE701986CE7024800680190F9E7C0461B
:20112C00CC450020FFFF0000C4320000AC320000D4450020F0B589B003910546C06F08284B
:20114C0001D3052100E00421032800D203212A46803208920022012307951CB2A1420BD336
:20116C00089D2D68641E0126A640F41CA54200D31A465B1C079DF0E70146D0B2441E01272B
:20118C000591491C8A00A1408900039B5E1819460496B618B21806920290022808D3AB6F66
:2011AC000598009006980399039AFFF7C1FA03993846A04005900C4638B2059981420FDD56
:2011CC00AB6FE96F88000019001D00912146069AFFF7AEFAE86F80000019041D7F1CEBE71F
:2011EC00A86F8068411E4C424C41801E089908602846069F394601F0A3FE012001B2EA6F72
:20120C008A4211D9AA6F89008A189268E3B2012B07D10023002A02D0521E1C4601E001243E
:20122C00DA437A50401CE9E7521C0498039901F0DEFDA96FE86F820051184A680021002AC6
:20124C0002D05208491CFAE740014318223B0498044618B200284FD49AB250098000385867
:20126C001F211940C840C0071F4638D005970898029901602846069901F0C8F804900025DE
:20128C002746E8B20899096881420CD90798836FC06F0090304639463A46FFF749FA6D1CFA
:2012AC0034463E46ECE70498401E81B2C90B4018400880B2079DAB6FE96F4A1C42439000ED
:2012CC00039A1218009130463946FFF731FA08980088059B1B1A30463E46069FB8E7AB6F3F
:2012EC00E86F0090304621462246FFF721FA7B1E30462646069FABE7E86F421C039D284630
:20130C00214601F074FD284609B0F0BDFEB515460446C26F571C8023C358022B08D0012B39
:20132C000AD0002B15D1656CA06C0190E06C0EE0B8002B18019309E07D43636DA66DE06DA6
:20134C000290A8001D1833180193029B1818029002E00025019502957943E06D8F00C1192E
:20136C00E06EA36F0092514E0A46B047206EE26EA36FE16F00912946B04701F03FFD01998B
:20138C00B0473546606EE26E216FA36FE66F0096A8472E46E06EA36FE16F0091029D294672
:2013AC002A46B047E26E206F616DC919A36FE66F00963E4EB047606DA16DC019C919A36F03
:2013CC00E26F00922A46B047616DA06DC019C919E26EA36FE66F0096344EB047606DC019B5
:2013EC00216F226EA36FE66F0096314EB04701F005FD29462D4EB047E06DC019616DC919A4
:20140C00226F01F07CFD206FA16DC919626EA36FE56F0095264DA847606DC119E06E01F033
:20142C0055FDA06E216F01F051FDA06DC019216EE26E01F064FD206EE16E626DD21901F0D2
:20144C005EFDA06E226EA36FE16F00910146184EB047E06EA16DC919A36FE26F00920A466D
:20146C00FFF738FA606DC019A16EE26E01F047FDA06E626DA16DC919D21901F040FD216F88
:20148C002546743529CDA26E0095084EB047E06E226E616E01F033FDA06DC019254674357C
:2014AC002ACDE26E0095024CA047FEBD3D07000069090000F8B515460E460446806AA06707
:2014CC00616801F069FB0246E067A16F204600F00FFBA06FE26FD100091808319000001DAB
:2014EC000A1813181818274660370EC7E0663B4F20463246B847616E20462A46B847A16E2A
:20150C0062682046B847304601F038FDE16FE426884260D1284601F031FD0146E06F8142B9
:20152C0059D1206E01F002FC002807D0606EE16F01F0FCFB002801D0E3264CE0A36EE16E65
:20154C00226E204600F054FEE126012843D1E16EE06F8000085800283DD1626EA36E204608
:20156C0000F046FEE226012835D1E06EE56FA900405800282FD1A06E216EE269A36F00955A
:20158C00174DA847206E01F077FCE06E216E226A01F0BDFC206EA26EE16EA36FE66F0096FD
:2015AC00A847E06E216E626A01F0B1FC616EA06EE269A36FE66F0096A847606E01F05CFCBE
:2015CC00606EE16EE26F01F045FB002801D11A2000E01920C643F0B2F8BDC04693280000F2
:2015EC003D070000F0B597B01F46164601901C983F490D68C0003F490A1808580290516897
:20160C000968441800F057FC02A816AA3023214601F08AFA002804D000F079F9284617B082
:20162C00F0BD02981699441802A806AA03AB214600F06BFE0028EFD107980728ECD1089871
:20164C002D49072201F050FB0028E5D104980828E2D105982949082201F046FB0028DBD107
:20166C0002A816AA214601F0B1F90028D4D116994129D1D102984118A142CDD10178042950
:20168C00CAD1441C0294F519039603A816AA3023294601F049FA002813D1039816994018F7
:2016AC00A8420ED806A803A92A4600F09BFF002807D106A8203003A92A4600F093FF002836
:2016CC0008D00F4802680A4801680D469542A3D00D46A1E706AA2046019900F02FFF084913
:2016EC000A680349096800281546EED1EEE7C046CC450020AC320000B4320000A0320000CB
:20170C00D4450020F0B587B00C4605463E4806680027384601F08EFBC0B206A901F0F0F9FD
:20172C0000286DD12846214600F084FF0126002863D02C2060432918087CC0065DD40E466E
:20174C00002C1DD02846403001782A7D914217D80ED341786A7D914212D809D38178C07859
:20176C0000024018A97DEA7D12025118884207D20021284600F05EFF002801D0069836E0CD
:20178C00069B049703970297012000020190204800903846394635463246FFF7C7FB06462E
:2017AC00069829786A7812025118AA78EB781B029A1812045118174A914216D1297B6A7B08
:2017CC0012025118AA7BEB7B1B029A18120451182A7A6B7A1B029A18511806D28268914251
:2017EC0003D20D4909688E4207D0002C03D08268002100F071FE05480668069801F007F8E8
:20180C00304607B0F0BDC046CC450020D0450020002400203DB8F396D4450020F0B587B09F
:20182C000446806AA067616801F0B6F9E067002804D00246FF2803D9D22066E0082064E0C6
:20184C00A16F087AC00701D1DC205EE090000B185B68002B58D0D3005B18083304931D1801
:20186C000835561CB0002B1803931B180693069B1B1802931F1805972778BF1EBE40B600EC
:20188C00059B9F19BB190193049B23646564039BA364069BE364029B2365059B6365A76567
:2018AC00019BE3659B1906931D182E1837183B1818180590069820666566A666E766236737
:2018CC0005986067204600F013F9E16C204600F079F9206EE16CA36FE26F00920A46FEF70C
:2018EC00F9FFE06F400180216050226E656EA16E20462B4600F031FC0146E06F421C28463B
:20190C0001F075FA992000E0302007B0F0BD7047F0B5FFB0FFB0D3B005460920C44331A87D
:20192C00032101802C4932912C4933912C4934912C4935912C4936912C4937912C49389159
:20194C002C4939912C493A9153A93B912C305C2101F098FA2E687068412837D130680078E9
:20196C00042833D1082028901F9016900D900490686816A9091D214FB847A8680DA9091DB5
:20198C00B847E86804A9091DB8473068401C28AD291DB847306821301FAE311DB84731A830
:2019AC0029463246FFF786FDE6280ED104A801900DA8009031A828A91FAA16ABFFF740F8EA
:2019CC000024A52802D0E44300E0093420467FB07FB053B0F0BDC046C4310000A0310000B4
:2019EC00A4300000EC30000034310000583100007C310000C830000010310000092A0000E4
:201A0C00F0B585B00446016C0B1D08460491E16F4A1C91005F180397D1005918029180254C
:201A2C006251616D304EB047A16D62593846B047E16D6259029F3846B0472078801E0321ED
:201A4C008140C81D6051204639463E46FFF772FB606EA36FE16F0091244F31463246B84735
:201A6C00206E626E01F037FA226EA36FE06F00903046039D2946B847626EA36FE06F009014
:201A8C0028460499B847A06F616801F085F8A16FE26F204600F02CF8216F0122204601F005
:201AAC003AF9A06E226FA36FE16F00912946B847A16EA26FE36F2846FEF794FFA16B20460D
:201ACC002A4601F0D4F8E06E226F01F004FAE16EA26FE36F3046FEF785FFE16B2046324634
:201AEC0001F0C5F805B0F0BDFB2D00003D070000F0B585B00092049003918E68C868002480
:201B0C00B51C074603460190674128463946324601F01EF801F0BCF905460F460296324657
:201B2C00019B01F015F801F0B3F905460F463246019E334601F00CF801F0AAF901F0BCF903
:201B4C0001F0A6F901F0B8F9801C61412A463B46009F00F0FDFF039B03C3B800083BC11855
:201B6C004968CA0F049D6A70002911D419460831002202243B46002B1ED00D68ED43EE0F2A
:201B8C006D002C1956410C505B1E091D3446F2E71946083101233A462546002A0CD00E687F
:201BAC00F643F6180E501D436B1E9D41734273412B40521E091DEFE7049803998167C7671F
:201BCC0005B0F0BDFEB50D4604460220009002900298E16F891C884202D201F0C4F8F6E74C
:201BEC0001222046294601F096F8A36F0833204629462A4600F0ACFD01F0D9F802D001F0B2
:201C0C0027F901462046803001908020215001F08BF901F023F9E06F800000262E5002960C
:201C2C002F1F0299E06FC20E12075242914221D281007918012807DB4A68401E4B88120407
:201C4C00D2184A60091FF5E728680004286001F0AEF802D001F0FCF801460198016001F044
:201C6C0063F901F0FBF8E06F80002E500298401C0290D6E7009902910299801C814204D28A
:201C8C0001F071F80290E06FF6E7FEBDF0B585B00024E743002820D00E4600291DD0002A91
:201CAC001BD005460193307A717A090208180390317B1046727B12025118B27BF37B1B02D7
:201CCC009A1812045118039A891804AA04230390029100F0ECFE002802D0384605B0F0BDDA
:201CEC001A4904A800884A1CB17AF37A1B02591890420FD104A840888142EED1029841181A
:201D0C0004AA0423039800F0D2FE0028E5D104A8008801E00029E0D10C498842DDD10A984B
:201D2C002E600399696001992981A872B07AF17A09020818029A1018E86004A949884018A4
:201D4C006861101D28612746C7E7C04607690000F0B585B00D4604468168103901AA1023E0
:201D6C0000F0A5FE002808D401A91022204600F05CFE002803D0032011E001263FE00020BF
:201D8C00204901AA125C0B5C9A4203D1401C1028F7D113469A4201D0022000E00120287081
:201DAC00A16828390727B9436A4601262046334600F07DFE002822D4694608780F220240A2
:201DCC006A700009287101262046324600F02DFE002802D16878052803D301206870002064
:201DEC002871A91CA268203ABA43204600F067FD002804D1E91C204600F0E1FF0646304664
:201E0C0005B0F0BD6C320000F0B586B001246302826A00219A424BD8456D9D4248D80295FD
:201E2C0000210F460D4604910B46EE00361D0391954210D30593034611462246029C2846AC
:201E4C003D46049FA7422F46054614460A4603991846059B23D28F4209D00ED2022B26D0C1
:201E6C00436A9B59DF196D1C08362346E0E70593476ABE5977186D1C03E0012B17D0022333
:201E8C000593049B5E1C0196066D0096DE00009B9E1976687118019B0493059BC5E76A4025
:201EAC000298049B434013435942594100E00021084606B0F0BD7047F0B585B00026F7432C
:201ECC00002836D004460068002832D0606800282FD0019302910392216960690125814205
:201EEC0028D22068827AC07A0002801804D0E068814201D1091D2161606804AA042300F09E
:201F0C00D6FD002815D1A07A002803D0E068216981420FD22089124988420ED004A909885F
:201F2C0081420AD004A8408821694018011D2161D3E73D46284605B0F0BD0199002901D061
:201F4C00049808802069001D0299086004A840880399088021694018001D20613546E9E745
:201F6C00FFFF0000F8B503465F20C0431D684E1B012E0BDB00242F57002F08D46F1C1F601D
:201F8C002E781660C91B8E4200D82046F8BD00947F2427407F1E032F2DD8BC0001A73C5907
:201FAC00A746C046C11F000007200000CD1F0000E51F0000022EE9D36E781660AF1C24E014
:201FCC00042EE3D36C782404AE7836023419EE78A61916602F1D18E0052ED7D36C7824068C
:201FEC00AE7836043419EE783602A4192E79A61916606F1D09E0001FF8BD032EC6D36C78FA
:20200C002402AE78A6191660EF1C1F60009CB9E7F0B587B0012405A9204600F05DFDFF25EA
:20202C00002843D1022003A900F056FD00283DD105AA107803AB1978D5780195DB780093D2
:20204C009278029200261B4F122E28D0BB5D042B06D0052B02D1012802D11EE083421CD142
:20206C00BB195A78042A06D0052A02D1012902D113E08A4211D19A78042A02D0019DAA426E
:20208C000BD1DA78042A02D0009DAA4205D11A79042A06D0029DAA4203D0B61DD4E72546B9
:2020AC0004E05D79A81E032800D3FF25284607B0F0BDC04648320000F0B58B4200D1824219
:2020CC0004D90B0002000021002040E0002B00D1002A0CD10B00020000210020002B00D15C
:2020EC00002A01D0C943C04300F053F92FE01C0015000B0002000CB4002126002F00FF19F3
:20210C00764102D2491C4029F9D100201E001700FF19764102D2401C4028F9D10E1A2100C1
:20212C002800320000F078FD0C0005000CBC00200021A34200D1AA4201D3521BA341404172
:20214C0049416D08E7073D436408761EF1D5059F002F01D03A607B60F0BDF0B587B01E463A
:20216C000F460446836FC06F0090084611460292FEF7DEFA80200594205804900021012076
:20218C000390C5070A46002D2ED0002A06920DD00598836FC06F009030460C4639463A46A5
:2021AC00FEF7C6FA214630463E4607462C4604980440002911D0002C11D00598836FC06F89
:2021CC000090304606913946029AFEF7B1FA06993846039A3746064603E0069A01E0002490
:2021EC00039A21436D08CEE7384607B0F0BD7047F0B585B0029000921568280C01931E6846
:20220C00F7433F0C1D4CB443ADB22C19641C250C3E1876193504A4B22C190C60012297B2E7
:20222C000298C46F651CBD421CD9300C0390BF000098C5592E0C0198C459E3431B0C084681
:20224C0004920E4AA243A9B2039C091989180A0C9B199E18320489B252180146C251049A8F
:20226C00521CDCE7A0000A58521C01D0002003E0081800210160012005B0F0BDFFFF0000BA
:20228C00F0B588B007930692802202908058020C019280B2009000231F461A460298C06F03
:2022AC0082422CD2069820C80690280C05910799049204C90791110C0391ADB2009C2146BC
:2022CC006943BFB2C91992B28E18320C274647439CB23C19A218140C01994D43039BEB188C
:2022EC0092B29A18130C48432018C7183B0C10040599B2B28018049A01C1521CCEE7B8B239
:20230C001A041018086008B0F0BDFEB51C4617460E46054602AA302300F006FC002800D0A4
:20232C00FEBD6520C2432868311A012929DB019201783A4602C202994618062328463146EC
:20234C0000F0F2FB0028EBD12868B8607868296808182860B04216D00178224602C2401C16
:20236C00286028463146FFF7FDFD0028D8D12868A0606068296808182860B04207D0019830
:20238C00FEBD901DFEBD0C21204600F0A1FC0020FEBD7047F0B5441C00780023082B30D089
:2023AC002578C6070FD166782D0137097F190F253540ED1C122D0BD102256657F5B2002E5D
:2023CC0008D4E61C0CE0641C4E1C0D70314615E0A61C06E0261DE4787F221540E2015519C6
:2023EC001235094A97420ED0FC43002D05D00A5D4F1C0A706D1E3946F7E7344640085B1CD2
:20240C00CCE72046C7E7F0BDFF0F0000FCB50123DD438023C4588030944205D90B68541C33
:20242C009540AB4304601BE0521C161B73091F2701973E40DBB29B000093CB58F3406F1C5B
:20244C003D46A540AB433519212D09D3009D69184968019D2A409740B943A21A9140CB1888
:20246C00611EDA0703D15B080160491EF9E7D8B2FCBDFEE7F0B587B0059303920491002625
:20248C000D990C9802900196124F8E421CD20D468C1B012006908002844200D304460598EB
:2024AC00311804983A46234600F001FB00280DD10298311803983A46234600F005F9A6193C
:2024CC0000282946E1D001E001980690069807B0F0BDC04600200020FEB5436884685D1891
:2024EC00AF18E1188F4200D9FEE70022D14340787F2818D1680500D0FEE7029201910C4E61
:20250C00BD420FD23468002030600A4802680A48294690473460054949194D1C0006EFD0BD
:20252C00019900E002990846FEBDC046FF070000244402405800000F8FA0E3B7F0B599B09D
:20254C0014460191074602AE04203070701C202539462A4600F0F8FC304621302037394681
:20256C002A4600F0F1FC17AD41222846314600F003FD13950198149015942034169413A8BF
:20258C00FFF7C6F9002801D00020C04319B0F0BDF0B503460026F043104D371D102F1BD0C6
:2025AC00AC5926789E423E46F7D163787F2B13D10B48A3681B18DB0A0D689D4200D2FEE756
:2025CC0064681D46002D05D0461C50C2A4196D1E0032F7E70B600020F0BDC0465C32000026
:2025EC00FF0700007CB513460C46064601AA0225084619462B4600F097FA002801D0E8430C
:20260C007CBD019D202D05D32068411920392022304608E02020411B304600F033FC701B1B
:20262C00203021682A4600F08FFC20684019206000207CBDF8B50E4605460024204600F04A
:20264C00F9FBC0B2694600F05BFA002801D0E043F8BD009800F0E7FB0746009800F0D7F835
:20266C002C20704328182146042C03D0425C4C1CBA42F8D00020042900D2C043F8BDF0B55F
:20268C0013681C0C80254559AEB29BB2F618330C2D0C2C19E3181C04B5B264190C60012440
:2026AC001B0CE5B2C66FAE420CD9AD005659370CB6B2F618330CDB191F04B6B2BE194E51FD
:2026CC00641CEDE71846F0BDF8B5456886686C18E1187519A94200D9FEE7407800257F280F
:2026EC000CD107480768056006480668064811462246B04702490F60002800D0E843F8BD7C
:20270C00244402406000000F8FA0E3B7F8B501A800F052FA002818D1019801784278120248
:20272C0051188278C3781B029A1812045118074A91420AD10399027A407A00028018081816
:20274C0000F0D8FB002004B080BDFEE73DB8F396FEB500AC0EC400242146A6B2C76FB742F3
:20276C0016D9B600019A97593D0C029A93591A0C9BB2BFB289B27918CB18190C52195218BF
:20278C00110C12049BB2D218009B9A51641CE4E788B2FEBDFEB5164602910446002507469F
:2027AC000195022D0AD0204629463A46334600F0F3F8002804D16D1C2C37F2E70198FEBDAF
:2027CC00029A002A014600D11146002D00D00846FEBD70B50023DC4355091F231340EAB2BC
:2027EC0092008958D940802545592646AE40B143ED18212D09D3006C10184068203DAC40FC
:20280C00A0432022D21A90404118C8B270BD704770B50A480A4C84420CD00A4D0A4EB542FF
:20282C0008D02A686968501C12789200A25890470835F4E700BF00BF70BDC046F432000009
:20284C00E8320000FC3200000C330000FCB4020C0B0CFF242402FF34204021400C00444340
:20286C0015005D4306005E430F005743320C3B0CA818C01832043B040025A1186841C9184D
:20288C006841FCBC704770B508CAC46F641CA34200D323460C461D46002D03D040CA40C486
:2028AC006D1EF9E79A0089181A46C46F641CA24203D2002410C1521CF7E7184670BD70B5A9
:2028CC000C460546012611462246334600F0EFF800280ED401222846214600F0A6F8002861
:2028EC0001D0032003E02078012800D0022020700026304670BDF0B5136880240459E443A1
:20290C00DD430023651B1C465C410D600125EEB2C76FB74209D9B6009759E7191C465C4100
:20292C007F1E5C418F516D1CF1E7E043F0BDBCB50D460446012040020190012901D05020D3
:20294C0000E02420225801A92846FFF721FE002800D0BCBD012D01D0542100E02821019AF7
:20296C006250BCBDF8B50D460446C06F421C8027E251616D074E2846B047E25990002D18D7
:20298C00A16D2846B047E25990002818E16DB047F8BDC046FB2D0000BCB51446002000F0AA
:2029AC0049FAC0B201A900F0ABF80546002809D1019800212023224600F079F80546019822
:2029CC00FFF725FF681E85412846BCBDB0B515460446032300F0A8F8002800D0B0BD6720F2
:2029EC00C04329680029F9D0491E296021680A78002AF3D1481C20600020B0BD70B51F3077
:202A0C000022202A10D0C31E841E2478451E2D7806781B781B062404E3182C021B199B19CC
:202A2C008B50121D001FECE770BDB0B50D4601460020002D0FD01446002A0CD0084600F098
:202A4C00F2F9014660426041002C04D02A78641E6D1C8A42F6D0B0BD06484178032900D83E
:202A6C0080300078FD2804D30348044901600449416070472F03004E18110040E3887F09AC
:202A8C00E3387F49B0B5044601252946FFF74FFF00280AD102212046FFF749FF002804D1F8
:202AAC00206A00F069F9E06500252846B0BD70B5446885686118CE182C19A64200D9FEE7E1
:202ACC00407800247F2804D110461A4600F03CFA00E0E443204670BD1CB50C46C0B201A9DD
:202AEC0000F00EF8002801D0012407E001982146FFF72EF904460198FFF789FE20461CBD13
:202B0C0070B50022074B1446251D102D07D01E59347884422C46F7D10E60002070BDD0436F
:202B2C0070BDC0465C32000070B504466120C04325684E1B012E08DB2E789E4204D1681CEE
:202B4C0020602046FFF70EFA70BD801C70BDFEE730B514004C4325001C00444364190500D8
:202B6C0010002900FFF772FE001904000D002100280030BD074880F3088800BF00BF00F08A
:202B8C00FFF9002801D0FFF743FE00F055F8012000F0F8F900900020B0B504C9002303605A
:202BAC004360531C083001249C4203D220C9641C20C0F9E71046B0BDB0B504460548051DDD
:202BCC006021284600F05EF928462146FEF7A8F8B0BDC0466845002010B5002A0AD00378C5
:202BEC000C78A34204D1491C401C521EF7D11C46181B10BD002010BDA06AE16FCA001018F7
:202C0C008A0080182278921E089B93405B1D4A1C534399007047FEE718B520239B1A04D87C
:202C2C00010000205B42994004E004009140DC402143904018BD000080B50020044A002A46
:202C4C00014601D001CA1146FFF760FD80BDC046D0320000B0B50023002A05D010C820C94E
:202C6C0065402B43521EF7E758425841B0BD10B5C36F08C10024C36F9C4203D208CA641C2C
:202C8C0008C1F8E7184610BD80B50146024802680248904780BDC0468000000F00250020ED
:202CAC0080B50348026803480021904780BDC0467800000F0025002080B50A4601460248B6
:202CCC0003680248984780BD7C00000F0025002080B5002904D00A4602490B680021984707
:202CEC0080BDC046C832000010B503780C78A34204D1491C401C521EF7D11C46181B10BDB2
:202D0C0010B504C91346002B03D010C910C05B1EF9E7104610BD04C10122C36F5B1C9A422C
:202D2C0003D2002308C1521CF7E770470022002903D008C81A43491EF9E750425041704757
:202D4C0040B584B002AE0096FFF7B6F9029A039B04B040BDA06AE16FCA0010188A008018FA
:202D6C004A1CD1007047A06F029989004258D24342500298401C704740787F2802D00020E7
:202D8C00C04370470120C002704710B500239A4203D0CC5CC4545B1CF9E710BD80B50B4652
:202DAC0003214258C11D184600F0CEF880BDA26FE06F8000295882185268002A704780B54F
:202DCC008268183A07239A43FFF779FD80BDEFF3108072B6FFF740FEFFF7CCFEFEE780B553
:202DEC000A4603214158104600F04CF880BD002A03D008C908C0521EF9E77047206FE16D79
:202E0C00CA19A36FE16F0091704738463268910078186D1C27787047002903D0002204C01F
:202E2C00491EF9E7704740787F38022801D2FF207047FEE7032902D30020C0437047481C22
:202E4C00704700239A4202D0C1545B1CFAE770474019001F00685242002371E7A26F083280
:202E6C00204629462B46FFE782B00094014C019410BD00BF8D220000A16EA36FE26F009233
:202E8C000A4628470A46002180B5FFF7DAFF80BD801C61412A463B465AE6E16CA36FE66F92
:202EAC0000962847A36FE26F00920A4670479259A36FE76F0097704705460F46029A3346AF
:202ECC0046E6E16E0690079108907047A36FE26F00920A463047A36FE16F00913146384749
:202EEC009259A36FE56F0095704780682838072188437047016881F3088841688F46A36F3A
:202F0C00E56F0095304701222046294603E7A36FE66F009600E0000082B00094014C0194DE
:202F2C0010BD00BFE1080000204629462A46FFE782B00094014C019410BD00BF8B26000000
:202F4C00802280580860704780B5FFF71EFF80BD80B5FFF741FE80BD80B5FFF7C6FF80BD73
:202F6C00A36F009500E0000082B00094014C019410BD00BF3D07000006C0704700687047AA
:082F8C000120704700BFFEE7C1
:202F94000001020304000102030400010203040001020304000102030400010203040001E0
:202FB4000203040001020304000102030400010203040001020304000102030401010101BE
:202FD40001020202020203030303030404040404000001020300000102030000010203009D
:202FF4000001020300010203040001020304000102030400010203043059301306072A8606
:2030140048CE3D020106082A8648CE3D030107034200042ACB403CE8FEED5BA44995A1A976
:203034001DAEE8DBBE1937CD14FB2F245737E5953988D994B9D65AEBD7CDD5308AD6FE4858
:20305400B24A6A810EE5F07D8B6834CC3A6AFC538EFAC100000000000101010101020202DB
:203074000202020202020203030303030303030303040504040404050404040405040404D1
:203094000405040404000000000001010101010008000000FCFFFFFFFFFFFFFFFFFFFFFF09
:2030B40000000000000000000000000001000000FFFFFFFFFCFFFFFFFFFFFFFFFFFFFFFF0E
:2030D40003000000000000000000000004000000FCFFFFFF00000000080000004B60D22730
:2030F4003E3CCE3BF6B053CCB0061D65BC86987655BDEBB3E7933AAAD835C65ADFBDC42928
:2031140062DF9CD890308478CD05F0ACD62E21F7AB20A2E5344887041D0630DC0000000018
:203134000800000096C298D84539A1F4A033EB2D817D0377F240A463E5E6BCF847422CE1E7
:20315400F2D1176B08000000F551BF376840B6CBCE5E316B5733CE2B169E0F7C4AEBE78E75
:203174009B7F1AFEE242E34F0300000000000000FFFFFFFFFBFFFFFFFEFFFFFFFFFFFFFFC5
:20319400FDFFFFFF040000000000000008000000512563FCC2CAB9F3849E17A7ADFAE6BCDF
:2031B400FFFFFFFFFFFFFFFF00000000FFFFFFFF08000000FFFFFFFFFFFFFFFFFFFFFFFF0B
:2031D40000000000000000000000000001000000FFFFFFFF000100010001000100010001D8
:2031F4000000010100010001000100010101010100000000000000000000000000000000B1
:20321400020304050000000000010100000000000000000000000000000000000001000188
:2032340000000101000100010001000100010001000100010401040304020401040104034D
:2032540001030304010400007C32000088320000943200000000000077C295F360D2EF7FBB
:203274003552500F2CB67980007F00000000000000400000017F00000040000000D803001F
:20329400027F00000018040000D803002A8648CE3D030107000000000C300000CC3200005A
:1C32B4002A8648CE3D0201000303010203030000010000004F2E00005B00000010
:0832D0000000000000000000F6
:2032D800001500000F51FF0000010684FFF00000A1230000A92D0000EB2D00000200000034
:1432F80068250000D832000068450020F43200000000002018
:020000044E02AA
:20000000FFFFFFFF000000000000000000000000FFFFFFFFFFFFFFFFAAAAAAAA0000000044
:20002000FFFFFFFFFFFFFFFF00000000FFFFFFFF00000000000000F00000000000000000DC
:200040000000000000000000000000000000000000000000000000000000000000000000A0
:20006000000000000000000000000000000000000000000000000000000000000000000080
:20008000000000000000000000000000000000000000000000000000000000000000000060
:2000A000000000000000000000000000000000000000000000000000000000000000000040
:2007C000000000000000000000000000000000005AA500000101020305080D156DD7E43686
:2007E000EBF431DF95AE15EE03BA8EE4C4C63FD8453F675E74D7C2012C9058E500000000A4
:00000001FF
